{
  "contractName": "HerbalPlant",
  "abi": [
    {
      "anonymous": false,
      "inputs": [
        {
          "indexed": false,
          "internalType": "uint256",
          "name": "plantId",
          "type": "uint256"
        },
        {
          "indexed": false,
          "internalType": "string",
          "name": "name",
          "type": "string"
        },
        {
          "indexed": false,
          "internalType": "address",
          "name": "owner",
          "type": "address"
        }
      ],
      "name": "PlantAdded",
      "type": "event"
    },
    {
      "anonymous": false,
      "inputs": [
        {
          "indexed": false,
          "internalType": "uint256",
          "name": "plantId",
          "type": "uint256"
        },
        {
          "indexed": false,
          "internalType": "address",
          "name": "user",
          "type": "address"
        },
        {
          "indexed": false,
          "internalType": "string",
          "name": "comment",
          "type": "string"
        }
      ],
      "name": "PlantCommented",
      "type": "event"
    },
    {
      "anonymous": false,
      "inputs": [
        {
          "indexed": false,
          "internalType": "uint256",
          "name": "plantId",
          "type": "uint256"
        },
        {
          "indexed": false,
          "internalType": "address",
          "name": "user",
          "type": "address"
        }
      ],
      "name": "PlantLiked",
      "type": "event"
    },
    {
      "anonymous": false,
      "inputs": [
        {
          "indexed": false,
          "internalType": "uint256",
          "name": "plantId",
          "type": "uint256"
        },
        {
          "indexed": false,
          "internalType": "address",
          "name": "user",
          "type": "address"
        },
        {
          "indexed": false,
          "internalType": "uint256",
          "name": "rating",
          "type": "uint256"
        }
      ],
      "name": "PlantRated",
      "type": "event"
    },
    {
      "anonymous": false,
      "inputs": [
        {
          "indexed": true,
          "internalType": "address",
          "name": "publicKey",
          "type": "address"
        }
      ],
      "name": "UserLoggedIn",
      "type": "event"
    },
    {
      "anonymous": false,
      "inputs": [
        {
          "indexed": true,
          "internalType": "address",
          "name": "publicKey",
          "type": "address"
        }
      ],
      "name": "UserLoggedOut",
      "type": "event"
    },
    {
      "anonymous": false,
      "inputs": [
        {
          "indexed": true,
          "internalType": "address",
          "name": "publicKey",
          "type": "address"
        },
        {
          "indexed": false,
          "internalType": "string",
          "name": "fullName",
          "type": "string"
        }
      ],
      "name": "UserRegistered",
      "type": "event"
    },
    {
      "inputs": [
        {
          "internalType": "uint256",
          "name": "",
          "type": "uint256"
        },
        {
          "internalType": "uint256",
          "name": "",
          "type": "uint256"
        }
      ],
      "name": "plantComments",
      "outputs": [
        {
          "internalType": "address",
          "name": "user",
          "type": "address"
        },
        {
          "internalType": "string",
          "name": "comment",
          "type": "string"
        },
        {
          "internalType": "uint256",
          "name": "timestamp",
          "type": "uint256"
        }
      ],
      "stateMutability": "view",
      "type": "function",
      "constant": true
    },
    {
      "inputs": [],
      "name": "plantCount",
      "outputs": [
        {
          "internalType": "uint256",
          "name": "",
          "type": "uint256"
        }
      ],
      "stateMutability": "view",
      "type": "function",
      "constant": true
    },
    {
      "inputs": [
        {
          "internalType": "uint256",
          "name": "",
          "type": "uint256"
        },
        {
          "internalType": "address",
          "name": "",
          "type": "address"
        }
      ],
      "name": "plantLikes",
      "outputs": [
        {
          "internalType": "bool",
          "name": "",
          "type": "bool"
        }
      ],
      "stateMutability": "view",
      "type": "function",
      "constant": true
    },
    {
      "inputs": [
        {
          "internalType": "uint256",
          "name": "",
          "type": "uint256"
        },
        {
          "internalType": "uint256",
          "name": "",
          "type": "uint256"
        }
      ],
      "name": "plantRatingUsers",
      "outputs": [
        {
          "internalType": "address",
          "name": "",
          "type": "address"
        }
      ],
      "stateMutability": "view",
      "type": "function",
      "constant": true
    },
    {
      "inputs": [
        {
          "internalType": "uint256",
          "name": "",
          "type": "uint256"
        },
        {
          "internalType": "address",
          "name": "",
          "type": "address"
        }
      ],
      "name": "plantRatings",
      "outputs": [
        {
          "internalType": "uint256",
          "name": "",
          "type": "uint256"
        }
      ],
      "stateMutability": "view",
      "type": "function",
      "constant": true
    },
    {
      "inputs": [
        {
          "internalType": "uint256",
          "name": "",
          "type": "uint256"
        }
      ],
      "name": "plants",
      "outputs": [
        {
          "internalType": "string",
          "name": "name",
          "type": "string"
        },
        {
          "internalType": "string",
          "name": "namaLatin",
          "type": "string"
        },
        {
          "internalType": "string",
          "name": "komposisi",
          "type": "string"
        },
        {
          "internalType": "string",
          "name": "kegunaan",
          "type": "string"
        },
        {
          "internalType": "string",
          "name": "caraPengolahan",
          "type": "string"
        },
        {
          "internalType": "string",
          "name": "ipfsHash",
          "type": "string"
        },
        {
          "internalType": "uint256",
          "name": "ratingTotal",
          "type": "uint256"
        },
        {
          "internalType": "uint256",
          "name": "ratingCount",
          "type": "uint256"
        },
        {
          "internalType": "uint256",
          "name": "likeCount",
          "type": "uint256"
        },
        {
          "internalType": "address",
          "name": "owner",
          "type": "address"
        }
      ],
      "stateMutability": "view",
      "type": "function",
      "constant": true
    },
    {
      "inputs": [
        {
          "internalType": "string",
          "name": "fullName",
          "type": "string"
        },
        {
          "internalType": "string",
          "name": "hashPass",
          "type": "string"
        }
      ],
      "name": "registerUser",
      "outputs": [],
      "stateMutability": "nonpayable",
      "type": "function"
    },
    {
      "inputs": [],
      "name": "login",
      "outputs": [],
      "stateMutability": "nonpayable",
      "type": "function"
    },
    {
      "inputs": [
        {
          "internalType": "address",
          "name": "userAddress",
          "type": "address"
        }
      ],
      "name": "getUserInfo",
      "outputs": [
        {
          "internalType": "string",
          "name": "fullName",
          "type": "string"
        },
        {
          "internalType": "string",
          "name": "hashPass",
          "type": "string"
        },
        {
          "internalType": "bool",
          "name": "isRegistered",
          "type": "bool"
        },
        {
          "internalType": "bool",
          "name": "isLoggedIn",
          "type": "bool"
        }
      ],
      "stateMutability": "view",
      "type": "function",
      "constant": true
    },
    {
      "inputs": [],
      "name": "logout",
      "outputs": [],
      "stateMutability": "nonpayable",
      "type": "function"
    },
    {
      "inputs": [
        {
          "internalType": "string",
          "name": "name",
          "type": "string"
        },
        {
          "internalType": "string",
          "name": "namaLatin",
          "type": "string"
        },
        {
          "internalType": "string",
          "name": "komposisi",
          "type": "string"
        },
        {
          "internalType": "string",
          "name": "kegunaan",
          "type": "string"
        },
        {
          "internalType": "string",
          "name": "caraPengolahan",
          "type": "string"
        },
        {
          "internalType": "string",
          "name": "ipfsHash",
          "type": "string"
        }
      ],
      "name": "addPlant",
      "outputs": [],
      "stateMutability": "nonpayable",
      "type": "function"
    },
    {
      "inputs": [
        {
          "internalType": "uint256",
          "name": "plantId",
          "type": "uint256"
        },
        {
          "internalType": "uint256",
          "name": "rating",
          "type": "uint256"
        }
      ],
      "name": "ratePlant",
      "outputs": [],
      "stateMutability": "nonpayable",
      "type": "function"
    },
    {
      "inputs": [
        {
          "internalType": "uint256",
          "name": "plantId",
          "type": "uint256"
        }
      ],
      "name": "getAverageRating",
      "outputs": [
        {
          "internalType": "uint256",
          "name": "",
          "type": "uint256"
        }
      ],
      "stateMutability": "view",
      "type": "function",
      "constant": true
    },
    {
      "inputs": [
        {
          "internalType": "uint256",
          "name": "plantId",
          "type": "uint256"
        }
      ],
      "name": "getPlantRatings",
      "outputs": [
        {
          "internalType": "uint256[]",
          "name": "",
          "type": "uint256[]"
        }
      ],
      "stateMutability": "view",
      "type": "function",
      "constant": true
    },
    {
      "inputs": [
        {
          "internalType": "uint256",
          "name": "plantId",
          "type": "uint256"
        }
      ],
      "name": "likePlant",
      "outputs": [],
      "stateMutability": "nonpayable",
      "type": "function"
    },
    {
      "inputs": [
        {
          "internalType": "uint256",
          "name": "plantId",
          "type": "uint256"
        },
        {
          "internalType": "address",
          "name": "user",
          "type": "address"
        }
      ],
      "name": "isPlantLikedByUser",
      "outputs": [
        {
          "internalType": "bool",
          "name": "",
          "type": "bool"
        }
      ],
      "stateMutability": "view",
      "type": "function",
      "constant": true
    },
    {
      "inputs": [
        {
          "internalType": "uint256",
          "name": "plantId",
          "type": "uint256"
        },
        {
          "internalType": "string",
          "name": "comment",
          "type": "string"
        }
      ],
      "name": "commentPlant",
      "outputs": [],
      "stateMutability": "nonpayable",
      "type": "function"
    },
    {
      "inputs": [
        {
          "internalType": "uint256",
          "name": "plantId",
          "type": "uint256"
        }
      ],
      "name": "getPlant",
      "outputs": [
        {
          "internalType": "string",
          "name": "name",
          "type": "string"
        },
        {
          "internalType": "string",
          "name": "namaLatin",
          "type": "string"
        },
        {
          "internalType": "string",
          "name": "komposisi",
          "type": "string"
        },
        {
          "internalType": "string",
          "name": "kegunaan",
          "type": "string"
        },
        {
          "internalType": "string",
          "name": "caraPengolahan",
          "type": "string"
        },
        {
          "internalType": "string",
          "name": "ipfsHash",
          "type": "string"
        },
        {
          "internalType": "uint256",
          "name": "ratingTotal",
          "type": "uint256"
        },
        {
          "internalType": "uint256",
          "name": "ratingCount",
          "type": "uint256"
        },
        {
          "internalType": "uint256",
          "name": "likeCount",
          "type": "uint256"
        },
        {
          "internalType": "address",
          "name": "owner",
          "type": "address"
        }
      ],
      "stateMutability": "view",
      "type": "function",
      "constant": true
    },
    {
      "inputs": [
        {
          "internalType": "string",
          "name": "name",
          "type": "string"
        },
        {
          "internalType": "string",
          "name": "namaLatin",
          "type": "string"
        },
        {
          "internalType": "string",
          "name": "komposisi",
          "type": "string"
        },
        {
          "internalType": "string",
          "name": "kegunaan",
          "type": "string"
        }
      ],
      "name": "searchPlants",
      "outputs": [
        {
          "internalType": "uint256[]",
          "name": "",
          "type": "uint256[]"
        },
        {
          "components": [
            {
              "internalType": "string",
              "name": "name",
              "type": "string"
            },
            {
              "internalType": "string",
              "name": "namaLatin",
              "type": "string"
            },
            {
              "internalType": "string",
              "name": "komposisi",
              "type": "string"
            },
            {
              "internalType": "string",
              "name": "kegunaan",
              "type": "string"
            },
            {
              "internalType": "string",
              "name": "caraPengolahan",
              "type": "string"
            },
            {
              "internalType": "string",
              "name": "ipfsHash",
              "type": "string"
            },
            {
              "internalType": "uint256",
              "name": "ratingTotal",
              "type": "uint256"
            },
            {
              "internalType": "uint256",
              "name": "ratingCount",
              "type": "uint256"
            },
            {
              "internalType": "uint256",
              "name": "likeCount",
              "type": "uint256"
            },
            {
              "internalType": "address",
              "name": "owner",
              "type": "address"
            }
          ],
          "internalType": "struct HerbalPlant.Plant[]",
          "name": "",
          "type": "tuple[]"
        }
      ],
      "stateMutability": "view",
      "type": "function",
      "constant": true
    },
    {
      "inputs": [
        {
          "internalType": "uint256",
          "name": "plantId",
          "type": "uint256"
        }
      ],
      "name": "getPlantComments",
      "outputs": [
        {
          "components": [
            {
              "internalType": "address",
              "name": "user",
              "type": "address"
            },
            {
              "internalType": "string",
              "name": "comment",
              "type": "string"
            },
            {
              "internalType": "uint256",
              "name": "timestamp",
              "type": "uint256"
            }
          ],
          "internalType": "struct HerbalPlant.Comment[]",
          "name": "",
          "type": "tuple[]"
        }
      ],
      "stateMutability": "view",
      "type": "function",
      "constant": true
    },
    {
      "inputs": [],
      "name": "getAllUsers",
      "outputs": [
        {
          "internalType": "address[]",
          "name": "",
          "type": "address[]"
        }
      ],
      "stateMutability": "view",
      "type": "function",
      "constant": true
    }
  ],
  "bytecode": "0x608060405234801561001057600080fd5b50614d9e806100206000396000f3fe608060405234801561001057600080fd5b50600436106101375760003560e01c80637eede255116100b8578063b85f7d571161007c578063b85f7d571461037d578063d5469da61461039b578063e2842d79146103cd578063e2ec5fdf146103eb578063ed0b1f5f14610407578063efbf07d61461044057610137565b80637eede255146102be5780638dd2361c146102da5780638e788d0d14610313578063a7d0459914610343578063b34e97e81461037357610137565b80631f3c99c3116100ff5780631f3c99c3146102045780633ceca1b31461020e578063412cc71f1461022a5780636386c1c71461025b5780637dddc3921461028e57610137565b806307f9603e1461013c57806311fb6c891461016c57806317b7e03e1461019c5780631956e2e2146101cc5780631d2e4afd146101e8575b600080fd5b61015660048036038101906101519190613be7565b610470565b60405161016391906144a7565b60405180910390f35b61018660048036038101906101819190613ca0565b61064f565b604051610193919061440a565b60405180910390f35b6101b660048036038101906101b19190613be7565b61069d565b6040516101c391906147d6565b60405180910390f35b6101e660048036038101906101e19190613be7565b61071d565b005b61020260048036038101906101fd919061399f565b610ae6565b005b61020c610d96565b005b61022860048036038101906102239190613ace565b610ec5565b005b610244600480360381019061023f9190613a0b565b611213565b6040516102529291906144c9565b60405180910390f35b61027560048036038101906102709190613976565b611cb5565b604051610285949392919061453d565b60405180910390f35b6102a860048036038101906102a39190613c10565b611e87565b6040516102b591906147d6565b60405180910390f35b6102d860048036038101906102d39190613ca0565b611eac565b005b6102f460048036038101906102ef9190613be7565b6122d5565b60405161030a9a99989796959493929190614590565b60405180910390f35b61032d60048036038101906103289190613be7565b612679565b60405161033a9190614485565b60405180910390f35b61035d60048036038101906103589190613c10565b6127dd565b60405161036a9190614500565b60405180910390f35b61037b612845565b005b610385612a03565b60405161039291906147d6565b60405180910390f35b6103b560048036038101906103b09190613ca0565b612a09565b6040516103c493929190614425565b60405180910390f35b6103d5612af8565b6040516103e29190614463565b60405180910390f35b61040560048036038101906104009190613c4c565b612b86565b005b610421600480360381019061041c9190613be7565b612e6b565b6040516104379a99989796959493929190614590565b60405180910390f35b61045a60048036038101906104559190613c10565b6132eb565b6040516104679190614500565b60405180910390f35b6060600080600084815260200190815260200160002060070154905060008167ffffffffffffffff8111156104ce577f4e487b7100000000000000000000000000000000000000000000000000000000600052604160045260246000fd5b6040519080825280602002602001820160405280156104fc5781602001602082028036833780820191505090505b50905060005b600360008681526020019081526020016000208054905081101561064457600060036000878152602001908152602001600020828154811061056d577f4e487b7100000000000000000000000000000000000000000000000000000000600052603260045260246000fd5b9060005260206000200160009054906101000a900473ffffffffffffffffffffffffffffffffffffffff1690506004600087815260200190815260200160002060008273ffffffffffffffffffffffffffffffffffffffff1673ffffffffffffffffffffffffffffffffffffffff16815260200190815260200160002054838381518110610624577f4e487b7100000000000000000000000000000000000000000000000000000000600052603260045260246000fd5b60200260200101818152505050808061063c90614c24565b915050610502565b508092505050919050565b6003602052816000526040600020818154811061066b57600080fd5b906000526020600020016000915091509054906101000a900473ffffffffffffffffffffffffffffffffffffffff1681565b600080600080848152602001908152602001600020905060008160070154116106fb576040517f08c379a00000000000000000000000000000000000000000000000000000000081526004016106f2906146f6565b60405180910390fd5b6000816007015482600601546107119190614acc565b90508092505050919050565b600160003373ffffffffffffffffffffffffffffffffffffffff1673ffffffffffffffffffffffffffffffffffffffff16815260200190815260200160002060020160009054906101000a900460ff166107ac576040517f08c379a00000000000000000000000000000000000000000000000000000000081526004016107a390614756565b60405180910390fd5b600160003373ffffffffffffffffffffffffffffffffffffffff1673ffffffffffffffffffffffffffffffffffffffff16815260200190815260200160002060020160019054906101000a900460ff1661083b576040517f08c379a000000000000000000000000000000000000000000000000000000000815260040161083290614776565b60405180910390fd5b600073ffffffffffffffffffffffffffffffffffffffff1660008083815260200190815260200160002060090160009054906101000a900473ffffffffffffffffffffffffffffffffffffffff1673ffffffffffffffffffffffffffffffffffffffff1614156108e0576040517f08c379a00000000000000000000000000000000000000000000000000000000081526004016108d790614716565b60405180910390fd5b6005600082815260200190815260200160002060003373ffffffffffffffffffffffffffffffffffffffff1673ffffffffffffffffffffffffffffffffffffffff16815260200190815260200160002060009054906101000a900460ff1615610a155760006005600083815260200190815260200160002060003373ffffffffffffffffffffffffffffffffffffffff1673ffffffffffffffffffffffffffffffffffffffff16815260200190815260200160002060006101000a81548160ff02191690831515021790555060008082815260200190815260200160002060080160008154809291906109d290614bc8565b91905055507f16cbc6f742dcf78c5d0f58c5388cd298787bc75f6cad1423a17c3abe3723c5b88133604051610a089291906147f1565b60405180910390a1610ae3565b60016005600083815260200190815260200160002060003373ffffffffffffffffffffffffffffffffffffffff1673ffffffffffffffffffffffffffffffffffffffff16815260200190815260200160002060006101000a81548160ff0219169083151502179055506000808281526020019081526020016000206008016000815480929190610aa490614c24565b91905055507f16cbc6f742dcf78c5d0f58c5388cd298787bc75f6cad1423a17c3abe3723c5b88133604051610ada9291906147f1565b60405180910390a15b50565b6000825111610b2a576040517f08c379a0000000000000000000000000000000000000000000000000000000008152600401610b2190614656565b60405180910390fd5b6000815111610b6e576040517f08c379a0000000000000000000000000000000000000000000000000000000008152600401610b6590614676565b60405180910390fd5b600160003373ffffffffffffffffffffffffffffffffffffffff1673ffffffffffffffffffffffffffffffffffffffff16815260200190815260200160002060020160009054906101000a900460ff1615610bfe576040517f08c379a0000000000000000000000000000000000000000000000000000000008152600401610bf590614696565b60405180910390fd5b604051806080016040528083815260200182815260200160011515815260200160001515815250600160003373ffffffffffffffffffffffffffffffffffffffff1673ffffffffffffffffffffffffffffffffffffffff1681526020019081526020016000206000820151816000019080519060200190610c809291906137d8565b506020820151816001019080519060200190610c9d9291906137d8565b5060408201518160020160006101000a81548160ff02191690831515021790555060608201518160020160016101000a81548160ff0219169083151502179055509050506007339080600181540180825580915050600190039060005260206000200160009091909190916101000a81548173ffffffffffffffffffffffffffffffffffffffff021916908373ffffffffffffffffffffffffffffffffffffffff1602179055503373ffffffffffffffffffffffffffffffffffffffff167f48cac28ad4dc618e15f4c2dd5e97751182f166de97b25618318b2112aa951a2f83604051610d8a919061451b565b60405180910390a25050565b600160003373ffffffffffffffffffffffffffffffffffffffff1673ffffffffffffffffffffffffffffffffffffffff16815260200190815260200160002060020160019054906101000a900460ff16610e25576040517f08c379a0000000000000000000000000000000000000000000000000000000008152600401610e1c90614736565b60405180910390fd5b6000600160003373ffffffffffffffffffffffffffffffffffffffff1673ffffffffffffffffffffffffffffffffffffffff16815260200190815260200160002060020160016101000a81548160ff0219169083151502179055503373ffffffffffffffffffffffffffffffffffffffff167fc6ef449222bae3754898fc5fa944d52dfc53c0ee1fdd7d733fbb422ac5e2b8c860405160405180910390a2565b600160003373ffffffffffffffffffffffffffffffffffffffff1673ffffffffffffffffffffffffffffffffffffffff16815260200190815260200160002060020160009054906101000a900460ff16610f54576040517f08c379a0000000000000000000000000000000000000000000000000000000008152600401610f4b90614756565b60405180910390fd5b600160003373ffffffffffffffffffffffffffffffffffffffff1673ffffffffffffffffffffffffffffffffffffffff16815260200190815260200160002060020160019054906101000a900460ff16610fe3576040517f08c379a0000000000000000000000000000000000000000000000000000000008152600401610fda90614776565b60405180910390fd5b6000865111611027576040517f08c379a000000000000000000000000000000000000000000000000000000000815260040161101e90614796565b60405180910390fd5b600060065490506040518061014001604052808881526020018781526020018681526020018581526020018481526020018381526020016000815260200160008152602001600081526020013373ffffffffffffffffffffffffffffffffffffffff1681525060008083815260200190815260200160002060008201518160000190805190602001906110bb9291906137d8565b5060208201518160010190805190602001906110d89291906137d8565b5060408201518160020190805190602001906110f59291906137d8565b5060608201518160030190805190602001906111129291906137d8565b50608082015181600401908051906020019061112f9291906137d8565b5060a082015181600501908051906020019061114c9291906137d8565b5060c0820151816006015560e0820151816007015561010082015181600801556101208201518160090160006101000a81548173ffffffffffffffffffffffffffffffffffffffff021916908373ffffffffffffffffffffffffffffffffffffffff1602179055509050507f501d7870f277450aef6f6286e3405d1db2d4e338b74742dda780ae4605428ac38188336040516111ea9392919061488f565b60405180910390a16006600081548092919061120590614c24565b919050555050505050505050565b60608060008060065467ffffffffffffffff81111561125b577f4e487b7100000000000000000000000000000000000000000000000000000000600052604160045260246000fd5b6040519080825280602002602001820160405280156112895781602001602082028036833780820191505090505b509050600060065467ffffffffffffffff8111156112d0577f4e487b7100000000000000000000000000000000000000000000000000000000600052604160045260246000fd5b60405190808252806020026020018201604052801561130957816020015b6112f661385e565b8152602001906001900390816112ee5790505b50905060005b600654811015611a8557600080600083815260200190815260200160002090506000808c511180156113d357506113d282600001805461134e90614bf2565b80601f016020809104026020016040519081016040528092919081815260200182805461137a90614bf2565b80156113c75780601f1061139c576101008083540402835291602001916113c7565b820191906000526020600020905b8154815290600101906020018083116113aa57829003601f168201915b50505050508d61331a565b5b156113dd57600190505b60008b51118015611480575061147f8260010180546113fb90614bf2565b80601f016020809104026020016040519081016040528092919081815260200182805461142790614bf2565b80156114745780601f1061144957610100808354040283529160200191611474565b820191906000526020600020905b81548152906001019060200180831161145757829003601f168201915b50505050508c61331a565b5b1561148a57600190505b60008a5111801561152d575061152c8260020180546114a890614bf2565b80601f01602080910402602001604051908101604052809291908181526020018280546114d490614bf2565b80156115215780601f106114f657610100808354040283529160200191611521565b820191906000526020600020905b81548152906001019060200180831161150457829003601f168201915b50505050508b61331a565b5b1561153757600190505b600089511180156115da57506115d982600301805461155590614bf2565b80601f016020809104026020016040519081016040528092919081815260200182805461158190614bf2565b80156115ce5780601f106115a3576101008083540402835291602001916115ce565b820191906000526020600020905b8154815290600101906020018083116115b157829003601f168201915b50505050508a61331a565b5b156115e457600190505b8015611a705782858781518110611624577f4e487b7100000000000000000000000000000000000000000000000000000000600052603260045260246000fd5b602002602001018181525050816040518061014001604052908160008201805461164d90614bf2565b80601f016020809104026020016040519081016040528092919081815260200182805461167990614bf2565b80156116c65780601f1061169b576101008083540402835291602001916116c6565b820191906000526020600020905b8154815290600101906020018083116116a957829003601f168201915b505050505081526020016001820180546116df90614bf2565b80601f016020809104026020016040519081016040528092919081815260200182805461170b90614bf2565b80156117585780601f1061172d57610100808354040283529160200191611758565b820191906000526020600020905b81548152906001019060200180831161173b57829003601f168201915b5050505050815260200160028201805461177190614bf2565b80601f016020809104026020016040519081016040528092919081815260200182805461179d90614bf2565b80156117ea5780601f106117bf576101008083540402835291602001916117ea565b820191906000526020600020905b8154815290600101906020018083116117cd57829003601f168201915b5050505050815260200160038201805461180390614bf2565b80601f016020809104026020016040519081016040528092919081815260200182805461182f90614bf2565b801561187c5780601f106118515761010080835404028352916020019161187c565b820191906000526020600020905b81548152906001019060200180831161185f57829003601f168201915b5050505050815260200160048201805461189590614bf2565b80601f01602080910402602001604051908101604052809291908181526020018280546118c190614bf2565b801561190e5780601f106118e35761010080835404028352916020019161190e565b820191906000526020600020905b8154815290600101906020018083116118f157829003601f168201915b5050505050815260200160058201805461192790614bf2565b80601f016020809104026020016040519081016040528092919081815260200182805461195390614bf2565b80156119a05780601f10611975576101008083540402835291602001916119a0565b820191906000526020600020905b81548152906001019060200180831161198357829003601f168201915b505050505081526020016006820154815260200160078201548152602001600882015481526020016009820160009054906101000a900473ffffffffffffffffffffffffffffffffffffffff1673ffffffffffffffffffffffffffffffffffffffff1673ffffffffffffffffffffffffffffffffffffffff1681525050848781518110611a56577f4e487b7100000000000000000000000000000000000000000000000000000000600052603260045260246000fd5b60200260200101819052508580611a6c90614c24565b9650505b50508080611a7d90614c24565b91505061130f565b5060008367ffffffffffffffff811115611ac8577f4e487b7100000000000000000000000000000000000000000000000000000000600052604160045260246000fd5b604051908082528060200260200182016040528015611af65781602001602082028036833780820191505090505b50905060008467ffffffffffffffff811115611b3b577f4e487b7100000000000000000000000000000000000000000000000000000000600052604160045260246000fd5b604051908082528060200260200182016040528015611b7457816020015b611b6161385e565b815260200190600190039081611b595790505b50905060005b85811015611ca057848181518110611bbb577f4e487b7100000000000000000000000000000000000000000000000000000000600052603260045260246000fd5b6020026020010151838281518110611bfc577f4e487b7100000000000000000000000000000000000000000000000000000000600052603260045260246000fd5b602002602001018181525050838181518110611c41577f4e487b7100000000000000000000000000000000000000000000000000000000600052603260045260246000fd5b6020026020010151828281518110611c82577f4e487b7100000000000000000000000000000000000000000000000000000000600052603260045260246000fd5b60200260200101819052508080611c9890614c24565b915050611b7a565b50818196509650505050505094509492505050565b6060806000806000600160008773ffffffffffffffffffffffffffffffffffffffff1673ffffffffffffffffffffffffffffffffffffffff168152602001908152602001600020604051806080016040529081600082018054611d1790614bf2565b80601f0160208091040260200160405190810160405280929190818152602001828054611d4390614bf2565b8015611d905780601f10611d6557610100808354040283529160200191611d90565b820191906000526020600020905b815481529060010190602001808311611d7357829003601f168201915b50505050508152602001600182018054611da990614bf2565b80601f0160208091040260200160405190810160405280929190818152602001828054611dd590614bf2565b8015611e225780601f10611df757610100808354040283529160200191611e22565b820191906000526020600020905b815481529060010190602001808311611e0557829003601f168201915b505050505081526020016002820160009054906101000a900460ff161515151581526020016002820160019054906101000a900460ff161515151581525050905080600001518160200151826040015183606001519450945094509450509193509193565b6004602052816000526040600020602052806000526040600020600091509150505481565b600160003373ffffffffffffffffffffffffffffffffffffffff1673ffffffffffffffffffffffffffffffffffffffff16815260200190815260200160002060020160009054906101000a900460ff16611f3b576040517f08c379a0000000000000000000000000000000000000000000000000000000008152600401611f3290614756565b60405180910390fd5b600160003373ffffffffffffffffffffffffffffffffffffffff1673ffffffffffffffffffffffffffffffffffffffff16815260200190815260200160002060020160019054906101000a900460ff16611fca576040517f08c379a0000000000000000000000000000000000000000000000000000000008152600401611fc190614776565b60405180910390fd5b600073ffffffffffffffffffffffffffffffffffffffff1660008084815260200190815260200160002060090160009054906101000a900473ffffffffffffffffffffffffffffffffffffffff1673ffffffffffffffffffffffffffffffffffffffff16141561206f576040517f08c379a000000000000000000000000000000000000000000000000000000000815260040161206690614716565b60405180910390fd5b60018110158015612081575060058111155b6120c0576040517f08c379a00000000000000000000000000000000000000000000000000000000081526004016120b7906146d6565b60405180910390fd5b60006004600084815260200190815260200160002060003373ffffffffffffffffffffffffffffffffffffffff1673ffffffffffffffffffffffffffffffffffffffff16815260200190815260200160002054905060008114612175578060008085815260200190815260200160002060060160008282546121429190614afd565b92505081905550600080848152602001908152602001600020600701600081548092919061216f90614bc8565b91905055505b816004600085815260200190815260200160002060003373ffffffffffffffffffffffffffffffffffffffff1673ffffffffffffffffffffffffffffffffffffffff168152602001908152602001600020819055508160008085815260200190815260200160002060060160008282546121ef9190614a3f565b92505081905550600080848152602001908152602001600020600701600081548092919061221c90614c24565b919050555060036000848152602001908152602001600020339080600181540180825580915050600190039060005260206000200160009091909190916101000a81548173ffffffffffffffffffffffffffffffffffffffff021916908373ffffffffffffffffffffffffffffffffffffffff1602179055507f5a90108db35c713ec6356a9abbb3f1f006f75e48a06998c0616e9dbe5dea64108333846040516122c893929190614858565b60405180910390a1505050565b60006020528060005260406000206000915090508060000180546122f890614bf2565b80601f016020809104026020016040519081016040528092919081815260200182805461232490614bf2565b80156123715780601f1061234657610100808354040283529160200191612371565b820191906000526020600020905b81548152906001019060200180831161235457829003601f168201915b50505050509080600101805461238690614bf2565b80601f01602080910402602001604051908101604052809291908181526020018280546123b290614bf2565b80156123ff5780601f106123d4576101008083540402835291602001916123ff565b820191906000526020600020905b8154815290600101906020018083116123e257829003601f168201915b50505050509080600201805461241490614bf2565b80601f016020809104026020016040519081016040528092919081815260200182805461244090614bf2565b801561248d5780601f106124625761010080835404028352916020019161248d565b820191906000526020600020905b81548152906001019060200180831161247057829003601f168201915b5050505050908060030180546124a290614bf2565b80601f01602080910402602001604051908101604052809291908181526020018280546124ce90614bf2565b801561251b5780601f106124f05761010080835404028352916020019161251b565b820191906000526020600020905b8154815290600101906020018083116124fe57829003601f168201915b50505050509080600401805461253090614bf2565b80601f016020809104026020016040519081016040528092919081815260200182805461255c90614bf2565b80156125a95780601f1061257e576101008083540402835291602001916125a9565b820191906000526020600020905b81548152906001019060200180831161258c57829003601f168201915b5050505050908060050180546125be90614bf2565b80601f01602080910402602001604051908101604052809291908181526020018280546125ea90614bf2565b80156126375780601f1061260c57610100808354040283529160200191612637565b820191906000526020600020905b81548152906001019060200180831161261a57829003601f168201915b5050505050908060060154908060070154908060080154908060090160009054906101000a900473ffffffffffffffffffffffffffffffffffffffff1690508a565b606060026000838152602001908152602001600020805480602002602001604051908101604052809291908181526020016000905b828210156127d257838290600052602060002090600302016040518060600160405290816000820160009054906101000a900473ffffffffffffffffffffffffffffffffffffffff1673ffffffffffffffffffffffffffffffffffffffff1673ffffffffffffffffffffffffffffffffffffffff16815260200160018201805461273790614bf2565b80601f016020809104026020016040519081016040528092919081815260200182805461276390614bf2565b80156127b05780601f10612785576101008083540402835291602001916127b0565b820191906000526020600020905b81548152906001019060200180831161279357829003601f168201915b50505050508152602001600282015481525050815260200190600101906126ae565b505050509050919050565b60006005600084815260200190815260200160002060008373ffffffffffffffffffffffffffffffffffffffff1673ffffffffffffffffffffffffffffffffffffffff16815260200190815260200160002060009054906101000a900460ff16905092915050565b600160003373ffffffffffffffffffffffffffffffffffffffff1673ffffffffffffffffffffffffffffffffffffffff16815260200190815260200160002060020160009054906101000a900460ff166128d4576040517f08c379a00000000000000000000000000000000000000000000000000000000081526004016128cb906147b6565b60405180910390fd5b600160003373ffffffffffffffffffffffffffffffffffffffff1673ffffffffffffffffffffffffffffffffffffffff16815260200190815260200160002060020160019054906101000a900460ff1615612964576040517f08c379a000000000000000000000000000000000000000000000000000000000815260040161295b906146b6565b60405180910390fd5b60018060003373ffffffffffffffffffffffffffffffffffffffff1673ffffffffffffffffffffffffffffffffffffffff16815260200190815260200160002060020160016101000a81548160ff0219169083151502179055503373ffffffffffffffffffffffffffffffffffffffff167f8d15fde878cff665868ed7579eb5081db6508d4249df61dcdd7699a5301d987460405160405180910390a2565b60065481565b60026020528160005260406000208181548110612a2557600080fd5b9060005260206000209060030201600091509150508060000160009054906101000a900473ffffffffffffffffffffffffffffffffffffffff1690806001018054612a6f90614bf2565b80601f0160208091040260200160405190810160405280929190818152602001828054612a9b90614bf2565b8015612ae85780601f10612abd57610100808354040283529160200191612ae8565b820191906000526020600020905b815481529060010190602001808311612acb57829003601f168201915b5050505050908060020154905083565b60606007805480602002602001604051908101604052809291908181526020018280548015612b7c57602002820191906000526020600020905b8160009054906101000a900473ffffffffffffffffffffffffffffffffffffffff1673ffffffffffffffffffffffffffffffffffffffff1681526020019060010190808311612b32575b5050505050905090565b600160003373ffffffffffffffffffffffffffffffffffffffff1673ffffffffffffffffffffffffffffffffffffffff16815260200190815260200160002060020160009054906101000a900460ff16612c15576040517f08c379a0000000000000000000000000000000000000000000000000000000008152600401612c0c90614756565b60405180910390fd5b600160003373ffffffffffffffffffffffffffffffffffffffff1673ffffffffffffffffffffffffffffffffffffffff16815260200190815260200160002060020160019054906101000a900460ff16612ca4576040517f08c379a0000000000000000000000000000000000000000000000000000000008152600401612c9b90614776565b60405180910390fd5b600073ffffffffffffffffffffffffffffffffffffffff1660008084815260200190815260200160002060090160009054906101000a900473ffffffffffffffffffffffffffffffffffffffff1673ffffffffffffffffffffffffffffffffffffffff161415612d49576040517f08c379a0000000000000000000000000000000000000000000000000000000008152600401612d4090614716565b60405180910390fd5b600060405180606001604052803373ffffffffffffffffffffffffffffffffffffffff1681526020018381526020014281525090506002600084815260200190815260200160002081908060018154018082558091505060019003906000526020600020906003020160009091909190915060008201518160000160006101000a81548173ffffffffffffffffffffffffffffffffffffffff021916908373ffffffffffffffffffffffffffffffffffffffff1602179055506020820151816001019080519060200190612e1e9291906137d8565b506040820151816002015550507f279d5614862445216877d543708664e73d87439c98f65d81d5163ed98ad2d603833384604051612e5e9392919061481a565b60405180910390a1505050565b606080606080606080600080600080600073ffffffffffffffffffffffffffffffffffffffff166000808d815260200190815260200160002060090160009054906101000a900473ffffffffffffffffffffffffffffffffffffffff1673ffffffffffffffffffffffffffffffffffffffff161415612f1f576040517f08c379a0000000000000000000000000000000000000000000000000000000008152600401612f1690614716565b60405180910390fd5b60008060008d815260200190815260200160002090508060000181600101826002018360030184600401856005018660060154876007015488600801548960090160009054906101000a900473ffffffffffffffffffffffffffffffffffffffff16898054612f8d90614bf2565b80601f0160208091040260200160405190810160405280929190818152602001828054612fb990614bf2565b80156130065780601f10612fdb57610100808354040283529160200191613006565b820191906000526020600020905b815481529060010190602001808311612fe957829003601f168201915b5050505050995088805461301990614bf2565b80601f016020809104026020016040519081016040528092919081815260200182805461304590614bf2565b80156130925780601f1061306757610100808354040283529160200191613092565b820191906000526020600020905b81548152906001019060200180831161307557829003601f168201915b505050505098508780546130a590614bf2565b80601f01602080910402602001604051908101604052809291908181526020018280546130d190614bf2565b801561311e5780601f106130f35761010080835404028352916020019161311e565b820191906000526020600020905b81548152906001019060200180831161310157829003601f168201915b5050505050975086805461313190614bf2565b80601f016020809104026020016040519081016040528092919081815260200182805461315d90614bf2565b80156131aa5780601f1061317f576101008083540402835291602001916131aa565b820191906000526020600020905b81548152906001019060200180831161318d57829003601f168201915b505050505096508580546131bd90614bf2565b80601f01602080910402602001604051908101604052809291908181526020018280546131e990614bf2565b80156132365780601f1061320b57610100808354040283529160200191613236565b820191906000526020600020905b81548152906001019060200180831161321957829003601f168201915b5050505050955084805461324990614bf2565b80601f016020809104026020016040519081016040528092919081815260200182805461327590614bf2565b80156132c25780601f10613297576101008083540402835291602001916132c2565b820191906000526020600020905b8154815290600101906020018083116132a557829003601f168201915b505050505094509a509a509a509a509a509a509a509a509a509a50509193959799509193959799565b60056020528160005260406000206020528060005260406000206000915091509054906101000a900460ff1681565b600080839050600083905060008151141561333a576001925050506134d2565b81518151111561334f576000925050506134d2565b600061335a866134d8565b90506000613367866134d8565b9050600060018251845161337b9190614afd565b6133859190614a3f565b905060005b818110156134c75760006001905060005b845181101561349c578481815181106133dd577f4e487b7100000000000000000000000000000000000000000000000000000000600052603260045260246000fd5b602001015160f81c60f81b7effffffffffffffffffffffffffffffffffffffffffffffffffffffffffffff19168682856134179190614a3f565b8151811061344e577f4e487b7100000000000000000000000000000000000000000000000000000000600052603260045260246000fd5b602001015160f81c60f81b7effffffffffffffffffffffffffffffffffffffffffffffffffffffffffffff191614613489576000915061349c565b808061349490614c24565b91505061339b565b5080156134b35760019750505050505050506134d2565b5080806134bf90614c24565b91505061338a565b506000955050505050505b92915050565b606060008290506000815167ffffffffffffffff811115613522577f4e487b7100000000000000000000000000000000000000000000000000000000600052604160045260246000fd5b6040519080825280601f01601f1916602001820160405280156135545781602001600182028036833780820191505090505b50905060005b82518110156137cd57604160f81b8382815181106135a1577f4e487b7100000000000000000000000000000000000000000000000000000000600052603260045260246000fd5b602001015160f81c60f81b7effffffffffffffffffffffffffffffffffffffffffffffffffffffffffffff1916101580156136455750605a60f81b838281518110613615577f4e487b7100000000000000000000000000000000000000000000000000000000600052603260045260246000fd5b602001015160f81c60f81b7effffffffffffffffffffffffffffffffffffffffffffffffffffffffffffff191611155b1561370d576020838281518110613685577f4e487b7100000000000000000000000000000000000000000000000000000000600052603260045260246000fd5b602001015160f81c60f81b60f81c61369d9190614a95565b60f81b8282815181106136d9577f4e487b7100000000000000000000000000000000000000000000000000000000600052603260045260246000fd5b60200101907effffffffffffffffffffffffffffffffffffffffffffffffffffffffffffff1916908160001a9053506137ba565b828181518110613746577f4e487b7100000000000000000000000000000000000000000000000000000000600052603260045260246000fd5b602001015160f81c60f81b82828151811061378a577f4e487b7100000000000000000000000000000000000000000000000000000000600052603260045260246000fd5b60200101907effffffffffffffffffffffffffffffffffffffffffffffffffffffffffffff1916908160001a9053505b80806137c590614c24565b91505061355a565b508092505050919050565b8280546137e490614bf2565b90600052602060002090601f016020900481019282613806576000855561384d565b82601f1061381f57805160ff191683800117855561384d565b8280016001018555821561384d579182015b8281111561384c578251825591602001919060010190613831565b5b50905061385a91906138c7565b5090565b604051806101400160405280606081526020016060815260200160608152602001606081526020016060815260200160608152602001600081526020016000815260200160008152602001600073ffffffffffffffffffffffffffffffffffffffff1681525090565b5b808211156138e05760008160009055506001016138c8565b5090565b60006138f76138f2846148fe565b6148cd565b90508281526020810184848401111561390f57600080fd5b61391a848285614b86565b509392505050565b60008135905061393181614d3a565b92915050565b600082601f83011261394857600080fd5b81356139588482602086016138e4565b91505092915050565b60008135905061397081614d51565b92915050565b60006020828403121561398857600080fd5b600061399684828501613922565b91505092915050565b600080604083850312156139b257600080fd5b600083013567ffffffffffffffff8111156139cc57600080fd5b6139d885828601613937565b925050602083013567ffffffffffffffff8111156139f557600080fd5b613a0185828601613937565b9150509250929050565b60008060008060808587031215613a2157600080fd5b600085013567ffffffffffffffff811115613a3b57600080fd5b613a4787828801613937565b945050602085013567ffffffffffffffff811115613a6457600080fd5b613a7087828801613937565b935050604085013567ffffffffffffffff811115613a8d57600080fd5b613a9987828801613937565b925050606085013567ffffffffffffffff811115613ab657600080fd5b613ac287828801613937565b91505092959194509250565b60008060008060008060c08789031215613ae757600080fd5b600087013567ffffffffffffffff811115613b0157600080fd5b613b0d89828a01613937565b965050602087013567ffffffffffffffff811115613b2a57600080fd5b613b3689828a01613937565b955050604087013567ffffffffffffffff811115613b5357600080fd5b613b5f89828a01613937565b945050606087013567ffffffffffffffff811115613b7c57600080fd5b613b8889828a01613937565b935050608087013567ffffffffffffffff811115613ba557600080fd5b613bb189828a01613937565b92505060a087013567ffffffffffffffff811115613bce57600080fd5b613bda89828a01613937565b9150509295509295509295565b600060208284031215613bf957600080fd5b6000613c0784828501613961565b91505092915050565b60008060408385031215613c2357600080fd5b6000613c3185828601613961565b9250506020613c4285828601613922565b9150509250929050565b60008060408385031215613c5f57600080fd5b6000613c6d85828601613961565b925050602083013567ffffffffffffffff811115613c8a57600080fd5b613c9685828601613937565b9150509250929050565b60008060408385031215613cb357600080fd5b6000613cc185828601613961565b9250506020613cd285828601613961565b9150509250929050565b6000613ce88383613d34565b60208301905092915050565b6000613d00838361429f565b905092915050565b6000613d1483836142ef565b905092915050565b6000613d2883836143ec565b60208301905092915050565b613d3d81614b31565b82525050565b613d4c81614b31565b82525050565b6000613d5d8261496e565b613d6781856149d9565b9350613d728361492e565b8060005b83811015613da3578151613d8a8882613cdc565b9750613d95836149a5565b925050600181019050613d76565b5085935050505092915050565b6000613dbb82614979565b613dc581856149ea565b935083602082028501613dd78561493e565b8060005b85811015613e135784840389528151613df48582613cf4565b9450613dff836149b2565b925060208a01995050600181019050613ddb565b50829750879550505050505092915050565b6000613e3082614984565b613e3a81856149fb565b935083602082028501613e4c8561494e565b8060005b85811015613e885784840389528151613e698582613d08565b9450613e74836149bf565b925060208a01995050600181019050613e50565b50829750879550505050505092915050565b6000613ea58261498f565b613eaf8185614a0c565b9350613eba8361495e565b8060005b83811015613eeb578151613ed28882613d1c565b9750613edd836149cc565b925050600181019050613ebe565b5085935050505092915050565b613f0181614b43565b82525050565b6000613f128261499a565b613f1c8185614a1d565b9350613f2c818560208601614b95565b613f3581614d29565b840191505092915050565b6000613f4b8261499a565b613f558185614a2e565b9350613f65818560208601614b95565b613f6e81614d29565b840191505092915050565b6000613f86601783614a2e565b91507f4e616d6120746964616b20626f6c6568206b6f736f6e670000000000000000006000830152602082019050919050565b6000613fc6601983614a2e565b91507f50617373776f7264206861736820746964616b2076616c6964000000000000006000830152602082019050919050565b6000614006601483614a2e565b91507f416b756e207375646168207465726461667461720000000000000000000000006000830152602082019050919050565b6000614046600b83614a2e565b91507f5375646168206c6f67696e0000000000000000000000000000000000000000006000830152602082019050919050565b6000614086601e83614a2e565b91507f526174696e6720686172757320616e7461726120312068696e676761203500006000830152602082019050919050565b60006140c6602283614a2e565b91507f546964616b2061646120726174696e6720756e74756b2074616e616d616e206960008301527f6e690000000000000000000000000000000000000000000000000000000000006020830152604082019050919050565b600061412c601783614a2e565b91507f54616e616d616e20746964616b20646974656d756b616e0000000000000000006000830152602082019050919050565b600061416c600b83614a2e565b91507f42656c756d206c6f67696e0000000000000000000000000000000000000000006000830152602082019050919050565b60006141ac601483614a2e565b91507f416e6461206861727573207465726461667461720000000000000000000000006000830152602082019050919050565b60006141ec601083614a2e565b91507f416e6461206861727573206c6f67696e000000000000000000000000000000006000830152602082019050919050565b600061422c601783614a2e565b91507f4e616d612074616e616d616e2064697065726c756b616e0000000000000000006000830152602082019050919050565b600061426c601883614a2e565b91507f50656e6767756e6120746964616b2074657264616674617200000000000000006000830152602082019050919050565b60006060830160008301516142b76000860182613d34565b50602083015184820360208601526142cf8282613f07565b91505060408301516142e460408601826143ec565b508091505092915050565b600061014083016000830151848203600086015261430d8282613f07565b915050602083015184820360208601526143278282613f07565b915050604083015184820360408601526143418282613f07565b9150506060830151848203606086015261435b8282613f07565b915050608083015184820360808601526143758282613f07565b91505060a083015184820360a086015261438f8282613f07565b91505060c08301516143a460c08601826143ec565b5060e08301516143b760e08601826143ec565b506101008301516143cc6101008601826143ec565b506101208301516143e1610120860182613d34565b508091505092915050565b6143f581614b6f565b82525050565b61440481614b6f565b82525050565b600060208201905061441f6000830184613d43565b92915050565b600060608201905061443a6000830186613d43565b818103602083015261444c8185613f40565b905061445b60408301846143fb565b949350505050565b6000602082019050818103600083015261447d8184613d52565b905092915050565b6000602082019050818103600083015261449f8184613db0565b905092915050565b600060208201905081810360008301526144c18184613e9a565b905092915050565b600060408201905081810360008301526144e38185613e9a565b905081810360208301526144f78184613e25565b90509392505050565b60006020820190506145156000830184613ef8565b92915050565b600060208201905081810360008301526145358184613f40565b905092915050565b600060808201905081810360008301526145578187613f40565b9050818103602083015261456b8186613f40565b905061457a6040830185613ef8565b6145876060830184613ef8565b95945050505050565b60006101408201905081810360008301526145ab818d613f40565b905081810360208301526145bf818c613f40565b905081810360408301526145d3818b613f40565b905081810360608301526145e7818a613f40565b905081810360808301526145fb8189613f40565b905081810360a083015261460f8188613f40565b905061461e60c08301876143fb565b61462b60e08301866143fb565b6146396101008301856143fb565b614647610120830184613d43565b9b9a5050505050505050505050565b6000602082019050818103600083015261466f81613f79565b9050919050565b6000602082019050818103600083015261468f81613fb9565b9050919050565b600060208201905081810360008301526146af81613ff9565b9050919050565b600060208201905081810360008301526146cf81614039565b9050919050565b600060208201905081810360008301526146ef81614079565b9050919050565b6000602082019050818103600083015261470f816140b9565b9050919050565b6000602082019050818103600083015261472f8161411f565b9050919050565b6000602082019050818103600083015261474f8161415f565b9050919050565b6000602082019050818103600083015261476f8161419f565b9050919050565b6000602082019050818103600083015261478f816141df565b9050919050565b600060208201905081810360008301526147af8161421f565b9050919050565b600060208201905081810360008301526147cf8161425f565b9050919050565b60006020820190506147eb60008301846143fb565b92915050565b600060408201905061480660008301856143fb565b6148136020830184613d43565b9392505050565b600060608201905061482f60008301866143fb565b61483c6020830185613d43565b818103604083015261484e8184613f40565b9050949350505050565b600060608201905061486d60008301866143fb565b61487a6020830185613d43565b61488760408301846143fb565b949350505050565b60006060820190506148a460008301866143fb565b81810360208301526148b68185613f40565b90506148c56040830184613d43565b949350505050565b6000604051905081810181811067ffffffffffffffff821117156148f4576148f3614cfa565b5b8060405250919050565b600067ffffffffffffffff82111561491957614918614cfa565b5b601f19601f8301169050602081019050919050565b6000819050602082019050919050565b6000819050602082019050919050565b6000819050602082019050919050565b6000819050602082019050919050565b600081519050919050565b600081519050919050565b600081519050919050565b600081519050919050565b600081519050919050565b6000602082019050919050565b6000602082019050919050565b6000602082019050919050565b6000602082019050919050565b600082825260208201905092915050565b600082825260208201905092915050565b600082825260208201905092915050565b600082825260208201905092915050565b600082825260208201905092915050565b600082825260208201905092915050565b6000614a4a82614b6f565b9150614a5583614b6f565b9250827fffffffffffffffffffffffffffffffffffffffffffffffffffffffffffffffff03821115614a8a57614a89614c6d565b5b828201905092915050565b6000614aa082614b79565b9150614aab83614b79565b92508260ff03821115614ac157614ac0614c6d565b5b828201905092915050565b6000614ad782614b6f565b9150614ae283614b6f565b925082614af257614af1614c9c565b5b828204905092915050565b6000614b0882614b6f565b9150614b1383614b6f565b925082821015614b2657614b25614c6d565b5b828203905092915050565b6000614b3c82614b4f565b9050919050565b60008115159050919050565b600073ffffffffffffffffffffffffffffffffffffffff82169050919050565b6000819050919050565b600060ff82169050919050565b82818337600083830152505050565b60005b83811015614bb3578082015181840152602081019050614b98565b83811115614bc2576000848401525b50505050565b6000614bd382614b6f565b91506000821415614be757614be6614c6d565b5b600182039050919050565b60006002820490506001821680614c0a57607f821691505b60208210811415614c1e57614c1d614ccb565b5b50919050565b6000614c2f82614b6f565b91507fffffffffffffffffffffffffffffffffffffffffffffffffffffffffffffffff821415614c6257614c61614c6d565b5b600182019050919050565b7f4e487b7100000000000000000000000000000000000000000000000000000000600052601160045260246000fd5b7f4e487b7100000000000000000000000000000000000000000000000000000000600052601260045260246000fd5b7f4e487b7100000000000000000000000000000000000000000000000000000000600052602260045260246000fd5b7f4e487b7100000000000000000000000000000000000000000000000000000000600052604160045260246000fd5b6000601f19601f8301169050919050565b614d4381614b31565b8114614d4e57600080fd5b50565b614d5a81614b6f565b8114614d6557600080fd5b5056fea26469706673582212208b1a64fcd5e6992f8144fd1d89b06068a8770bc61ad234a5c2661be2f18a6bc364736f6c63430008000033",
  "immutableReferences": {},
  "source": "// SPDX-License-Identifier: MIT\r\npragma solidity ^0.8.0;\r\n\r\ncontract HerbalPlant {\r\n    struct Plant {\r\n        string name;\r\n        string namaLatin;\r\n        string komposisi;\r\n        string kegunaan;\r\n        string caraPengolahan;\r\n        string ipfsHash;\r\n        uint ratingTotal;\r\n        uint ratingCount;\r\n        uint likeCount;\r\n        address owner;\r\n    }\r\n\r\n    struct User {\r\n        string fullName;\r\n        string hashPass;  // Store hashed password\r\n        bool isRegistered;\r\n        bool isLoggedIn;\r\n    }\r\n\r\n    struct Comment {\r\n        address user;\r\n        string comment;\r\n        uint timestamp;\r\n    }\r\n\r\n    mapping(uint => Plant) public plants;\r\n    mapping(address => User) private usersByPublicKey;\r\n    mapping(uint => Comment[]) public plantComments;  // Mapping for plant comments\r\n    mapping(uint => address[]) public plantRatingUsers;\r\n    mapping(uint => mapping(address => uint)) public plantRatings;\r\n    mapping(uint => mapping(address => bool)) public plantLikes;\r\n\r\n    uint public plantCount;\r\n    address[] private registeredUsers;\r\n\r\n    event PlantAdded(uint plantId, string name, address owner);\r\n    event PlantRated(uint plantId, address user, uint rating);\r\n    event PlantLiked(uint plantId, address user);\r\n    event UserRegistered(address indexed publicKey, string fullName);\r\n    event UserLoggedIn(address indexed publicKey);\r\n    event UserLoggedOut(address indexed publicKey);\r\n    event PlantCommented(uint plantId, address user, string comment);\r\n\r\n    modifier onlyActiveUser() {\r\n        require(usersByPublicKey[msg.sender].isRegistered, \"Anda harus terdaftar\");\r\n        require(usersByPublicKey[msg.sender].isLoggedIn, \"Anda harus login\");\r\n        _;\r\n    }\r\n\r\n    //  Mendaftarkan user dengan menyimpan password hash di Blockchain\r\n    function registerUser(\r\n        string memory fullName,\r\n        string memory hashPass\r\n    ) public {\r\n        require(bytes(fullName).length > 0, \"Nama tidak boleh kosong\");\r\n        require(bytes(hashPass).length > 0, \"Password hash tidak valid\");\r\n        require(!usersByPublicKey[msg.sender].isRegistered, \"Akun sudah terdaftar\");\r\n\r\n        usersByPublicKey[msg.sender] = User({\r\n            fullName: fullName,\r\n            hashPass: hashPass,\r\n            isRegistered: true,\r\n            isLoggedIn: false\r\n        });\r\n\r\n        registeredUsers.push(msg.sender);\r\n\r\n        emit UserRegistered(msg.sender, fullName);\r\n    }\r\n\r\n    //  Login menggunakan password hash\r\n    function login() public {\r\n        require(usersByPublicKey[msg.sender].isRegistered, \"Pengguna tidak terdaftar\");\r\n        require(!usersByPublicKey[msg.sender].isLoggedIn, \"Sudah login\");\r\n\r\n        usersByPublicKey[msg.sender].isLoggedIn = true;\r\n        emit UserLoggedIn(msg.sender);\r\n    }\r\n\r\n    //  Getter untuk mengambil data user berdasarkan address\r\n    function getUserInfo(address userAddress) public view returns (\r\n        string memory fullName,\r\n        string memory hashPass,\r\n        bool isRegistered,\r\n        bool isLoggedIn\r\n    ) {\r\n        User memory user = usersByPublicKey[userAddress];\r\n        return (\r\n            user.fullName,\r\n            user.hashPass,\r\n            user.isRegistered,\r\n            user.isLoggedIn\r\n        );\r\n    }\r\n\r\n    //  Logout user\r\n    function logout() public {\r\n        require(usersByPublicKey[msg.sender].isLoggedIn, \"Belum login\");\r\n        \r\n        usersByPublicKey[msg.sender].isLoggedIn = false;\r\n        emit UserLoggedOut(msg.sender);\r\n    }\r\n\r\n    //  Menambahkan tanaman herbal\r\n    function addPlant(\r\n        string memory name,\r\n        string memory namaLatin,\r\n        string memory komposisi,\r\n        string memory kegunaan,\r\n        string memory caraPengolahan,\r\n        string memory ipfsHash\r\n    ) public onlyActiveUser {\r\n        require(bytes(name).length > 0, \"Nama tanaman diperlukan\");\r\n\r\n        uint currentId = plantCount; // simpan ID sekarang sebelum increment\r\n\r\n        plants[currentId] = Plant({\r\n            name: name,\r\n            namaLatin: namaLatin,\r\n            komposisi: komposisi,\r\n            kegunaan: kegunaan,\r\n            caraPengolahan: caraPengolahan,\r\n            ipfsHash: ipfsHash,\r\n            ratingTotal: 0,\r\n            ratingCount: 0,\r\n            likeCount: 0,\r\n            owner: msg.sender\r\n        });\r\n\r\n        emit PlantAdded(currentId, name, msg.sender); // gunakan ID yang benar\r\n        plantCount++;\r\n    }\r\n\r\n    //  Memberi rating tanaman herbal (1-5)\r\n    function ratePlant(uint plantId, uint rating) public onlyActiveUser {\r\n    require(plants[plantId].owner != address(0), \"Tanaman tidak ditemukan\");\r\n    require(rating >= 1 && rating <= 5, \"Rating harus antara 1 hingga 5\");\r\n\r\n    uint previousRating = plantRatings[plantId][msg.sender];\r\n    if (previousRating != 0) {\r\n        // Mengurangi rating sebelumnya\r\n        plants[plantId].ratingTotal -= previousRating;\r\n        plants[plantId].ratingCount--; // Mengurangi jumlah rating\r\n    }\r\n\r\n    // Menambahkan rating baru\r\n    plantRatings[plantId][msg.sender] = rating;\r\n    plants[plantId].ratingTotal += rating;\r\n    plants[plantId].ratingCount++; // Menambah jumlah rating\r\n\r\n    // Menyimpan user yang memberi rating\r\n    plantRatingUsers[plantId].push(msg.sender);\r\n\r\n    emit PlantRated(plantId, msg.sender, rating);\r\n    }\r\n\r\n    //  Fungsi untuk mendapatkan rata-rata rating dari sebuah tanaman herbal\r\n    function getAverageRating(uint plantId) public view returns (uint) {\r\n        Plant storage plant = plants[plantId];\r\n        require(plant.ratingCount > 0, \"Tidak ada rating untuk tanaman ini\");\r\n        \r\n        uint averageRating = plant.ratingTotal / plant.ratingCount;\r\n        return averageRating;\r\n    }\r\n\r\n    //  Fungsi untuk mendapatkan semua rating dari tanaman\r\n    function getPlantRatings(uint plantId) public view returns (uint[] memory) {\r\n    uint ratingCount = plants[plantId].ratingCount;\r\n    uint[] memory ratings = new uint[](ratingCount);\r\n\r\n    for (uint i = 0; i < plantRatingUsers[plantId].length; i++) {\r\n        address user = plantRatingUsers[plantId][i];\r\n        ratings[i] = plantRatings[plantId][user];\r\n    }\r\n\r\n    return ratings;\r\n    }\r\n\r\n    //  Menyukai tanaman herbal\r\n    function likePlant(uint plantId) public onlyActiveUser {\r\n    require(plants[plantId].owner != address(0), \"Tanaman tidak ditemukan\");\r\n\r\n    // Jika pengguna sudah memberi like sebelumnya, hapus like tersebut\r\n    if (plantLikes[plantId][msg.sender]) {\r\n        plantLikes[plantId][msg.sender] = false;\r\n        plants[plantId].likeCount--;\r\n        emit PlantLiked(plantId, msg.sender); // Emit event jika perlu\r\n    } else {\r\n        // Jika belum memberi like, beri like\r\n        plantLikes[plantId][msg.sender] = true;\r\n        plants[plantId].likeCount++;\r\n        emit PlantLiked(plantId, msg.sender); // Emit event jika perlu\r\n    }\r\n    }\r\n\r\n    //  Mengecek apakah user sudah like tanaman tertentu\r\n    function isPlantLikedByUser(uint plantId, address user) public view returns (bool) {\r\n        return plantLikes[plantId][user];\r\n    }\r\n\r\n    //  Memberikan komentar/testimoni pada tanaman\r\n    function commentPlant(uint plantId, string memory comment) public onlyActiveUser {\r\n        require(plants[plantId].owner != address(0), \"Tanaman tidak ditemukan\");\r\n\r\n        Comment memory newComment = Comment({\r\n            user: msg.sender,\r\n            comment: comment,\r\n            timestamp: block.timestamp\r\n        });\r\n\r\n        plantComments[plantId].push(newComment);\r\n\r\n        emit PlantCommented(plantId, msg.sender, comment);\r\n    }\r\n\r\n    //  Mengambil detail tanaman herbal\r\n    function getPlant(uint plantId)\r\n    public\r\n    view\r\n    returns (\r\n        string memory name,\r\n        string memory namaLatin,\r\n        string memory komposisi,\r\n        string memory kegunaan,\r\n        string memory caraPengolahan,\r\n        string memory ipfsHash,\r\n        uint ratingTotal,\r\n        uint ratingCount,\r\n        uint likeCount,\r\n        address owner\r\n    )\r\n    {\r\n    require(plants[plantId].owner != address(0), \"Tanaman tidak ditemukan\");\r\n\r\n    Plant storage plant = plants[plantId];\r\n\r\n    return (\r\n        plant.name,\r\n        plant.namaLatin,\r\n        plant.komposisi,\r\n        plant.kegunaan,\r\n        plant.caraPengolahan,\r\n        plant.ipfsHash,\r\n        plant.ratingTotal,\r\n        plant.ratingCount,\r\n        plant.likeCount,\r\n        plant.owner\r\n    );\r\n    }\r\n\r\n    //  Fungsi untuk mencari tanaman berdasarkan nama, nama latin, komposisi, atau kegunaan\r\n    function searchPlants(\r\n    string memory name, \r\n    string memory namaLatin, \r\n    string memory komposisi, \r\n    string memory kegunaan\r\n    ) \r\n    public view\r\n    returns (uint[] memory, Plant[] memory) // Return 2 array: IDs dan data tanaman\r\n    {\r\n    uint plantIndex = 0;\r\n    uint[] memory idResults = new uint[](plantCount);\r\n    Plant[] memory plantResults = new Plant[](plantCount);\r\n\r\n    // Loop melalui semua tanaman yang tersimpan\r\n    for (uint i = 0; i < plantCount; i++) {\r\n        Plant storage currentPlant = plants[i];\r\n        bool isMatch = false;\r\n\r\n        // Jika ada salah satu yang cocok, maka isMatch = true\r\n        if (bytes(name).length > 0 && contains(currentPlant.name, name)) isMatch = true;\r\n        if (bytes(namaLatin).length > 0 && contains(currentPlant.namaLatin, namaLatin)) isMatch = true;\r\n        if (bytes(komposisi).length > 0 && contains(currentPlant.komposisi, komposisi)) isMatch = true;\r\n        if (bytes(kegunaan).length > 0 && contains(currentPlant.kegunaan, kegunaan)) isMatch = true;\r\n\r\n        // Jika memenuhi kriteria, tambahkan ke hasil\r\n        if (isMatch) {\r\n            idResults[plantIndex] = i; // Simpan ID tanaman (index)\r\n            plantResults[plantIndex] = currentPlant; // Simpan data lengkap\r\n            plantIndex++;\r\n        }\r\n    }\r\n\r\n    // Buat array hasil dengan ukuran yang tepat\r\n    uint[] memory finalIds = new uint[](plantIndex);\r\n    Plant[] memory finalPlants = new Plant[](plantIndex);\r\n\r\n    // Salin data dari array sementara ke array final\r\n    for (uint i = 0; i < plantIndex; i++) {\r\n        finalIds[i] = idResults[i];\r\n        finalPlants[i] = plantResults[i];\r\n    }\r\n\r\n    // Kembalikan sebagai tuple (2 array terpisah)\r\n    return (finalIds, finalPlants);\r\n    }\r\n\r\n    //  Fungsi untuk mengecek apakah sebuah string mengandung substring tertentu (case-insensitive)\r\n    function contains(string memory haystack, string memory needle) internal pure returns (bool) {\r\n        bytes memory haystackBytes = bytes(haystack);\r\n        bytes memory needleBytes = bytes(needle);\r\n        \r\n        // Handle kasus khusus: needle kosong selalu dianggap ada\r\n        if (needleBytes.length == 0) return true;\r\n        \r\n        // Handle kasus dimana needle lebih panjang dari haystack\r\n        if (needleBytes.length > haystackBytes.length) return false;\r\n\r\n        // Konversi ke lowercase sekali saja di awal\r\n        bytes memory haystackLower = bytes(toLowerCase(haystack));\r\n        bytes memory needleLower = bytes(toLowerCase(needle));\r\n\r\n        // Optimasi: Batasi jumlah iterasi yang diperlukan\r\n        uint maxIterations = haystackLower.length - needleLower.length + 1;\r\n        \r\n        for (uint i = 0; i < maxIterations; i++) {\r\n            bool isMatch = true;\r\n            \r\n            // Periksa karakter per karakter\r\n            for (uint j = 0; j < needleLower.length; j++) {\r\n                if (haystackLower[i + j] != needleLower[j]) {\r\n                    isMatch = false;\r\n                    break; // Berhenti jika ada ketidakcocokan\r\n                }\r\n            }\r\n            \r\n            if (isMatch) return true;\r\n        }\r\n        \r\n        return false;\r\n    }\r\n\r\n    //  Fungsi untuk konversi string ke lowercase\r\n    function toLowerCase(string memory str) internal pure returns (string memory) {\r\n        bytes memory strBytes = bytes(str);\r\n        bytes memory lowerBytes = new bytes(strBytes.length);\r\n        \r\n        for (uint i = 0; i < strBytes.length; i++) {\r\n            // Cek apakah karakter adalah A-Z (0x41-0x5A)\r\n            if (strBytes[i] >= 0x41 && strBytes[i] <= 0x5A) {\r\n                lowerBytes[i] = bytes1(uint8(strBytes[i]) + 32); // Konversi ke lowercase\r\n            } else {\r\n                lowerBytes[i] = strBytes[i]; // Pertahankan karakter lain\r\n            }\r\n        }\r\n        \r\n        return string(lowerBytes);\r\n    }\r\n\r\n    //  Mengambil komentar/testimoni tanaman herbal\r\n    function getPlantComments(uint plantId) public view returns (Comment[] memory) {\r\n        return plantComments[plantId];\r\n    }\r\n\r\n    //  Mengambil semua user yang terdaftar\r\n    function getAllUsers() public view returns (address[] memory) {\r\n        return registeredUsers;\r\n    }\r\n}\r\n",
  "sourcePath": "D:\\Kuliah\\TA\\Integrated Project\\middleware\\contracts\\HerbalPlant.sol",
  "compiler": {
    "name": "solc",
    "version": "0.8.0+commit.c7dfd78e.Emscripten.clang"
  },
  "schemaVersion": "3.4.16",
  "updatedAt": "2025-05-06T10:34:21.416Z",
  "networkType": "ethereum",
  "devdoc": {
    "kind": "dev",
    "methods": {},
    "version": 1
  },
  "userdoc": {
    "kind": "user",
    "methods": {},
    "version": 1
  }
}