{
  "contractName": "HerbalPlant",
  "abi": [
    {
      "anonymous": false,
      "inputs": [
        {
          "indexed": false,
          "internalType": "uint256",
          "name": "plantId",
          "type": "uint256"
        },
        {
          "indexed": false,
          "internalType": "string",
          "name": "name",
          "type": "string"
        },
        {
          "indexed": false,
          "internalType": "address",
          "name": "owner",
          "type": "address"
        }
      ],
      "name": "PlantAdded",
      "type": "event"
    },
    {
      "anonymous": false,
      "inputs": [
        {
          "indexed": false,
          "internalType": "uint256",
          "name": "plantId",
          "type": "uint256"
        },
        {
          "indexed": false,
          "internalType": "address",
          "name": "user",
          "type": "address"
        },
        {
          "indexed": false,
          "internalType": "string",
          "name": "comment",
          "type": "string"
        }
      ],
      "name": "PlantCommented",
      "type": "event"
    },
    {
      "anonymous": false,
      "inputs": [
        {
          "indexed": false,
          "internalType": "uint256",
          "name": "plantId",
          "type": "uint256"
        },
        {
          "indexed": false,
          "internalType": "address",
          "name": "user",
          "type": "address"
        }
      ],
      "name": "PlantLiked",
      "type": "event"
    },
    {
      "anonymous": false,
      "inputs": [
        {
          "indexed": false,
          "internalType": "uint256",
          "name": "plantId",
          "type": "uint256"
        },
        {
          "indexed": false,
          "internalType": "address",
          "name": "user",
          "type": "address"
        },
        {
          "indexed": false,
          "internalType": "uint256",
          "name": "rating",
          "type": "uint256"
        }
      ],
      "name": "PlantRated",
      "type": "event"
    },
    {
      "anonymous": false,
      "inputs": [
        {
          "indexed": true,
          "internalType": "address",
          "name": "publicKey",
          "type": "address"
        }
      ],
      "name": "UserLoggedIn",
      "type": "event"
    },
    {
      "anonymous": false,
      "inputs": [
        {
          "indexed": true,
          "internalType": "address",
          "name": "publicKey",
          "type": "address"
        }
      ],
      "name": "UserLoggedOut",
      "type": "event"
    },
    {
      "anonymous": false,
      "inputs": [
        {
          "indexed": true,
          "internalType": "address",
          "name": "publicKey",
          "type": "address"
        },
        {
          "indexed": false,
          "internalType": "string",
          "name": "fullName",
          "type": "string"
        }
      ],
      "name": "UserRegistered",
      "type": "event"
    },
    {
      "inputs": [
        {
          "internalType": "uint256",
          "name": "",
          "type": "uint256"
        },
        {
          "internalType": "uint256",
          "name": "",
          "type": "uint256"
        }
      ],
      "name": "plantComments",
      "outputs": [
        {
          "internalType": "address",
          "name": "user",
          "type": "address"
        },
        {
          "internalType": "string",
          "name": "comment",
          "type": "string"
        },
        {
          "internalType": "uint256",
          "name": "timestamp",
          "type": "uint256"
        }
      ],
      "stateMutability": "view",
      "type": "function",
      "constant": true
    },
    {
      "inputs": [],
      "name": "plantCount",
      "outputs": [
        {
          "internalType": "uint256",
          "name": "",
          "type": "uint256"
        }
      ],
      "stateMutability": "view",
      "type": "function",
      "constant": true
    },
    {
      "inputs": [
        {
          "internalType": "uint256",
          "name": "",
          "type": "uint256"
        },
        {
          "internalType": "address",
          "name": "",
          "type": "address"
        }
      ],
      "name": "plantLikes",
      "outputs": [
        {
          "internalType": "bool",
          "name": "",
          "type": "bool"
        }
      ],
      "stateMutability": "view",
      "type": "function",
      "constant": true
    },
    {
      "inputs": [
        {
          "internalType": "uint256",
          "name": "",
          "type": "uint256"
        },
        {
          "internalType": "uint256",
          "name": "",
          "type": "uint256"
        }
      ],
      "name": "plantRatingUsers",
      "outputs": [
        {
          "internalType": "address",
          "name": "",
          "type": "address"
        }
      ],
      "stateMutability": "view",
      "type": "function",
      "constant": true
    },
    {
      "inputs": [
        {
          "internalType": "uint256",
          "name": "",
          "type": "uint256"
        },
        {
          "internalType": "address",
          "name": "",
          "type": "address"
        }
      ],
      "name": "plantRatings",
      "outputs": [
        {
          "internalType": "uint256",
          "name": "",
          "type": "uint256"
        }
      ],
      "stateMutability": "view",
      "type": "function",
      "constant": true
    },
    {
      "inputs": [
        {
          "internalType": "uint256",
          "name": "",
          "type": "uint256"
        }
      ],
      "name": "plants",
      "outputs": [
        {
          "internalType": "string",
          "name": "name",
          "type": "string"
        },
        {
          "internalType": "string",
          "name": "namaLatin",
          "type": "string"
        },
        {
          "internalType": "string",
          "name": "komposisi",
          "type": "string"
        },
        {
          "internalType": "string",
          "name": "kegunaan",
          "type": "string"
        },
        {
          "internalType": "string",
          "name": "dosis",
          "type": "string"
        },
        {
          "internalType": "string",
          "name": "caraPengolahan",
          "type": "string"
        },
        {
          "internalType": "string",
          "name": "efekSamping",
          "type": "string"
        },
        {
          "internalType": "string",
          "name": "ipfsHash",
          "type": "string"
        },
        {
          "internalType": "uint256",
          "name": "ratingTotal",
          "type": "uint256"
        },
        {
          "internalType": "uint256",
          "name": "ratingCount",
          "type": "uint256"
        },
        {
          "internalType": "uint256",
          "name": "likeCount",
          "type": "uint256"
        },
        {
          "internalType": "address",
          "name": "owner",
          "type": "address"
        }
      ],
      "stateMutability": "view",
      "type": "function",
      "constant": true
    },
    {
      "inputs": [
        {
          "internalType": "string",
          "name": "fullName",
          "type": "string"
        },
        {
          "internalType": "string",
          "name": "hashPass",
          "type": "string"
        }
      ],
      "name": "registerUser",
      "outputs": [],
      "stateMutability": "nonpayable",
      "type": "function"
    },
    {
      "inputs": [],
      "name": "login",
      "outputs": [],
      "stateMutability": "nonpayable",
      "type": "function"
    },
    {
      "inputs": [
        {
          "internalType": "address",
          "name": "userAddress",
          "type": "address"
        }
      ],
      "name": "getUserInfo",
      "outputs": [
        {
          "internalType": "string",
          "name": "fullName",
          "type": "string"
        },
        {
          "internalType": "string",
          "name": "hashPass",
          "type": "string"
        },
        {
          "internalType": "bool",
          "name": "isRegistered",
          "type": "bool"
        },
        {
          "internalType": "bool",
          "name": "isLoggedIn",
          "type": "bool"
        }
      ],
      "stateMutability": "view",
      "type": "function",
      "constant": true
    },
    {
      "inputs": [],
      "name": "logout",
      "outputs": [],
      "stateMutability": "nonpayable",
      "type": "function"
    },
    {
      "inputs": [
        {
          "internalType": "string",
          "name": "name",
          "type": "string"
        },
        {
          "internalType": "string",
          "name": "namaLatin",
          "type": "string"
        },
        {
          "internalType": "string",
          "name": "komposisi",
          "type": "string"
        },
        {
          "internalType": "string",
          "name": "kegunaan",
          "type": "string"
        },
        {
          "internalType": "string",
          "name": "dosis",
          "type": "string"
        },
        {
          "internalType": "string",
          "name": "caraPengolahan",
          "type": "string"
        },
        {
          "internalType": "string",
          "name": "efekSamping",
          "type": "string"
        },
        {
          "internalType": "string",
          "name": "ipfsHash",
          "type": "string"
        }
      ],
      "name": "addPlant",
      "outputs": [],
      "stateMutability": "nonpayable",
      "type": "function"
    },
    {
      "inputs": [
        {
          "internalType": "uint256",
          "name": "plantId",
          "type": "uint256"
        },
        {
          "internalType": "string",
          "name": "name",
          "type": "string"
        },
        {
          "internalType": "string",
          "name": "namaLatin",
          "type": "string"
        },
        {
          "internalType": "string",
          "name": "komposisi",
          "type": "string"
        },
        {
          "internalType": "string",
          "name": "kegunaan",
          "type": "string"
        },
        {
          "internalType": "string",
          "name": "dosis",
          "type": "string"
        },
        {
          "internalType": "string",
          "name": "caraPengolahan",
          "type": "string"
        },
        {
          "internalType": "string",
          "name": "efekSamping",
          "type": "string"
        },
        {
          "internalType": "string",
          "name": "ipfsHash",
          "type": "string"
        }
      ],
      "name": "editPlant",
      "outputs": [],
      "stateMutability": "nonpayable",
      "type": "function"
    },
    {
      "inputs": [
        {
          "internalType": "uint256",
          "name": "plantId",
          "type": "uint256"
        },
        {
          "internalType": "uint256",
          "name": "rating",
          "type": "uint256"
        }
      ],
      "name": "ratePlant",
      "outputs": [],
      "stateMutability": "nonpayable",
      "type": "function"
    },
    {
      "inputs": [
        {
          "internalType": "uint256",
          "name": "plantId",
          "type": "uint256"
        }
      ],
      "name": "getAverageRating",
      "outputs": [
        {
          "internalType": "uint256",
          "name": "",
          "type": "uint256"
        }
      ],
      "stateMutability": "view",
      "type": "function",
      "constant": true
    },
    {
      "inputs": [
        {
          "internalType": "uint256",
          "name": "plantId",
          "type": "uint256"
        }
      ],
      "name": "getPlantRatings",
      "outputs": [
        {
          "internalType": "uint256[]",
          "name": "",
          "type": "uint256[]"
        }
      ],
      "stateMutability": "view",
      "type": "function",
      "constant": true
    },
    {
      "inputs": [
        {
          "internalType": "uint256",
          "name": "plantId",
          "type": "uint256"
        }
      ],
      "name": "likePlant",
      "outputs": [],
      "stateMutability": "nonpayable",
      "type": "function"
    },
    {
      "inputs": [
        {
          "internalType": "uint256",
          "name": "plantId",
          "type": "uint256"
        },
        {
          "internalType": "address",
          "name": "user",
          "type": "address"
        }
      ],
      "name": "isPlantLikedByUser",
      "outputs": [
        {
          "internalType": "bool",
          "name": "",
          "type": "bool"
        }
      ],
      "stateMutability": "view",
      "type": "function",
      "constant": true
    },
    {
      "inputs": [
        {
          "internalType": "uint256",
          "name": "plantId",
          "type": "uint256"
        },
        {
          "internalType": "string",
          "name": "comment",
          "type": "string"
        }
      ],
      "name": "commentPlant",
      "outputs": [],
      "stateMutability": "nonpayable",
      "type": "function"
    },
    {
      "inputs": [
        {
          "internalType": "uint256",
          "name": "plantId",
          "type": "uint256"
        }
      ],
      "name": "getPlant",
      "outputs": [
        {
          "internalType": "string",
          "name": "name",
          "type": "string"
        },
        {
          "internalType": "string",
          "name": "namaLatin",
          "type": "string"
        },
        {
          "internalType": "string",
          "name": "komposisi",
          "type": "string"
        },
        {
          "internalType": "string",
          "name": "kegunaan",
          "type": "string"
        },
        {
          "internalType": "string",
          "name": "dosis",
          "type": "string"
        },
        {
          "internalType": "string",
          "name": "caraPengolahan",
          "type": "string"
        },
        {
          "internalType": "string",
          "name": "efekSamping",
          "type": "string"
        },
        {
          "internalType": "string",
          "name": "ipfsHash",
          "type": "string"
        },
        {
          "internalType": "uint256",
          "name": "ratingTotal",
          "type": "uint256"
        },
        {
          "internalType": "uint256",
          "name": "ratingCount",
          "type": "uint256"
        },
        {
          "internalType": "uint256",
          "name": "likeCount",
          "type": "uint256"
        },
        {
          "internalType": "address",
          "name": "owner",
          "type": "address"
        }
      ],
      "stateMutability": "view",
      "type": "function",
      "constant": true
    },
    {
      "inputs": [
        {
          "internalType": "string",
          "name": "name",
          "type": "string"
        },
        {
          "internalType": "string",
          "name": "namaLatin",
          "type": "string"
        },
        {
          "internalType": "string",
          "name": "komposisi",
          "type": "string"
        },
        {
          "internalType": "string",
          "name": "kegunaan",
          "type": "string"
        }
      ],
      "name": "searchPlants",
      "outputs": [
        {
          "internalType": "uint256[]",
          "name": "",
          "type": "uint256[]"
        },
        {
          "components": [
            {
              "internalType": "string",
              "name": "name",
              "type": "string"
            },
            {
              "internalType": "string",
              "name": "namaLatin",
              "type": "string"
            },
            {
              "internalType": "string",
              "name": "komposisi",
              "type": "string"
            },
            {
              "internalType": "string",
              "name": "kegunaan",
              "type": "string"
            },
            {
              "internalType": "string",
              "name": "dosis",
              "type": "string"
            },
            {
              "internalType": "string",
              "name": "caraPengolahan",
              "type": "string"
            },
            {
              "internalType": "string",
              "name": "efekSamping",
              "type": "string"
            },
            {
              "internalType": "string",
              "name": "ipfsHash",
              "type": "string"
            },
            {
              "internalType": "uint256",
              "name": "ratingTotal",
              "type": "uint256"
            },
            {
              "internalType": "uint256",
              "name": "ratingCount",
              "type": "uint256"
            },
            {
              "internalType": "uint256",
              "name": "likeCount",
              "type": "uint256"
            },
            {
              "internalType": "address",
              "name": "owner",
              "type": "address"
            }
          ],
          "internalType": "struct HerbalPlant.Plant[]",
          "name": "",
          "type": "tuple[]"
        }
      ],
      "stateMutability": "view",
      "type": "function",
      "constant": true
    },
    {
      "inputs": [
        {
          "internalType": "uint256",
          "name": "plantId",
          "type": "uint256"
        }
      ],
      "name": "getPlantComments",
      "outputs": [
        {
          "components": [
            {
              "internalType": "address",
              "name": "user",
              "type": "address"
            },
            {
              "internalType": "string",
              "name": "comment",
              "type": "string"
            },
            {
              "internalType": "uint256",
              "name": "timestamp",
              "type": "uint256"
            }
          ],
          "internalType": "struct HerbalPlant.Comment[]",
          "name": "",
          "type": "tuple[]"
        }
      ],
      "stateMutability": "view",
      "type": "function",
      "constant": true
    },
    {
      "inputs": [],
      "name": "getAllUsers",
      "outputs": [
        {
          "internalType": "address[]",
          "name": "",
          "type": "address[]"
        }
      ],
      "stateMutability": "view",
      "type": "function",
      "constant": true
    }
  ],
  "bytecode": "0x608060405234801561001057600080fd5b506157aa80620000216000396000f3fe608060405234801561001057600080fd5b50600436106101425760003560e01c80638c03134f116100b8578063b85f7d571161007c578063b85f7d57146103a6578063d5469da6146103c4578063e2842d79146103f6578063e2ec5fdf14610414578063ed0b1f5f14610430578063efbf07d61461046b57610142565b80638c03134f146102e55780638dd2361c146103015780638e788d0d1461033c578063a7d045991461036c578063b34e97e81461039c57610142565b80631f3c99c31161010a5780631f3c99c31461020f578063381c9b1914610219578063412cc71f146102355780636386c1c7146102665780637dddc392146102995780637eede255146102c957610142565b806307f9603e1461014757806311fb6c891461017757806317b7e03e146101a75780631956e2e2146101d75780631d2e4afd146101f3575b600080fd5b610161600480360381019061015c9190614383565b61049b565b60405161016e9190614e67565b60405180910390f35b610191600480360381019061018c91906145c2565b61067a565b60405161019e9190614dca565b60405180910390f35b6101c160048036038101906101bc9190614383565b6106c8565b6040516101ce91906151e2565b60405180910390f35b6101f160048036038101906101ec9190614383565b610748565b005b61020d600480360381019061020891906140e2565b610b11565b005b610217610dc1565b005b610233600480360381019061022e9190614211565b610ef0565b005b61024f600480360381019061024a919061414e565b611288565b60405161025d929190614e89565b60405180910390f35b610280600480360381019061027b91906140b9565b611e4e565b6040516102909493929190614efd565b60405180910390f35b6102b360048036038101906102ae91906143ac565b612020565b6040516102c091906151e2565b60405180910390f35b6102e360048036038101906102de91906145c2565b612045565b005b6102ff60048036038101906102fa919061443c565b61246e565b005b61031b60048036038101906103169190614383565b6127c5565b6040516103339c9b9a99989796959493929190614f50565b60405180910390f35b61035660048036038101906103519190614383565b612c85565b6040516103639190614e45565b60405180910390f35b610386600480360381019061038191906143ac565b612de9565b6040516103939190614ec0565b60405180910390f35b6103a4612e51565b005b6103ae61300f565b6040516103bb91906151e2565b60405180910390f35b6103de60048036038101906103d991906145c2565b613015565b6040516103ed93929190614de5565b60405180910390f35b6103fe613104565b60405161040b9190614e23565b60405180910390f35b61042e600480360381019061042991906143e8565b613192565b005b61044a60048036038101906104459190614383565b613477565b6040516104629c9b9a99989796959493929190614f50565b60405180910390f35b610485600480360381019061048091906143ac565b613a20565b6040516104929190614ec0565b60405180910390f35b6060600080600084815260200190815260200160002060090154905060008167ffffffffffffffff8111156104f9577f4e487b7100000000000000000000000000000000000000000000000000000000600052604160045260246000fd5b6040519080825280602002602001820160405280156105275781602001602082028036833780820191505090505b50905060005b600360008681526020019081526020016000208054905081101561066f576000600360008781526020019081526020016000208281548110610598577f4e487b7100000000000000000000000000000000000000000000000000000000600052603260045260246000fd5b9060005260206000200160009054906101000a900473ffffffffffffffffffffffffffffffffffffffff1690506004600087815260200190815260200160002060008273ffffffffffffffffffffffffffffffffffffffff1673ffffffffffffffffffffffffffffffffffffffff1681526020019081526020016000205483838151811061064f577f4e487b7100000000000000000000000000000000000000000000000000000000600052603260045260246000fd5b60200260200101818152505050808061066790615630565b91505061052d565b508092505050919050565b6003602052816000526040600020818154811061069657600080fd5b906000526020600020016000915091509054906101000a900473ffffffffffffffffffffffffffffffffffffffff1681565b60008060008084815260200190815260200160002090506000816009015411610726576040517f08c379a000000000000000000000000000000000000000000000000000000000815260040161071d906150e2565b60405180910390fd5b60008160090154826008015461073c91906154d8565b90508092505050919050565b600160003373ffffffffffffffffffffffffffffffffffffffff1673ffffffffffffffffffffffffffffffffffffffff16815260200190815260200160002060020160009054906101000a900460ff166107d7576040517f08c379a00000000000000000000000000000000000000000000000000000000081526004016107ce90615142565b60405180910390fd5b600160003373ffffffffffffffffffffffffffffffffffffffff1673ffffffffffffffffffffffffffffffffffffffff16815260200190815260200160002060020160019054906101000a900460ff16610866576040517f08c379a000000000000000000000000000000000000000000000000000000000815260040161085d90615182565b60405180910390fd5b600073ffffffffffffffffffffffffffffffffffffffff16600080838152602001908152602001600020600b0160009054906101000a900473ffffffffffffffffffffffffffffffffffffffff1673ffffffffffffffffffffffffffffffffffffffff16141561090b576040517f08c379a000000000000000000000000000000000000000000000000000000000815260040161090290615102565b60405180910390fd5b6005600082815260200190815260200160002060003373ffffffffffffffffffffffffffffffffffffffff1673ffffffffffffffffffffffffffffffffffffffff16815260200190815260200160002060009054906101000a900460ff1615610a405760006005600083815260200190815260200160002060003373ffffffffffffffffffffffffffffffffffffffff1673ffffffffffffffffffffffffffffffffffffffff16815260200190815260200160002060006101000a81548160ff021916908315150217905550600080828152602001908152602001600020600a0160008154809291906109fd906155d4565b91905055507f16cbc6f742dcf78c5d0f58c5388cd298787bc75f6cad1423a17c3abe3723c5b88133604051610a339291906151fd565b60405180910390a1610b0e565b60016005600083815260200190815260200160002060003373ffffffffffffffffffffffffffffffffffffffff1673ffffffffffffffffffffffffffffffffffffffff16815260200190815260200160002060006101000a81548160ff021916908315150217905550600080828152602001908152602001600020600a016000815480929190610acf90615630565b91905055507f16cbc6f742dcf78c5d0f58c5388cd298787bc75f6cad1423a17c3abe3723c5b88133604051610b059291906151fd565b60405180910390a15b50565b6000825111610b55576040517f08c379a0000000000000000000000000000000000000000000000000000000008152600401610b4c90615042565b60405180910390fd5b6000815111610b99576040517f08c379a0000000000000000000000000000000000000000000000000000000008152600401610b9090615062565b60405180910390fd5b600160003373ffffffffffffffffffffffffffffffffffffffff1673ffffffffffffffffffffffffffffffffffffffff16815260200190815260200160002060020160009054906101000a900460ff1615610c29576040517f08c379a0000000000000000000000000000000000000000000000000000000008152600401610c2090615082565b60405180910390fd5b604051806080016040528083815260200182815260200160011515815260200160001515815250600160003373ffffffffffffffffffffffffffffffffffffffff1673ffffffffffffffffffffffffffffffffffffffff1681526020019081526020016000206000820151816000019080519060200190610cab929190613f0d565b506020820151816001019080519060200190610cc8929190613f0d565b5060408201518160020160006101000a81548160ff02191690831515021790555060608201518160020160016101000a81548160ff0219169083151502179055509050506007339080600181540180825580915050600190039060005260206000200160009091909190916101000a81548173ffffffffffffffffffffffffffffffffffffffff021916908373ffffffffffffffffffffffffffffffffffffffff1602179055503373ffffffffffffffffffffffffffffffffffffffff167f48cac28ad4dc618e15f4c2dd5e97751182f166de97b25618318b2112aa951a2f83604051610db59190614edb565b60405180910390a25050565b600160003373ffffffffffffffffffffffffffffffffffffffff1673ffffffffffffffffffffffffffffffffffffffff16815260200190815260200160002060020160019054906101000a900460ff16610e50576040517f08c379a0000000000000000000000000000000000000000000000000000000008152600401610e4790615122565b60405180910390fd5b6000600160003373ffffffffffffffffffffffffffffffffffffffff1673ffffffffffffffffffffffffffffffffffffffff16815260200190815260200160002060020160016101000a81548160ff0219169083151502179055503373ffffffffffffffffffffffffffffffffffffffff167fc6ef449222bae3754898fc5fa944d52dfc53c0ee1fdd7d733fbb422ac5e2b8c860405160405180910390a2565b600160003373ffffffffffffffffffffffffffffffffffffffff1673ffffffffffffffffffffffffffffffffffffffff16815260200190815260200160002060020160009054906101000a900460ff16610f7f576040517f08c379a0000000000000000000000000000000000000000000000000000000008152600401610f7690615142565b60405180910390fd5b600160003373ffffffffffffffffffffffffffffffffffffffff1673ffffffffffffffffffffffffffffffffffffffff16815260200190815260200160002060020160019054906101000a900460ff1661100e576040517f08c379a000000000000000000000000000000000000000000000000000000000815260040161100590615182565b60405180910390fd5b6000885111611052576040517f08c379a0000000000000000000000000000000000000000000000000000000008152600401611049906151a2565b60405180910390fd5b600060065490506040518061018001604052808a81526020018981526020018881526020018781526020018681526020018581526020018481526020018381526020016000815260200160008152602001600081526020013373ffffffffffffffffffffffffffffffffffffffff1681525060008083815260200190815260200160002060008201518160000190805190602001906110f2929190613f0d565b50602082015181600101908051906020019061110f929190613f0d565b50604082015181600201908051906020019061112c929190613f0d565b506060820151816003019080519060200190611149929190613f0d565b506080820151816004019080519060200190611166929190613f0d565b5060a0820151816005019080519060200190611183929190613f0d565b5060c08201518160060190805190602001906111a0929190613f0d565b5060e08201518160070190805190602001906111bd929190613f0d565b506101008201518160080155610120820151816009015561014082015181600a015561016082015181600b0160006101000a81548173ffffffffffffffffffffffffffffffffffffffff021916908373ffffffffffffffffffffffffffffffffffffffff1602179055509050507f501d7870f277450aef6f6286e3405d1db2d4e338b74742dda780ae4605428ac3818a3360405161125d9392919061529b565b60405180910390a16006600081548092919061127890615630565b9190505550505050505050505050565b60608060008060065467ffffffffffffffff8111156112d0577f4e487b7100000000000000000000000000000000000000000000000000000000600052604160045260246000fd5b6040519080825280602002602001820160405280156112fe5781602001602082028036833780820191505090505b509050600060065467ffffffffffffffff811115611345577f4e487b7100000000000000000000000000000000000000000000000000000000600052604160045260246000fd5b60405190808252806020026020018201604052801561137e57816020015b61136b613f93565b8152602001906001900390816113635790505b50905060005b600654811015611c1e57600080600083815260200190815260200160002090506000808c5111801561144857506114478260000180546113c3906155fe565b80601f01602080910402602001604051908101604052809291908181526020018280546113ef906155fe565b801561143c5780601f106114115761010080835404028352916020019161143c565b820191906000526020600020905b81548152906001019060200180831161141f57829003601f168201915b50505050508d613a4f565b5b1561145257600190505b60008b511180156114f557506114f4826001018054611470906155fe565b80601f016020809104026020016040519081016040528092919081815260200182805461149c906155fe565b80156114e95780601f106114be576101008083540402835291602001916114e9565b820191906000526020600020905b8154815290600101906020018083116114cc57829003601f168201915b50505050508c613a4f565b5b156114ff57600190505b60008a511180156115a257506115a182600201805461151d906155fe565b80601f0160208091040260200160405190810160405280929190818152602001828054611549906155fe565b80156115965780601f1061156b57610100808354040283529160200191611596565b820191906000526020600020905b81548152906001019060200180831161157957829003601f168201915b50505050508b613a4f565b5b156115ac57600190505b6000895111801561164f575061164e8260030180546115ca906155fe565b80601f01602080910402602001604051908101604052809291908181526020018280546115f6906155fe565b80156116435780601f1061161857610100808354040283529160200191611643565b820191906000526020600020905b81548152906001019060200180831161162657829003601f168201915b50505050508a613a4f565b5b1561165957600190505b8015611c095782858781518110611699577f4e487b7100000000000000000000000000000000000000000000000000000000600052603260045260246000fd5b60200260200101818152505081604051806101800160405290816000820180546116c2906155fe565b80601f01602080910402602001604051908101604052809291908181526020018280546116ee906155fe565b801561173b5780601f106117105761010080835404028352916020019161173b565b820191906000526020600020905b81548152906001019060200180831161171e57829003601f168201915b50505050508152602001600182018054611754906155fe565b80601f0160208091040260200160405190810160405280929190818152602001828054611780906155fe565b80156117cd5780601f106117a2576101008083540402835291602001916117cd565b820191906000526020600020905b8154815290600101906020018083116117b057829003601f168201915b505050505081526020016002820180546117e6906155fe565b80601f0160208091040260200160405190810160405280929190818152602001828054611812906155fe565b801561185f5780601f106118345761010080835404028352916020019161185f565b820191906000526020600020905b81548152906001019060200180831161184257829003601f168201915b50505050508152602001600382018054611878906155fe565b80601f01602080910402602001604051908101604052809291908181526020018280546118a4906155fe565b80156118f15780601f106118c6576101008083540402835291602001916118f1565b820191906000526020600020905b8154815290600101906020018083116118d457829003601f168201915b5050505050815260200160048201805461190a906155fe565b80601f0160208091040260200160405190810160405280929190818152602001828054611936906155fe565b80156119835780601f1061195857610100808354040283529160200191611983565b820191906000526020600020905b81548152906001019060200180831161196657829003601f168201915b5050505050815260200160058201805461199c906155fe565b80601f01602080910402602001604051908101604052809291908181526020018280546119c8906155fe565b8015611a155780601f106119ea57610100808354040283529160200191611a15565b820191906000526020600020905b8154815290600101906020018083116119f857829003601f168201915b50505050508152602001600682018054611a2e906155fe565b80601f0160208091040260200160405190810160405280929190818152602001828054611a5a906155fe565b8015611aa75780601f10611a7c57610100808354040283529160200191611aa7565b820191906000526020600020905b815481529060010190602001808311611a8a57829003601f168201915b50505050508152602001600782018054611ac0906155fe565b80601f0160208091040260200160405190810160405280929190818152602001828054611aec906155fe565b8015611b395780601f10611b0e57610100808354040283529160200191611b39565b820191906000526020600020905b815481529060010190602001808311611b1c57829003601f168201915b505050505081526020016008820154815260200160098201548152602001600a8201548152602001600b820160009054906101000a900473ffffffffffffffffffffffffffffffffffffffff1673ffffffffffffffffffffffffffffffffffffffff1673ffffffffffffffffffffffffffffffffffffffff1681525050848781518110611bef577f4e487b7100000000000000000000000000000000000000000000000000000000600052603260045260246000fd5b60200260200101819052508580611c0590615630565b9650505b50508080611c1690615630565b915050611384565b5060008367ffffffffffffffff811115611c61577f4e487b7100000000000000000000000000000000000000000000000000000000600052604160045260246000fd5b604051908082528060200260200182016040528015611c8f5781602001602082028036833780820191505090505b50905060008467ffffffffffffffff811115611cd4577f4e487b7100000000000000000000000000000000000000000000000000000000600052604160045260246000fd5b604051908082528060200260200182016040528015611d0d57816020015b611cfa613f93565b815260200190600190039081611cf25790505b50905060005b85811015611e3957848181518110611d54577f4e487b7100000000000000000000000000000000000000000000000000000000600052603260045260246000fd5b6020026020010151838281518110611d95577f4e487b7100000000000000000000000000000000000000000000000000000000600052603260045260246000fd5b602002602001018181525050838181518110611dda577f4e487b7100000000000000000000000000000000000000000000000000000000600052603260045260246000fd5b6020026020010151828281518110611e1b577f4e487b7100000000000000000000000000000000000000000000000000000000600052603260045260246000fd5b60200260200101819052508080611e3190615630565b915050611d13565b50818196509650505050505094509492505050565b6060806000806000600160008773ffffffffffffffffffffffffffffffffffffffff1673ffffffffffffffffffffffffffffffffffffffff168152602001908152602001600020604051806080016040529081600082018054611eb0906155fe565b80601f0160208091040260200160405190810160405280929190818152602001828054611edc906155fe565b8015611f295780601f10611efe57610100808354040283529160200191611f29565b820191906000526020600020905b815481529060010190602001808311611f0c57829003601f168201915b50505050508152602001600182018054611f42906155fe565b80601f0160208091040260200160405190810160405280929190818152602001828054611f6e906155fe565b8015611fbb5780601f10611f9057610100808354040283529160200191611fbb565b820191906000526020600020905b815481529060010190602001808311611f9e57829003601f168201915b505050505081526020016002820160009054906101000a900460ff161515151581526020016002820160019054906101000a900460ff161515151581525050905080600001518160200151826040015183606001519450945094509450509193509193565b6004602052816000526040600020602052806000526040600020600091509150505481565b600160003373ffffffffffffffffffffffffffffffffffffffff1673ffffffffffffffffffffffffffffffffffffffff16815260200190815260200160002060020160009054906101000a900460ff166120d4576040517f08c379a00000000000000000000000000000000000000000000000000000000081526004016120cb90615142565b60405180910390fd5b600160003373ffffffffffffffffffffffffffffffffffffffff1673ffffffffffffffffffffffffffffffffffffffff16815260200190815260200160002060020160019054906101000a900460ff16612163576040517f08c379a000000000000000000000000000000000000000000000000000000000815260040161215a90615182565b60405180910390fd5b600073ffffffffffffffffffffffffffffffffffffffff16600080848152602001908152602001600020600b0160009054906101000a900473ffffffffffffffffffffffffffffffffffffffff1673ffffffffffffffffffffffffffffffffffffffff161415612208576040517f08c379a00000000000000000000000000000000000000000000000000000000081526004016121ff90615102565b60405180910390fd5b6001811015801561221a575060058111155b612259576040517f08c379a0000000000000000000000000000000000000000000000000000000008152600401612250906150c2565b60405180910390fd5b60006004600084815260200190815260200160002060003373ffffffffffffffffffffffffffffffffffffffff1673ffffffffffffffffffffffffffffffffffffffff1681526020019081526020016000205490506000811461230e578060008085815260200190815260200160002060080160008282546122db9190615509565b925050819055506000808481526020019081526020016000206009016000815480929190612308906155d4565b91905055505b816004600085815260200190815260200160002060003373ffffffffffffffffffffffffffffffffffffffff1673ffffffffffffffffffffffffffffffffffffffff16815260200190815260200160002081905550816000808581526020019081526020016000206008016000828254612388919061544b565b9250508190555060008084815260200190815260200160002060090160008154809291906123b590615630565b919050555060036000848152602001908152602001600020339080600181540180825580915050600190039060005260206000200160009091909190916101000a81548173ffffffffffffffffffffffffffffffffffffffff021916908373ffffffffffffffffffffffffffffffffffffffff1602179055507f5a90108db35c713ec6356a9abbb3f1f006f75e48a06998c0616e9dbe5dea641083338460405161246193929190615264565b60405180910390a1505050565b600160003373ffffffffffffffffffffffffffffffffffffffff1673ffffffffffffffffffffffffffffffffffffffff16815260200190815260200160002060020160009054906101000a900460ff166124fd576040517f08c379a00000000000000000000000000000000000000000000000000000000081526004016124f490615142565b60405180910390fd5b600160003373ffffffffffffffffffffffffffffffffffffffff1673ffffffffffffffffffffffffffffffffffffffff16815260200190815260200160002060020160019054906101000a900460ff1661258c576040517f08c379a000000000000000000000000000000000000000000000000000000000815260040161258390615182565b60405180910390fd5b3373ffffffffffffffffffffffffffffffffffffffff166000808b8152602001908152602001600020600b0160009054906101000a900473ffffffffffffffffffffffffffffffffffffffff1673ffffffffffffffffffffffffffffffffffffffff161461262f576040517f08c379a000000000000000000000000000000000000000000000000000000000815260040161262690615162565b60405180910390fd5b876000808b81526020019081526020016000206000019080519060200190612658929190613f0d565b50866000808b81526020019081526020016000206001019080519060200190612682929190613f0d565b50856000808b815260200190815260200160002060020190805190602001906126ac929190613f0d565b50846000808b815260200190815260200160002060030190805190602001906126d6929190613f0d565b50836000808b81526020019081526020016000206004019080519060200190612700929190613f0d565b50826000808b8152602001908152602001600020600501908051906020019061272a929190613f0d565b50816000808b81526020019081526020016000206006019080519060200190612754929190613f0d565b50806000808b8152602001908152602001600020600701908051906020019061277e929190613f0d565b507f501d7870f277450aef6f6286e3405d1db2d4e338b74742dda780ae4605428ac38989336040516127b29392919061529b565b60405180910390a1505050505050505050565b60006020528060005260406000206000915090508060000180546127e8906155fe565b80601f0160208091040260200160405190810160405280929190818152602001828054612814906155fe565b80156128615780601f1061283657610100808354040283529160200191612861565b820191906000526020600020905b81548152906001019060200180831161284457829003601f168201915b505050505090806001018054612876906155fe565b80601f01602080910402602001604051908101604052809291908181526020018280546128a2906155fe565b80156128ef5780601f106128c4576101008083540402835291602001916128ef565b820191906000526020600020905b8154815290600101906020018083116128d257829003601f168201915b505050505090806002018054612904906155fe565b80601f0160208091040260200160405190810160405280929190818152602001828054612930906155fe565b801561297d5780601f106129525761010080835404028352916020019161297d565b820191906000526020600020905b81548152906001019060200180831161296057829003601f168201915b505050505090806003018054612992906155fe565b80601f01602080910402602001604051908101604052809291908181526020018280546129be906155fe565b8015612a0b5780601f106129e057610100808354040283529160200191612a0b565b820191906000526020600020905b8154815290600101906020018083116129ee57829003601f168201915b505050505090806004018054612a20906155fe565b80601f0160208091040260200160405190810160405280929190818152602001828054612a4c906155fe565b8015612a995780601f10612a6e57610100808354040283529160200191612a99565b820191906000526020600020905b815481529060010190602001808311612a7c57829003601f168201915b505050505090806005018054612aae906155fe565b80601f0160208091040260200160405190810160405280929190818152602001828054612ada906155fe565b8015612b275780601f10612afc57610100808354040283529160200191612b27565b820191906000526020600020905b815481529060010190602001808311612b0a57829003601f168201915b505050505090806006018054612b3c906155fe565b80601f0160208091040260200160405190810160405280929190818152602001828054612b68906155fe565b8015612bb55780601f10612b8a57610100808354040283529160200191612bb5565b820191906000526020600020905b815481529060010190602001808311612b9857829003601f168201915b505050505090806007018054612bca906155fe565b80601f0160208091040260200160405190810160405280929190818152602001828054612bf6906155fe565b8015612c435780601f10612c1857610100808354040283529160200191612c43565b820191906000526020600020905b815481529060010190602001808311612c2657829003601f168201915b50505050509080600801549080600901549080600a01549080600b0160009054906101000a900473ffffffffffffffffffffffffffffffffffffffff1690508c565b606060026000838152602001908152602001600020805480602002602001604051908101604052809291908181526020016000905b82821015612dde57838290600052602060002090600302016040518060600160405290816000820160009054906101000a900473ffffffffffffffffffffffffffffffffffffffff1673ffffffffffffffffffffffffffffffffffffffff1673ffffffffffffffffffffffffffffffffffffffff168152602001600182018054612d43906155fe565b80601f0160208091040260200160405190810160405280929190818152602001828054612d6f906155fe565b8015612dbc5780601f10612d9157610100808354040283529160200191612dbc565b820191906000526020600020905b815481529060010190602001808311612d9f57829003601f168201915b5050505050815260200160028201548152505081526020019060010190612cba565b505050509050919050565b60006005600084815260200190815260200160002060008373ffffffffffffffffffffffffffffffffffffffff1673ffffffffffffffffffffffffffffffffffffffff16815260200190815260200160002060009054906101000a900460ff16905092915050565b600160003373ffffffffffffffffffffffffffffffffffffffff1673ffffffffffffffffffffffffffffffffffffffff16815260200190815260200160002060020160009054906101000a900460ff16612ee0576040517f08c379a0000000000000000000000000000000000000000000000000000000008152600401612ed7906151c2565b60405180910390fd5b600160003373ffffffffffffffffffffffffffffffffffffffff1673ffffffffffffffffffffffffffffffffffffffff16815260200190815260200160002060020160019054906101000a900460ff1615612f70576040517f08c379a0000000000000000000000000000000000000000000000000000000008152600401612f67906150a2565b60405180910390fd5b60018060003373ffffffffffffffffffffffffffffffffffffffff1673ffffffffffffffffffffffffffffffffffffffff16815260200190815260200160002060020160016101000a81548160ff0219169083151502179055503373ffffffffffffffffffffffffffffffffffffffff167f8d15fde878cff665868ed7579eb5081db6508d4249df61dcdd7699a5301d987460405160405180910390a2565b60065481565b6002602052816000526040600020818154811061303157600080fd5b9060005260206000209060030201600091509150508060000160009054906101000a900473ffffffffffffffffffffffffffffffffffffffff169080600101805461307b906155fe565b80601f01602080910402602001604051908101604052809291908181526020018280546130a7906155fe565b80156130f45780601f106130c9576101008083540402835291602001916130f4565b820191906000526020600020905b8154815290600101906020018083116130d757829003601f168201915b5050505050908060020154905083565b6060600780548060200260200160405190810160405280929190818152602001828054801561318857602002820191906000526020600020905b8160009054906101000a900473ffffffffffffffffffffffffffffffffffffffff1673ffffffffffffffffffffffffffffffffffffffff168152602001906001019080831161313e575b5050505050905090565b600160003373ffffffffffffffffffffffffffffffffffffffff1673ffffffffffffffffffffffffffffffffffffffff16815260200190815260200160002060020160009054906101000a900460ff16613221576040517f08c379a000000000000000000000000000000000000000000000000000000000815260040161321890615142565b60405180910390fd5b600160003373ffffffffffffffffffffffffffffffffffffffff1673ffffffffffffffffffffffffffffffffffffffff16815260200190815260200160002060020160019054906101000a900460ff166132b0576040517f08c379a00000000000000000000000000000000000000000000000000000000081526004016132a790615182565b60405180910390fd5b600073ffffffffffffffffffffffffffffffffffffffff16600080848152602001908152602001600020600b0160009054906101000a900473ffffffffffffffffffffffffffffffffffffffff1673ffffffffffffffffffffffffffffffffffffffff161415613355576040517f08c379a000000000000000000000000000000000000000000000000000000000815260040161334c90615102565b60405180910390fd5b600060405180606001604052803373ffffffffffffffffffffffffffffffffffffffff1681526020018381526020014281525090506002600084815260200190815260200160002081908060018154018082558091505060019003906000526020600020906003020160009091909190915060008201518160000160006101000a81548173ffffffffffffffffffffffffffffffffffffffff021916908373ffffffffffffffffffffffffffffffffffffffff160217905550602082015181600101908051906020019061342a929190613f0d565b506040820151816002015550507f279d5614862445216877d543708664e73d87439c98f65d81d5163ed98ad2d60383338460405161346a93929190615226565b60405180910390a1505050565b606080606080606080606080600080600080600073ffffffffffffffffffffffffffffffffffffffff166000808f8152602001908152602001600020600b0160009054906101000a900473ffffffffffffffffffffffffffffffffffffffff1673ffffffffffffffffffffffffffffffffffffffff16141561352e576040517f08c379a000000000000000000000000000000000000000000000000000000000815260040161352590615102565b60405180910390fd5b60008060008f815260200190815260200160002090508060000181600101826002018360030184600401856005018660060187600701886008015489600901548a600a01548b600b0160009054906101000a900473ffffffffffffffffffffffffffffffffffffffff168b80546135a4906155fe565b80601f01602080910402602001604051908101604052809291908181526020018280546135d0906155fe565b801561361d5780601f106135f25761010080835404028352916020019161361d565b820191906000526020600020905b81548152906001019060200180831161360057829003601f168201915b50505050509b508a8054613630906155fe565b80601f016020809104026020016040519081016040528092919081815260200182805461365c906155fe565b80156136a95780601f1061367e576101008083540402835291602001916136a9565b820191906000526020600020905b81548152906001019060200180831161368c57829003601f168201915b50505050509a508980546136bc906155fe565b80601f01602080910402602001604051908101604052809291908181526020018280546136e8906155fe565b80156137355780601f1061370a57610100808354040283529160200191613735565b820191906000526020600020905b81548152906001019060200180831161371857829003601f168201915b50505050509950888054613748906155fe565b80601f0160208091040260200160405190810160405280929190818152602001828054613774906155fe565b80156137c15780601f10613796576101008083540402835291602001916137c1565b820191906000526020600020905b8154815290600101906020018083116137a457829003601f168201915b505050505098508780546137d4906155fe565b80601f0160208091040260200160405190810160405280929190818152602001828054613800906155fe565b801561384d5780601f106138225761010080835404028352916020019161384d565b820191906000526020600020905b81548152906001019060200180831161383057829003601f168201915b50505050509750868054613860906155fe565b80601f016020809104026020016040519081016040528092919081815260200182805461388c906155fe565b80156138d95780601f106138ae576101008083540402835291602001916138d9565b820191906000526020600020905b8154815290600101906020018083116138bc57829003601f168201915b505050505096508580546138ec906155fe565b80601f0160208091040260200160405190810160405280929190818152602001828054613918906155fe565b80156139655780601f1061393a57610100808354040283529160200191613965565b820191906000526020600020905b81548152906001019060200180831161394857829003601f168201915b50505050509550848054613978906155fe565b80601f01602080910402602001604051908101604052809291908181526020018280546139a4906155fe565b80156139f15780601f106139c6576101008083540402835291602001916139f1565b820191906000526020600020905b8154815290600101906020018083116139d457829003601f168201915b505050505094509c509c509c509c509c509c509c509c509c509c509c509c505091939597999b5091939597999b565b60056020528160005260406000206020528060005260406000206000915091509054906101000a900460ff1681565b6000808390506000839050600081511415613a6f57600192505050613c07565b815181511115613a8457600092505050613c07565b6000613a8f86613c0d565b90506000613a9c86613c0d565b90506000600182518451613ab09190615509565b613aba919061544b565b905060005b81811015613bfc5760006001905060005b8451811015613bd157848181518110613b12577f4e487b7100000000000000000000000000000000000000000000000000000000600052603260045260246000fd5b602001015160f81c60f81b7effffffffffffffffffffffffffffffffffffffffffffffffffffffffffffff1916868285613b4c919061544b565b81518110613b83577f4e487b7100000000000000000000000000000000000000000000000000000000600052603260045260246000fd5b602001015160f81c60f81b7effffffffffffffffffffffffffffffffffffffffffffffffffffffffffffff191614613bbe5760009150613bd1565b8080613bc990615630565b915050613ad0565b508015613be8576001975050505050505050613c07565b508080613bf490615630565b915050613abf565b506000955050505050505b92915050565b606060008290506000815167ffffffffffffffff811115613c57577f4e487b7100000000000000000000000000000000000000000000000000000000600052604160045260246000fd5b6040519080825280601f01601f191660200182016040528015613c895781602001600182028036833780820191505090505b50905060005b8251811015613f0257604160f81b838281518110613cd6577f4e487b7100000000000000000000000000000000000000000000000000000000600052603260045260246000fd5b602001015160f81c60f81b7effffffffffffffffffffffffffffffffffffffffffffffffffffffffffffff191610158015613d7a5750605a60f81b838281518110613d4a577f4e487b7100000000000000000000000000000000000000000000000000000000600052603260045260246000fd5b602001015160f81c60f81b7effffffffffffffffffffffffffffffffffffffffffffffffffffffffffffff191611155b15613e42576020838281518110613dba577f4e487b7100000000000000000000000000000000000000000000000000000000600052603260045260246000fd5b602001015160f81c60f81b60f81c613dd291906154a1565b60f81b828281518110613e0e577f4e487b7100000000000000000000000000000000000000000000000000000000600052603260045260246000fd5b60200101907effffffffffffffffffffffffffffffffffffffffffffffffffffffffffffff1916908160001a905350613eef565b828181518110613e7b577f4e487b7100000000000000000000000000000000000000000000000000000000600052603260045260246000fd5b602001015160f81c60f81b828281518110613ebf577f4e487b7100000000000000000000000000000000000000000000000000000000600052603260045260246000fd5b60200101907effffffffffffffffffffffffffffffffffffffffffffffffffffffffffffff1916908160001a9053505b8080613efa90615630565b915050613c8f565b508092505050919050565b828054613f19906155fe565b90600052602060002090601f016020900481019282613f3b5760008555613f82565b82601f10613f5457805160ff1916838001178555613f82565b82800160010185558215613f82579182015b82811115613f81578251825591602001919060010190613f66565b5b509050613f8f919061400a565b5090565b6040518061018001604052806060815260200160608152602001606081526020016060815260200160608152602001606081526020016060815260200160608152602001600081526020016000815260200160008152602001600073ffffffffffffffffffffffffffffffffffffffff1681525090565b5b8082111561402357600081600090555060010161400b565b5090565b600061403a6140358461530a565b6152d9565b90508281526020810184848401111561405257600080fd5b61405d848285615592565b509392505050565b60008135905061407481615746565b92915050565b600082601f83011261408b57600080fd5b813561409b848260208601614027565b91505092915050565b6000813590506140b38161575d565b92915050565b6000602082840312156140cb57600080fd5b60006140d984828501614065565b91505092915050565b600080604083850312156140f557600080fd5b600083013567ffffffffffffffff81111561410f57600080fd5b61411b8582860161407a565b925050602083013567ffffffffffffffff81111561413857600080fd5b6141448582860161407a565b9150509250929050565b6000806000806080858703121561416457600080fd5b600085013567ffffffffffffffff81111561417e57600080fd5b61418a8782880161407a565b945050602085013567ffffffffffffffff8111156141a757600080fd5b6141b38782880161407a565b935050604085013567ffffffffffffffff8111156141d057600080fd5b6141dc8782880161407a565b925050606085013567ffffffffffffffff8111156141f957600080fd5b6142058782880161407a565b91505092959194509250565b600080600080600080600080610100898b03121561422e57600080fd5b600089013567ffffffffffffffff81111561424857600080fd5b6142548b828c0161407a565b985050602089013567ffffffffffffffff81111561427157600080fd5b61427d8b828c0161407a565b975050604089013567ffffffffffffffff81111561429a57600080fd5b6142a68b828c0161407a565b965050606089013567ffffffffffffffff8111156142c357600080fd5b6142cf8b828c0161407a565b955050608089013567ffffffffffffffff8111156142ec57600080fd5b6142f88b828c0161407a565b94505060a089013567ffffffffffffffff81111561431557600080fd5b6143218b828c0161407a565b93505060c089013567ffffffffffffffff81111561433e57600080fd5b61434a8b828c0161407a565b92505060e089013567ffffffffffffffff81111561436757600080fd5b6143738b828c0161407a565b9150509295985092959890939650565b60006020828403121561439557600080fd5b60006143a3848285016140a4565b91505092915050565b600080604083850312156143bf57600080fd5b60006143cd858286016140a4565b92505060206143de85828601614065565b9150509250929050565b600080604083850312156143fb57600080fd5b6000614409858286016140a4565b925050602083013567ffffffffffffffff81111561442657600080fd5b6144328582860161407a565b9150509250929050565b60008060008060008060008060006101208a8c03121561445b57600080fd5b60006144698c828d016140a4565b99505060208a013567ffffffffffffffff81111561448657600080fd5b6144928c828d0161407a565b98505060408a013567ffffffffffffffff8111156144af57600080fd5b6144bb8c828d0161407a565b97505060608a013567ffffffffffffffff8111156144d857600080fd5b6144e48c828d0161407a565b96505060808a013567ffffffffffffffff81111561450157600080fd5b61450d8c828d0161407a565b95505060a08a013567ffffffffffffffff81111561452a57600080fd5b6145368c828d0161407a565b94505060c08a013567ffffffffffffffff81111561455357600080fd5b61455f8c828d0161407a565b93505060e08a013567ffffffffffffffff81111561457c57600080fd5b6145888c828d0161407a565b9250506101008a013567ffffffffffffffff8111156145a657600080fd5b6145b28c828d0161407a565b9150509295985092959850929598565b600080604083850312156145d557600080fd5b60006145e3858286016140a4565b92505060206145f4858286016140a4565b9150509250929050565b600061460a8383614656565b60208301905092915050565b60006146228383614c27565b905092915050565b60006146368383614c77565b905092915050565b600061464a8383614dac565b60208301905092915050565b61465f8161553d565b82525050565b61466e8161553d565b82525050565b600061467f8261537a565b61468981856153e5565b93506146948361533a565b8060005b838110156146c55781516146ac88826145fe565b97506146b7836153b1565b925050600181019050614698565b5085935050505092915050565b60006146dd82615385565b6146e781856153f6565b9350836020820285016146f98561534a565b8060005b8581101561473557848403895281516147168582614616565b9450614721836153be565b925060208a019950506001810190506146fd565b50829750879550505050505092915050565b600061475282615390565b61475c8185615407565b93508360208202850161476e8561535a565b8060005b858110156147aa578484038952815161478b858261462a565b9450614796836153cb565b925060208a01995050600181019050614772565b50829750879550505050505092915050565b60006147c78261539b565b6147d18185615418565b93506147dc8361536a565b8060005b8381101561480d5781516147f4888261463e565b97506147ff836153d8565b9250506001810190506147e0565b5085935050505092915050565b6148238161554f565b82525050565b6000614834826153a6565b61483e8185615429565b935061484e8185602086016155a1565b61485781615735565b840191505092915050565b600061486d826153a6565b614877818561543a565b93506148878185602086016155a1565b61489081615735565b840191505092915050565b60006148a860178361543a565b91507f4e616d6120746964616b20626f6c6568206b6f736f6e670000000000000000006000830152602082019050919050565b60006148e860198361543a565b91507f50617373776f7264206861736820746964616b2076616c6964000000000000006000830152602082019050919050565b600061492860148361543a565b91507f416b756e207375646168207465726461667461720000000000000000000000006000830152602082019050919050565b6000614968600b8361543a565b91507f5375646168206c6f67696e0000000000000000000000000000000000000000006000830152602082019050919050565b60006149a8601e8361543a565b91507f526174696e6720686172757320616e7461726120312068696e676761203500006000830152602082019050919050565b60006149e860228361543a565b91507f546964616b2061646120726174696e6720756e74756b2074616e616d616e206960008301527f6e690000000000000000000000000000000000000000000000000000000000006020830152604082019050919050565b6000614a4e60178361543a565b91507f54616e616d616e20746964616b20646974656d756b616e0000000000000000006000830152602082019050919050565b6000614a8e600b8361543a565b91507f42656c756d206c6f67696e0000000000000000000000000000000000000000006000830152602082019050919050565b6000614ace60148361543a565b91507f416e6461206861727573207465726461667461720000000000000000000000006000830152602082019050919050565b6000614b0e60298361543a565b91507f48616e79612070656d696c696b2074616e616d616e2079616e6720646170617460008301527f206d656e676564697400000000000000000000000000000000000000000000006020830152604082019050919050565b6000614b7460108361543a565b91507f416e6461206861727573206c6f67696e000000000000000000000000000000006000830152602082019050919050565b6000614bb460178361543a565b91507f4e616d612074616e616d616e2064697065726c756b616e0000000000000000006000830152602082019050919050565b6000614bf460188361543a565b91507f50656e6767756e6120746964616b2074657264616674617200000000000000006000830152602082019050919050565b6000606083016000830151614c3f6000860182614656565b5060208301518482036020860152614c578282614829565b9150506040830151614c6c6040860182614dac565b508091505092915050565b6000610180830160008301518482036000860152614c958282614829565b91505060208301518482036020860152614caf8282614829565b91505060408301518482036040860152614cc98282614829565b91505060608301518482036060860152614ce38282614829565b91505060808301518482036080860152614cfd8282614829565b91505060a083015184820360a0860152614d178282614829565b91505060c083015184820360c0860152614d318282614829565b91505060e083015184820360e0860152614d4b8282614829565b915050610100830151614d62610100860182614dac565b50610120830151614d77610120860182614dac565b50610140830151614d8c610140860182614dac565b50610160830151614da1610160860182614656565b508091505092915050565b614db58161557b565b82525050565b614dc48161557b565b82525050565b6000602082019050614ddf6000830184614665565b92915050565b6000606082019050614dfa6000830186614665565b8181036020830152614e0c8185614862565b9050614e1b6040830184614dbb565b949350505050565b60006020820190508181036000830152614e3d8184614674565b905092915050565b60006020820190508181036000830152614e5f81846146d2565b905092915050565b60006020820190508181036000830152614e8181846147bc565b905092915050565b60006040820190508181036000830152614ea381856147bc565b90508181036020830152614eb78184614747565b90509392505050565b6000602082019050614ed5600083018461481a565b92915050565b60006020820190508181036000830152614ef58184614862565b905092915050565b60006080820190508181036000830152614f178187614862565b90508181036020830152614f2b8186614862565b9050614f3a604083018561481a565b614f47606083018461481a565b95945050505050565b6000610180820190508181036000830152614f6b818f614862565b90508181036020830152614f7f818e614862565b90508181036040830152614f93818d614862565b90508181036060830152614fa7818c614862565b90508181036080830152614fbb818b614862565b905081810360a0830152614fcf818a614862565b905081810360c0830152614fe38189614862565b905081810360e0830152614ff78188614862565b9050615007610100830187614dbb565b615015610120830186614dbb565b615023610140830185614dbb565b615031610160830184614665565b9d9c50505050505050505050505050565b6000602082019050818103600083015261505b8161489b565b9050919050565b6000602082019050818103600083015261507b816148db565b9050919050565b6000602082019050818103600083015261509b8161491b565b9050919050565b600060208201905081810360008301526150bb8161495b565b9050919050565b600060208201905081810360008301526150db8161499b565b9050919050565b600060208201905081810360008301526150fb816149db565b9050919050565b6000602082019050818103600083015261511b81614a41565b9050919050565b6000602082019050818103600083015261513b81614a81565b9050919050565b6000602082019050818103600083015261515b81614ac1565b9050919050565b6000602082019050818103600083015261517b81614b01565b9050919050565b6000602082019050818103600083015261519b81614b67565b9050919050565b600060208201905081810360008301526151bb81614ba7565b9050919050565b600060208201905081810360008301526151db81614be7565b9050919050565b60006020820190506151f76000830184614dbb565b92915050565b60006040820190506152126000830185614dbb565b61521f6020830184614665565b9392505050565b600060608201905061523b6000830186614dbb565b6152486020830185614665565b818103604083015261525a8184614862565b9050949350505050565b60006060820190506152796000830186614dbb565b6152866020830185614665565b6152936040830184614dbb565b949350505050565b60006060820190506152b06000830186614dbb565b81810360208301526152c28185614862565b90506152d16040830184614665565b949350505050565b6000604051905081810181811067ffffffffffffffff82111715615300576152ff615706565b5b8060405250919050565b600067ffffffffffffffff82111561532557615324615706565b5b601f19601f8301169050602081019050919050565b6000819050602082019050919050565b6000819050602082019050919050565b6000819050602082019050919050565b6000819050602082019050919050565b600081519050919050565b600081519050919050565b600081519050919050565b600081519050919050565b600081519050919050565b6000602082019050919050565b6000602082019050919050565b6000602082019050919050565b6000602082019050919050565b600082825260208201905092915050565b600082825260208201905092915050565b600082825260208201905092915050565b600082825260208201905092915050565b600082825260208201905092915050565b600082825260208201905092915050565b60006154568261557b565b91506154618361557b565b9250827fffffffffffffffffffffffffffffffffffffffffffffffffffffffffffffffff0382111561549657615495615679565b5b828201905092915050565b60006154ac82615585565b91506154b783615585565b92508260ff038211156154cd576154cc615679565b5b828201905092915050565b60006154e38261557b565b91506154ee8361557b565b9250826154fe576154fd6156a8565b5b828204905092915050565b60006155148261557b565b915061551f8361557b565b92508282101561553257615531615679565b5b828203905092915050565b60006155488261555b565b9050919050565b60008115159050919050565b600073ffffffffffffffffffffffffffffffffffffffff82169050919050565b6000819050919050565b600060ff82169050919050565b82818337600083830152505050565b60005b838110156155bf5780820151818401526020810190506155a4565b838111156155ce576000848401525b50505050565b60006155df8261557b565b915060008214156155f3576155f2615679565b5b600182039050919050565b6000600282049050600182168061561657607f821691505b6020821081141561562a576156296156d7565b5b50919050565b600061563b8261557b565b91507fffffffffffffffffffffffffffffffffffffffffffffffffffffffffffffffff82141561566e5761566d615679565b5b600182019050919050565b7f4e487b7100000000000000000000000000000000000000000000000000000000600052601160045260246000fd5b7f4e487b7100000000000000000000000000000000000000000000000000000000600052601260045260246000fd5b7f4e487b7100000000000000000000000000000000000000000000000000000000600052602260045260246000fd5b7f4e487b7100000000000000000000000000000000000000000000000000000000600052604160045260246000fd5b6000601f19601f8301169050919050565b61574f8161553d565b811461575a57600080fd5b50565b6157668161557b565b811461577157600080fd5b5056fea264697066735822122052299f8e1a318fe6f17195cd88038db798cbac7d8f9bdea61dca05386a29508f64736f6c63430008000033",
  "immutableReferences": {},
  "source": "// SPDX-License-Identifier: MIT\r\npragma solidity ^0.8.0;\r\n\r\ncontract HerbalPlant {\r\n    struct Plant {\r\n        string name;\r\n        string namaLatin;\r\n        string komposisi;\r\n        string kegunaan;\r\n        string dosis;\r\n        string caraPengolahan;\r\n        string efekSamping;\r\n        string ipfsHash;\r\n        uint ratingTotal;\r\n        uint ratingCount;\r\n        uint likeCount;\r\n        address owner;\r\n    }\r\n\r\n    struct User {\r\n        string fullName;\r\n        string hashPass;  // Store hashed password\r\n        bool isRegistered;\r\n        bool isLoggedIn;\r\n    }\r\n\r\n    struct Comment {\r\n        address user;\r\n        string comment;\r\n        uint timestamp;\r\n    }\r\n\r\n    mapping(uint => Plant) public plants;\r\n    mapping(address => User) private usersByPublicKey;\r\n    mapping(uint => Comment[]) public plantComments;  // Mapping for plant comments\r\n    mapping(uint => address[]) public plantRatingUsers;\r\n    mapping(uint => mapping(address => uint)) public plantRatings;\r\n    mapping(uint => mapping(address => bool)) public plantLikes;\r\n\r\n    uint public plantCount;\r\n    address[] private registeredUsers;\r\n\r\n    event PlantAdded(uint plantId, string name, address owner);\r\n    event PlantRated(uint plantId, address user, uint rating);\r\n    event PlantLiked(uint plantId, address user);\r\n    event UserRegistered(address indexed publicKey, string fullName);\r\n    event UserLoggedIn(address indexed publicKey);\r\n    event UserLoggedOut(address indexed publicKey);\r\n    event PlantCommented(uint plantId, address user, string comment);\r\n\r\n    modifier onlyActiveUser() {\r\n        require(usersByPublicKey[msg.sender].isRegistered, \"Anda harus terdaftar\");\r\n        require(usersByPublicKey[msg.sender].isLoggedIn, \"Anda harus login\");\r\n        _;\r\n    }\r\n\r\n    //  Mendaftarkan user dengan menyimpan password hash di Blockchain\r\n    function registerUser(\r\n        string memory fullName,\r\n        string memory hashPass\r\n    ) public {\r\n        require(bytes(fullName).length > 0, \"Nama tidak boleh kosong\");\r\n        require(bytes(hashPass).length > 0, \"Password hash tidak valid\");\r\n        require(!usersByPublicKey[msg.sender].isRegistered, \"Akun sudah terdaftar\");\r\n\r\n        usersByPublicKey[msg.sender] = User({\r\n            fullName: fullName,\r\n            hashPass: hashPass,\r\n            isRegistered: true,\r\n            isLoggedIn: false\r\n        });\r\n\r\n        registeredUsers.push(msg.sender);\r\n\r\n        emit UserRegistered(msg.sender, fullName);\r\n    }\r\n\r\n    //  Login menggunakan password hash\r\n    function login() public {\r\n        require(usersByPublicKey[msg.sender].isRegistered, \"Pengguna tidak terdaftar\");\r\n        require(!usersByPublicKey[msg.sender].isLoggedIn, \"Sudah login\");\r\n\r\n        usersByPublicKey[msg.sender].isLoggedIn = true;\r\n        emit UserLoggedIn(msg.sender);\r\n    }\r\n\r\n    //  Getter untuk mengambil data user berdasarkan address\r\n    function getUserInfo(address userAddress) public view returns (\r\n        string memory fullName,\r\n        string memory hashPass,\r\n        bool isRegistered,\r\n        bool isLoggedIn\r\n    ) {\r\n        User memory user = usersByPublicKey[userAddress];\r\n        return (\r\n            user.fullName,\r\n            user.hashPass,\r\n            user.isRegistered,\r\n            user.isLoggedIn\r\n        );\r\n    }\r\n\r\n    //  Logout user\r\n    function logout() public {\r\n        require(usersByPublicKey[msg.sender].isLoggedIn, \"Belum login\");\r\n        \r\n        usersByPublicKey[msg.sender].isLoggedIn = false;\r\n        emit UserLoggedOut(msg.sender);\r\n    }\r\n\r\n    //  Menambahkan tanaman herbal\r\n    function addPlant(\r\n        string memory name,\r\n        string memory namaLatin,\r\n        string memory komposisi,\r\n        string memory kegunaan,\r\n        string memory dosis,\r\n        string memory caraPengolahan,\r\n        string memory efekSamping,\r\n        string memory ipfsHash\r\n    ) public onlyActiveUser {\r\n        require(bytes(name).length > 0, \"Nama tanaman diperlukan\");\r\n\r\n        uint currentId = plantCount; // simpan ID sekarang sebelum increment\r\n\r\n        plants[currentId] = Plant({\r\n            name: name,\r\n            namaLatin: namaLatin,\r\n            komposisi: komposisi,\r\n            kegunaan: kegunaan,\r\n            dosis: dosis,\r\n            caraPengolahan: caraPengolahan,\r\n            efekSamping: efekSamping,\r\n            ipfsHash: ipfsHash,\r\n            ratingTotal: 0,\r\n            ratingCount: 0,\r\n            likeCount: 0,\r\n            owner: msg.sender\r\n        });\r\n\r\n        emit PlantAdded(currentId, name, msg.sender); // gunakan ID yang benar\r\n        plantCount++;\r\n    }\r\n\r\n    //  Mengedit tanaman herbal\r\n    function editPlant(\r\n        uint plantId,\r\n        string memory name,\r\n        string memory namaLatin,\r\n        string memory komposisi,\r\n        string memory kegunaan,\r\n        string memory dosis,\r\n        string memory caraPengolahan,\r\n        string memory efekSamping,\r\n        string memory ipfsHash\r\n    ) public onlyActiveUser {\r\n        // Pastikan yang mengedit adalah pemilik tanaman\r\n        require(plants[plantId].owner == msg.sender, \"Hanya pemilik tanaman yang dapat mengedit\");\r\n\r\n        // Memperbarui data tanaman\r\n        plants[plantId].name = name;\r\n        plants[plantId].namaLatin = namaLatin;\r\n        plants[plantId].komposisi = komposisi;\r\n        plants[plantId].kegunaan = kegunaan;\r\n        plants[plantId].dosis = dosis;\r\n        plants[plantId].caraPengolahan = caraPengolahan;\r\n        plants[plantId].efekSamping = efekSamping;\r\n        plants[plantId].ipfsHash = ipfsHash;\r\n\r\n        emit PlantAdded(plantId, name, msg.sender); // Emit event dengan ID tanaman yang sudah diubah\r\n    }\r\n\r\n    //  Memberi rating tanaman herbal (1-5)\r\n    function ratePlant(uint plantId, uint rating) public onlyActiveUser {\r\n        require(plants[plantId].owner != address(0), \"Tanaman tidak ditemukan\");\r\n        require(rating >= 1 && rating <= 5, \"Rating harus antara 1 hingga 5\");\r\n\r\n        uint previousRating = plantRatings[plantId][msg.sender];\r\n        if (previousRating != 0) {\r\n            // Mengurangi rating sebelumnya\r\n            plants[plantId].ratingTotal -= previousRating;\r\n            plants[plantId].ratingCount--; // Mengurangi jumlah rating\r\n        }\r\n\r\n        // Menambahkan rating baru\r\n        plantRatings[plantId][msg.sender] = rating;\r\n        plants[plantId].ratingTotal += rating;\r\n        plants[plantId].ratingCount++; // Menambah jumlah rating\r\n\r\n        // Menyimpan user yang memberi rating\r\n        plantRatingUsers[plantId].push(msg.sender);\r\n\r\n        emit PlantRated(plantId, msg.sender, rating);\r\n    }\r\n\r\n    //  Fungsi untuk mendapatkan rata-rata rating dari sebuah tanaman herbal\r\n    function getAverageRating(uint plantId) public view returns (uint) {\r\n        Plant storage plant = plants[plantId];\r\n        require(plant.ratingCount > 0, \"Tidak ada rating untuk tanaman ini\");\r\n        \r\n        uint averageRating = plant.ratingTotal / plant.ratingCount;\r\n        return averageRating;\r\n    }\r\n\r\n    //  Fungsi untuk mendapatkan semua rating dari tanaman\r\n    function getPlantRatings(uint plantId) public view returns (uint[] memory) {\r\n        uint ratingCount = plants[plantId].ratingCount;\r\n        uint[] memory ratings = new uint[](ratingCount);\r\n\r\n        for (uint i = 0; i < plantRatingUsers[plantId].length; i++) {\r\n            address user = plantRatingUsers[plantId][i];\r\n            ratings[i] = plantRatings[plantId][user];\r\n        }\r\n\r\n        return ratings;\r\n    }\r\n\r\n    //  Menyukai tanaman herbal\r\n    function likePlant(uint plantId) public onlyActiveUser {\r\n        require(plants[plantId].owner != address(0), \"Tanaman tidak ditemukan\");\r\n\r\n        // Jika pengguna sudah memberi like sebelumnya, hapus like tersebut\r\n        if (plantLikes[plantId][msg.sender]) {\r\n            plantLikes[plantId][msg.sender] = false;\r\n            plants[plantId].likeCount--;\r\n            emit PlantLiked(plantId, msg.sender); // Emit event jika perlu\r\n        } else {\r\n            // Jika belum memberi like, beri like\r\n            plantLikes[plantId][msg.sender] = true;\r\n            plants[plantId].likeCount++;\r\n            emit PlantLiked(plantId, msg.sender); // Emit event jika perlu\r\n        }\r\n    }\r\n\r\n    //  Mengecek apakah user sudah like tanaman tertentu\r\n    function isPlantLikedByUser(uint plantId, address user) public view returns (bool) {\r\n        return plantLikes[plantId][user];\r\n    }\r\n\r\n    //  Memberikan komentar/testimoni pada tanaman\r\n    function commentPlant(uint plantId, string memory comment) public onlyActiveUser {\r\n        require(plants[plantId].owner != address(0), \"Tanaman tidak ditemukan\");\r\n\r\n        Comment memory newComment = Comment({\r\n            user: msg.sender,\r\n            comment: comment,\r\n            timestamp: block.timestamp\r\n        });\r\n\r\n        plantComments[plantId].push(newComment);\r\n\r\n        emit PlantCommented(plantId, msg.sender, comment);\r\n    }\r\n\r\n    //  Mengambil detail tanaman herbal (Semua informasi dalam satu fungsi)\r\n    function getPlant(uint plantId) public view returns (\r\n        string memory name,\r\n        string memory namaLatin,\r\n        string memory komposisi,\r\n        string memory kegunaan,\r\n        string memory dosis,\r\n        string memory caraPengolahan,\r\n        string memory efekSamping,\r\n        string memory ipfsHash,\r\n        uint ratingTotal,\r\n        uint ratingCount,\r\n        uint likeCount,\r\n        address owner\r\n    ) {\r\n        require(plants[plantId].owner != address(0), \"Tanaman tidak ditemukan\");\r\n        Plant storage plant = plants[plantId];\r\n\r\n        return (\r\n            plant.name,\r\n            plant.namaLatin,\r\n            plant.komposisi,\r\n            plant.kegunaan,\r\n            plant.dosis,\r\n            plant.caraPengolahan,\r\n            plant.efekSamping,\r\n            plant.ipfsHash,\r\n            plant.ratingTotal,\r\n            plant.ratingCount,\r\n            plant.likeCount,\r\n            plant.owner\r\n        );\r\n    }\r\n\r\n    //  Fungsi untuk mencari tanaman berdasarkan nama, nama latin, komposisi, atau kegunaan\r\n    function searchPlants(\r\n    string memory name, \r\n    string memory namaLatin, \r\n    string memory komposisi, \r\n    string memory kegunaan\r\n    ) \r\n    public view\r\n    returns (uint[] memory, Plant[] memory) // Return 2 array: IDs dan data tanaman\r\n    {\r\n    uint plantIndex = 0;\r\n    uint[] memory idResults = new uint[](plantCount);\r\n    Plant[] memory plantResults = new Plant[](plantCount);\r\n\r\n    // Loop melalui semua tanaman yang tersimpan\r\n    for (uint i = 0; i < plantCount; i++) {\r\n        Plant storage currentPlant = plants[i];\r\n        bool isMatch = false;\r\n\r\n        // Jika ada salah satu yang cocok, maka isMatch = true\r\n        if (bytes(name).length > 0 && contains(currentPlant.name, name)) isMatch = true;\r\n        if (bytes(namaLatin).length > 0 && contains(currentPlant.namaLatin, namaLatin)) isMatch = true;\r\n        if (bytes(komposisi).length > 0 && contains(currentPlant.komposisi, komposisi)) isMatch = true;\r\n        if (bytes(kegunaan).length > 0 && contains(currentPlant.kegunaan, kegunaan)) isMatch = true;\r\n\r\n        // Jika memenuhi kriteria, tambahkan ke hasil\r\n        if (isMatch) {\r\n            idResults[plantIndex] = i; // Simpan ID tanaman (index)\r\n            plantResults[plantIndex] = currentPlant; // Simpan data lengkap\r\n            plantIndex++;\r\n        }\r\n    }\r\n\r\n    // Buat array hasil dengan ukuran yang tepat\r\n    uint[] memory finalIds = new uint[](plantIndex);\r\n    Plant[] memory finalPlants = new Plant[](plantIndex);\r\n\r\n    // Salin data dari array sementara ke array final\r\n    for (uint i = 0; i < plantIndex; i++) {\r\n        finalIds[i] = idResults[i];\r\n        finalPlants[i] = plantResults[i];\r\n    }\r\n\r\n    // Kembalikan sebagai tuple (2 array terpisah)\r\n    return (finalIds, finalPlants);\r\n    }\r\n\r\n    //  Fungsi untuk mengecek apakah sebuah string mengandung substring tertentu (case-insensitive)\r\n    function contains(string memory haystack, string memory needle) internal pure returns (bool) {\r\n        bytes memory haystackBytes = bytes(haystack);\r\n        bytes memory needleBytes = bytes(needle);\r\n        \r\n        // Handle kasus khusus: needle kosong selalu dianggap ada\r\n        if (needleBytes.length == 0) return true;\r\n        \r\n        // Handle kasus dimana needle lebih panjang dari haystack\r\n        if (needleBytes.length > haystackBytes.length) return false;\r\n\r\n        // Konversi ke lowercase sekali saja di awal\r\n        bytes memory haystackLower = bytes(toLowerCase(haystack));\r\n        bytes memory needleLower = bytes(toLowerCase(needle));\r\n\r\n        // Optimasi: Batasi jumlah iterasi yang diperlukan\r\n        uint maxIterations = haystackLower.length - needleLower.length + 1;\r\n        \r\n        for (uint i = 0; i < maxIterations; i++) {\r\n            bool isMatch = true;\r\n            \r\n            // Periksa karakter per karakter\r\n            for (uint j = 0; j < needleLower.length; j++) {\r\n                if (haystackLower[i + j] != needleLower[j]) {\r\n                    isMatch = false;\r\n                    break; // Berhenti jika ada ketidakcocokan\r\n                }\r\n            }\r\n            \r\n            if (isMatch) return true;\r\n        }\r\n        \r\n        return false;\r\n    }\r\n\r\n    //  Fungsi untuk konversi string ke lowercase\r\n    function toLowerCase(string memory str) internal pure returns (string memory) {\r\n        bytes memory strBytes = bytes(str);\r\n        bytes memory lowerBytes = new bytes(strBytes.length);\r\n        \r\n        for (uint i = 0; i < strBytes.length; i++) {\r\n            // Cek apakah karakter adalah A-Z (0x41-0x5A)\r\n            if (strBytes[i] >= 0x41 && strBytes[i] <= 0x5A) {\r\n                lowerBytes[i] = bytes1(uint8(strBytes[i]) + 32); // Konversi ke lowercase\r\n            } else {\r\n                lowerBytes[i] = strBytes[i]; // Pertahankan karakter lain\r\n            }\r\n        }\r\n        \r\n        return string(lowerBytes);\r\n    }\r\n\r\n    //  Mengambil komentar/testimoni tanaman herbal\r\n    function getPlantComments(uint plantId) public view returns (Comment[] memory) {\r\n        return plantComments[plantId];\r\n    }\r\n\r\n    //  Mengambil semua user yang terdaftar\r\n    function getAllUsers() public view returns (address[] memory) {\r\n        return registeredUsers;\r\n    }\r\n}",
  "sourcePath": "D:\\Kuliah\\TA\\Integrated TA Single Network\\Middleware-TA-2024-2025\\contracts\\HerbalPlant.sol",
  "compiler": {
    "name": "solc",
    "version": "0.8.0+commit.c7dfd78e.Emscripten.clang"
  },
  "schemaVersion": "3.4.16",
  "updatedAt": "2025-05-23T06:21:56.319Z",
  "networkType": "ethereum",
  "devdoc": {
    "kind": "dev",
    "methods": {},
    "version": 1
  },
  "userdoc": {
    "kind": "user",
    "methods": {},
    "version": 1
  }
}