{
  "contractName": "HerbalPlant",
  "abi": [
    {
      "anonymous": false,
      "inputs": [
        {
          "indexed": false,
          "internalType": "uint256",
          "name": "plantId",
          "type": "uint256"
        },
        {
          "indexed": false,
          "internalType": "string",
          "name": "name",
          "type": "string"
        },
        {
          "indexed": false,
          "internalType": "address",
          "name": "owner",
          "type": "address"
        }
      ],
      "name": "PlantAdded",
      "type": "event"
    },
    {
      "anonymous": false,
      "inputs": [
        {
          "indexed": false,
          "internalType": "uint256",
          "name": "plantId",
          "type": "uint256"
        },
        {
          "indexed": false,
          "internalType": "address",
          "name": "user",
          "type": "address"
        },
        {
          "indexed": false,
          "internalType": "string",
          "name": "comment",
          "type": "string"
        }
      ],
      "name": "PlantCommented",
      "type": "event"
    },
    {
      "anonymous": false,
      "inputs": [
        {
          "indexed": false,
          "internalType": "uint256",
          "name": "plantId",
          "type": "uint256"
        },
        {
          "indexed": false,
          "internalType": "address",
          "name": "user",
          "type": "address"
        }
      ],
      "name": "PlantLiked",
      "type": "event"
    },
    {
      "anonymous": false,
      "inputs": [
        {
          "indexed": false,
          "internalType": "uint256",
          "name": "plantId",
          "type": "uint256"
        },
        {
          "indexed": false,
          "internalType": "address",
          "name": "user",
          "type": "address"
        },
        {
          "indexed": false,
          "internalType": "uint256",
          "name": "rating",
          "type": "uint256"
        }
      ],
      "name": "PlantRated",
      "type": "event"
    },
    {
      "anonymous": false,
      "inputs": [
        {
          "indexed": true,
          "internalType": "address",
          "name": "publicKey",
          "type": "address"
        }
      ],
      "name": "UserLoggedIn",
      "type": "event"
    },
    {
      "anonymous": false,
      "inputs": [
        {
          "indexed": true,
          "internalType": "address",
          "name": "publicKey",
          "type": "address"
        }
      ],
      "name": "UserLoggedOut",
      "type": "event"
    },
    {
      "anonymous": false,
      "inputs": [
        {
          "indexed": true,
          "internalType": "address",
          "name": "publicKey",
          "type": "address"
        },
        {
          "indexed": false,
          "internalType": "string",
          "name": "fullName",
          "type": "string"
        }
      ],
      "name": "UserRegistered",
      "type": "event"
    },
    {
      "inputs": [
        {
          "internalType": "uint256",
          "name": "",
          "type": "uint256"
        },
        {
          "internalType": "uint256",
          "name": "",
          "type": "uint256"
        }
      ],
      "name": "plantComments",
      "outputs": [
        {
          "internalType": "address",
          "name": "user",
          "type": "address"
        },
        {
          "internalType": "string",
          "name": "comment",
          "type": "string"
        },
        {
          "internalType": "uint256",
          "name": "timestamp",
          "type": "uint256"
        }
      ],
      "stateMutability": "view",
      "type": "function",
      "constant": true
    },
    {
      "inputs": [],
      "name": "plantCount",
      "outputs": [
        {
          "internalType": "uint256",
          "name": "",
          "type": "uint256"
        }
      ],
      "stateMutability": "view",
      "type": "function",
      "constant": true
    },
    {
      "inputs": [
        {
          "internalType": "uint256",
          "name": "",
          "type": "uint256"
        },
        {
          "internalType": "address",
          "name": "",
          "type": "address"
        }
      ],
      "name": "plantLikes",
      "outputs": [
        {
          "internalType": "bool",
          "name": "",
          "type": "bool"
        }
      ],
      "stateMutability": "view",
      "type": "function",
      "constant": true
    },
    {
      "inputs": [
        {
          "internalType": "uint256",
          "name": "",
          "type": "uint256"
        },
        {
          "internalType": "uint256",
          "name": "",
          "type": "uint256"
        }
      ],
      "name": "plantRatingUsers",
      "outputs": [
        {
          "internalType": "address",
          "name": "",
          "type": "address"
        }
      ],
      "stateMutability": "view",
      "type": "function",
      "constant": true
    },
    {
      "inputs": [
        {
          "internalType": "uint256",
          "name": "",
          "type": "uint256"
        },
        {
          "internalType": "address",
          "name": "",
          "type": "address"
        }
      ],
      "name": "plantRatings",
      "outputs": [
        {
          "internalType": "uint256",
          "name": "",
          "type": "uint256"
        }
      ],
      "stateMutability": "view",
      "type": "function",
      "constant": true
    },
    {
      "inputs": [
        {
          "internalType": "uint256",
          "name": "",
          "type": "uint256"
        }
      ],
      "name": "plants",
      "outputs": [
        {
          "internalType": "string",
          "name": "name",
          "type": "string"
        },
        {
          "internalType": "string",
          "name": "namaLatin",
          "type": "string"
        },
        {
          "internalType": "string",
          "name": "komposisi",
          "type": "string"
        },
        {
          "internalType": "string",
          "name": "kegunaan",
          "type": "string"
        },
        {
          "internalType": "string",
          "name": "caraPengolahan",
          "type": "string"
        },
        {
          "internalType": "string",
          "name": "ipfsHash",
          "type": "string"
        },
        {
          "internalType": "uint256",
          "name": "ratingTotal",
          "type": "uint256"
        },
        {
          "internalType": "uint256",
          "name": "ratingCount",
          "type": "uint256"
        },
        {
          "internalType": "uint256",
          "name": "likeCount",
          "type": "uint256"
        },
        {
          "internalType": "address",
          "name": "owner",
          "type": "address"
        }
      ],
      "stateMutability": "view",
      "type": "function",
      "constant": true
    },
    {
      "inputs": [
        {
          "internalType": "string",
          "name": "fullName",
          "type": "string"
        },
        {
          "internalType": "string",
          "name": "hashPass",
          "type": "string"
        }
      ],
      "name": "registerUser",
      "outputs": [],
      "stateMutability": "nonpayable",
      "type": "function"
    },
    {
      "inputs": [],
      "name": "login",
      "outputs": [],
      "stateMutability": "nonpayable",
      "type": "function"
    },
    {
      "inputs": [
        {
          "internalType": "address",
          "name": "userAddress",
          "type": "address"
        }
      ],
      "name": "getUserInfo",
      "outputs": [
        {
          "internalType": "string",
          "name": "fullName",
          "type": "string"
        },
        {
          "internalType": "string",
          "name": "hashPass",
          "type": "string"
        },
        {
          "internalType": "bool",
          "name": "isRegistered",
          "type": "bool"
        },
        {
          "internalType": "bool",
          "name": "isLoggedIn",
          "type": "bool"
        }
      ],
      "stateMutability": "view",
      "type": "function",
      "constant": true
    },
    {
      "inputs": [],
      "name": "logout",
      "outputs": [],
      "stateMutability": "nonpayable",
      "type": "function"
    },
    {
      "inputs": [
        {
          "internalType": "string",
          "name": "name",
          "type": "string"
        },
        {
          "internalType": "string",
          "name": "namaLatin",
          "type": "string"
        },
        {
          "internalType": "string",
          "name": "komposisi",
          "type": "string"
        },
        {
          "internalType": "string",
          "name": "kegunaan",
          "type": "string"
        },
        {
          "internalType": "string",
          "name": "caraPengolahan",
          "type": "string"
        },
        {
          "internalType": "string",
          "name": "ipfsHash",
          "type": "string"
        }
      ],
      "name": "addPlant",
      "outputs": [],
      "stateMutability": "nonpayable",
      "type": "function"
    },
    {
      "inputs": [
        {
          "internalType": "uint256",
          "name": "plantId",
          "type": "uint256"
        },
        {
          "internalType": "uint256",
          "name": "rating",
          "type": "uint256"
        }
      ],
      "name": "ratePlant",
      "outputs": [],
      "stateMutability": "nonpayable",
      "type": "function"
    },
    {
      "inputs": [
        {
          "internalType": "uint256",
          "name": "plantId",
          "type": "uint256"
        }
      ],
      "name": "getAverageRating",
      "outputs": [
        {
          "internalType": "uint256",
          "name": "",
          "type": "uint256"
        }
      ],
      "stateMutability": "view",
      "type": "function",
      "constant": true
    },
    {
      "inputs": [
        {
          "internalType": "uint256",
          "name": "plantId",
          "type": "uint256"
        }
      ],
      "name": "getPlantRatings",
      "outputs": [
        {
          "internalType": "uint256[]",
          "name": "",
          "type": "uint256[]"
        }
      ],
      "stateMutability": "view",
      "type": "function",
      "constant": true
    },
    {
      "inputs": [
        {
          "internalType": "uint256",
          "name": "plantId",
          "type": "uint256"
        }
      ],
      "name": "likePlant",
      "outputs": [],
      "stateMutability": "nonpayable",
      "type": "function"
    },
    {
      "inputs": [
        {
          "internalType": "uint256",
          "name": "plantId",
          "type": "uint256"
        },
        {
          "internalType": "address",
          "name": "user",
          "type": "address"
        }
      ],
      "name": "isPlantLikedByUser",
      "outputs": [
        {
          "internalType": "bool",
          "name": "",
          "type": "bool"
        }
      ],
      "stateMutability": "view",
      "type": "function",
      "constant": true
    },
    {
      "inputs": [
        {
          "internalType": "uint256",
          "name": "plantId",
          "type": "uint256"
        },
        {
          "internalType": "string",
          "name": "comment",
          "type": "string"
        }
      ],
      "name": "commentPlant",
      "outputs": [],
      "stateMutability": "nonpayable",
      "type": "function"
    },
    {
      "inputs": [
        {
          "internalType": "uint256",
          "name": "plantId",
          "type": "uint256"
        }
      ],
      "name": "getPlant",
      "outputs": [
        {
          "internalType": "string",
          "name": "name",
          "type": "string"
        },
        {
          "internalType": "string",
          "name": "namaLatin",
          "type": "string"
        },
        {
          "internalType": "string",
          "name": "komposisi",
          "type": "string"
        },
        {
          "internalType": "string",
          "name": "kegunaan",
          "type": "string"
        },
        {
          "internalType": "string",
          "name": "caraPengolahan",
          "type": "string"
        },
        {
          "internalType": "string",
          "name": "ipfsHash",
          "type": "string"
        },
        {
          "internalType": "uint256",
          "name": "ratingTotal",
          "type": "uint256"
        },
        {
          "internalType": "uint256",
          "name": "ratingCount",
          "type": "uint256"
        },
        {
          "internalType": "uint256",
          "name": "likeCount",
          "type": "uint256"
        },
        {
          "internalType": "address",
          "name": "owner",
          "type": "address"
        }
      ],
      "stateMutability": "view",
      "type": "function",
      "constant": true
    },
    {
      "inputs": [
        {
          "internalType": "string",
          "name": "name",
          "type": "string"
        },
        {
          "internalType": "string",
          "name": "namaLatin",
          "type": "string"
        },
        {
          "internalType": "string",
          "name": "komposisi",
          "type": "string"
        },
        {
          "internalType": "string",
          "name": "kegunaan",
          "type": "string"
        }
      ],
      "name": "searchPlants",
      "outputs": [
        {
          "internalType": "uint256[]",
          "name": "",
          "type": "uint256[]"
        },
        {
          "components": [
            {
              "internalType": "string",
              "name": "name",
              "type": "string"
            },
            {
              "internalType": "string",
              "name": "namaLatin",
              "type": "string"
            },
            {
              "internalType": "string",
              "name": "komposisi",
              "type": "string"
            },
            {
              "internalType": "string",
              "name": "kegunaan",
              "type": "string"
            },
            {
              "internalType": "string",
              "name": "caraPengolahan",
              "type": "string"
            },
            {
              "internalType": "string",
              "name": "ipfsHash",
              "type": "string"
            },
            {
              "internalType": "uint256",
              "name": "ratingTotal",
              "type": "uint256"
            },
            {
              "internalType": "uint256",
              "name": "ratingCount",
              "type": "uint256"
            },
            {
              "internalType": "uint256",
              "name": "likeCount",
              "type": "uint256"
            },
            {
              "internalType": "address",
              "name": "owner",
              "type": "address"
            }
          ],
          "internalType": "struct HerbalPlant.Plant[]",
          "name": "",
          "type": "tuple[]"
        }
      ],
      "stateMutability": "view",
      "type": "function",
      "constant": true
    },
    {
      "inputs": [
        {
          "internalType": "uint256",
          "name": "plantId",
          "type": "uint256"
        }
      ],
      "name": "getPlantComments",
      "outputs": [
        {
          "components": [
            {
              "internalType": "address",
              "name": "user",
              "type": "address"
            },
            {
              "internalType": "string",
              "name": "comment",
              "type": "string"
            },
            {
              "internalType": "uint256",
              "name": "timestamp",
              "type": "uint256"
            }
          ],
          "internalType": "struct HerbalPlant.Comment[]",
          "name": "",
          "type": "tuple[]"
        }
      ],
      "stateMutability": "view",
      "type": "function",
      "constant": true
    },
    {
      "inputs": [],
      "name": "getAllUsers",
      "outputs": [
        {
          "internalType": "address[]",
          "name": "",
          "type": "address[]"
        }
      ],
      "stateMutability": "view",
      "type": "function",
      "constant": true
    }
  ],
  "bytecode": "0x608060405234801561001057600080fd5b50614ddb806100206000396000f3fe608060405234801561001057600080fd5b50600436106101375760003560e01c80637eede255116100b8578063b85f7d571161007c578063b85f7d571461037d578063d5469da61461039b578063e2842d79146103cd578063e2ec5fdf146103eb578063ed0b1f5f14610407578063efbf07d61461044057610137565b80637eede255146102be5780638dd2361c146102da5780638e788d0d14610313578063a7d0459914610343578063b34e97e81461037357610137565b80631f3c99c3116100ff5780631f3c99c3146102045780633ceca1b31461020e578063412cc71f1461022a5780636386c1c71461025b5780637dddc3921461028e57610137565b806307f9603e1461013c57806311fb6c891461016c57806317b7e03e1461019c5780631956e2e2146101cc5780631d2e4afd146101e8575b600080fd5b61015660048036038101906101519190613bc4565b610470565b60405161016391906144c4565b60405180910390f35b61018660048036038101906101819190613c7d565b61064f565b6040516101939190614427565b60405180910390f35b6101b660048036038101906101b19190613bc4565b61069d565b6040516101c39190614813565b60405180910390f35b6101e660048036038101906101e19190613bc4565b61071d565b005b61020260048036038101906101fd919061397c565b610ae6565b005b61020c610d96565b005b61022860048036038101906102239190613aab565b610ec5565b005b610244600480360381019061023f91906139e8565b611213565b6040516102529291906144e6565b60405180910390f35b61027560048036038101906102709190613953565b611cb5565b604051610285949392919061455a565b60405180910390f35b6102a860048036038101906102a39190613bed565b611e87565b6040516102b59190614813565b60405180910390f35b6102d860048036038101906102d39190613c7d565b611eac565b005b6102f460048036038101906102ef9190613bc4565b6122b2565b60405161030a9a999897969594939291906145ad565b60405180910390f35b61032d60048036038101906103289190613bc4565b612656565b60405161033a91906144a2565b60405180910390f35b61035d60048036038101906103589190613bed565b6127ba565b60405161036a919061451d565b60405180910390f35b61037b612822565b005b6103856129e0565b6040516103929190614813565b60405180910390f35b6103b560048036038101906103b09190613c7d565b6129e6565b6040516103c493929190614442565b60405180910390f35b6103d5612ad5565b6040516103e29190614480565b60405180910390f35b61040560048036038101906104009190613c29565b612b63565b005b610421600480360381019061041c9190613bc4565b612e48565b6040516104379a999897969594939291906145ad565b60405180910390f35b61045a60048036038101906104559190613bed565b6132c8565b604051610467919061451d565b60405180910390f35b6060600080600084815260200190815260200160002060070154905060008167ffffffffffffffff8111156104ce577f4e487b7100000000000000000000000000000000000000000000000000000000600052604160045260246000fd5b6040519080825280602002602001820160405280156104fc5781602001602082028036833780820191505090505b50905060005b600360008681526020019081526020016000208054905081101561064457600060036000878152602001908152602001600020828154811061056d577f4e487b7100000000000000000000000000000000000000000000000000000000600052603260045260246000fd5b9060005260206000200160009054906101000a900473ffffffffffffffffffffffffffffffffffffffff1690506004600087815260200190815260200160002060008273ffffffffffffffffffffffffffffffffffffffff1673ffffffffffffffffffffffffffffffffffffffff16815260200190815260200160002054838381518110610624577f4e487b7100000000000000000000000000000000000000000000000000000000600052603260045260246000fd5b60200260200101818152505050808061063c90614c61565b915050610502565b508092505050919050565b6003602052816000526040600020818154811061066b57600080fd5b906000526020600020016000915091509054906101000a900473ffffffffffffffffffffffffffffffffffffffff1681565b600080600080848152602001908152602001600020905060008160070154116106fb576040517f08c379a00000000000000000000000000000000000000000000000000000000081526004016106f290614713565b60405180910390fd5b6000816007015482600601546107119190614b09565b90508092505050919050565b600160003373ffffffffffffffffffffffffffffffffffffffff1673ffffffffffffffffffffffffffffffffffffffff16815260200190815260200160002060020160009054906101000a900460ff166107ac576040517f08c379a00000000000000000000000000000000000000000000000000000000081526004016107a390614793565b60405180910390fd5b600160003373ffffffffffffffffffffffffffffffffffffffff1673ffffffffffffffffffffffffffffffffffffffff16815260200190815260200160002060020160019054906101000a900460ff1661083b576040517f08c379a0000000000000000000000000000000000000000000000000000000008152600401610832906147b3565b60405180910390fd5b600073ffffffffffffffffffffffffffffffffffffffff1660008083815260200190815260200160002060090160009054906101000a900473ffffffffffffffffffffffffffffffffffffffff1673ffffffffffffffffffffffffffffffffffffffff1614156108e0576040517f08c379a00000000000000000000000000000000000000000000000000000000081526004016108d790614753565b60405180910390fd5b6005600082815260200190815260200160002060003373ffffffffffffffffffffffffffffffffffffffff1673ffffffffffffffffffffffffffffffffffffffff16815260200190815260200160002060009054906101000a900460ff1615610a155760006005600083815260200190815260200160002060003373ffffffffffffffffffffffffffffffffffffffff1673ffffffffffffffffffffffffffffffffffffffff16815260200190815260200160002060006101000a81548160ff02191690831515021790555060008082815260200190815260200160002060080160008154809291906109d290614c05565b91905055507f16cbc6f742dcf78c5d0f58c5388cd298787bc75f6cad1423a17c3abe3723c5b88133604051610a0892919061482e565b60405180910390a1610ae3565b60016005600083815260200190815260200160002060003373ffffffffffffffffffffffffffffffffffffffff1673ffffffffffffffffffffffffffffffffffffffff16815260200190815260200160002060006101000a81548160ff0219169083151502179055506000808281526020019081526020016000206008016000815480929190610aa490614c61565b91905055507f16cbc6f742dcf78c5d0f58c5388cd298787bc75f6cad1423a17c3abe3723c5b88133604051610ada92919061482e565b60405180910390a15b50565b6000825111610b2a576040517f08c379a0000000000000000000000000000000000000000000000000000000008152600401610b2190614673565b60405180910390fd5b6000815111610b6e576040517f08c379a0000000000000000000000000000000000000000000000000000000008152600401610b6590614693565b60405180910390fd5b600160003373ffffffffffffffffffffffffffffffffffffffff1673ffffffffffffffffffffffffffffffffffffffff16815260200190815260200160002060020160009054906101000a900460ff1615610bfe576040517f08c379a0000000000000000000000000000000000000000000000000000000008152600401610bf5906146b3565b60405180910390fd5b604051806080016040528083815260200182815260200160011515815260200160001515815250600160003373ffffffffffffffffffffffffffffffffffffffff1673ffffffffffffffffffffffffffffffffffffffff1681526020019081526020016000206000820151816000019080519060200190610c809291906137b5565b506020820151816001019080519060200190610c9d9291906137b5565b5060408201518160020160006101000a81548160ff02191690831515021790555060608201518160020160016101000a81548160ff0219169083151502179055509050506007339080600181540180825580915050600190039060005260206000200160009091909190916101000a81548173ffffffffffffffffffffffffffffffffffffffff021916908373ffffffffffffffffffffffffffffffffffffffff1602179055503373ffffffffffffffffffffffffffffffffffffffff167f48cac28ad4dc618e15f4c2dd5e97751182f166de97b25618318b2112aa951a2f83604051610d8a9190614538565b60405180910390a25050565b600160003373ffffffffffffffffffffffffffffffffffffffff1673ffffffffffffffffffffffffffffffffffffffff16815260200190815260200160002060020160019054906101000a900460ff16610e25576040517f08c379a0000000000000000000000000000000000000000000000000000000008152600401610e1c90614773565b60405180910390fd5b6000600160003373ffffffffffffffffffffffffffffffffffffffff1673ffffffffffffffffffffffffffffffffffffffff16815260200190815260200160002060020160016101000a81548160ff0219169083151502179055503373ffffffffffffffffffffffffffffffffffffffff167fc6ef449222bae3754898fc5fa944d52dfc53c0ee1fdd7d733fbb422ac5e2b8c860405160405180910390a2565b600160003373ffffffffffffffffffffffffffffffffffffffff1673ffffffffffffffffffffffffffffffffffffffff16815260200190815260200160002060020160009054906101000a900460ff16610f54576040517f08c379a0000000000000000000000000000000000000000000000000000000008152600401610f4b90614793565b60405180910390fd5b600160003373ffffffffffffffffffffffffffffffffffffffff1673ffffffffffffffffffffffffffffffffffffffff16815260200190815260200160002060020160019054906101000a900460ff16610fe3576040517f08c379a0000000000000000000000000000000000000000000000000000000008152600401610fda906147b3565b60405180910390fd5b6000865111611027576040517f08c379a000000000000000000000000000000000000000000000000000000000815260040161101e906147d3565b60405180910390fd5b600060065490506040518061014001604052808881526020018781526020018681526020018581526020018481526020018381526020016000815260200160008152602001600081526020013373ffffffffffffffffffffffffffffffffffffffff1681525060008083815260200190815260200160002060008201518160000190805190602001906110bb9291906137b5565b5060208201518160010190805190602001906110d89291906137b5565b5060408201518160020190805190602001906110f59291906137b5565b5060608201518160030190805190602001906111129291906137b5565b50608082015181600401908051906020019061112f9291906137b5565b5060a082015181600501908051906020019061114c9291906137b5565b5060c0820151816006015560e0820151816007015561010082015181600801556101208201518160090160006101000a81548173ffffffffffffffffffffffffffffffffffffffff021916908373ffffffffffffffffffffffffffffffffffffffff1602179055509050507f501d7870f277450aef6f6286e3405d1db2d4e338b74742dda780ae4605428ac38188336040516111ea939291906148cc565b60405180910390a16006600081548092919061120590614c61565b919050555050505050505050565b60608060008060065467ffffffffffffffff81111561125b577f4e487b7100000000000000000000000000000000000000000000000000000000600052604160045260246000fd5b6040519080825280602002602001820160405280156112895781602001602082028036833780820191505090505b509050600060065467ffffffffffffffff8111156112d0577f4e487b7100000000000000000000000000000000000000000000000000000000600052604160045260246000fd5b60405190808252806020026020018201604052801561130957816020015b6112f661383b565b8152602001906001900390816112ee5790505b50905060005b600654811015611a8557600080600083815260200190815260200160002090506000808c511180156113d357506113d282600001805461134e90614c2f565b80601f016020809104026020016040519081016040528092919081815260200182805461137a90614c2f565b80156113c75780601f1061139c576101008083540402835291602001916113c7565b820191906000526020600020905b8154815290600101906020018083116113aa57829003601f168201915b50505050508d6132f7565b5b156113dd57600190505b60008b51118015611480575061147f8260010180546113fb90614c2f565b80601f016020809104026020016040519081016040528092919081815260200182805461142790614c2f565b80156114745780601f1061144957610100808354040283529160200191611474565b820191906000526020600020905b81548152906001019060200180831161145757829003601f168201915b50505050508c6132f7565b5b1561148a57600190505b60008a5111801561152d575061152c8260020180546114a890614c2f565b80601f01602080910402602001604051908101604052809291908181526020018280546114d490614c2f565b80156115215780601f106114f657610100808354040283529160200191611521565b820191906000526020600020905b81548152906001019060200180831161150457829003601f168201915b50505050508b6132f7565b5b1561153757600190505b600089511180156115da57506115d982600301805461155590614c2f565b80601f016020809104026020016040519081016040528092919081815260200182805461158190614c2f565b80156115ce5780601f106115a3576101008083540402835291602001916115ce565b820191906000526020600020905b8154815290600101906020018083116115b157829003601f168201915b50505050508a6132f7565b5b156115e457600190505b8015611a705782858781518110611624577f4e487b7100000000000000000000000000000000000000000000000000000000600052603260045260246000fd5b602002602001018181525050816040518061014001604052908160008201805461164d90614c2f565b80601f016020809104026020016040519081016040528092919081815260200182805461167990614c2f565b80156116c65780601f1061169b576101008083540402835291602001916116c6565b820191906000526020600020905b8154815290600101906020018083116116a957829003601f168201915b505050505081526020016001820180546116df90614c2f565b80601f016020809104026020016040519081016040528092919081815260200182805461170b90614c2f565b80156117585780601f1061172d57610100808354040283529160200191611758565b820191906000526020600020905b81548152906001019060200180831161173b57829003601f168201915b5050505050815260200160028201805461177190614c2f565b80601f016020809104026020016040519081016040528092919081815260200182805461179d90614c2f565b80156117ea5780601f106117bf576101008083540402835291602001916117ea565b820191906000526020600020905b8154815290600101906020018083116117cd57829003601f168201915b5050505050815260200160038201805461180390614c2f565b80601f016020809104026020016040519081016040528092919081815260200182805461182f90614c2f565b801561187c5780601f106118515761010080835404028352916020019161187c565b820191906000526020600020905b81548152906001019060200180831161185f57829003601f168201915b5050505050815260200160048201805461189590614c2f565b80601f01602080910402602001604051908101604052809291908181526020018280546118c190614c2f565b801561190e5780601f106118e35761010080835404028352916020019161190e565b820191906000526020600020905b8154815290600101906020018083116118f157829003601f168201915b5050505050815260200160058201805461192790614c2f565b80601f016020809104026020016040519081016040528092919081815260200182805461195390614c2f565b80156119a05780601f10611975576101008083540402835291602001916119a0565b820191906000526020600020905b81548152906001019060200180831161198357829003601f168201915b505050505081526020016006820154815260200160078201548152602001600882015481526020016009820160009054906101000a900473ffffffffffffffffffffffffffffffffffffffff1673ffffffffffffffffffffffffffffffffffffffff1673ffffffffffffffffffffffffffffffffffffffff1681525050848781518110611a56577f4e487b7100000000000000000000000000000000000000000000000000000000600052603260045260246000fd5b60200260200101819052508580611a6c90614c61565b9650505b50508080611a7d90614c61565b91505061130f565b5060008367ffffffffffffffff811115611ac8577f4e487b7100000000000000000000000000000000000000000000000000000000600052604160045260246000fd5b604051908082528060200260200182016040528015611af65781602001602082028036833780820191505090505b50905060008467ffffffffffffffff811115611b3b577f4e487b7100000000000000000000000000000000000000000000000000000000600052604160045260246000fd5b604051908082528060200260200182016040528015611b7457816020015b611b6161383b565b815260200190600190039081611b595790505b50905060005b85811015611ca057848181518110611bbb577f4e487b7100000000000000000000000000000000000000000000000000000000600052603260045260246000fd5b6020026020010151838281518110611bfc577f4e487b7100000000000000000000000000000000000000000000000000000000600052603260045260246000fd5b602002602001018181525050838181518110611c41577f4e487b7100000000000000000000000000000000000000000000000000000000600052603260045260246000fd5b6020026020010151828281518110611c82577f4e487b7100000000000000000000000000000000000000000000000000000000600052603260045260246000fd5b60200260200101819052508080611c9890614c61565b915050611b7a565b50818196509650505050505094509492505050565b6060806000806000600160008773ffffffffffffffffffffffffffffffffffffffff1673ffffffffffffffffffffffffffffffffffffffff168152602001908152602001600020604051806080016040529081600082018054611d1790614c2f565b80601f0160208091040260200160405190810160405280929190818152602001828054611d4390614c2f565b8015611d905780601f10611d6557610100808354040283529160200191611d90565b820191906000526020600020905b815481529060010190602001808311611d7357829003601f168201915b50505050508152602001600182018054611da990614c2f565b80601f0160208091040260200160405190810160405280929190818152602001828054611dd590614c2f565b8015611e225780601f10611df757610100808354040283529160200191611e22565b820191906000526020600020905b815481529060010190602001808311611e0557829003601f168201915b505050505081526020016002820160009054906101000a900460ff161515151581526020016002820160019054906101000a900460ff161515151581525050905080600001518160200151826040015183606001519450945094509450509193509193565b6004602052816000526040600020602052806000526040600020600091509150505481565b600160003373ffffffffffffffffffffffffffffffffffffffff1673ffffffffffffffffffffffffffffffffffffffff16815260200190815260200160002060020160009054906101000a900460ff16611f3b576040517f08c379a0000000000000000000000000000000000000000000000000000000008152600401611f3290614793565b60405180910390fd5b600160003373ffffffffffffffffffffffffffffffffffffffff1673ffffffffffffffffffffffffffffffffffffffff16815260200190815260200160002060020160019054906101000a900460ff16611fca576040517f08c379a0000000000000000000000000000000000000000000000000000000008152600401611fc1906147b3565b60405180910390fd5b600073ffffffffffffffffffffffffffffffffffffffff1660008084815260200190815260200160002060090160009054906101000a900473ffffffffffffffffffffffffffffffffffffffff1673ffffffffffffffffffffffffffffffffffffffff16141561206f576040517f08c379a000000000000000000000000000000000000000000000000000000000815260040161206690614753565b60405180910390fd5b60018110158015612081575060058111155b6120c0576040517f08c379a00000000000000000000000000000000000000000000000000000000081526004016120b7906146f3565b60405180910390fd5b60006004600084815260200190815260200160002060003373ffffffffffffffffffffffffffffffffffffffff1673ffffffffffffffffffffffffffffffffffffffff1681526020019081526020016000205414612153576040517f08c379a000000000000000000000000000000000000000000000000000000000815260040161214a90614733565b60405180910390fd5b806004600084815260200190815260200160002060003373ffffffffffffffffffffffffffffffffffffffff1673ffffffffffffffffffffffffffffffffffffffff168152602001908152602001600020819055508060008084815260200190815260200160002060060160008282546121cd9190614a7c565b9250508190555060008083815260200190815260200160002060070160008154809291906121fa90614c61565b919050555060036000838152602001908152602001600020339080600181540180825580915050600190039060005260206000200160009091909190916101000a81548173ffffffffffffffffffffffffffffffffffffffff021916908373ffffffffffffffffffffffffffffffffffffffff1602179055507f5a90108db35c713ec6356a9abbb3f1f006f75e48a06998c0616e9dbe5dea64108233836040516122a693929190614895565b60405180910390a15050565b60006020528060005260406000206000915090508060000180546122d590614c2f565b80601f016020809104026020016040519081016040528092919081815260200182805461230190614c2f565b801561234e5780601f106123235761010080835404028352916020019161234e565b820191906000526020600020905b81548152906001019060200180831161233157829003601f168201915b50505050509080600101805461236390614c2f565b80601f016020809104026020016040519081016040528092919081815260200182805461238f90614c2f565b80156123dc5780601f106123b1576101008083540402835291602001916123dc565b820191906000526020600020905b8154815290600101906020018083116123bf57829003601f168201915b5050505050908060020180546123f190614c2f565b80601f016020809104026020016040519081016040528092919081815260200182805461241d90614c2f565b801561246a5780601f1061243f5761010080835404028352916020019161246a565b820191906000526020600020905b81548152906001019060200180831161244d57829003601f168201915b50505050509080600301805461247f90614c2f565b80601f01602080910402602001604051908101604052809291908181526020018280546124ab90614c2f565b80156124f85780601f106124cd576101008083540402835291602001916124f8565b820191906000526020600020905b8154815290600101906020018083116124db57829003601f168201915b50505050509080600401805461250d90614c2f565b80601f016020809104026020016040519081016040528092919081815260200182805461253990614c2f565b80156125865780601f1061255b57610100808354040283529160200191612586565b820191906000526020600020905b81548152906001019060200180831161256957829003601f168201915b50505050509080600501805461259b90614c2f565b80601f01602080910402602001604051908101604052809291908181526020018280546125c790614c2f565b80156126145780601f106125e957610100808354040283529160200191612614565b820191906000526020600020905b8154815290600101906020018083116125f757829003601f168201915b5050505050908060060154908060070154908060080154908060090160009054906101000a900473ffffffffffffffffffffffffffffffffffffffff1690508a565b606060026000838152602001908152602001600020805480602002602001604051908101604052809291908181526020016000905b828210156127af57838290600052602060002090600302016040518060600160405290816000820160009054906101000a900473ffffffffffffffffffffffffffffffffffffffff1673ffffffffffffffffffffffffffffffffffffffff1673ffffffffffffffffffffffffffffffffffffffff16815260200160018201805461271490614c2f565b80601f016020809104026020016040519081016040528092919081815260200182805461274090614c2f565b801561278d5780601f106127625761010080835404028352916020019161278d565b820191906000526020600020905b81548152906001019060200180831161277057829003601f168201915b505050505081526020016002820154815250508152602001906001019061268b565b505050509050919050565b60006005600084815260200190815260200160002060008373ffffffffffffffffffffffffffffffffffffffff1673ffffffffffffffffffffffffffffffffffffffff16815260200190815260200160002060009054906101000a900460ff16905092915050565b600160003373ffffffffffffffffffffffffffffffffffffffff1673ffffffffffffffffffffffffffffffffffffffff16815260200190815260200160002060020160009054906101000a900460ff166128b1576040517f08c379a00000000000000000000000000000000000000000000000000000000081526004016128a8906147f3565b60405180910390fd5b600160003373ffffffffffffffffffffffffffffffffffffffff1673ffffffffffffffffffffffffffffffffffffffff16815260200190815260200160002060020160019054906101000a900460ff1615612941576040517f08c379a0000000000000000000000000000000000000000000000000000000008152600401612938906146d3565b60405180910390fd5b60018060003373ffffffffffffffffffffffffffffffffffffffff1673ffffffffffffffffffffffffffffffffffffffff16815260200190815260200160002060020160016101000a81548160ff0219169083151502179055503373ffffffffffffffffffffffffffffffffffffffff167f8d15fde878cff665868ed7579eb5081db6508d4249df61dcdd7699a5301d987460405160405180910390a2565b60065481565b60026020528160005260406000208181548110612a0257600080fd5b9060005260206000209060030201600091509150508060000160009054906101000a900473ffffffffffffffffffffffffffffffffffffffff1690806001018054612a4c90614c2f565b80601f0160208091040260200160405190810160405280929190818152602001828054612a7890614c2f565b8015612ac55780601f10612a9a57610100808354040283529160200191612ac5565b820191906000526020600020905b815481529060010190602001808311612aa857829003601f168201915b5050505050908060020154905083565b60606007805480602002602001604051908101604052809291908181526020018280548015612b5957602002820191906000526020600020905b8160009054906101000a900473ffffffffffffffffffffffffffffffffffffffff1673ffffffffffffffffffffffffffffffffffffffff1681526020019060010190808311612b0f575b5050505050905090565b600160003373ffffffffffffffffffffffffffffffffffffffff1673ffffffffffffffffffffffffffffffffffffffff16815260200190815260200160002060020160009054906101000a900460ff16612bf2576040517f08c379a0000000000000000000000000000000000000000000000000000000008152600401612be990614793565b60405180910390fd5b600160003373ffffffffffffffffffffffffffffffffffffffff1673ffffffffffffffffffffffffffffffffffffffff16815260200190815260200160002060020160019054906101000a900460ff16612c81576040517f08c379a0000000000000000000000000000000000000000000000000000000008152600401612c78906147b3565b60405180910390fd5b600073ffffffffffffffffffffffffffffffffffffffff1660008084815260200190815260200160002060090160009054906101000a900473ffffffffffffffffffffffffffffffffffffffff1673ffffffffffffffffffffffffffffffffffffffff161415612d26576040517f08c379a0000000000000000000000000000000000000000000000000000000008152600401612d1d90614753565b60405180910390fd5b600060405180606001604052803373ffffffffffffffffffffffffffffffffffffffff1681526020018381526020014281525090506002600084815260200190815260200160002081908060018154018082558091505060019003906000526020600020906003020160009091909190915060008201518160000160006101000a81548173ffffffffffffffffffffffffffffffffffffffff021916908373ffffffffffffffffffffffffffffffffffffffff1602179055506020820151816001019080519060200190612dfb9291906137b5565b506040820151816002015550507f279d5614862445216877d543708664e73d87439c98f65d81d5163ed98ad2d603833384604051612e3b93929190614857565b60405180910390a1505050565b606080606080606080600080600080600073ffffffffffffffffffffffffffffffffffffffff166000808d815260200190815260200160002060090160009054906101000a900473ffffffffffffffffffffffffffffffffffffffff1673ffffffffffffffffffffffffffffffffffffffff161415612efc576040517f08c379a0000000000000000000000000000000000000000000000000000000008152600401612ef390614753565b60405180910390fd5b60008060008d815260200190815260200160002090508060000181600101826002018360030184600401856005018660060154876007015488600801548960090160009054906101000a900473ffffffffffffffffffffffffffffffffffffffff16898054612f6a90614c2f565b80601f0160208091040260200160405190810160405280929190818152602001828054612f9690614c2f565b8015612fe35780601f10612fb857610100808354040283529160200191612fe3565b820191906000526020600020905b815481529060010190602001808311612fc657829003601f168201915b50505050509950888054612ff690614c2f565b80601f016020809104026020016040519081016040528092919081815260200182805461302290614c2f565b801561306f5780601f106130445761010080835404028352916020019161306f565b820191906000526020600020905b81548152906001019060200180831161305257829003601f168201915b5050505050985087805461308290614c2f565b80601f01602080910402602001604051908101604052809291908181526020018280546130ae90614c2f565b80156130fb5780601f106130d0576101008083540402835291602001916130fb565b820191906000526020600020905b8154815290600101906020018083116130de57829003601f168201915b5050505050975086805461310e90614c2f565b80601f016020809104026020016040519081016040528092919081815260200182805461313a90614c2f565b80156131875780601f1061315c57610100808354040283529160200191613187565b820191906000526020600020905b81548152906001019060200180831161316a57829003601f168201915b5050505050965085805461319a90614c2f565b80601f01602080910402602001604051908101604052809291908181526020018280546131c690614c2f565b80156132135780601f106131e857610100808354040283529160200191613213565b820191906000526020600020905b8154815290600101906020018083116131f657829003601f168201915b5050505050955084805461322690614c2f565b80601f016020809104026020016040519081016040528092919081815260200182805461325290614c2f565b801561329f5780601f106132745761010080835404028352916020019161329f565b820191906000526020600020905b81548152906001019060200180831161328257829003601f168201915b505050505094509a509a509a509a509a509a509a509a509a509a50509193959799509193959799565b60056020528160005260406000206020528060005260406000206000915091509054906101000a900460ff1681565b6000808390506000839050600081511415613317576001925050506134af565b81518151111561332c576000925050506134af565b6000613337866134b5565b90506000613344866134b5565b905060006001825184516133589190614b3a565b6133629190614a7c565b905060005b818110156134a45760006001905060005b8451811015613479578481815181106133ba577f4e487b7100000000000000000000000000000000000000000000000000000000600052603260045260246000fd5b602001015160f81c60f81b7effffffffffffffffffffffffffffffffffffffffffffffffffffffffffffff19168682856133f49190614a7c565b8151811061342b577f4e487b7100000000000000000000000000000000000000000000000000000000600052603260045260246000fd5b602001015160f81c60f81b7effffffffffffffffffffffffffffffffffffffffffffffffffffffffffffff1916146134665760009150613479565b808061347190614c61565b915050613378565b5080156134905760019750505050505050506134af565b50808061349c90614c61565b915050613367565b506000955050505050505b92915050565b606060008290506000815167ffffffffffffffff8111156134ff577f4e487b7100000000000000000000000000000000000000000000000000000000600052604160045260246000fd5b6040519080825280601f01601f1916602001820160405280156135315781602001600182028036833780820191505090505b50905060005b82518110156137aa57604160f81b83828151811061357e577f4e487b7100000000000000000000000000000000000000000000000000000000600052603260045260246000fd5b602001015160f81c60f81b7effffffffffffffffffffffffffffffffffffffffffffffffffffffffffffff1916101580156136225750605a60f81b8382815181106135f2577f4e487b7100000000000000000000000000000000000000000000000000000000600052603260045260246000fd5b602001015160f81c60f81b7effffffffffffffffffffffffffffffffffffffffffffffffffffffffffffff191611155b156136ea576020838281518110613662577f4e487b7100000000000000000000000000000000000000000000000000000000600052603260045260246000fd5b602001015160f81c60f81b60f81c61367a9190614ad2565b60f81b8282815181106136b6577f4e487b7100000000000000000000000000000000000000000000000000000000600052603260045260246000fd5b60200101907effffffffffffffffffffffffffffffffffffffffffffffffffffffffffffff1916908160001a905350613797565b828181518110613723577f4e487b7100000000000000000000000000000000000000000000000000000000600052603260045260246000fd5b602001015160f81c60f81b828281518110613767577f4e487b7100000000000000000000000000000000000000000000000000000000600052603260045260246000fd5b60200101907effffffffffffffffffffffffffffffffffffffffffffffffffffffffffffff1916908160001a9053505b80806137a290614c61565b915050613537565b508092505050919050565b8280546137c190614c2f565b90600052602060002090601f0160209004810192826137e3576000855561382a565b82601f106137fc57805160ff191683800117855561382a565b8280016001018555821561382a579182015b8281111561382957825182559160200191906001019061380e565b5b50905061383791906138a4565b5090565b604051806101400160405280606081526020016060815260200160608152602001606081526020016060815260200160608152602001600081526020016000815260200160008152602001600073ffffffffffffffffffffffffffffffffffffffff1681525090565b5b808211156138bd5760008160009055506001016138a5565b5090565b60006138d46138cf8461493b565b61490a565b9050828152602081018484840111156138ec57600080fd5b6138f7848285614bc3565b509392505050565b60008135905061390e81614d77565b92915050565b600082601f83011261392557600080fd5b81356139358482602086016138c1565b91505092915050565b60008135905061394d81614d8e565b92915050565b60006020828403121561396557600080fd5b6000613973848285016138ff565b91505092915050565b6000806040838503121561398f57600080fd5b600083013567ffffffffffffffff8111156139a957600080fd5b6139b585828601613914565b925050602083013567ffffffffffffffff8111156139d257600080fd5b6139de85828601613914565b9150509250929050565b600080600080608085870312156139fe57600080fd5b600085013567ffffffffffffffff811115613a1857600080fd5b613a2487828801613914565b945050602085013567ffffffffffffffff811115613a4157600080fd5b613a4d87828801613914565b935050604085013567ffffffffffffffff811115613a6a57600080fd5b613a7687828801613914565b925050606085013567ffffffffffffffff811115613a9357600080fd5b613a9f87828801613914565b91505092959194509250565b60008060008060008060c08789031215613ac457600080fd5b600087013567ffffffffffffffff811115613ade57600080fd5b613aea89828a01613914565b965050602087013567ffffffffffffffff811115613b0757600080fd5b613b1389828a01613914565b955050604087013567ffffffffffffffff811115613b3057600080fd5b613b3c89828a01613914565b945050606087013567ffffffffffffffff811115613b5957600080fd5b613b6589828a01613914565b935050608087013567ffffffffffffffff811115613b8257600080fd5b613b8e89828a01613914565b92505060a087013567ffffffffffffffff811115613bab57600080fd5b613bb789828a01613914565b9150509295509295509295565b600060208284031215613bd657600080fd5b6000613be48482850161393e565b91505092915050565b60008060408385031215613c0057600080fd5b6000613c0e8582860161393e565b9250506020613c1f858286016138ff565b9150509250929050565b60008060408385031215613c3c57600080fd5b6000613c4a8582860161393e565b925050602083013567ffffffffffffffff811115613c6757600080fd5b613c7385828601613914565b9150509250929050565b60008060408385031215613c9057600080fd5b6000613c9e8582860161393e565b9250506020613caf8582860161393e565b9150509250929050565b6000613cc58383613d11565b60208301905092915050565b6000613cdd83836142bc565b905092915050565b6000613cf1838361430c565b905092915050565b6000613d058383614409565b60208301905092915050565b613d1a81614b6e565b82525050565b613d2981614b6e565b82525050565b6000613d3a826149ab565b613d448185614a16565b9350613d4f8361496b565b8060005b83811015613d80578151613d678882613cb9565b9750613d72836149e2565b925050600181019050613d53565b5085935050505092915050565b6000613d98826149b6565b613da28185614a27565b935083602082028501613db48561497b565b8060005b85811015613df05784840389528151613dd18582613cd1565b9450613ddc836149ef565b925060208a01995050600181019050613db8565b50829750879550505050505092915050565b6000613e0d826149c1565b613e178185614a38565b935083602082028501613e298561498b565b8060005b85811015613e655784840389528151613e468582613ce5565b9450613e51836149fc565b925060208a01995050600181019050613e2d565b50829750879550505050505092915050565b6000613e82826149cc565b613e8c8185614a49565b9350613e978361499b565b8060005b83811015613ec8578151613eaf8882613cf9565b9750613eba83614a09565b925050600181019050613e9b565b5085935050505092915050565b613ede81614b80565b82525050565b6000613eef826149d7565b613ef98185614a5a565b9350613f09818560208601614bd2565b613f1281614d66565b840191505092915050565b6000613f28826149d7565b613f328185614a6b565b9350613f42818560208601614bd2565b613f4b81614d66565b840191505092915050565b6000613f63601783614a6b565b91507f4e616d6120746964616b20626f6c6568206b6f736f6e670000000000000000006000830152602082019050919050565b6000613fa3601983614a6b565b91507f50617373776f7264206861736820746964616b2076616c6964000000000000006000830152602082019050919050565b6000613fe3601483614a6b565b91507f416b756e207375646168207465726461667461720000000000000000000000006000830152602082019050919050565b6000614023600b83614a6b565b91507f5375646168206c6f67696e0000000000000000000000000000000000000000006000830152602082019050919050565b6000614063601e83614a6b565b91507f526174696e6720686172757320616e7461726120312068696e676761203500006000830152602082019050919050565b60006140a3602283614a6b565b91507f546964616b2061646120726174696e6720756e74756b2074616e616d616e206960008301527f6e690000000000000000000000000000000000000000000000000000000000006020830152604082019050919050565b6000614109601983614a6b565b91507f416e6461207375646168206d656d6265726920726174696e67000000000000006000830152602082019050919050565b6000614149601783614a6b565b91507f54616e616d616e20746964616b20646974656d756b616e0000000000000000006000830152602082019050919050565b6000614189600b83614a6b565b91507f42656c756d206c6f67696e0000000000000000000000000000000000000000006000830152602082019050919050565b60006141c9601483614a6b565b91507f416e6461206861727573207465726461667461720000000000000000000000006000830152602082019050919050565b6000614209601083614a6b565b91507f416e6461206861727573206c6f67696e000000000000000000000000000000006000830152602082019050919050565b6000614249601783614a6b565b91507f4e616d612074616e616d616e2064697065726c756b616e0000000000000000006000830152602082019050919050565b6000614289601883614a6b565b91507f50656e6767756e6120746964616b2074657264616674617200000000000000006000830152602082019050919050565b60006060830160008301516142d46000860182613d11565b50602083015184820360208601526142ec8282613ee4565b91505060408301516143016040860182614409565b508091505092915050565b600061014083016000830151848203600086015261432a8282613ee4565b915050602083015184820360208601526143448282613ee4565b9150506040830151848203604086015261435e8282613ee4565b915050606083015184820360608601526143788282613ee4565b915050608083015184820360808601526143928282613ee4565b91505060a083015184820360a08601526143ac8282613ee4565b91505060c08301516143c160c0860182614409565b5060e08301516143d460e0860182614409565b506101008301516143e9610100860182614409565b506101208301516143fe610120860182613d11565b508091505092915050565b61441281614bac565b82525050565b61442181614bac565b82525050565b600060208201905061443c6000830184613d20565b92915050565b60006060820190506144576000830186613d20565b81810360208301526144698185613f1d565b90506144786040830184614418565b949350505050565b6000602082019050818103600083015261449a8184613d2f565b905092915050565b600060208201905081810360008301526144bc8184613d8d565b905092915050565b600060208201905081810360008301526144de8184613e77565b905092915050565b600060408201905081810360008301526145008185613e77565b905081810360208301526145148184613e02565b90509392505050565b60006020820190506145326000830184613ed5565b92915050565b600060208201905081810360008301526145528184613f1d565b905092915050565b600060808201905081810360008301526145748187613f1d565b905081810360208301526145888186613f1d565b90506145976040830185613ed5565b6145a46060830184613ed5565b95945050505050565b60006101408201905081810360008301526145c8818d613f1d565b905081810360208301526145dc818c613f1d565b905081810360408301526145f0818b613f1d565b90508181036060830152614604818a613f1d565b905081810360808301526146188189613f1d565b905081810360a083015261462c8188613f1d565b905061463b60c0830187614418565b61464860e0830186614418565b614656610100830185614418565b614664610120830184613d20565b9b9a5050505050505050505050565b6000602082019050818103600083015261468c81613f56565b9050919050565b600060208201905081810360008301526146ac81613f96565b9050919050565b600060208201905081810360008301526146cc81613fd6565b9050919050565b600060208201905081810360008301526146ec81614016565b9050919050565b6000602082019050818103600083015261470c81614056565b9050919050565b6000602082019050818103600083015261472c81614096565b9050919050565b6000602082019050818103600083015261474c816140fc565b9050919050565b6000602082019050818103600083015261476c8161413c565b9050919050565b6000602082019050818103600083015261478c8161417c565b9050919050565b600060208201905081810360008301526147ac816141bc565b9050919050565b600060208201905081810360008301526147cc816141fc565b9050919050565b600060208201905081810360008301526147ec8161423c565b9050919050565b6000602082019050818103600083015261480c8161427c565b9050919050565b60006020820190506148286000830184614418565b92915050565b60006040820190506148436000830185614418565b6148506020830184613d20565b9392505050565b600060608201905061486c6000830186614418565b6148796020830185613d20565b818103604083015261488b8184613f1d565b9050949350505050565b60006060820190506148aa6000830186614418565b6148b76020830185613d20565b6148c46040830184614418565b949350505050565b60006060820190506148e16000830186614418565b81810360208301526148f38185613f1d565b90506149026040830184613d20565b949350505050565b6000604051905081810181811067ffffffffffffffff8211171561493157614930614d37565b5b8060405250919050565b600067ffffffffffffffff82111561495657614955614d37565b5b601f19601f8301169050602081019050919050565b6000819050602082019050919050565b6000819050602082019050919050565b6000819050602082019050919050565b6000819050602082019050919050565b600081519050919050565b600081519050919050565b600081519050919050565b600081519050919050565b600081519050919050565b6000602082019050919050565b6000602082019050919050565b6000602082019050919050565b6000602082019050919050565b600082825260208201905092915050565b600082825260208201905092915050565b600082825260208201905092915050565b600082825260208201905092915050565b600082825260208201905092915050565b600082825260208201905092915050565b6000614a8782614bac565b9150614a9283614bac565b9250827fffffffffffffffffffffffffffffffffffffffffffffffffffffffffffffffff03821115614ac757614ac6614caa565b5b828201905092915050565b6000614add82614bb6565b9150614ae883614bb6565b92508260ff03821115614afe57614afd614caa565b5b828201905092915050565b6000614b1482614bac565b9150614b1f83614bac565b925082614b2f57614b2e614cd9565b5b828204905092915050565b6000614b4582614bac565b9150614b5083614bac565b925082821015614b6357614b62614caa565b5b828203905092915050565b6000614b7982614b8c565b9050919050565b60008115159050919050565b600073ffffffffffffffffffffffffffffffffffffffff82169050919050565b6000819050919050565b600060ff82169050919050565b82818337600083830152505050565b60005b83811015614bf0578082015181840152602081019050614bd5565b83811115614bff576000848401525b50505050565b6000614c1082614bac565b91506000821415614c2457614c23614caa565b5b600182039050919050565b60006002820490506001821680614c4757607f821691505b60208210811415614c5b57614c5a614d08565b5b50919050565b6000614c6c82614bac565b91507fffffffffffffffffffffffffffffffffffffffffffffffffffffffffffffffff821415614c9f57614c9e614caa565b5b600182019050919050565b7f4e487b7100000000000000000000000000000000000000000000000000000000600052601160045260246000fd5b7f4e487b7100000000000000000000000000000000000000000000000000000000600052601260045260246000fd5b7f4e487b7100000000000000000000000000000000000000000000000000000000600052602260045260246000fd5b7f4e487b7100000000000000000000000000000000000000000000000000000000600052604160045260246000fd5b6000601f19601f8301169050919050565b614d8081614b6e565b8114614d8b57600080fd5b50565b614d9781614bac565b8114614da257600080fd5b5056fea2646970667358221220f8f9c3894cd3e11cc78c5e961d2c591096f838056402333eac8de3f06078586b64736f6c63430008000033",
  "immutableReferences": {},
  "source": "// SPDX-License-Identifier: MIT\r\npragma solidity ^0.8.0;\r\n\r\ncontract HerbalPlant {\r\n    struct Plant {\r\n        string name;\r\n        string namaLatin;\r\n        string komposisi;\r\n        string kegunaan;\r\n        string caraPengolahan;\r\n        string ipfsHash;\r\n        uint ratingTotal;\r\n        uint ratingCount;\r\n        uint likeCount;\r\n        address owner;\r\n    }\r\n\r\n    struct User {\r\n        string fullName;\r\n        string hashPass;  // Store hashed password\r\n        bool isRegistered;\r\n        bool isLoggedIn;\r\n    }\r\n\r\n    struct Comment {\r\n        address user;\r\n        string comment;\r\n        uint timestamp;\r\n    }\r\n\r\n    mapping(uint => Plant) public plants;\r\n    mapping(address => User) private usersByPublicKey;\r\n    mapping(uint => Comment[]) public plantComments;  // Mapping for plant comments\r\n    mapping(uint => address[]) public plantRatingUsers;\r\n    mapping(uint => mapping(address => uint)) public plantRatings;\r\n    mapping(uint => mapping(address => bool)) public plantLikes;\r\n\r\n    uint public plantCount;\r\n    address[] private registeredUsers;\r\n\r\n    event PlantAdded(uint plantId, string name, address owner);\r\n    event PlantRated(uint plantId, address user, uint rating);\r\n    event PlantLiked(uint plantId, address user);\r\n    event UserRegistered(address indexed publicKey, string fullName);\r\n    event UserLoggedIn(address indexed publicKey);\r\n    event UserLoggedOut(address indexed publicKey);\r\n    event PlantCommented(uint plantId, address user, string comment);\r\n\r\n    modifier onlyActiveUser() {\r\n        require(usersByPublicKey[msg.sender].isRegistered, \"Anda harus terdaftar\");\r\n        require(usersByPublicKey[msg.sender].isLoggedIn, \"Anda harus login\");\r\n        _;\r\n    }\r\n\r\n    //  Mendaftarkan user dengan menyimpan password hash di Blockchain\r\n    function registerUser(\r\n        string memory fullName,\r\n        string memory hashPass\r\n    ) public {\r\n        require(bytes(fullName).length > 0, \"Nama tidak boleh kosong\");\r\n        require(bytes(hashPass).length > 0, \"Password hash tidak valid\");\r\n        require(!usersByPublicKey[msg.sender].isRegistered, \"Akun sudah terdaftar\");\r\n\r\n        usersByPublicKey[msg.sender] = User({\r\n            fullName: fullName,\r\n            hashPass: hashPass,\r\n            isRegistered: true,\r\n            isLoggedIn: false\r\n        });\r\n\r\n        registeredUsers.push(msg.sender);\r\n\r\n        emit UserRegistered(msg.sender, fullName);\r\n    }\r\n\r\n    //  Login menggunakan password hash\r\n    function login() public {\r\n        require(usersByPublicKey[msg.sender].isRegistered, \"Pengguna tidak terdaftar\");\r\n        require(!usersByPublicKey[msg.sender].isLoggedIn, \"Sudah login\");\r\n\r\n        usersByPublicKey[msg.sender].isLoggedIn = true;\r\n        emit UserLoggedIn(msg.sender);\r\n    }\r\n\r\n    //  Getter untuk mengambil data user berdasarkan address\r\n    function getUserInfo(address userAddress) public view returns (\r\n        string memory fullName,\r\n        string memory hashPass,\r\n        bool isRegistered,\r\n        bool isLoggedIn\r\n    ) {\r\n        User memory user = usersByPublicKey[userAddress];\r\n        return (\r\n            user.fullName,\r\n            user.hashPass,\r\n            user.isRegistered,\r\n            user.isLoggedIn\r\n        );\r\n    }\r\n\r\n    //  Logout user\r\n    function logout() public {\r\n        require(usersByPublicKey[msg.sender].isLoggedIn, \"Belum login\");\r\n        \r\n        usersByPublicKey[msg.sender].isLoggedIn = false;\r\n        emit UserLoggedOut(msg.sender);\r\n    }\r\n\r\n    //  Menambahkan tanaman herbal\r\n    function addPlant(\r\n        string memory name,\r\n        string memory namaLatin,\r\n        string memory komposisi,\r\n        string memory kegunaan,\r\n        string memory caraPengolahan,\r\n        string memory ipfsHash\r\n    ) public onlyActiveUser {\r\n        require(bytes(name).length > 0, \"Nama tanaman diperlukan\");\r\n\r\n        uint currentId = plantCount; // simpan ID sekarang sebelum increment\r\n\r\n        plants[currentId] = Plant({\r\n            name: name,\r\n            namaLatin: namaLatin,\r\n            komposisi: komposisi,\r\n            kegunaan: kegunaan,\r\n            caraPengolahan: caraPengolahan,\r\n            ipfsHash: ipfsHash,\r\n            ratingTotal: 0,\r\n            ratingCount: 0,\r\n            likeCount: 0,\r\n            owner: msg.sender\r\n        });\r\n\r\n        emit PlantAdded(currentId, name, msg.sender); // gunakan ID yang benar\r\n        plantCount++;\r\n    }\r\n\r\n    //  Memberi rating tanaman herbal (1-5)\r\n    function ratePlant(uint plantId, uint rating) public onlyActiveUser {\r\n        require(plants[plantId].owner != address(0), \"Tanaman tidak ditemukan\");\r\n        require(rating >= 1 && rating <= 5, \"Rating harus antara 1 hingga 5\");\r\n        require(plantRatings[plantId][msg.sender] == 0, \"Anda sudah memberi rating\");\r\n\r\n        plantRatings[plantId][msg.sender] = rating;\r\n        plants[plantId].ratingTotal += rating;\r\n        plants[plantId].ratingCount++;\r\n\r\n        // Menyimpan user yang memberi rating\r\n        plantRatingUsers[plantId].push(msg.sender);\r\n\r\n        emit PlantRated(plantId, msg.sender, rating);\r\n    }\r\n\r\n    //  Fungsi untuk mendapatkan rata-rata rating dari sebuah tanaman herbal\r\n    function getAverageRating(uint plantId) public view returns (uint) {\r\n        Plant storage plant = plants[plantId];\r\n        require(plant.ratingCount > 0, \"Tidak ada rating untuk tanaman ini\");\r\n        \r\n        uint averageRating = plant.ratingTotal / plant.ratingCount;\r\n        return averageRating;\r\n    }\r\n\r\n    //  Fungsi untuk mendapatkan semua rating dari tanaman\r\n    function getPlantRatings(uint plantId) public view returns (uint[] memory) {\r\n    uint ratingCount = plants[plantId].ratingCount;\r\n    uint[] memory ratings = new uint[](ratingCount);\r\n\r\n    for (uint i = 0; i < plantRatingUsers[plantId].length; i++) {\r\n        address user = plantRatingUsers[plantId][i];\r\n        ratings[i] = plantRatings[plantId][user];\r\n    }\r\n\r\n    return ratings;\r\n    }\r\n\r\n    //  Menyukai tanaman herbal\r\n    function likePlant(uint plantId) public onlyActiveUser {\r\n    require(plants[plantId].owner != address(0), \"Tanaman tidak ditemukan\");\r\n\r\n    // Jika pengguna sudah memberi like sebelumnya, hapus like tersebut\r\n    if (plantLikes[plantId][msg.sender]) {\r\n        plantLikes[plantId][msg.sender] = false;\r\n        plants[plantId].likeCount--;\r\n        emit PlantLiked(plantId, msg.sender); // Emit event jika perlu\r\n    } else {\r\n        // Jika belum memberi like, beri like\r\n        plantLikes[plantId][msg.sender] = true;\r\n        plants[plantId].likeCount++;\r\n        emit PlantLiked(plantId, msg.sender); // Emit event jika perlu\r\n    }\r\n    }\r\n\r\n    //  Mengecek apakah user sudah like tanaman tertentu\r\n    function isPlantLikedByUser(uint plantId, address user) public view returns (bool) {\r\n        return plantLikes[plantId][user];\r\n    }\r\n\r\n    //  Memberikan komentar/testimoni pada tanaman\r\n    function commentPlant(uint plantId, string memory comment) public onlyActiveUser {\r\n        require(plants[plantId].owner != address(0), \"Tanaman tidak ditemukan\");\r\n\r\n        Comment memory newComment = Comment({\r\n            user: msg.sender,\r\n            comment: comment,\r\n            timestamp: block.timestamp\r\n        });\r\n\r\n        plantComments[plantId].push(newComment);\r\n\r\n        emit PlantCommented(plantId, msg.sender, comment);\r\n    }\r\n\r\n    //  Mengambil detail tanaman herbal\r\n    function getPlant(uint plantId)\r\n    public\r\n    view\r\n    returns (\r\n        string memory name,\r\n        string memory namaLatin,\r\n        string memory komposisi,\r\n        string memory kegunaan,\r\n        string memory caraPengolahan,\r\n        string memory ipfsHash,\r\n        uint ratingTotal,\r\n        uint ratingCount,\r\n        uint likeCount,\r\n        address owner\r\n    )\r\n    {\r\n    require(plants[plantId].owner != address(0), \"Tanaman tidak ditemukan\");\r\n\r\n    Plant storage plant = plants[plantId];\r\n\r\n    return (\r\n        plant.name,\r\n        plant.namaLatin,\r\n        plant.komposisi,\r\n        plant.kegunaan,\r\n        plant.caraPengolahan,\r\n        plant.ipfsHash,\r\n        plant.ratingTotal,\r\n        plant.ratingCount,\r\n        plant.likeCount,\r\n        plant.owner\r\n    );\r\n    }\r\n\r\n    //  Fungsi untuk mencari tanaman berdasarkan nama, nama latin, komposisi, atau kegunaan\r\n    function searchPlants(\r\n    string memory name, \r\n    string memory namaLatin, \r\n    string memory komposisi, \r\n    string memory kegunaan\r\n    ) \r\n    public view\r\n    returns (uint[] memory, Plant[] memory) // Return 2 array: IDs dan data tanaman\r\n    {\r\n    uint plantIndex = 0;\r\n    uint[] memory idResults = new uint[](plantCount);\r\n    Plant[] memory plantResults = new Plant[](plantCount);\r\n\r\n    // Loop melalui semua tanaman yang tersimpan\r\n    for (uint i = 0; i < plantCount; i++) {\r\n        Plant storage currentPlant = plants[i];\r\n        bool isMatch = false;\r\n\r\n        // Jika ada salah satu yang cocok, maka isMatch = true\r\n        if (bytes(name).length > 0 && contains(currentPlant.name, name)) isMatch = true;\r\n        if (bytes(namaLatin).length > 0 && contains(currentPlant.namaLatin, namaLatin)) isMatch = true;\r\n        if (bytes(komposisi).length > 0 && contains(currentPlant.komposisi, komposisi)) isMatch = true;\r\n        if (bytes(kegunaan).length > 0 && contains(currentPlant.kegunaan, kegunaan)) isMatch = true;\r\n\r\n        // Jika memenuhi kriteria, tambahkan ke hasil\r\n        if (isMatch) {\r\n            idResults[plantIndex] = i; // Simpan ID tanaman (index)\r\n            plantResults[plantIndex] = currentPlant; // Simpan data lengkap\r\n            plantIndex++;\r\n        }\r\n    }\r\n\r\n    // Buat array hasil dengan ukuran yang tepat\r\n    uint[] memory finalIds = new uint[](plantIndex);\r\n    Plant[] memory finalPlants = new Plant[](plantIndex);\r\n\r\n    // Salin data dari array sementara ke array final\r\n    for (uint i = 0; i < plantIndex; i++) {\r\n        finalIds[i] = idResults[i];\r\n        finalPlants[i] = plantResults[i];\r\n    }\r\n\r\n    // Kembalikan sebagai tuple (2 array terpisah)\r\n    return (finalIds, finalPlants);\r\n    }\r\n\r\n    //  Fungsi untuk mengecek apakah sebuah string mengandung substring tertentu (case-insensitive)\r\n    function contains(string memory haystack, string memory needle) internal pure returns (bool) {\r\n        bytes memory haystackBytes = bytes(haystack);\r\n        bytes memory needleBytes = bytes(needle);\r\n        \r\n        // Handle kasus khusus: needle kosong selalu dianggap ada\r\n        if (needleBytes.length == 0) return true;\r\n        \r\n        // Handle kasus dimana needle lebih panjang dari haystack\r\n        if (needleBytes.length > haystackBytes.length) return false;\r\n\r\n        // Konversi ke lowercase sekali saja di awal\r\n        bytes memory haystackLower = bytes(toLowerCase(haystack));\r\n        bytes memory needleLower = bytes(toLowerCase(needle));\r\n\r\n        // Optimasi: Batasi jumlah iterasi yang diperlukan\r\n        uint maxIterations = haystackLower.length - needleLower.length + 1;\r\n        \r\n        for (uint i = 0; i < maxIterations; i++) {\r\n            bool isMatch = true;\r\n            \r\n            // Periksa karakter per karakter\r\n            for (uint j = 0; j < needleLower.length; j++) {\r\n                if (haystackLower[i + j] != needleLower[j]) {\r\n                    isMatch = false;\r\n                    break; // Berhenti jika ada ketidakcocokan\r\n                }\r\n            }\r\n            \r\n            if (isMatch) return true;\r\n        }\r\n        \r\n        return false;\r\n    }\r\n\r\n    //  Fungsi untuk konversi string ke lowercase\r\n    function toLowerCase(string memory str) internal pure returns (string memory) {\r\n        bytes memory strBytes = bytes(str);\r\n        bytes memory lowerBytes = new bytes(strBytes.length);\r\n        \r\n        for (uint i = 0; i < strBytes.length; i++) {\r\n            // Cek apakah karakter adalah A-Z (0x41-0x5A)\r\n            if (strBytes[i] >= 0x41 && strBytes[i] <= 0x5A) {\r\n                lowerBytes[i] = bytes1(uint8(strBytes[i]) + 32); // Konversi ke lowercase\r\n            } else {\r\n                lowerBytes[i] = strBytes[i]; // Pertahankan karakter lain\r\n            }\r\n        }\r\n        \r\n        return string(lowerBytes);\r\n    }\r\n\r\n    //  Mengambil komentar/testimoni tanaman herbal\r\n    function getPlantComments(uint plantId) public view returns (Comment[] memory) {\r\n        return plantComments[plantId];\r\n    }\r\n\r\n    //  Mengambil semua user yang terdaftar\r\n    function getAllUsers() public view returns (address[] memory) {\r\n        return registeredUsers;\r\n    }\r\n}\r\n",
  "sourcePath": "D:\\Kuliah\\TA\\Integrated Project\\middleware\\contracts\\HerbalPlant.sol",
  "compiler": {
    "name": "solc",
    "version": "0.8.0+commit.c7dfd78e.Emscripten.clang"
  },
  "schemaVersion": "3.4.16",
  "updatedAt": "2025-04-28T02:46:54.603Z",
  "networkType": "ethereum",
  "devdoc": {
    "kind": "dev",
    "methods": {},
    "version": 1
  },
  "userdoc": {
    "kind": "user",
    "methods": {},
    "version": 1
  }
}