{
  "contractName": "HerbalPlant",
  "abi": [
    {
      "anonymous": false,
      "inputs": [
        {
          "indexed": false,
          "internalType": "uint256",
          "name": "plantId",
          "type": "uint256"
        },
        {
          "indexed": false,
          "internalType": "string",
          "name": "name",
          "type": "string"
        },
        {
          "indexed": false,
          "internalType": "address",
          "name": "owner",
          "type": "address"
        }
      ],
      "name": "PlantAdded",
      "type": "event"
    },
    {
      "anonymous": false,
      "inputs": [
        {
          "indexed": false,
          "internalType": "uint256",
          "name": "plantId",
          "type": "uint256"
        },
        {
          "indexed": false,
          "internalType": "address",
          "name": "user",
          "type": "address"
        },
        {
          "indexed": false,
          "internalType": "string",
          "name": "comment",
          "type": "string"
        }
      ],
      "name": "PlantCommented",
      "type": "event"
    },
    {
      "anonymous": false,
      "inputs": [
        {
          "indexed": false,
          "internalType": "uint256",
          "name": "plantId",
          "type": "uint256"
        },
        {
          "indexed": false,
          "internalType": "address",
          "name": "user",
          "type": "address"
        }
      ],
      "name": "PlantLiked",
      "type": "event"
    },
    {
      "anonymous": false,
      "inputs": [
        {
          "indexed": false,
          "internalType": "uint256",
          "name": "plantId",
          "type": "uint256"
        },
        {
          "indexed": false,
          "internalType": "address",
          "name": "user",
          "type": "address"
        },
        {
          "indexed": false,
          "internalType": "uint256",
          "name": "rating",
          "type": "uint256"
        }
      ],
      "name": "PlantRated",
      "type": "event"
    },
    {
      "anonymous": false,
      "inputs": [
        {
          "indexed": true,
          "internalType": "address",
          "name": "publicKey",
          "type": "address"
        }
      ],
      "name": "UserLoggedIn",
      "type": "event"
    },
    {
      "anonymous": false,
      "inputs": [
        {
          "indexed": true,
          "internalType": "address",
          "name": "publicKey",
          "type": "address"
        }
      ],
      "name": "UserLoggedOut",
      "type": "event"
    },
    {
      "anonymous": false,
      "inputs": [
        {
          "indexed": true,
          "internalType": "address",
          "name": "publicKey",
          "type": "address"
        },
        {
          "indexed": false,
          "internalType": "string",
          "name": "fullName",
          "type": "string"
        }
      ],
      "name": "UserRegistered",
      "type": "event"
    },
    {
      "inputs": [
        {
          "internalType": "uint256",
          "name": "",
          "type": "uint256"
        },
        {
          "internalType": "uint256",
          "name": "",
          "type": "uint256"
        }
      ],
      "name": "plantComments",
      "outputs": [
        {
          "internalType": "address",
          "name": "user",
          "type": "address"
        },
        {
          "internalType": "string",
          "name": "comment",
          "type": "string"
        },
        {
          "internalType": "uint256",
          "name": "timestamp",
          "type": "uint256"
        }
      ],
      "stateMutability": "view",
      "type": "function"
    },
    {
      "inputs": [],
      "name": "plantCount",
      "outputs": [
        {
          "internalType": "uint256",
          "name": "",
          "type": "uint256"
        }
      ],
      "stateMutability": "view",
      "type": "function"
    },
    {
      "inputs": [
        {
          "internalType": "uint256",
          "name": "",
          "type": "uint256"
        },
        {
          "internalType": "address",
          "name": "",
          "type": "address"
        }
      ],
      "name": "plantLikes",
      "outputs": [
        {
          "internalType": "bool",
          "name": "",
          "type": "bool"
        }
      ],
      "stateMutability": "view",
      "type": "function"
    },
    {
      "inputs": [
        {
          "internalType": "uint256",
          "name": "",
          "type": "uint256"
        },
        {
          "internalType": "uint256",
          "name": "",
          "type": "uint256"
        }
      ],
      "name": "plantRatingUsers",
      "outputs": [
        {
          "internalType": "address",
          "name": "",
          "type": "address"
        }
      ],
      "stateMutability": "view",
      "type": "function"
    },
    {
      "inputs": [
        {
          "internalType": "uint256",
          "name": "",
          "type": "uint256"
        },
        {
          "internalType": "address",
          "name": "",
          "type": "address"
        }
      ],
      "name": "plantRatings",
      "outputs": [
        {
          "internalType": "uint256",
          "name": "",
          "type": "uint256"
        }
      ],
      "stateMutability": "view",
      "type": "function"
    },
    {
      "inputs": [
        {
          "internalType": "uint256",
          "name": "",
          "type": "uint256"
        }
      ],
      "name": "plants",
      "outputs": [
        {
          "internalType": "string",
          "name": "name",
          "type": "string"
        },
        {
          "internalType": "string",
          "name": "namaLatin",
          "type": "string"
        },
        {
          "internalType": "string",
          "name": "komposisi",
          "type": "string"
        },
        {
          "internalType": "string",
          "name": "kegunaan",
          "type": "string"
        },
        {
          "internalType": "string",
          "name": "dosis",
          "type": "string"
        },
        {
          "internalType": "string",
          "name": "caraPengolahan",
          "type": "string"
        },
        {
          "internalType": "string",
          "name": "efekSamping",
          "type": "string"
        },
        {
          "internalType": "string",
          "name": "ipfsHash",
          "type": "string"
        },
        {
          "internalType": "uint256",
          "name": "ratingTotal",
          "type": "uint256"
        },
        {
          "internalType": "uint256",
          "name": "ratingCount",
          "type": "uint256"
        },
        {
          "internalType": "uint256",
          "name": "likeCount",
          "type": "uint256"
        },
        {
          "internalType": "address",
          "name": "owner",
          "type": "address"
        }
      ],
      "stateMutability": "view",
      "type": "function"
    },
    {
      "inputs": [
        {
          "internalType": "string",
          "name": "fullName",
          "type": "string"
        },
        {
          "internalType": "string",
          "name": "hashPass",
          "type": "string"
        }
      ],
      "name": "registerUser",
      "outputs": [],
      "stateMutability": "nonpayable",
      "type": "function"
    },
    {
      "inputs": [],
      "name": "login",
      "outputs": [],
      "stateMutability": "nonpayable",
      "type": "function"
    },
    {
      "inputs": [
        {
          "internalType": "address",
          "name": "userAddress",
          "type": "address"
        }
      ],
      "name": "getUserInfo",
      "outputs": [
        {
          "internalType": "string",
          "name": "fullName",
          "type": "string"
        },
        {
          "internalType": "string",
          "name": "hashPass",
          "type": "string"
        },
        {
          "internalType": "bool",
          "name": "isRegistered",
          "type": "bool"
        },
        {
          "internalType": "bool",
          "name": "isLoggedIn",
          "type": "bool"
        }
      ],
      "stateMutability": "view",
      "type": "function"
    },
    {
      "inputs": [],
      "name": "logout",
      "outputs": [],
      "stateMutability": "nonpayable",
      "type": "function"
    },
    {
      "inputs": [
        {
          "internalType": "string",
          "name": "name",
          "type": "string"
        },
        {
          "internalType": "string",
          "name": "namaLatin",
          "type": "string"
        },
        {
          "internalType": "string",
          "name": "komposisi",
          "type": "string"
        },
        {
          "internalType": "string",
          "name": "kegunaan",
          "type": "string"
        },
        {
          "internalType": "string",
          "name": "dosis",
          "type": "string"
        },
        {
          "internalType": "string",
          "name": "caraPengolahan",
          "type": "string"
        },
        {
          "internalType": "string",
          "name": "efekSamping",
          "type": "string"
        },
        {
          "internalType": "string",
          "name": "ipfsHash",
          "type": "string"
        }
      ],
      "name": "addPlant",
      "outputs": [],
      "stateMutability": "nonpayable",
      "type": "function"
    },
    {
      "inputs": [
        {
          "internalType": "uint256",
          "name": "plantId",
          "type": "uint256"
        },
        {
          "internalType": "uint256",
          "name": "rating",
          "type": "uint256"
        }
      ],
      "name": "ratePlant",
      "outputs": [],
      "stateMutability": "nonpayable",
      "type": "function"
    },
    {
      "inputs": [
        {
          "internalType": "uint256",
          "name": "plantId",
          "type": "uint256"
        }
      ],
      "name": "getAverageRating",
      "outputs": [
        {
          "internalType": "uint256",
          "name": "",
          "type": "uint256"
        }
      ],
      "stateMutability": "view",
      "type": "function"
    },
    {
      "inputs": [
        {
          "internalType": "uint256",
          "name": "plantId",
          "type": "uint256"
        }
      ],
      "name": "getPlantRatings",
      "outputs": [
        {
          "internalType": "uint256[]",
          "name": "",
          "type": "uint256[]"
        }
      ],
      "stateMutability": "view",
      "type": "function"
    },
    {
      "inputs": [
        {
          "internalType": "uint256",
          "name": "plantId",
          "type": "uint256"
        }
      ],
      "name": "likePlant",
      "outputs": [],
      "stateMutability": "nonpayable",
      "type": "function"
    },
    {
      "inputs": [
        {
          "internalType": "uint256",
          "name": "plantId",
          "type": "uint256"
        },
        {
          "internalType": "address",
          "name": "user",
          "type": "address"
        }
      ],
      "name": "isPlantLikedByUser",
      "outputs": [
        {
          "internalType": "bool",
          "name": "",
          "type": "bool"
        }
      ],
      "stateMutability": "view",
      "type": "function"
    },
    {
      "inputs": [
        {
          "internalType": "uint256",
          "name": "plantId",
          "type": "uint256"
        },
        {
          "internalType": "string",
          "name": "comment",
          "type": "string"
        }
      ],
      "name": "commentPlant",
      "outputs": [],
      "stateMutability": "nonpayable",
      "type": "function"
    },
    {
      "inputs": [
        {
          "internalType": "uint256",
          "name": "plantId",
          "type": "uint256"
        }
      ],
      "name": "getPlant",
      "outputs": [
        {
          "internalType": "string",
          "name": "name",
          "type": "string"
        },
        {
          "internalType": "string",
          "name": "namaLatin",
          "type": "string"
        },
        {
          "internalType": "string",
          "name": "komposisi",
          "type": "string"
        },
        {
          "internalType": "string",
          "name": "kegunaan",
          "type": "string"
        },
        {
          "internalType": "string",
          "name": "dosis",
          "type": "string"
        },
        {
          "internalType": "string",
          "name": "caraPengolahan",
          "type": "string"
        },
        {
          "internalType": "string",
          "name": "efekSamping",
          "type": "string"
        },
        {
          "internalType": "string",
          "name": "ipfsHash",
          "type": "string"
        },
        {
          "internalType": "uint256",
          "name": "ratingTotal",
          "type": "uint256"
        },
        {
          "internalType": "uint256",
          "name": "ratingCount",
          "type": "uint256"
        },
        {
          "internalType": "uint256",
          "name": "likeCount",
          "type": "uint256"
        },
        {
          "internalType": "address",
          "name": "owner",
          "type": "address"
        }
      ],
      "stateMutability": "view",
      "type": "function"
    },
    {
      "inputs": [
        {
          "internalType": "string",
          "name": "name",
          "type": "string"
        },
        {
          "internalType": "string",
          "name": "namaLatin",
          "type": "string"
        },
        {
          "internalType": "string",
          "name": "komposisi",
          "type": "string"
        },
        {
          "internalType": "string",
          "name": "kegunaan",
          "type": "string"
        }
      ],
      "name": "searchPlants",
      "outputs": [
        {
          "internalType": "uint256[]",
          "name": "",
          "type": "uint256[]"
        }
      ],
      "stateMutability": "view",
      "type": "function"
    },
    {
      "inputs": [
        {
          "internalType": "uint256",
          "name": "plantId",
          "type": "uint256"
        }
      ],
      "name": "getPlantComments",
      "outputs": [
        {
          "components": [
            {
              "internalType": "address",
              "name": "user",
              "type": "address"
            },
            {
              "internalType": "string",
              "name": "comment",
              "type": "string"
            },
            {
              "internalType": "uint256",
              "name": "timestamp",
              "type": "uint256"
            }
          ],
          "internalType": "struct HerbalPlant.Comment[]",
          "name": "",
          "type": "tuple[]"
        }
      ],
      "stateMutability": "view",
      "type": "function"
    },
    {
      "inputs": [],
      "name": "getAllUsers",
      "outputs": [
        {
          "internalType": "address[]",
          "name": "",
          "type": "address[]"
        }
      ],
      "stateMutability": "view",
      "type": "function"
    }
  ],
  "bytecode": "0x608060405234801561001057600080fd5b5061489b806100206000396000f3fe608060405234801561001057600080fd5b50600436106101375760003560e01c80637eede255116100b8578063b85f7d571161007c578063b85f7d571461037e578063d5469da61461039c578063e2842d79146103ce578063e2ec5fdf146103ec578063ed0b1f5f14610408578063efbf07d61461044357610137565b80637eede255146102bd5780638dd2361c146102d95780638e788d0d14610314578063a7d0459914610344578063b34e97e81461037457610137565b80631f3c99c3116100ff5780631f3c99c314610204578063381c9b191461020e578063412cc71f1461022a5780636386c1c71461025a5780637dddc3921461028d57610137565b806307f9603e1461013c57806311fb6c891461016c57806317b7e03e1461019c5780631956e2e2146101cc5780631d2e4afd146101e8575b600080fd5b610156600480360381019061015191906138ae565b610473565b6040516101639190613fe8565b60405180910390f35b61018660048036038101906101819190613967565b610652565b6040516101939190613f4b565b60405180910390f35b6101b660048036038101906101b191906138ae565b6106a0565b6040516101c3919061430c565b60405180910390f35b6101e660048036038101906101e191906138ae565b610720565b005b61020260048036038101906101fd919061360d565b610ae9565b005b61020c610d99565b005b6102286004803603810190610223919061373c565b610ec8565b005b610244600480360381019061023f9190613679565b611260565b6040516102519190613fe8565b60405180910390f35b610274600480360381019061026f91906135e4565b611747565b6040516102849493929190614047565b60405180910390f35b6102a760048036038101906102a291906138d7565b611919565b6040516102b4919061430c565b60405180910390f35b6102d760048036038101906102d29190613967565b61193e565b005b6102f360048036038101906102ee91906138ae565b611d67565b60405161030b9c9b9a9998979695949392919061409a565b60405180910390f35b61032e600480360381019061032991906138ae565b612227565b60405161033b9190613fc6565b60405180910390f35b61035e600480360381019061035991906138d7565b61238b565b60405161036b919061400a565b60405180910390f35b61037c6123f3565b005b6103866125b1565b604051610393919061430c565b60405180910390f35b6103b660048036038101906103b19190613967565b6125b7565b6040516103c593929190613f66565b60405180910390f35b6103d66126a6565b6040516103e39190613fa4565b60405180910390f35b61040660048036038101906104019190613913565b612734565b005b610422600480360381019061041d91906138ae565b612a19565b60405161043a9c9b9a9998979695949392919061409a565b60405180910390f35b61045d600480360381019061045891906138d7565b612fc2565b60405161046a919061400a565b60405180910390f35b6060600080600084815260200190815260200160002060090154905060008167ffffffffffffffff8111156104d1577f4e487b7100000000000000000000000000000000000000000000000000000000600052604160045260246000fd5b6040519080825280602002602001820160405280156104ff5781602001602082028036833780820191505090505b50905060005b6003600086815260200190815260200160002080549050811015610647576000600360008781526020019081526020016000208281548110610570577f4e487b7100000000000000000000000000000000000000000000000000000000600052603260045260246000fd5b9060005260206000200160009054906101000a900473ffffffffffffffffffffffffffffffffffffffff1690506004600087815260200190815260200160002060008273ffffffffffffffffffffffffffffffffffffffff1673ffffffffffffffffffffffffffffffffffffffff16815260200190815260200160002054838381518110610627577f4e487b7100000000000000000000000000000000000000000000000000000000600052603260045260246000fd5b60200260200101818152505050808061063f90614721565b915050610505565b508092505050919050565b6003602052816000526040600020818154811061066e57600080fd5b906000526020600020016000915091509054906101000a900473ffffffffffffffffffffffffffffffffffffffff1681565b600080600080848152602001908152602001600020905060008160090154116106fe576040517f08c379a00000000000000000000000000000000000000000000000000000000081526004016106f59061422c565b60405180910390fd5b60008160090154826008015461071491906145c9565b90508092505050919050565b600160003373ffffffffffffffffffffffffffffffffffffffff1673ffffffffffffffffffffffffffffffffffffffff16815260200190815260200160002060020160009054906101000a900460ff166107af576040517f08c379a00000000000000000000000000000000000000000000000000000000081526004016107a69061428c565b60405180910390fd5b600160003373ffffffffffffffffffffffffffffffffffffffff1673ffffffffffffffffffffffffffffffffffffffff16815260200190815260200160002060020160019054906101000a900460ff1661083e576040517f08c379a0000000000000000000000000000000000000000000000000000000008152600401610835906142ac565b60405180910390fd5b600073ffffffffffffffffffffffffffffffffffffffff16600080838152602001908152602001600020600b0160009054906101000a900473ffffffffffffffffffffffffffffffffffffffff1673ffffffffffffffffffffffffffffffffffffffff1614156108e3576040517f08c379a00000000000000000000000000000000000000000000000000000000081526004016108da9061424c565b60405180910390fd5b6005600082815260200190815260200160002060003373ffffffffffffffffffffffffffffffffffffffff1673ffffffffffffffffffffffffffffffffffffffff16815260200190815260200160002060009054906101000a900460ff1615610a185760006005600083815260200190815260200160002060003373ffffffffffffffffffffffffffffffffffffffff1673ffffffffffffffffffffffffffffffffffffffff16815260200190815260200160002060006101000a81548160ff021916908315150217905550600080828152602001908152602001600020600a0160008154809291906109d5906146c5565b91905055507f16cbc6f742dcf78c5d0f58c5388cd298787bc75f6cad1423a17c3abe3723c5b88133604051610a0b929190614327565b60405180910390a1610ae6565b60016005600083815260200190815260200160002060003373ffffffffffffffffffffffffffffffffffffffff1673ffffffffffffffffffffffffffffffffffffffff16815260200190815260200160002060006101000a81548160ff021916908315150217905550600080828152602001908152602001600020600a016000815480929190610aa790614721565b91905055507f16cbc6f742dcf78c5d0f58c5388cd298787bc75f6cad1423a17c3abe3723c5b88133604051610add929190614327565b60405180910390a15b50565b6000825111610b2d576040517f08c379a0000000000000000000000000000000000000000000000000000000008152600401610b249061418c565b60405180910390fd5b6000815111610b71576040517f08c379a0000000000000000000000000000000000000000000000000000000008152600401610b68906141ac565b60405180910390fd5b600160003373ffffffffffffffffffffffffffffffffffffffff1673ffffffffffffffffffffffffffffffffffffffff16815260200190815260200160002060020160009054906101000a900460ff1615610c01576040517f08c379a0000000000000000000000000000000000000000000000000000000008152600401610bf8906141cc565b60405180910390fd5b604051806080016040528083815260200182815260200160011515815260200160001515815250600160003373ffffffffffffffffffffffffffffffffffffffff1673ffffffffffffffffffffffffffffffffffffffff1681526020019081526020016000206000820151816000019080519060200190610c839291906134af565b506020820151816001019080519060200190610ca09291906134af565b5060408201518160020160006101000a81548160ff02191690831515021790555060608201518160020160016101000a81548160ff0219169083151502179055509050506007339080600181540180825580915050600190039060005260206000200160009091909190916101000a81548173ffffffffffffffffffffffffffffffffffffffff021916908373ffffffffffffffffffffffffffffffffffffffff1602179055503373ffffffffffffffffffffffffffffffffffffffff167f48cac28ad4dc618e15f4c2dd5e97751182f166de97b25618318b2112aa951a2f83604051610d8d9190614025565b60405180910390a25050565b600160003373ffffffffffffffffffffffffffffffffffffffff1673ffffffffffffffffffffffffffffffffffffffff16815260200190815260200160002060020160019054906101000a900460ff16610e28576040517f08c379a0000000000000000000000000000000000000000000000000000000008152600401610e1f9061426c565b60405180910390fd5b6000600160003373ffffffffffffffffffffffffffffffffffffffff1673ffffffffffffffffffffffffffffffffffffffff16815260200190815260200160002060020160016101000a81548160ff0219169083151502179055503373ffffffffffffffffffffffffffffffffffffffff167fc6ef449222bae3754898fc5fa944d52dfc53c0ee1fdd7d733fbb422ac5e2b8c860405160405180910390a2565b600160003373ffffffffffffffffffffffffffffffffffffffff1673ffffffffffffffffffffffffffffffffffffffff16815260200190815260200160002060020160009054906101000a900460ff16610f57576040517f08c379a0000000000000000000000000000000000000000000000000000000008152600401610f4e9061428c565b60405180910390fd5b600160003373ffffffffffffffffffffffffffffffffffffffff1673ffffffffffffffffffffffffffffffffffffffff16815260200190815260200160002060020160019054906101000a900460ff16610fe6576040517f08c379a0000000000000000000000000000000000000000000000000000000008152600401610fdd906142ac565b60405180910390fd5b600088511161102a576040517f08c379a0000000000000000000000000000000000000000000000000000000008152600401611021906142cc565b60405180910390fd5b600060065490506040518061018001604052808a81526020018981526020018881526020018781526020018681526020018581526020018481526020018381526020016000815260200160008152602001600081526020013373ffffffffffffffffffffffffffffffffffffffff1681525060008083815260200190815260200160002060008201518160000190805190602001906110ca9291906134af565b5060208201518160010190805190602001906110e79291906134af565b5060408201518160020190805190602001906111049291906134af565b5060608201518160030190805190602001906111219291906134af565b50608082015181600401908051906020019061113e9291906134af565b5060a082015181600501908051906020019061115b9291906134af565b5060c08201518160060190805190602001906111789291906134af565b5060e08201518160070190805190602001906111959291906134af565b506101008201518160080155610120820151816009015561014082015181600a015561016082015181600b0160006101000a81548173ffffffffffffffffffffffffffffffffffffffff021916908373ffffffffffffffffffffffffffffffffffffffff1602179055509050507f501d7870f277450aef6f6286e3405d1db2d4e338b74742dda780ae4605428ac3818a33604051611235939291906143c5565b60405180910390a16006600081548092919061125090614721565b9190505550505050505050505050565b606060008060065467ffffffffffffffff8111156112a7577f4e487b7100000000000000000000000000000000000000000000000000000000600052604160045260246000fd5b6040519080825280602002602001820160405280156112d55781602001602082028036833780820191505090505b50905060005b60065481101561162057600080600083815260200190815260200160002090506000808a5111801561139f575061139e82600001805461131a906146ef565b80601f0160208091040260200160405190810160405280929190818152602001828054611346906146ef565b80156113935780601f1061136857610100808354040283529160200191611393565b820191906000526020600020905b81548152906001019060200180831161137657829003601f168201915b50505050508b612ff1565b5b156113a957600190505b6000895111801561144c575061144b8260010180546113c7906146ef565b80601f01602080910402602001604051908101604052809291908181526020018280546113f3906146ef565b80156114405780601f1061141557610100808354040283529160200191611440565b820191906000526020600020905b81548152906001019060200180831161142357829003601f168201915b50505050508a612ff1565b5b1561145657600190505b600088511180156114f957506114f8826002018054611474906146ef565b80601f01602080910402602001604051908101604052809291908181526020018280546114a0906146ef565b80156114ed5780601f106114c2576101008083540402835291602001916114ed565b820191906000526020600020905b8154815290600101906020018083116114d057829003601f168201915b505050505089612ff1565b5b1561150357600190505b600087511180156115a657506115a5826003018054611521906146ef565b80601f016020809104026020016040519081016040528092919081815260200182805461154d906146ef565b801561159a5780601f1061156f5761010080835404028352916020019161159a565b820191906000526020600020905b81548152906001019060200180831161157d57829003601f168201915b505050505088612ff1565b5b156115b057600190505b801561160b57828486815181106115f0577f4e487b7100000000000000000000000000000000000000000000000000000000600052603260045260246000fd5b602002602001018181525050848061160790614721565b9550505b5050808061161890614721565b9150506112db565b5060008267ffffffffffffffff811115611663577f4e487b7100000000000000000000000000000000000000000000000000000000600052604160045260246000fd5b6040519080825280602002602001820160405280156116915781602001602082028036833780820191505090505b50905060005b83811015611738578281815181106116d8577f4e487b7100000000000000000000000000000000000000000000000000000000600052603260045260246000fd5b6020026020010151828281518110611719577f4e487b7100000000000000000000000000000000000000000000000000000000600052603260045260246000fd5b602002602001018181525050808061173090614721565b915050611697565b50809350505050949350505050565b6060806000806000600160008773ffffffffffffffffffffffffffffffffffffffff1673ffffffffffffffffffffffffffffffffffffffff1681526020019081526020016000206040518060800160405290816000820180546117a9906146ef565b80601f01602080910402602001604051908101604052809291908181526020018280546117d5906146ef565b80156118225780601f106117f757610100808354040283529160200191611822565b820191906000526020600020905b81548152906001019060200180831161180557829003601f168201915b5050505050815260200160018201805461183b906146ef565b80601f0160208091040260200160405190810160405280929190818152602001828054611867906146ef565b80156118b45780601f10611889576101008083540402835291602001916118b4565b820191906000526020600020905b81548152906001019060200180831161189757829003601f168201915b505050505081526020016002820160009054906101000a900460ff161515151581526020016002820160019054906101000a900460ff161515151581525050905080600001518160200151826040015183606001519450945094509450509193509193565b6004602052816000526040600020602052806000526040600020600091509150505481565b600160003373ffffffffffffffffffffffffffffffffffffffff1673ffffffffffffffffffffffffffffffffffffffff16815260200190815260200160002060020160009054906101000a900460ff166119cd576040517f08c379a00000000000000000000000000000000000000000000000000000000081526004016119c49061428c565b60405180910390fd5b600160003373ffffffffffffffffffffffffffffffffffffffff1673ffffffffffffffffffffffffffffffffffffffff16815260200190815260200160002060020160019054906101000a900460ff16611a5c576040517f08c379a0000000000000000000000000000000000000000000000000000000008152600401611a53906142ac565b60405180910390fd5b600073ffffffffffffffffffffffffffffffffffffffff16600080848152602001908152602001600020600b0160009054906101000a900473ffffffffffffffffffffffffffffffffffffffff1673ffffffffffffffffffffffffffffffffffffffff161415611b01576040517f08c379a0000000000000000000000000000000000000000000000000000000008152600401611af89061424c565b60405180910390fd5b60018110158015611b13575060058111155b611b52576040517f08c379a0000000000000000000000000000000000000000000000000000000008152600401611b499061420c565b60405180910390fd5b60006004600084815260200190815260200160002060003373ffffffffffffffffffffffffffffffffffffffff1673ffffffffffffffffffffffffffffffffffffffff16815260200190815260200160002054905060008114611c0757806000808581526020019081526020016000206008016000828254611bd491906145fa565b925050819055506000808481526020019081526020016000206009016000815480929190611c01906146c5565b91905055505b816004600085815260200190815260200160002060003373ffffffffffffffffffffffffffffffffffffffff1673ffffffffffffffffffffffffffffffffffffffff16815260200190815260200160002081905550816000808581526020019081526020016000206008016000828254611c81919061453c565b925050819055506000808481526020019081526020016000206009016000815480929190611cae90614721565b919050555060036000848152602001908152602001600020339080600181540180825580915050600190039060005260206000200160009091909190916101000a81548173ffffffffffffffffffffffffffffffffffffffff021916908373ffffffffffffffffffffffffffffffffffffffff1602179055507f5a90108db35c713ec6356a9abbb3f1f006f75e48a06998c0616e9dbe5dea6410833384604051611d5a9392919061438e565b60405180910390a1505050565b6000602052806000526040600020600091509050806000018054611d8a906146ef565b80601f0160208091040260200160405190810160405280929190818152602001828054611db6906146ef565b8015611e035780601f10611dd857610100808354040283529160200191611e03565b820191906000526020600020905b815481529060010190602001808311611de657829003601f168201915b505050505090806001018054611e18906146ef565b80601f0160208091040260200160405190810160405280929190818152602001828054611e44906146ef565b8015611e915780601f10611e6657610100808354040283529160200191611e91565b820191906000526020600020905b815481529060010190602001808311611e7457829003601f168201915b505050505090806002018054611ea6906146ef565b80601f0160208091040260200160405190810160405280929190818152602001828054611ed2906146ef565b8015611f1f5780601f10611ef457610100808354040283529160200191611f1f565b820191906000526020600020905b815481529060010190602001808311611f0257829003601f168201915b505050505090806003018054611f34906146ef565b80601f0160208091040260200160405190810160405280929190818152602001828054611f60906146ef565b8015611fad5780601f10611f8257610100808354040283529160200191611fad565b820191906000526020600020905b815481529060010190602001808311611f9057829003601f168201915b505050505090806004018054611fc2906146ef565b80601f0160208091040260200160405190810160405280929190818152602001828054611fee906146ef565b801561203b5780601f106120105761010080835404028352916020019161203b565b820191906000526020600020905b81548152906001019060200180831161201e57829003601f168201915b505050505090806005018054612050906146ef565b80601f016020809104026020016040519081016040528092919081815260200182805461207c906146ef565b80156120c95780601f1061209e576101008083540402835291602001916120c9565b820191906000526020600020905b8154815290600101906020018083116120ac57829003601f168201915b5050505050908060060180546120de906146ef565b80601f016020809104026020016040519081016040528092919081815260200182805461210a906146ef565b80156121575780601f1061212c57610100808354040283529160200191612157565b820191906000526020600020905b81548152906001019060200180831161213a57829003601f168201915b50505050509080600701805461216c906146ef565b80601f0160208091040260200160405190810160405280929190818152602001828054612198906146ef565b80156121e55780601f106121ba576101008083540402835291602001916121e5565b820191906000526020600020905b8154815290600101906020018083116121c857829003601f168201915b50505050509080600801549080600901549080600a01549080600b0160009054906101000a900473ffffffffffffffffffffffffffffffffffffffff1690508c565b606060026000838152602001908152602001600020805480602002602001604051908101604052809291908181526020016000905b8282101561238057838290600052602060002090600302016040518060600160405290816000820160009054906101000a900473ffffffffffffffffffffffffffffffffffffffff1673ffffffffffffffffffffffffffffffffffffffff1673ffffffffffffffffffffffffffffffffffffffff1681526020016001820180546122e5906146ef565b80601f0160208091040260200160405190810160405280929190818152602001828054612311906146ef565b801561235e5780601f106123335761010080835404028352916020019161235e565b820191906000526020600020905b81548152906001019060200180831161234157829003601f168201915b505050505081526020016002820154815250508152602001906001019061225c565b505050509050919050565b60006005600084815260200190815260200160002060008373ffffffffffffffffffffffffffffffffffffffff1673ffffffffffffffffffffffffffffffffffffffff16815260200190815260200160002060009054906101000a900460ff16905092915050565b600160003373ffffffffffffffffffffffffffffffffffffffff1673ffffffffffffffffffffffffffffffffffffffff16815260200190815260200160002060020160009054906101000a900460ff16612482576040517f08c379a0000000000000000000000000000000000000000000000000000000008152600401612479906142ec565b60405180910390fd5b600160003373ffffffffffffffffffffffffffffffffffffffff1673ffffffffffffffffffffffffffffffffffffffff16815260200190815260200160002060020160019054906101000a900460ff1615612512576040517f08c379a0000000000000000000000000000000000000000000000000000000008152600401612509906141ec565b60405180910390fd5b60018060003373ffffffffffffffffffffffffffffffffffffffff1673ffffffffffffffffffffffffffffffffffffffff16815260200190815260200160002060020160016101000a81548160ff0219169083151502179055503373ffffffffffffffffffffffffffffffffffffffff167f8d15fde878cff665868ed7579eb5081db6508d4249df61dcdd7699a5301d987460405160405180910390a2565b60065481565b600260205281600052604060002081815481106125d357600080fd5b9060005260206000209060030201600091509150508060000160009054906101000a900473ffffffffffffffffffffffffffffffffffffffff169080600101805461261d906146ef565b80601f0160208091040260200160405190810160405280929190818152602001828054612649906146ef565b80156126965780601f1061266b57610100808354040283529160200191612696565b820191906000526020600020905b81548152906001019060200180831161267957829003601f168201915b5050505050908060020154905083565b6060600780548060200260200160405190810160405280929190818152602001828054801561272a57602002820191906000526020600020905b8160009054906101000a900473ffffffffffffffffffffffffffffffffffffffff1673ffffffffffffffffffffffffffffffffffffffff16815260200190600101908083116126e0575b5050505050905090565b600160003373ffffffffffffffffffffffffffffffffffffffff1673ffffffffffffffffffffffffffffffffffffffff16815260200190815260200160002060020160009054906101000a900460ff166127c3576040517f08c379a00000000000000000000000000000000000000000000000000000000081526004016127ba9061428c565b60405180910390fd5b600160003373ffffffffffffffffffffffffffffffffffffffff1673ffffffffffffffffffffffffffffffffffffffff16815260200190815260200160002060020160019054906101000a900460ff16612852576040517f08c379a0000000000000000000000000000000000000000000000000000000008152600401612849906142ac565b60405180910390fd5b600073ffffffffffffffffffffffffffffffffffffffff16600080848152602001908152602001600020600b0160009054906101000a900473ffffffffffffffffffffffffffffffffffffffff1673ffffffffffffffffffffffffffffffffffffffff1614156128f7576040517f08c379a00000000000000000000000000000000000000000000000000000000081526004016128ee9061424c565b60405180910390fd5b600060405180606001604052803373ffffffffffffffffffffffffffffffffffffffff1681526020018381526020014281525090506002600084815260200190815260200160002081908060018154018082558091505060019003906000526020600020906003020160009091909190915060008201518160000160006101000a81548173ffffffffffffffffffffffffffffffffffffffff021916908373ffffffffffffffffffffffffffffffffffffffff16021790555060208201518160010190805190602001906129cc9291906134af565b506040820151816002015550507f279d5614862445216877d543708664e73d87439c98f65d81d5163ed98ad2d603833384604051612a0c93929190614350565b60405180910390a1505050565b606080606080606080606080600080600080600073ffffffffffffffffffffffffffffffffffffffff166000808f8152602001908152602001600020600b0160009054906101000a900473ffffffffffffffffffffffffffffffffffffffff1673ffffffffffffffffffffffffffffffffffffffff161415612ad0576040517f08c379a0000000000000000000000000000000000000000000000000000000008152600401612ac79061424c565b60405180910390fd5b60008060008f815260200190815260200160002090508060000181600101826002018360030184600401856005018660060187600701886008015489600901548a600a01548b600b0160009054906101000a900473ffffffffffffffffffffffffffffffffffffffff168b8054612b46906146ef565b80601f0160208091040260200160405190810160405280929190818152602001828054612b72906146ef565b8015612bbf5780601f10612b9457610100808354040283529160200191612bbf565b820191906000526020600020905b815481529060010190602001808311612ba257829003601f168201915b50505050509b508a8054612bd2906146ef565b80601f0160208091040260200160405190810160405280929190818152602001828054612bfe906146ef565b8015612c4b5780601f10612c2057610100808354040283529160200191612c4b565b820191906000526020600020905b815481529060010190602001808311612c2e57829003601f168201915b50505050509a50898054612c5e906146ef565b80601f0160208091040260200160405190810160405280929190818152602001828054612c8a906146ef565b8015612cd75780601f10612cac57610100808354040283529160200191612cd7565b820191906000526020600020905b815481529060010190602001808311612cba57829003601f168201915b50505050509950888054612cea906146ef565b80601f0160208091040260200160405190810160405280929190818152602001828054612d16906146ef565b8015612d635780601f10612d3857610100808354040283529160200191612d63565b820191906000526020600020905b815481529060010190602001808311612d4657829003601f168201915b50505050509850878054612d76906146ef565b80601f0160208091040260200160405190810160405280929190818152602001828054612da2906146ef565b8015612def5780601f10612dc457610100808354040283529160200191612def565b820191906000526020600020905b815481529060010190602001808311612dd257829003601f168201915b50505050509750868054612e02906146ef565b80601f0160208091040260200160405190810160405280929190818152602001828054612e2e906146ef565b8015612e7b5780601f10612e5057610100808354040283529160200191612e7b565b820191906000526020600020905b815481529060010190602001808311612e5e57829003601f168201915b50505050509650858054612e8e906146ef565b80601f0160208091040260200160405190810160405280929190818152602001828054612eba906146ef565b8015612f075780601f10612edc57610100808354040283529160200191612f07565b820191906000526020600020905b815481529060010190602001808311612eea57829003601f168201915b50505050509550848054612f1a906146ef565b80601f0160208091040260200160405190810160405280929190818152602001828054612f46906146ef565b8015612f935780601f10612f6857610100808354040283529160200191612f93565b820191906000526020600020905b815481529060010190602001808311612f7657829003601f168201915b505050505094509c509c509c509c509c509c509c509c509c509c509c509c505091939597999b5091939597999b565b60056020528160005260406000206020528060005260406000206000915091509054906101000a900460ff1681565b6000808390506000839050600081511415613011576001925050506131a9565b815181511115613026576000925050506131a9565b6000613031866131af565b9050600061303e866131af565b9050600060018251845161305291906145fa565b61305c919061453c565b905060005b8181101561319e5760006001905060005b8451811015613173578481815181106130b4577f4e487b7100000000000000000000000000000000000000000000000000000000600052603260045260246000fd5b602001015160f81c60f81b7effffffffffffffffffffffffffffffffffffffffffffffffffffffffffffff19168682856130ee919061453c565b81518110613125577f4e487b7100000000000000000000000000000000000000000000000000000000600052603260045260246000fd5b602001015160f81c60f81b7effffffffffffffffffffffffffffffffffffffffffffffffffffffffffffff1916146131605760009150613173565b808061316b90614721565b915050613072565b50801561318a5760019750505050505050506131a9565b50808061319690614721565b915050613061565b506000955050505050505b92915050565b606060008290506000815167ffffffffffffffff8111156131f9577f4e487b7100000000000000000000000000000000000000000000000000000000600052604160045260246000fd5b6040519080825280601f01601f19166020018201604052801561322b5781602001600182028036833780820191505090505b50905060005b82518110156134a457604160f81b838281518110613278577f4e487b7100000000000000000000000000000000000000000000000000000000600052603260045260246000fd5b602001015160f81c60f81b7effffffffffffffffffffffffffffffffffffffffffffffffffffffffffffff19161015801561331c5750605a60f81b8382815181106132ec577f4e487b7100000000000000000000000000000000000000000000000000000000600052603260045260246000fd5b602001015160f81c60f81b7effffffffffffffffffffffffffffffffffffffffffffffffffffffffffffff191611155b156133e457602083828151811061335c577f4e487b7100000000000000000000000000000000000000000000000000000000600052603260045260246000fd5b602001015160f81c60f81b60f81c6133749190614592565b60f81b8282815181106133b0577f4e487b7100000000000000000000000000000000000000000000000000000000600052603260045260246000fd5b60200101907effffffffffffffffffffffffffffffffffffffffffffffffffffffffffffff1916908160001a905350613491565b82818151811061341d577f4e487b7100000000000000000000000000000000000000000000000000000000600052603260045260246000fd5b602001015160f81c60f81b828281518110613461577f4e487b7100000000000000000000000000000000000000000000000000000000600052603260045260246000fd5b60200101907effffffffffffffffffffffffffffffffffffffffffffffffffffffffffffff1916908160001a9053505b808061349c90614721565b915050613231565b508092505050919050565b8280546134bb906146ef565b90600052602060002090601f0160209004810192826134dd5760008555613524565b82601f106134f657805160ff1916838001178555613524565b82800160010185558215613524579182015b82811115613523578251825591602001919060010190613508565b5b5090506135319190613535565b5090565b5b8082111561354e576000816000905550600101613536565b5090565b600061356561356084614434565b614403565b90508281526020810184848401111561357d57600080fd5b613588848285614683565b509392505050565b60008135905061359f81614837565b92915050565b600082601f8301126135b657600080fd5b81356135c6848260208601613552565b91505092915050565b6000813590506135de8161484e565b92915050565b6000602082840312156135f657600080fd5b600061360484828501613590565b91505092915050565b6000806040838503121561362057600080fd5b600083013567ffffffffffffffff81111561363a57600080fd5b613646858286016135a5565b925050602083013567ffffffffffffffff81111561366357600080fd5b61366f858286016135a5565b9150509250929050565b6000806000806080858703121561368f57600080fd5b600085013567ffffffffffffffff8111156136a957600080fd5b6136b5878288016135a5565b945050602085013567ffffffffffffffff8111156136d257600080fd5b6136de878288016135a5565b935050604085013567ffffffffffffffff8111156136fb57600080fd5b613707878288016135a5565b925050606085013567ffffffffffffffff81111561372457600080fd5b613730878288016135a5565b91505092959194509250565b600080600080600080600080610100898b03121561375957600080fd5b600089013567ffffffffffffffff81111561377357600080fd5b61377f8b828c016135a5565b985050602089013567ffffffffffffffff81111561379c57600080fd5b6137a88b828c016135a5565b975050604089013567ffffffffffffffff8111156137c557600080fd5b6137d18b828c016135a5565b965050606089013567ffffffffffffffff8111156137ee57600080fd5b6137fa8b828c016135a5565b955050608089013567ffffffffffffffff81111561381757600080fd5b6138238b828c016135a5565b94505060a089013567ffffffffffffffff81111561384057600080fd5b61384c8b828c016135a5565b93505060c089013567ffffffffffffffff81111561386957600080fd5b6138758b828c016135a5565b92505060e089013567ffffffffffffffff81111561389257600080fd5b61389e8b828c016135a5565b9150509295985092959890939650565b6000602082840312156138c057600080fd5b60006138ce848285016135cf565b91505092915050565b600080604083850312156138ea57600080fd5b60006138f8858286016135cf565b925050602061390985828601613590565b9150509250929050565b6000806040838503121561392657600080fd5b6000613934858286016135cf565b925050602083013567ffffffffffffffff81111561395157600080fd5b61395d858286016135a5565b9150509250929050565b6000806040838503121561397a57600080fd5b6000613988858286016135cf565b9250506020613999858286016135cf565b9150509250929050565b60006139af83836139e7565b60208301905092915050565b60006139c78383613edd565b905092915050565b60006139db8383613f2d565b60208301905092915050565b6139f08161462e565b82525050565b6139ff8161462e565b82525050565b6000613a1082614494565b613a1a81856144e7565b9350613a2583614464565b8060005b83811015613a56578151613a3d88826139a3565b9750613a48836144c0565b925050600181019050613a29565b5085935050505092915050565b6000613a6e8261449f565b613a7881856144f8565b935083602082028501613a8a85614474565b8060005b85811015613ac65784840389528151613aa785826139bb565b9450613ab2836144cd565b925060208a01995050600181019050613a8e565b50829750879550505050505092915050565b6000613ae3826144aa565b613aed8185614509565b9350613af883614484565b8060005b83811015613b29578151613b1088826139cf565b9750613b1b836144da565b925050600181019050613afc565b5085935050505092915050565b613b3f81614640565b82525050565b6000613b50826144b5565b613b5a818561451a565b9350613b6a818560208601614692565b613b7381614826565b840191505092915050565b6000613b89826144b5565b613b93818561452b565b9350613ba3818560208601614692565b613bac81614826565b840191505092915050565b6000613bc460178361452b565b91507f4e616d6120746964616b20626f6c6568206b6f736f6e670000000000000000006000830152602082019050919050565b6000613c0460198361452b565b91507f50617373776f7264206861736820746964616b2076616c6964000000000000006000830152602082019050919050565b6000613c4460148361452b565b91507f416b756e207375646168207465726461667461720000000000000000000000006000830152602082019050919050565b6000613c84600b8361452b565b91507f5375646168206c6f67696e0000000000000000000000000000000000000000006000830152602082019050919050565b6000613cc4601e8361452b565b91507f526174696e6720686172757320616e7461726120312068696e676761203500006000830152602082019050919050565b6000613d0460228361452b565b91507f546964616b2061646120726174696e6720756e74756b2074616e616d616e206960008301527f6e690000000000000000000000000000000000000000000000000000000000006020830152604082019050919050565b6000613d6a60178361452b565b91507f54616e616d616e20746964616b20646974656d756b616e0000000000000000006000830152602082019050919050565b6000613daa600b8361452b565b91507f42656c756d206c6f67696e0000000000000000000000000000000000000000006000830152602082019050919050565b6000613dea60148361452b565b91507f416e6461206861727573207465726461667461720000000000000000000000006000830152602082019050919050565b6000613e2a60108361452b565b91507f416e6461206861727573206c6f67696e000000000000000000000000000000006000830152602082019050919050565b6000613e6a60178361452b565b91507f4e616d612074616e616d616e2064697065726c756b616e0000000000000000006000830152602082019050919050565b6000613eaa60188361452b565b91507f50656e6767756e6120746964616b2074657264616674617200000000000000006000830152602082019050919050565b6000606083016000830151613ef560008601826139e7565b5060208301518482036020860152613f0d8282613b45565b9150506040830151613f226040860182613f2d565b508091505092915050565b613f368161466c565b82525050565b613f458161466c565b82525050565b6000602082019050613f6060008301846139f6565b92915050565b6000606082019050613f7b60008301866139f6565b8181036020830152613f8d8185613b7e565b9050613f9c6040830184613f3c565b949350505050565b60006020820190508181036000830152613fbe8184613a05565b905092915050565b60006020820190508181036000830152613fe08184613a63565b905092915050565b600060208201905081810360008301526140028184613ad8565b905092915050565b600060208201905061401f6000830184613b36565b92915050565b6000602082019050818103600083015261403f8184613b7e565b905092915050565b600060808201905081810360008301526140618187613b7e565b905081810360208301526140758186613b7e565b90506140846040830185613b36565b6140916060830184613b36565b95945050505050565b60006101808201905081810360008301526140b5818f613b7e565b905081810360208301526140c9818e613b7e565b905081810360408301526140dd818d613b7e565b905081810360608301526140f1818c613b7e565b90508181036080830152614105818b613b7e565b905081810360a0830152614119818a613b7e565b905081810360c083015261412d8189613b7e565b905081810360e08301526141418188613b7e565b9050614151610100830187613f3c565b61415f610120830186613f3c565b61416d610140830185613f3c565b61417b6101608301846139f6565b9d9c50505050505050505050505050565b600060208201905081810360008301526141a581613bb7565b9050919050565b600060208201905081810360008301526141c581613bf7565b9050919050565b600060208201905081810360008301526141e581613c37565b9050919050565b6000602082019050818103600083015261420581613c77565b9050919050565b6000602082019050818103600083015261422581613cb7565b9050919050565b6000602082019050818103600083015261424581613cf7565b9050919050565b6000602082019050818103600083015261426581613d5d565b9050919050565b6000602082019050818103600083015261428581613d9d565b9050919050565b600060208201905081810360008301526142a581613ddd565b9050919050565b600060208201905081810360008301526142c581613e1d565b9050919050565b600060208201905081810360008301526142e581613e5d565b9050919050565b6000602082019050818103600083015261430581613e9d565b9050919050565b60006020820190506143216000830184613f3c565b92915050565b600060408201905061433c6000830185613f3c565b61434960208301846139f6565b9392505050565b60006060820190506143656000830186613f3c565b61437260208301856139f6565b81810360408301526143848184613b7e565b9050949350505050565b60006060820190506143a36000830186613f3c565b6143b060208301856139f6565b6143bd6040830184613f3c565b949350505050565b60006060820190506143da6000830186613f3c565b81810360208301526143ec8185613b7e565b90506143fb60408301846139f6565b949350505050565b6000604051905081810181811067ffffffffffffffff8211171561442a576144296147f7565b5b8060405250919050565b600067ffffffffffffffff82111561444f5761444e6147f7565b5b601f19601f8301169050602081019050919050565b6000819050602082019050919050565b6000819050602082019050919050565b6000819050602082019050919050565b600081519050919050565b600081519050919050565b600081519050919050565b600081519050919050565b6000602082019050919050565b6000602082019050919050565b6000602082019050919050565b600082825260208201905092915050565b600082825260208201905092915050565b600082825260208201905092915050565b600082825260208201905092915050565b600082825260208201905092915050565b60006145478261466c565b91506145528361466c565b9250827fffffffffffffffffffffffffffffffffffffffffffffffffffffffffffffffff038211156145875761458661476a565b5b828201905092915050565b600061459d82614676565b91506145a883614676565b92508260ff038211156145be576145bd61476a565b5b828201905092915050565b60006145d48261466c565b91506145df8361466c565b9250826145ef576145ee614799565b5b828204905092915050565b60006146058261466c565b91506146108361466c565b9250828210156146235761462261476a565b5b828203905092915050565b60006146398261464c565b9050919050565b60008115159050919050565b600073ffffffffffffffffffffffffffffffffffffffff82169050919050565b6000819050919050565b600060ff82169050919050565b82818337600083830152505050565b60005b838110156146b0578082015181840152602081019050614695565b838111156146bf576000848401525b50505050565b60006146d08261466c565b915060008214156146e4576146e361476a565b5b600182039050919050565b6000600282049050600182168061470757607f821691505b6020821081141561471b5761471a6147c8565b5b50919050565b600061472c8261466c565b91507fffffffffffffffffffffffffffffffffffffffffffffffffffffffffffffffff82141561475f5761475e61476a565b5b600182019050919050565b7f4e487b7100000000000000000000000000000000000000000000000000000000600052601160045260246000fd5b7f4e487b7100000000000000000000000000000000000000000000000000000000600052601260045260246000fd5b7f4e487b7100000000000000000000000000000000000000000000000000000000600052602260045260246000fd5b7f4e487b7100000000000000000000000000000000000000000000000000000000600052604160045260246000fd5b6000601f19601f8301169050919050565b6148408161462e565b811461484b57600080fd5b50565b6148578161466c565b811461486257600080fd5b5056fea26469706673582212202fb30d35ff1b3e06f19e3ebc9bed673925901bc99069e3610265504f0bfc768764736f6c63430008000033",
  "immutableReferences": {},
  "source": "// SPDX-License-Identifier: MIT\r\npragma solidity ^0.8.0;\r\n\r\ncontract HerbalPlant {\r\n    struct Plant {\r\n        string name;\r\n        string namaLatin;\r\n        string komposisi;\r\n        string kegunaan;\r\n        string dosis;\r\n        string caraPengolahan;\r\n        string efekSamping;\r\n        string ipfsHash;\r\n        uint ratingTotal;\r\n        uint ratingCount;\r\n        uint likeCount;\r\n        address owner;\r\n    }\r\n\r\n    struct User {\r\n        string fullName;\r\n        string hashPass;  // Store hashed password\r\n        bool isRegistered;\r\n        bool isLoggedIn;\r\n    }\r\n\r\n    struct Comment {\r\n        address user;\r\n        string comment;\r\n        uint timestamp;\r\n    }\r\n\r\n    mapping(uint => Plant) public plants;\r\n    mapping(address => User) private usersByPublicKey;\r\n    mapping(uint => Comment[]) public plantComments;  // Mapping for plant comments\r\n    mapping(uint => address[]) public plantRatingUsers;\r\n    mapping(uint => mapping(address => uint)) public plantRatings;\r\n    mapping(uint => mapping(address => bool)) public plantLikes;\r\n\r\n    uint public plantCount;\r\n    address[] private registeredUsers;\r\n\r\n    event PlantAdded(uint plantId, string name, address owner);\r\n    event PlantRated(uint plantId, address user, uint rating);\r\n    event PlantLiked(uint plantId, address user);\r\n    event UserRegistered(address indexed publicKey, string fullName);\r\n    event UserLoggedIn(address indexed publicKey);\r\n    event UserLoggedOut(address indexed publicKey);\r\n    event PlantCommented(uint plantId, address user, string comment);\r\n\r\n    modifier onlyActiveUser() {\r\n        require(usersByPublicKey[msg.sender].isRegistered, \"Anda harus terdaftar\");\r\n        require(usersByPublicKey[msg.sender].isLoggedIn, \"Anda harus login\");\r\n        _;\r\n    }\r\n\r\n    //  Mendaftarkan user dengan menyimpan password hash di Blockchain\r\n    function registerUser(\r\n        string memory fullName,\r\n        string memory hashPass\r\n    ) public {\r\n        require(bytes(fullName).length > 0, \"Nama tidak boleh kosong\");\r\n        require(bytes(hashPass).length > 0, \"Password hash tidak valid\");\r\n        require(!usersByPublicKey[msg.sender].isRegistered, \"Akun sudah terdaftar\");\r\n\r\n        usersByPublicKey[msg.sender] = User({\r\n            fullName: fullName,\r\n            hashPass: hashPass,\r\n            isRegistered: true,\r\n            isLoggedIn: false\r\n        });\r\n\r\n        registeredUsers.push(msg.sender);\r\n\r\n        emit UserRegistered(msg.sender, fullName);\r\n    }\r\n\r\n    //  Login menggunakan password hash\r\n    function login() public {\r\n        require(usersByPublicKey[msg.sender].isRegistered, \"Pengguna tidak terdaftar\");\r\n        require(!usersByPublicKey[msg.sender].isLoggedIn, \"Sudah login\");\r\n\r\n        usersByPublicKey[msg.sender].isLoggedIn = true;\r\n        emit UserLoggedIn(msg.sender);\r\n    }\r\n\r\n    //  Getter untuk mengambil data user berdasarkan address\r\n    function getUserInfo(address userAddress) public view returns (\r\n        string memory fullName,\r\n        string memory hashPass,\r\n        bool isRegistered,\r\n        bool isLoggedIn\r\n    ) {\r\n        User memory user = usersByPublicKey[userAddress];\r\n        return (\r\n            user.fullName,\r\n            user.hashPass,\r\n            user.isRegistered,\r\n            user.isLoggedIn\r\n        );\r\n    }\r\n\r\n    //  Logout user\r\n    function logout() public {\r\n        require(usersByPublicKey[msg.sender].isLoggedIn, \"Belum login\");\r\n        \r\n        usersByPublicKey[msg.sender].isLoggedIn = false;\r\n        emit UserLoggedOut(msg.sender);\r\n    }\r\n\r\n    //  Menambahkan tanaman herbal\r\n    function addPlant(\r\n        string memory name,\r\n        string memory namaLatin,\r\n        string memory komposisi,\r\n        string memory kegunaan,\r\n        string memory dosis,\r\n        string memory caraPengolahan,\r\n        string memory efekSamping,\r\n        string memory ipfsHash\r\n    ) public onlyActiveUser {\r\n        require(bytes(name).length > 0, \"Nama tanaman diperlukan\");\r\n\r\n        uint currentId = plantCount; // simpan ID sekarang sebelum increment\r\n\r\n        plants[currentId] = Plant({\r\n            name: name,\r\n            namaLatin: namaLatin,\r\n            komposisi: komposisi,\r\n            kegunaan: kegunaan,\r\n            dosis: dosis,\r\n            caraPengolahan: caraPengolahan,\r\n            efekSamping: efekSamping,\r\n            ipfsHash: ipfsHash,\r\n            ratingTotal: 0,\r\n            ratingCount: 0,\r\n            likeCount: 0,\r\n            owner: msg.sender\r\n        });\r\n\r\n        emit PlantAdded(currentId, name, msg.sender); // gunakan ID yang benar\r\n        plantCount++;\r\n    }\r\n\r\n    //  Memberi rating tanaman herbal (1-5)\r\n    function ratePlant(uint plantId, uint rating) public onlyActiveUser {\r\n        require(plants[plantId].owner != address(0), \"Tanaman tidak ditemukan\");\r\n        require(rating >= 1 && rating <= 5, \"Rating harus antara 1 hingga 5\");\r\n\r\n        uint previousRating = plantRatings[plantId][msg.sender];\r\n        if (previousRating != 0) {\r\n            // Mengurangi rating sebelumnya\r\n            plants[plantId].ratingTotal -= previousRating;\r\n            plants[plantId].ratingCount--; // Mengurangi jumlah rating\r\n        }\r\n\r\n        // Menambahkan rating baru\r\n        plantRatings[plantId][msg.sender] = rating;\r\n        plants[plantId].ratingTotal += rating;\r\n        plants[plantId].ratingCount++; // Menambah jumlah rating\r\n\r\n        // Menyimpan user yang memberi rating\r\n        plantRatingUsers[plantId].push(msg.sender);\r\n\r\n        emit PlantRated(plantId, msg.sender, rating);\r\n    }\r\n\r\n    //  Fungsi untuk mendapatkan rata-rata rating dari sebuah tanaman herbal\r\n    function getAverageRating(uint plantId) public view returns (uint) {\r\n        Plant storage plant = plants[plantId];\r\n        require(plant.ratingCount > 0, \"Tidak ada rating untuk tanaman ini\");\r\n        \r\n        uint averageRating = plant.ratingTotal / plant.ratingCount;\r\n        return averageRating;\r\n    }\r\n\r\n    //  Fungsi untuk mendapatkan semua rating dari tanaman\r\n    function getPlantRatings(uint plantId) public view returns (uint[] memory) {\r\n        uint ratingCount = plants[plantId].ratingCount;\r\n        uint[] memory ratings = new uint[](ratingCount);\r\n\r\n        for (uint i = 0; i < plantRatingUsers[plantId].length; i++) {\r\n            address user = plantRatingUsers[plantId][i];\r\n            ratings[i] = plantRatings[plantId][user];\r\n        }\r\n\r\n        return ratings;\r\n    }\r\n\r\n    //  Menyukai tanaman herbal\r\n    function likePlant(uint plantId) public onlyActiveUser {\r\n        require(plants[plantId].owner != address(0), \"Tanaman tidak ditemukan\");\r\n\r\n        // Jika pengguna sudah memberi like sebelumnya, hapus like tersebut\r\n        if (plantLikes[plantId][msg.sender]) {\r\n            plantLikes[plantId][msg.sender] = false;\r\n            plants[plantId].likeCount--;\r\n            emit PlantLiked(plantId, msg.sender); // Emit event jika perlu\r\n        } else {\r\n            // Jika belum memberi like, beri like\r\n            plantLikes[plantId][msg.sender] = true;\r\n            plants[plantId].likeCount++;\r\n            emit PlantLiked(plantId, msg.sender); // Emit event jika perlu\r\n        }\r\n    }\r\n\r\n    //  Mengecek apakah user sudah like tanaman tertentu\r\n    function isPlantLikedByUser(uint plantId, address user) public view returns (bool) {\r\n        return plantLikes[plantId][user];\r\n    }\r\n\r\n    //  Memberikan komentar/testimoni pada tanaman\r\n    function commentPlant(uint plantId, string memory comment) public onlyActiveUser {\r\n        require(plants[plantId].owner != address(0), \"Tanaman tidak ditemukan\");\r\n\r\n        Comment memory newComment = Comment({\r\n            user: msg.sender,\r\n            comment: comment,\r\n            timestamp: block.timestamp\r\n        });\r\n\r\n        plantComments[plantId].push(newComment);\r\n\r\n        emit PlantCommented(plantId, msg.sender, comment);\r\n    }\r\n\r\n    //  Mengambil detail tanaman herbal (Semua informasi dalam satu fungsi)\r\n    function getPlant(uint plantId) public view returns (\r\n        string memory name,\r\n        string memory namaLatin,\r\n        string memory komposisi,\r\n        string memory kegunaan,\r\n        string memory dosis,\r\n        string memory caraPengolahan,\r\n        string memory efekSamping,\r\n        string memory ipfsHash,\r\n        uint ratingTotal,\r\n        uint ratingCount,\r\n        uint likeCount,\r\n        address owner\r\n    ) {\r\n        require(plants[plantId].owner != address(0), \"Tanaman tidak ditemukan\");\r\n        Plant storage plant = plants[plantId];\r\n\r\n        return (\r\n            plant.name,\r\n            plant.namaLatin,\r\n            plant.komposisi,\r\n            plant.kegunaan,\r\n            plant.dosis,\r\n            plant.caraPengolahan,\r\n            plant.efekSamping,\r\n            plant.ipfsHash,\r\n            plant.ratingTotal,\r\n            plant.ratingCount,\r\n            plant.likeCount,\r\n            plant.owner\r\n        );\r\n    }\r\n\r\n    //  Fungsi untuk mencari tanaman berdasarkan nama, nama latin, komposisi, atau kegunaan\r\n    function searchPlants(\r\n        string memory name,\r\n        string memory namaLatin, \r\n        string memory komposisi, \r\n        string memory kegunaan\r\n    ) \r\n    public view\r\n    returns (uint[] memory) // Return array of plant IDs that match\r\n    {\r\n        uint matchCount = 0;\r\n        uint[] memory tempResults = new uint[](plantCount);\r\n\r\n        // Count matching plants first\r\n        for (uint i = 0; i < plantCount; i++) {\r\n            Plant storage currentPlant = plants[i];\r\n            bool isMatch = false;\r\n\r\n            // Jika ada salah satu yang cocok, maka isMatch = true\r\n            if (bytes(name).length > 0 && contains(currentPlant.name, name)) isMatch = true;\r\n            if (bytes(namaLatin).length > 0 && contains(currentPlant.namaLatin, namaLatin)) isMatch = true;\r\n            if (bytes(komposisi).length > 0 && contains(currentPlant.komposisi, komposisi)) isMatch = true;\r\n            if (bytes(kegunaan).length > 0 && contains(currentPlant.kegunaan, kegunaan)) isMatch = true;\r\n\r\n            // Jika memenuhi kriteria, tambahkan ke hasil\r\n            if (isMatch) {\r\n                tempResults[matchCount] = i;\r\n                matchCount++;\r\n            }\r\n        }\r\n\r\n        // Create correctly sized array for results\r\n        uint[] memory results = new uint[](matchCount);\r\n        for (uint i = 0; i < matchCount; i++) {\r\n            results[i] = tempResults[i];\r\n        }\r\n\r\n        return results;\r\n    }\r\n\r\n    //  Fungsi untuk mengecek apakah sebuah string mengandung substring tertentu (case-insensitive)\r\n    function contains(string memory haystack, string memory needle) internal pure returns (bool) {\r\n        bytes memory haystackBytes = bytes(haystack);\r\n        bytes memory needleBytes = bytes(needle);\r\n        \r\n        // Handle kasus khusus: needle kosong selalu dianggap ada\r\n        if (needleBytes.length == 0) return true;\r\n        \r\n        // Handle kasus dimana needle lebih panjang dari haystack\r\n        if (needleBytes.length > haystackBytes.length) return false;\r\n\r\n        // Konversi ke lowercase sekali saja di awal\r\n        bytes memory haystackLower = bytes(toLowerCase(haystack));\r\n        bytes memory needleLower = bytes(toLowerCase(needle));\r\n\r\n        // Optimasi: Batasi jumlah iterasi yang diperlukan\r\n        uint maxIterations = haystackLower.length - needleLower.length + 1;\r\n        \r\n        for (uint i = 0; i < maxIterations; i++) {\r\n            bool isMatch = true;\r\n            \r\n            // Periksa karakter per karakter\r\n            for (uint j = 0; j < needleLower.length; j++) {\r\n                if (haystackLower[i + j] != needleLower[j]) {\r\n                    isMatch = false;\r\n                    break; // Berhenti jika ada ketidakcocokan\r\n                }\r\n            }\r\n            \r\n            if (isMatch) return true;\r\n        }\r\n        \r\n        return false;\r\n    }\r\n\r\n    //  Fungsi untuk konversi string ke lowercase\r\n    function toLowerCase(string memory str) internal pure returns (string memory) {\r\n        bytes memory strBytes = bytes(str);\r\n        bytes memory lowerBytes = new bytes(strBytes.length);\r\n        \r\n        for (uint i = 0; i < strBytes.length; i++) {\r\n            // Cek apakah karakter adalah A-Z (0x41-0x5A)\r\n            if (strBytes[i] >= 0x41 && strBytes[i] <= 0x5A) {\r\n                lowerBytes[i] = bytes1(uint8(strBytes[i]) + 32); // Konversi ke lowercase\r\n            } else {\r\n                lowerBytes[i] = strBytes[i]; // Pertahankan karakter lain\r\n            }\r\n        }\r\n        \r\n        return string(lowerBytes);\r\n    }\r\n\r\n    //  Mengambil komentar/testimoni tanaman herbal\r\n    function getPlantComments(uint plantId) public view returns (Comment[] memory) {\r\n        return plantComments[plantId];\r\n    }\r\n\r\n    //  Mengambil semua user yang terdaftar\r\n    function getAllUsers() public view returns (address[] memory) {\r\n        return registeredUsers;\r\n    }\r\n}",
  "sourcePath": "D:\\Kuliah\\TA\\Integrated TA\\Middleware-TA-2024-2025\\contracts\\HerbalPlant.sol",
  "compiler": {
    "name": "solc",
    "version": "0.8.0+commit.c7dfd78e.Emscripten.clang"
  },
  "schemaVersion": "3.4.16",
  "updatedAt": "2025-05-14T04:43:58.678Z",
  "devdoc": {
    "kind": "dev",
    "methods": {},
    "version": 1
  },
  "userdoc": {
    "kind": "user",
    "methods": {},
    "version": 1
  }
}