{
  "contractName": "HerbalPlant",
  "abi": [
    {
      "anonymous": false,
      "inputs": [
        {
          "indexed": false,
          "internalType": "uint256",
          "name": "plantId",
          "type": "uint256"
        },
        {
          "indexed": false,
          "internalType": "string",
          "name": "name",
          "type": "string"
        },
        {
          "indexed": false,
          "internalType": "address",
          "name": "owner",
          "type": "address"
        }
      ],
      "name": "PlantAdded",
      "type": "event"
    },
    {
      "anonymous": false,
      "inputs": [
        {
          "indexed": false,
          "internalType": "uint256",
          "name": "plantId",
          "type": "uint256"
        },
        {
          "indexed": false,
          "internalType": "address",
          "name": "user",
          "type": "address"
        },
        {
          "indexed": false,
          "internalType": "string",
          "name": "comment",
          "type": "string"
        }
      ],
      "name": "PlantCommented",
      "type": "event"
    },
    {
      "anonymous": false,
      "inputs": [
        {
          "indexed": false,
          "internalType": "uint256",
          "name": "plantId",
          "type": "uint256"
        },
        {
          "indexed": false,
          "internalType": "address",
          "name": "user",
          "type": "address"
        }
      ],
      "name": "PlantLiked",
      "type": "event"
    },
    {
      "anonymous": false,
      "inputs": [
        {
          "indexed": false,
          "internalType": "uint256",
          "name": "plantId",
          "type": "uint256"
        },
        {
          "indexed": false,
          "internalType": "address",
          "name": "user",
          "type": "address"
        },
        {
          "indexed": false,
          "internalType": "uint256",
          "name": "rating",
          "type": "uint256"
        }
      ],
      "name": "PlantRated",
      "type": "event"
    },
    {
      "anonymous": false,
      "inputs": [
        {
          "indexed": true,
          "internalType": "address",
          "name": "publicKey",
          "type": "address"
        }
      ],
      "name": "UserLoggedIn",
      "type": "event"
    },
    {
      "anonymous": false,
      "inputs": [
        {
          "indexed": true,
          "internalType": "address",
          "name": "publicKey",
          "type": "address"
        }
      ],
      "name": "UserLoggedOut",
      "type": "event"
    },
    {
      "anonymous": false,
      "inputs": [
        {
          "indexed": true,
          "internalType": "address",
          "name": "publicKey",
          "type": "address"
        },
        {
          "indexed": false,
          "internalType": "string",
          "name": "fullName",
          "type": "string"
        }
      ],
      "name": "UserRegistered",
      "type": "event"
    },
    {
      "inputs": [
        {
          "internalType": "uint256",
          "name": "",
          "type": "uint256"
        },
        {
          "internalType": "uint256",
          "name": "",
          "type": "uint256"
        }
      ],
      "name": "plantComments",
      "outputs": [
        {
          "internalType": "address",
          "name": "user",
          "type": "address"
        },
        {
          "internalType": "string",
          "name": "comment",
          "type": "string"
        },
        {
          "internalType": "uint256",
          "name": "timestamp",
          "type": "uint256"
        }
      ],
      "stateMutability": "view",
      "type": "function",
      "constant": true
    },
    {
      "inputs": [],
      "name": "plantCount",
      "outputs": [
        {
          "internalType": "uint256",
          "name": "",
          "type": "uint256"
        }
      ],
      "stateMutability": "view",
      "type": "function",
      "constant": true
    },
    {
      "inputs": [
        {
          "internalType": "uint256",
          "name": "",
          "type": "uint256"
        },
        {
          "internalType": "address",
          "name": "",
          "type": "address"
        }
      ],
      "name": "plantLikes",
      "outputs": [
        {
          "internalType": "bool",
          "name": "",
          "type": "bool"
        }
      ],
      "stateMutability": "view",
      "type": "function",
      "constant": true
    },
    {
      "inputs": [
        {
          "internalType": "uint256",
          "name": "",
          "type": "uint256"
        },
        {
          "internalType": "uint256",
          "name": "",
          "type": "uint256"
        }
      ],
      "name": "plantRatingUsers",
      "outputs": [
        {
          "internalType": "address",
          "name": "",
          "type": "address"
        }
      ],
      "stateMutability": "view",
      "type": "function",
      "constant": true
    },
    {
      "inputs": [
        {
          "internalType": "uint256",
          "name": "",
          "type": "uint256"
        },
        {
          "internalType": "address",
          "name": "",
          "type": "address"
        }
      ],
      "name": "plantRatings",
      "outputs": [
        {
          "internalType": "uint256",
          "name": "",
          "type": "uint256"
        }
      ],
      "stateMutability": "view",
      "type": "function",
      "constant": true
    },
    {
      "inputs": [
        {
          "internalType": "uint256",
          "name": "",
          "type": "uint256"
        }
      ],
      "name": "plants",
      "outputs": [
        {
          "internalType": "string",
          "name": "name",
          "type": "string"
        },
        {
          "internalType": "string",
          "name": "namaLatin",
          "type": "string"
        },
        {
          "internalType": "string",
          "name": "komposisi",
          "type": "string"
        },
        {
          "internalType": "string",
          "name": "kegunaan",
          "type": "string"
        },
        {
          "internalType": "string",
          "name": "caraPengolahan",
          "type": "string"
        },
        {
          "internalType": "string",
          "name": "ipfsHash",
          "type": "string"
        },
        {
          "internalType": "uint256",
          "name": "ratingTotal",
          "type": "uint256"
        },
        {
          "internalType": "uint256",
          "name": "ratingCount",
          "type": "uint256"
        },
        {
          "internalType": "uint256",
          "name": "likeCount",
          "type": "uint256"
        },
        {
          "internalType": "address",
          "name": "owner",
          "type": "address"
        }
      ],
      "stateMutability": "view",
      "type": "function",
      "constant": true
    },
    {
      "inputs": [
        {
          "internalType": "string",
          "name": "fullName",
          "type": "string"
        },
        {
          "internalType": "string",
          "name": "hashPass",
          "type": "string"
        }
      ],
      "name": "registerUser",
      "outputs": [],
      "stateMutability": "nonpayable",
      "type": "function"
    },
    {
      "inputs": [],
      "name": "login",
      "outputs": [],
      "stateMutability": "nonpayable",
      "type": "function"
    },
    {
      "inputs": [
        {
          "internalType": "address",
          "name": "userAddress",
          "type": "address"
        }
      ],
      "name": "getUserInfo",
      "outputs": [
        {
          "internalType": "string",
          "name": "fullName",
          "type": "string"
        },
        {
          "internalType": "string",
          "name": "hashPass",
          "type": "string"
        },
        {
          "internalType": "bool",
          "name": "isRegistered",
          "type": "bool"
        },
        {
          "internalType": "bool",
          "name": "isLoggedIn",
          "type": "bool"
        }
      ],
      "stateMutability": "view",
      "type": "function",
      "constant": true
    },
    {
      "inputs": [],
      "name": "logout",
      "outputs": [],
      "stateMutability": "nonpayable",
      "type": "function"
    },
    {
      "inputs": [
        {
          "internalType": "string",
          "name": "name",
          "type": "string"
        },
        {
          "internalType": "string",
          "name": "namaLatin",
          "type": "string"
        },
        {
          "internalType": "string",
          "name": "komposisi",
          "type": "string"
        },
        {
          "internalType": "string",
          "name": "kegunaan",
          "type": "string"
        },
        {
          "internalType": "string",
          "name": "caraPengolahan",
          "type": "string"
        },
        {
          "internalType": "string",
          "name": "ipfsHash",
          "type": "string"
        }
      ],
      "name": "addPlant",
      "outputs": [],
      "stateMutability": "nonpayable",
      "type": "function"
    },
    {
      "inputs": [
        {
          "internalType": "uint256",
          "name": "plantId",
          "type": "uint256"
        },
        {
          "internalType": "uint256",
          "name": "rating",
          "type": "uint256"
        }
      ],
      "name": "ratePlant",
      "outputs": [],
      "stateMutability": "nonpayable",
      "type": "function"
    },
    {
      "inputs": [
        {
          "internalType": "uint256",
          "name": "plantId",
          "type": "uint256"
        }
      ],
      "name": "getAverageRating",
      "outputs": [
        {
          "internalType": "uint256",
          "name": "",
          "type": "uint256"
        }
      ],
      "stateMutability": "view",
      "type": "function",
      "constant": true
    },
    {
      "inputs": [
        {
          "internalType": "uint256",
          "name": "plantId",
          "type": "uint256"
        }
      ],
      "name": "getPlantRatings",
      "outputs": [
        {
          "internalType": "uint256[]",
          "name": "",
          "type": "uint256[]"
        }
      ],
      "stateMutability": "view",
      "type": "function",
      "constant": true
    },
    {
      "inputs": [
        {
          "internalType": "uint256",
          "name": "plantId",
          "type": "uint256"
        }
      ],
      "name": "likePlant",
      "outputs": [],
      "stateMutability": "nonpayable",
      "type": "function"
    },
    {
      "inputs": [
        {
          "internalType": "uint256",
          "name": "plantId",
          "type": "uint256"
        },
        {
          "internalType": "string",
          "name": "comment",
          "type": "string"
        }
      ],
      "name": "commentPlant",
      "outputs": [],
      "stateMutability": "nonpayable",
      "type": "function"
    },
    {
      "inputs": [
        {
          "internalType": "uint256",
          "name": "plantId",
          "type": "uint256"
        }
      ],
      "name": "getPlant",
      "outputs": [
        {
          "internalType": "string",
          "name": "name",
          "type": "string"
        },
        {
          "internalType": "string",
          "name": "namaLatin",
          "type": "string"
        },
        {
          "internalType": "string",
          "name": "komposisi",
          "type": "string"
        },
        {
          "internalType": "string",
          "name": "kegunaan",
          "type": "string"
        },
        {
          "internalType": "string",
          "name": "caraPengolahan",
          "type": "string"
        },
        {
          "internalType": "string",
          "name": "ipfsHash",
          "type": "string"
        },
        {
          "internalType": "uint256",
          "name": "ratingTotal",
          "type": "uint256"
        },
        {
          "internalType": "uint256",
          "name": "ratingCount",
          "type": "uint256"
        },
        {
          "internalType": "uint256",
          "name": "likeCount",
          "type": "uint256"
        },
        {
          "internalType": "address",
          "name": "owner",
          "type": "address"
        }
      ],
      "stateMutability": "view",
      "type": "function",
      "constant": true
    },
    {
      "inputs": [
        {
          "internalType": "string",
          "name": "name",
          "type": "string"
        },
        {
          "internalType": "string",
          "name": "namaLatin",
          "type": "string"
        },
        {
          "internalType": "string",
          "name": "komposisi",
          "type": "string"
        },
        {
          "internalType": "string",
          "name": "kegunaan",
          "type": "string"
        }
      ],
      "name": "searchPlants",
      "outputs": [
        {
          "internalType": "uint256[]",
          "name": "",
          "type": "uint256[]"
        },
        {
          "components": [
            {
              "internalType": "string",
              "name": "name",
              "type": "string"
            },
            {
              "internalType": "string",
              "name": "namaLatin",
              "type": "string"
            },
            {
              "internalType": "string",
              "name": "komposisi",
              "type": "string"
            },
            {
              "internalType": "string",
              "name": "kegunaan",
              "type": "string"
            },
            {
              "internalType": "string",
              "name": "caraPengolahan",
              "type": "string"
            },
            {
              "internalType": "string",
              "name": "ipfsHash",
              "type": "string"
            },
            {
              "internalType": "uint256",
              "name": "ratingTotal",
              "type": "uint256"
            },
            {
              "internalType": "uint256",
              "name": "ratingCount",
              "type": "uint256"
            },
            {
              "internalType": "uint256",
              "name": "likeCount",
              "type": "uint256"
            },
            {
              "internalType": "address",
              "name": "owner",
              "type": "address"
            }
          ],
          "internalType": "struct HerbalPlant.Plant[]",
          "name": "",
          "type": "tuple[]"
        }
      ],
      "stateMutability": "view",
      "type": "function",
      "constant": true
    },
    {
      "inputs": [
        {
          "internalType": "uint256",
          "name": "plantId",
          "type": "uint256"
        }
      ],
      "name": "getPlantComments",
      "outputs": [
        {
          "components": [
            {
              "internalType": "address",
              "name": "user",
              "type": "address"
            },
            {
              "internalType": "string",
              "name": "comment",
              "type": "string"
            },
            {
              "internalType": "uint256",
              "name": "timestamp",
              "type": "uint256"
            }
          ],
          "internalType": "struct HerbalPlant.Comment[]",
          "name": "",
          "type": "tuple[]"
        }
      ],
      "stateMutability": "view",
      "type": "function",
      "constant": true
    },
    {
      "inputs": [],
      "name": "getAllUsers",
      "outputs": [
        {
          "internalType": "address[]",
          "name": "",
          "type": "address[]"
        }
      ],
      "stateMutability": "view",
      "type": "function",
      "constant": true
    }
  ],
  "bytecode": "0x608060405234801561001057600080fd5b50614d41806100206000396000f3fe608060405234801561001057600080fd5b506004361061012c5760003560e01c80637eede255116100ad578063d5469da611610071578063d5469da614610360578063e2842d7914610392578063e2ec5fdf146103b0578063ed0b1f5f146103cc578063efbf07d6146104055761012c565b80637eede255146102b35780638dd2361c146102cf5780638e788d0d14610308578063b34e97e814610338578063b85f7d57146103425761012c565b80631f3c99c3116100f45780631f3c99c3146101f95780633ceca1b314610203578063412cc71f1461021f5780636386c1c7146102505780637dddc392146102835761012c565b806307f9603e1461013157806311fb6c891461016157806317b7e03e146101915780631956e2e2146101c15780631d2e4afd146101dd575b600080fd5b61014b60048036038101906101469190613b2a565b610435565b604051610158919061442a565b60405180910390f35b61017b60048036038101906101769190613be3565b610614565b604051610188919061438d565b60405180910390f35b6101ab60048036038101906101a69190613b2a565b610662565b6040516101b89190614779565b60405180910390f35b6101db60048036038101906101d69190613b2a565b6106e2565b005b6101f760048036038101906101f291906138e2565b610aab565b005b610201610d5b565b005b61021d60048036038101906102189190613a11565b610e8a565b005b6102396004803603810190610234919061394e565b6111d8565b60405161024792919061444c565b60405180910390f35b61026a600480360381019061026591906138b9565b611c83565b60405161027a94939291906144c0565b60405180910390f35b61029d60048036038101906102989190613b53565b611e55565b6040516102aa9190614779565b60405180910390f35b6102cd60048036038101906102c89190613be3565b611e7a565b005b6102e960048036038101906102e49190613b2a565b612280565b6040516102ff9a99989796959493929190614513565b60405180910390f35b610322600480360381019061031d9190613b2a565b612624565b60405161032f9190614408565b60405180910390f35b610340612788565b005b61034a612946565b6040516103579190614779565b60405180910390f35b61037a60048036038101906103759190613be3565b61294c565b604051610389939291906143a8565b60405180910390f35b61039a612a3b565b6040516103a791906143e6565b60405180910390f35b6103ca60048036038101906103c59190613b8f565b612ac9565b005b6103e660048036038101906103e19190613b2a565b612dae565b6040516103fc9a99989796959493929190614513565b60405180910390f35b61041f600480360381019061041a9190613b53565b61322e565b60405161042c9190614483565b60405180910390f35b6060600080600084815260200190815260200160002060070154905060008167ffffffffffffffff811115610493577f4e487b7100000000000000000000000000000000000000000000000000000000600052604160045260246000fd5b6040519080825280602002602001820160405280156104c15781602001602082028036833780820191505090505b50905060005b6003600086815260200190815260200160002080549050811015610609576000600360008781526020019081526020016000208281548110610532577f4e487b7100000000000000000000000000000000000000000000000000000000600052603260045260246000fd5b9060005260206000200160009054906101000a900473ffffffffffffffffffffffffffffffffffffffff1690506004600087815260200190815260200160002060008273ffffffffffffffffffffffffffffffffffffffff1673ffffffffffffffffffffffffffffffffffffffff168152602001908152602001600020548383815181106105e9577f4e487b7100000000000000000000000000000000000000000000000000000000600052603260045260246000fd5b60200260200101818152505050808061060190614bc7565b9150506104c7565b508092505050919050565b6003602052816000526040600020818154811061063057600080fd5b906000526020600020016000915091509054906101000a900473ffffffffffffffffffffffffffffffffffffffff1681565b600080600080848152602001908152602001600020905060008160070154116106c0576040517f08c379a00000000000000000000000000000000000000000000000000000000081526004016106b790614679565b60405180910390fd5b6000816007015482600601546106d69190614a6f565b90508092505050919050565b600160003373ffffffffffffffffffffffffffffffffffffffff1673ffffffffffffffffffffffffffffffffffffffff16815260200190815260200160002060020160009054906101000a900460ff16610771576040517f08c379a0000000000000000000000000000000000000000000000000000000008152600401610768906146f9565b60405180910390fd5b600160003373ffffffffffffffffffffffffffffffffffffffff1673ffffffffffffffffffffffffffffffffffffffff16815260200190815260200160002060020160019054906101000a900460ff16610800576040517f08c379a00000000000000000000000000000000000000000000000000000000081526004016107f790614719565b60405180910390fd5b600073ffffffffffffffffffffffffffffffffffffffff1660008083815260200190815260200160002060090160009054906101000a900473ffffffffffffffffffffffffffffffffffffffff1673ffffffffffffffffffffffffffffffffffffffff1614156108a5576040517f08c379a000000000000000000000000000000000000000000000000000000000815260040161089c906146b9565b60405180910390fd5b6005600082815260200190815260200160002060003373ffffffffffffffffffffffffffffffffffffffff1673ffffffffffffffffffffffffffffffffffffffff16815260200190815260200160002060009054906101000a900460ff16156109da5760006005600083815260200190815260200160002060003373ffffffffffffffffffffffffffffffffffffffff1673ffffffffffffffffffffffffffffffffffffffff16815260200190815260200160002060006101000a81548160ff021916908315150217905550600080828152602001908152602001600020600801600081548092919061099790614b6b565b91905055507f16cbc6f742dcf78c5d0f58c5388cd298787bc75f6cad1423a17c3abe3723c5b881336040516109cd929190614794565b60405180910390a1610aa8565b60016005600083815260200190815260200160002060003373ffffffffffffffffffffffffffffffffffffffff1673ffffffffffffffffffffffffffffffffffffffff16815260200190815260200160002060006101000a81548160ff0219169083151502179055506000808281526020019081526020016000206008016000815480929190610a6990614bc7565b91905055507f16cbc6f742dcf78c5d0f58c5388cd298787bc75f6cad1423a17c3abe3723c5b88133604051610a9f929190614794565b60405180910390a15b50565b6000825111610aef576040517f08c379a0000000000000000000000000000000000000000000000000000000008152600401610ae6906145d9565b60405180910390fd5b6000815111610b33576040517f08c379a0000000000000000000000000000000000000000000000000000000008152600401610b2a906145f9565b60405180910390fd5b600160003373ffffffffffffffffffffffffffffffffffffffff1673ffffffffffffffffffffffffffffffffffffffff16815260200190815260200160002060020160009054906101000a900460ff1615610bc3576040517f08c379a0000000000000000000000000000000000000000000000000000000008152600401610bba90614619565b60405180910390fd5b604051806080016040528083815260200182815260200160011515815260200160001515815250600160003373ffffffffffffffffffffffffffffffffffffffff1673ffffffffffffffffffffffffffffffffffffffff1681526020019081526020016000206000820151816000019080519060200190610c4592919061371b565b506020820151816001019080519060200190610c6292919061371b565b5060408201518160020160006101000a81548160ff02191690831515021790555060608201518160020160016101000a81548160ff0219169083151502179055509050506007339080600181540180825580915050600190039060005260206000200160009091909190916101000a81548173ffffffffffffffffffffffffffffffffffffffff021916908373ffffffffffffffffffffffffffffffffffffffff1602179055503373ffffffffffffffffffffffffffffffffffffffff167f48cac28ad4dc618e15f4c2dd5e97751182f166de97b25618318b2112aa951a2f83604051610d4f919061449e565b60405180910390a25050565b600160003373ffffffffffffffffffffffffffffffffffffffff1673ffffffffffffffffffffffffffffffffffffffff16815260200190815260200160002060020160019054906101000a900460ff16610dea576040517f08c379a0000000000000000000000000000000000000000000000000000000008152600401610de1906146d9565b60405180910390fd5b6000600160003373ffffffffffffffffffffffffffffffffffffffff1673ffffffffffffffffffffffffffffffffffffffff16815260200190815260200160002060020160016101000a81548160ff0219169083151502179055503373ffffffffffffffffffffffffffffffffffffffff167fc6ef449222bae3754898fc5fa944d52dfc53c0ee1fdd7d733fbb422ac5e2b8c860405160405180910390a2565b600160003373ffffffffffffffffffffffffffffffffffffffff1673ffffffffffffffffffffffffffffffffffffffff16815260200190815260200160002060020160009054906101000a900460ff16610f19576040517f08c379a0000000000000000000000000000000000000000000000000000000008152600401610f10906146f9565b60405180910390fd5b600160003373ffffffffffffffffffffffffffffffffffffffff1673ffffffffffffffffffffffffffffffffffffffff16815260200190815260200160002060020160019054906101000a900460ff16610fa8576040517f08c379a0000000000000000000000000000000000000000000000000000000008152600401610f9f90614719565b60405180910390fd5b6000865111610fec576040517f08c379a0000000000000000000000000000000000000000000000000000000008152600401610fe390614739565b60405180910390fd5b600060065490506040518061014001604052808881526020018781526020018681526020018581526020018481526020018381526020016000815260200160008152602001600081526020013373ffffffffffffffffffffffffffffffffffffffff16815250600080838152602001908152602001600020600082015181600001908051906020019061108092919061371b565b50602082015181600101908051906020019061109d92919061371b565b5060408201518160020190805190602001906110ba92919061371b565b5060608201518160030190805190602001906110d792919061371b565b5060808201518160040190805190602001906110f492919061371b565b5060a082015181600501908051906020019061111192919061371b565b5060c0820151816006015560e0820151816007015561010082015181600801556101208201518160090160006101000a81548173ffffffffffffffffffffffffffffffffffffffff021916908373ffffffffffffffffffffffffffffffffffffffff1602179055509050507f501d7870f277450aef6f6286e3405d1db2d4e338b74742dda780ae4605428ac38188336040516111af93929190614832565b60405180910390a1600660008154809291906111ca90614bc7565b919050555050505050505050565b60608060008060065467ffffffffffffffff811115611220577f4e487b7100000000000000000000000000000000000000000000000000000000600052604160045260246000fd5b60405190808252806020026020018201604052801561124e5781602001602082028036833780820191505090505b509050600060065467ffffffffffffffff811115611295577f4e487b7100000000000000000000000000000000000000000000000000000000600052604160045260246000fd5b6040519080825280602002602001820160405280156112ce57816020015b6112bb6137a1565b8152602001906001900390816112b35790505b50905060005b600654811015611a53576000806000838152602001908152602001600020905060006001905060008c5111801561139e575061139c82600001805461131890614b95565b80601f016020809104026020016040519081016040528092919081815260200182805461134490614b95565b80156113915780601f1061136657610100808354040283529160200191611391565b820191906000526020600020905b81548152906001019060200180831161137457829003601f168201915b50505050508d61325d565b155b156113a857600090505b60008b5111801561144c575061144a8260010180546113c690614b95565b80601f01602080910402602001604051908101604052809291908181526020018280546113f290614b95565b801561143f5780601f106114145761010080835404028352916020019161143f565b820191906000526020600020905b81548152906001019060200180831161142257829003601f168201915b50505050508c61325d565b155b1561145657600090505b60008a511180156114fa57506114f882600201805461147490614b95565b80601f01602080910402602001604051908101604052809291908181526020018280546114a090614b95565b80156114ed5780601f106114c2576101008083540402835291602001916114ed565b820191906000526020600020905b8154815290600101906020018083116114d057829003601f168201915b50505050508b61325d565b155b1561150457600090505b600089511180156115a857506115a682600301805461152290614b95565b80601f016020809104026020016040519081016040528092919081815260200182805461154e90614b95565b801561159b5780601f106115705761010080835404028352916020019161159b565b820191906000526020600020905b81548152906001019060200180831161157e57829003601f168201915b50505050508a61325d565b155b156115b257600090505b8015611a3e57828587815181106115f2577f4e487b7100000000000000000000000000000000000000000000000000000000600052603260045260246000fd5b602002602001018181525050816040518061014001604052908160008201805461161b90614b95565b80601f016020809104026020016040519081016040528092919081815260200182805461164790614b95565b80156116945780601f1061166957610100808354040283529160200191611694565b820191906000526020600020905b81548152906001019060200180831161167757829003601f168201915b505050505081526020016001820180546116ad90614b95565b80601f01602080910402602001604051908101604052809291908181526020018280546116d990614b95565b80156117265780601f106116fb57610100808354040283529160200191611726565b820191906000526020600020905b81548152906001019060200180831161170957829003601f168201915b5050505050815260200160028201805461173f90614b95565b80601f016020809104026020016040519081016040528092919081815260200182805461176b90614b95565b80156117b85780601f1061178d576101008083540402835291602001916117b8565b820191906000526020600020905b81548152906001019060200180831161179b57829003601f168201915b505050505081526020016003820180546117d190614b95565b80601f01602080910402602001604051908101604052809291908181526020018280546117fd90614b95565b801561184a5780601f1061181f5761010080835404028352916020019161184a565b820191906000526020600020905b81548152906001019060200180831161182d57829003601f168201915b5050505050815260200160048201805461186390614b95565b80601f016020809104026020016040519081016040528092919081815260200182805461188f90614b95565b80156118dc5780601f106118b1576101008083540402835291602001916118dc565b820191906000526020600020905b8154815290600101906020018083116118bf57829003601f168201915b505050505081526020016005820180546118f590614b95565b80601f016020809104026020016040519081016040528092919081815260200182805461192190614b95565b801561196e5780601f106119435761010080835404028352916020019161196e565b820191906000526020600020905b81548152906001019060200180831161195157829003601f168201915b505050505081526020016006820154815260200160078201548152602001600882015481526020016009820160009054906101000a900473ffffffffffffffffffffffffffffffffffffffff1673ffffffffffffffffffffffffffffffffffffffff1673ffffffffffffffffffffffffffffffffffffffff1681525050848781518110611a24577f4e487b7100000000000000000000000000000000000000000000000000000000600052603260045260246000fd5b60200260200101819052508580611a3a90614bc7565b9650505b50508080611a4b90614bc7565b9150506112d4565b5060008367ffffffffffffffff811115611a96577f4e487b7100000000000000000000000000000000000000000000000000000000600052604160045260246000fd5b604051908082528060200260200182016040528015611ac45781602001602082028036833780820191505090505b50905060008467ffffffffffffffff811115611b09577f4e487b7100000000000000000000000000000000000000000000000000000000600052604160045260246000fd5b604051908082528060200260200182016040528015611b4257816020015b611b2f6137a1565b815260200190600190039081611b275790505b50905060005b85811015611c6e57848181518110611b89577f4e487b7100000000000000000000000000000000000000000000000000000000600052603260045260246000fd5b6020026020010151838281518110611bca577f4e487b7100000000000000000000000000000000000000000000000000000000600052603260045260246000fd5b602002602001018181525050838181518110611c0f577f4e487b7100000000000000000000000000000000000000000000000000000000600052603260045260246000fd5b6020026020010151828281518110611c50577f4e487b7100000000000000000000000000000000000000000000000000000000600052603260045260246000fd5b60200260200101819052508080611c6690614bc7565b915050611b48565b50818196509650505050505094509492505050565b6060806000806000600160008773ffffffffffffffffffffffffffffffffffffffff1673ffffffffffffffffffffffffffffffffffffffff168152602001908152602001600020604051806080016040529081600082018054611ce590614b95565b80601f0160208091040260200160405190810160405280929190818152602001828054611d1190614b95565b8015611d5e5780601f10611d3357610100808354040283529160200191611d5e565b820191906000526020600020905b815481529060010190602001808311611d4157829003601f168201915b50505050508152602001600182018054611d7790614b95565b80601f0160208091040260200160405190810160405280929190818152602001828054611da390614b95565b8015611df05780601f10611dc557610100808354040283529160200191611df0565b820191906000526020600020905b815481529060010190602001808311611dd357829003601f168201915b505050505081526020016002820160009054906101000a900460ff161515151581526020016002820160019054906101000a900460ff161515151581525050905080600001518160200151826040015183606001519450945094509450509193509193565b6004602052816000526040600020602052806000526040600020600091509150505481565b600160003373ffffffffffffffffffffffffffffffffffffffff1673ffffffffffffffffffffffffffffffffffffffff16815260200190815260200160002060020160009054906101000a900460ff16611f09576040517f08c379a0000000000000000000000000000000000000000000000000000000008152600401611f00906146f9565b60405180910390fd5b600160003373ffffffffffffffffffffffffffffffffffffffff1673ffffffffffffffffffffffffffffffffffffffff16815260200190815260200160002060020160019054906101000a900460ff16611f98576040517f08c379a0000000000000000000000000000000000000000000000000000000008152600401611f8f90614719565b60405180910390fd5b600073ffffffffffffffffffffffffffffffffffffffff1660008084815260200190815260200160002060090160009054906101000a900473ffffffffffffffffffffffffffffffffffffffff1673ffffffffffffffffffffffffffffffffffffffff16141561203d576040517f08c379a0000000000000000000000000000000000000000000000000000000008152600401612034906146b9565b60405180910390fd5b6001811015801561204f575060058111155b61208e576040517f08c379a000000000000000000000000000000000000000000000000000000000815260040161208590614659565b60405180910390fd5b60006004600084815260200190815260200160002060003373ffffffffffffffffffffffffffffffffffffffff1673ffffffffffffffffffffffffffffffffffffffff1681526020019081526020016000205414612121576040517f08c379a000000000000000000000000000000000000000000000000000000000815260040161211890614699565b60405180910390fd5b806004600084815260200190815260200160002060003373ffffffffffffffffffffffffffffffffffffffff1673ffffffffffffffffffffffffffffffffffffffff1681526020019081526020016000208190555080600080848152602001908152602001600020600601600082825461219b91906149e2565b9250508190555060008083815260200190815260200160002060070160008154809291906121c890614bc7565b919050555060036000838152602001908152602001600020339080600181540180825580915050600190039060005260206000200160009091909190916101000a81548173ffffffffffffffffffffffffffffffffffffffff021916908373ffffffffffffffffffffffffffffffffffffffff1602179055507f5a90108db35c713ec6356a9abbb3f1f006f75e48a06998c0616e9dbe5dea6410823383604051612274939291906147fb565b60405180910390a15050565b60006020528060005260406000206000915090508060000180546122a390614b95565b80601f01602080910402602001604051908101604052809291908181526020018280546122cf90614b95565b801561231c5780601f106122f15761010080835404028352916020019161231c565b820191906000526020600020905b8154815290600101906020018083116122ff57829003601f168201915b50505050509080600101805461233190614b95565b80601f016020809104026020016040519081016040528092919081815260200182805461235d90614b95565b80156123aa5780601f1061237f576101008083540402835291602001916123aa565b820191906000526020600020905b81548152906001019060200180831161238d57829003601f168201915b5050505050908060020180546123bf90614b95565b80601f01602080910402602001604051908101604052809291908181526020018280546123eb90614b95565b80156124385780601f1061240d57610100808354040283529160200191612438565b820191906000526020600020905b81548152906001019060200180831161241b57829003601f168201915b50505050509080600301805461244d90614b95565b80601f016020809104026020016040519081016040528092919081815260200182805461247990614b95565b80156124c65780601f1061249b576101008083540402835291602001916124c6565b820191906000526020600020905b8154815290600101906020018083116124a957829003601f168201915b5050505050908060040180546124db90614b95565b80601f016020809104026020016040519081016040528092919081815260200182805461250790614b95565b80156125545780601f1061252957610100808354040283529160200191612554565b820191906000526020600020905b81548152906001019060200180831161253757829003601f168201915b50505050509080600501805461256990614b95565b80601f016020809104026020016040519081016040528092919081815260200182805461259590614b95565b80156125e25780601f106125b7576101008083540402835291602001916125e2565b820191906000526020600020905b8154815290600101906020018083116125c557829003601f168201915b5050505050908060060154908060070154908060080154908060090160009054906101000a900473ffffffffffffffffffffffffffffffffffffffff1690508a565b606060026000838152602001908152602001600020805480602002602001604051908101604052809291908181526020016000905b8282101561277d57838290600052602060002090600302016040518060600160405290816000820160009054906101000a900473ffffffffffffffffffffffffffffffffffffffff1673ffffffffffffffffffffffffffffffffffffffff1673ffffffffffffffffffffffffffffffffffffffff1681526020016001820180546126e290614b95565b80601f016020809104026020016040519081016040528092919081815260200182805461270e90614b95565b801561275b5780601f106127305761010080835404028352916020019161275b565b820191906000526020600020905b81548152906001019060200180831161273e57829003601f168201915b5050505050815260200160028201548152505081526020019060010190612659565b505050509050919050565b600160003373ffffffffffffffffffffffffffffffffffffffff1673ffffffffffffffffffffffffffffffffffffffff16815260200190815260200160002060020160009054906101000a900460ff16612817576040517f08c379a000000000000000000000000000000000000000000000000000000000815260040161280e90614759565b60405180910390fd5b600160003373ffffffffffffffffffffffffffffffffffffffff1673ffffffffffffffffffffffffffffffffffffffff16815260200190815260200160002060020160019054906101000a900460ff16156128a7576040517f08c379a000000000000000000000000000000000000000000000000000000000815260040161289e90614639565b60405180910390fd5b60018060003373ffffffffffffffffffffffffffffffffffffffff1673ffffffffffffffffffffffffffffffffffffffff16815260200190815260200160002060020160016101000a81548160ff0219169083151502179055503373ffffffffffffffffffffffffffffffffffffffff167f8d15fde878cff665868ed7579eb5081db6508d4249df61dcdd7699a5301d987460405160405180910390a2565b60065481565b6002602052816000526040600020818154811061296857600080fd5b9060005260206000209060030201600091509150508060000160009054906101000a900473ffffffffffffffffffffffffffffffffffffffff16908060010180546129b290614b95565b80601f01602080910402602001604051908101604052809291908181526020018280546129de90614b95565b8015612a2b5780601f10612a0057610100808354040283529160200191612a2b565b820191906000526020600020905b815481529060010190602001808311612a0e57829003601f168201915b5050505050908060020154905083565b60606007805480602002602001604051908101604052809291908181526020018280548015612abf57602002820191906000526020600020905b8160009054906101000a900473ffffffffffffffffffffffffffffffffffffffff1673ffffffffffffffffffffffffffffffffffffffff1681526020019060010190808311612a75575b5050505050905090565b600160003373ffffffffffffffffffffffffffffffffffffffff1673ffffffffffffffffffffffffffffffffffffffff16815260200190815260200160002060020160009054906101000a900460ff16612b58576040517f08c379a0000000000000000000000000000000000000000000000000000000008152600401612b4f906146f9565b60405180910390fd5b600160003373ffffffffffffffffffffffffffffffffffffffff1673ffffffffffffffffffffffffffffffffffffffff16815260200190815260200160002060020160019054906101000a900460ff16612be7576040517f08c379a0000000000000000000000000000000000000000000000000000000008152600401612bde90614719565b60405180910390fd5b600073ffffffffffffffffffffffffffffffffffffffff1660008084815260200190815260200160002060090160009054906101000a900473ffffffffffffffffffffffffffffffffffffffff1673ffffffffffffffffffffffffffffffffffffffff161415612c8c576040517f08c379a0000000000000000000000000000000000000000000000000000000008152600401612c83906146b9565b60405180910390fd5b600060405180606001604052803373ffffffffffffffffffffffffffffffffffffffff1681526020018381526020014281525090506002600084815260200190815260200160002081908060018154018082558091505060019003906000526020600020906003020160009091909190915060008201518160000160006101000a81548173ffffffffffffffffffffffffffffffffffffffff021916908373ffffffffffffffffffffffffffffffffffffffff1602179055506020820151816001019080519060200190612d6192919061371b565b506040820151816002015550507f279d5614862445216877d543708664e73d87439c98f65d81d5163ed98ad2d603833384604051612da1939291906147bd565b60405180910390a1505050565b606080606080606080600080600080600073ffffffffffffffffffffffffffffffffffffffff166000808d815260200190815260200160002060090160009054906101000a900473ffffffffffffffffffffffffffffffffffffffff1673ffffffffffffffffffffffffffffffffffffffff161415612e62576040517f08c379a0000000000000000000000000000000000000000000000000000000008152600401612e59906146b9565b60405180910390fd5b60008060008d815260200190815260200160002090508060000181600101826002018360030184600401856005018660060154876007015488600801548960090160009054906101000a900473ffffffffffffffffffffffffffffffffffffffff16898054612ed090614b95565b80601f0160208091040260200160405190810160405280929190818152602001828054612efc90614b95565b8015612f495780601f10612f1e57610100808354040283529160200191612f49565b820191906000526020600020905b815481529060010190602001808311612f2c57829003601f168201915b50505050509950888054612f5c90614b95565b80601f0160208091040260200160405190810160405280929190818152602001828054612f8890614b95565b8015612fd55780601f10612faa57610100808354040283529160200191612fd5565b820191906000526020600020905b815481529060010190602001808311612fb857829003601f168201915b50505050509850878054612fe890614b95565b80601f016020809104026020016040519081016040528092919081815260200182805461301490614b95565b80156130615780601f1061303657610100808354040283529160200191613061565b820191906000526020600020905b81548152906001019060200180831161304457829003601f168201915b5050505050975086805461307490614b95565b80601f01602080910402602001604051908101604052809291908181526020018280546130a090614b95565b80156130ed5780601f106130c2576101008083540402835291602001916130ed565b820191906000526020600020905b8154815290600101906020018083116130d057829003601f168201915b5050505050965085805461310090614b95565b80601f016020809104026020016040519081016040528092919081815260200182805461312c90614b95565b80156131795780601f1061314e57610100808354040283529160200191613179565b820191906000526020600020905b81548152906001019060200180831161315c57829003601f168201915b5050505050955084805461318c90614b95565b80601f01602080910402602001604051908101604052809291908181526020018280546131b890614b95565b80156132055780601f106131da57610100808354040283529160200191613205565b820191906000526020600020905b8154815290600101906020018083116131e857829003601f168201915b505050505094509a509a509a509a509a509a509a509a509a509a50509193959799509193959799565b60056020528160005260406000206020528060005260406000206000915091509054906101000a900460ff1681565b600080839050600083905060008151141561327d57600192505050613415565b81518151111561329257600092505050613415565b600061329d8661341b565b905060006132aa8661341b565b905060006001825184516132be9190614aa0565b6132c891906149e2565b905060005b8181101561340a5760006001905060005b84518110156133df57848181518110613320577f4e487b7100000000000000000000000000000000000000000000000000000000600052603260045260246000fd5b602001015160f81c60f81b7effffffffffffffffffffffffffffffffffffffffffffffffffffffffffffff191686828561335a91906149e2565b81518110613391577f4e487b7100000000000000000000000000000000000000000000000000000000600052603260045260246000fd5b602001015160f81c60f81b7effffffffffffffffffffffffffffffffffffffffffffffffffffffffffffff1916146133cc57600091506133df565b80806133d790614bc7565b9150506132de565b5080156133f6576001975050505050505050613415565b50808061340290614bc7565b9150506132cd565b506000955050505050505b92915050565b606060008290506000815167ffffffffffffffff811115613465577f4e487b7100000000000000000000000000000000000000000000000000000000600052604160045260246000fd5b6040519080825280601f01601f1916602001820160405280156134975781602001600182028036833780820191505090505b50905060005b825181101561371057604160f81b8382815181106134e4577f4e487b7100000000000000000000000000000000000000000000000000000000600052603260045260246000fd5b602001015160f81c60f81b7effffffffffffffffffffffffffffffffffffffffffffffffffffffffffffff1916101580156135885750605a60f81b838281518110613558577f4e487b7100000000000000000000000000000000000000000000000000000000600052603260045260246000fd5b602001015160f81c60f81b7effffffffffffffffffffffffffffffffffffffffffffffffffffffffffffff191611155b156136505760208382815181106135c8577f4e487b7100000000000000000000000000000000000000000000000000000000600052603260045260246000fd5b602001015160f81c60f81b60f81c6135e09190614a38565b60f81b82828151811061361c577f4e487b7100000000000000000000000000000000000000000000000000000000600052603260045260246000fd5b60200101907effffffffffffffffffffffffffffffffffffffffffffffffffffffffffffff1916908160001a9053506136fd565b828181518110613689577f4e487b7100000000000000000000000000000000000000000000000000000000600052603260045260246000fd5b602001015160f81c60f81b8282815181106136cd577f4e487b7100000000000000000000000000000000000000000000000000000000600052603260045260246000fd5b60200101907effffffffffffffffffffffffffffffffffffffffffffffffffffffffffffff1916908160001a9053505b808061370890614bc7565b91505061349d565b508092505050919050565b82805461372790614b95565b90600052602060002090601f0160209004810192826137495760008555613790565b82601f1061376257805160ff1916838001178555613790565b82800160010185558215613790579182015b8281111561378f578251825591602001919060010190613774565b5b50905061379d919061380a565b5090565b604051806101400160405280606081526020016060815260200160608152602001606081526020016060815260200160608152602001600081526020016000815260200160008152602001600073ffffffffffffffffffffffffffffffffffffffff1681525090565b5b8082111561382357600081600090555060010161380b565b5090565b600061383a613835846148a1565b614870565b90508281526020810184848401111561385257600080fd5b61385d848285614b29565b509392505050565b60008135905061387481614cdd565b92915050565b600082601f83011261388b57600080fd5b813561389b848260208601613827565b91505092915050565b6000813590506138b381614cf4565b92915050565b6000602082840312156138cb57600080fd5b60006138d984828501613865565b91505092915050565b600080604083850312156138f557600080fd5b600083013567ffffffffffffffff81111561390f57600080fd5b61391b8582860161387a565b925050602083013567ffffffffffffffff81111561393857600080fd5b6139448582860161387a565b9150509250929050565b6000806000806080858703121561396457600080fd5b600085013567ffffffffffffffff81111561397e57600080fd5b61398a8782880161387a565b945050602085013567ffffffffffffffff8111156139a757600080fd5b6139b38782880161387a565b935050604085013567ffffffffffffffff8111156139d057600080fd5b6139dc8782880161387a565b925050606085013567ffffffffffffffff8111156139f957600080fd5b613a058782880161387a565b91505092959194509250565b60008060008060008060c08789031215613a2a57600080fd5b600087013567ffffffffffffffff811115613a4457600080fd5b613a5089828a0161387a565b965050602087013567ffffffffffffffff811115613a6d57600080fd5b613a7989828a0161387a565b955050604087013567ffffffffffffffff811115613a9657600080fd5b613aa289828a0161387a565b945050606087013567ffffffffffffffff811115613abf57600080fd5b613acb89828a0161387a565b935050608087013567ffffffffffffffff811115613ae857600080fd5b613af489828a0161387a565b92505060a087013567ffffffffffffffff811115613b1157600080fd5b613b1d89828a0161387a565b9150509295509295509295565b600060208284031215613b3c57600080fd5b6000613b4a848285016138a4565b91505092915050565b60008060408385031215613b6657600080fd5b6000613b74858286016138a4565b9250506020613b8585828601613865565b9150509250929050565b60008060408385031215613ba257600080fd5b6000613bb0858286016138a4565b925050602083013567ffffffffffffffff811115613bcd57600080fd5b613bd98582860161387a565b9150509250929050565b60008060408385031215613bf657600080fd5b6000613c04858286016138a4565b9250506020613c15858286016138a4565b9150509250929050565b6000613c2b8383613c77565b60208301905092915050565b6000613c438383614222565b905092915050565b6000613c578383614272565b905092915050565b6000613c6b838361436f565b60208301905092915050565b613c8081614ad4565b82525050565b613c8f81614ad4565b82525050565b6000613ca082614911565b613caa818561497c565b9350613cb5836148d1565b8060005b83811015613ce6578151613ccd8882613c1f565b9750613cd883614948565b925050600181019050613cb9565b5085935050505092915050565b6000613cfe8261491c565b613d08818561498d565b935083602082028501613d1a856148e1565b8060005b85811015613d565784840389528151613d378582613c37565b9450613d4283614955565b925060208a01995050600181019050613d1e565b50829750879550505050505092915050565b6000613d7382614927565b613d7d818561499e565b935083602082028501613d8f856148f1565b8060005b85811015613dcb5784840389528151613dac8582613c4b565b9450613db783614962565b925060208a01995050600181019050613d93565b50829750879550505050505092915050565b6000613de882614932565b613df281856149af565b9350613dfd83614901565b8060005b83811015613e2e578151613e158882613c5f565b9750613e208361496f565b925050600181019050613e01565b5085935050505092915050565b613e4481614ae6565b82525050565b6000613e558261493d565b613e5f81856149c0565b9350613e6f818560208601614b38565b613e7881614ccc565b840191505092915050565b6000613e8e8261493d565b613e9881856149d1565b9350613ea8818560208601614b38565b613eb181614ccc565b840191505092915050565b6000613ec96017836149d1565b91507f4e616d6120746964616b20626f6c6568206b6f736f6e670000000000000000006000830152602082019050919050565b6000613f096019836149d1565b91507f50617373776f7264206861736820746964616b2076616c6964000000000000006000830152602082019050919050565b6000613f496014836149d1565b91507f416b756e207375646168207465726461667461720000000000000000000000006000830152602082019050919050565b6000613f89600b836149d1565b91507f5375646168206c6f67696e0000000000000000000000000000000000000000006000830152602082019050919050565b6000613fc9601e836149d1565b91507f526174696e6720686172757320616e7461726120312068696e676761203500006000830152602082019050919050565b60006140096022836149d1565b91507f546964616b2061646120726174696e6720756e74756b2074616e616d616e206960008301527f6e690000000000000000000000000000000000000000000000000000000000006020830152604082019050919050565b600061406f6019836149d1565b91507f416e6461207375646168206d656d6265726920726174696e67000000000000006000830152602082019050919050565b60006140af6017836149d1565b91507f54616e616d616e20746964616b20646974656d756b616e0000000000000000006000830152602082019050919050565b60006140ef600b836149d1565b91507f42656c756d206c6f67696e0000000000000000000000000000000000000000006000830152602082019050919050565b600061412f6014836149d1565b91507f416e6461206861727573207465726461667461720000000000000000000000006000830152602082019050919050565b600061416f6010836149d1565b91507f416e6461206861727573206c6f67696e000000000000000000000000000000006000830152602082019050919050565b60006141af6017836149d1565b91507f4e616d612074616e616d616e2064697065726c756b616e0000000000000000006000830152602082019050919050565b60006141ef6018836149d1565b91507f50656e6767756e6120746964616b2074657264616674617200000000000000006000830152602082019050919050565b600060608301600083015161423a6000860182613c77565b50602083015184820360208601526142528282613e4a565b9150506040830151614267604086018261436f565b508091505092915050565b60006101408301600083015184820360008601526142908282613e4a565b915050602083015184820360208601526142aa8282613e4a565b915050604083015184820360408601526142c48282613e4a565b915050606083015184820360608601526142de8282613e4a565b915050608083015184820360808601526142f88282613e4a565b91505060a083015184820360a08601526143128282613e4a565b91505060c083015161432760c086018261436f565b5060e083015161433a60e086018261436f565b5061010083015161434f61010086018261436f565b50610120830151614364610120860182613c77565b508091505092915050565b61437881614b12565b82525050565b61438781614b12565b82525050565b60006020820190506143a26000830184613c86565b92915050565b60006060820190506143bd6000830186613c86565b81810360208301526143cf8185613e83565b90506143de604083018461437e565b949350505050565b600060208201905081810360008301526144008184613c95565b905092915050565b600060208201905081810360008301526144228184613cf3565b905092915050565b600060208201905081810360008301526144448184613ddd565b905092915050565b600060408201905081810360008301526144668185613ddd565b9050818103602083015261447a8184613d68565b90509392505050565b60006020820190506144986000830184613e3b565b92915050565b600060208201905081810360008301526144b88184613e83565b905092915050565b600060808201905081810360008301526144da8187613e83565b905081810360208301526144ee8186613e83565b90506144fd6040830185613e3b565b61450a6060830184613e3b565b95945050505050565b600061014082019050818103600083015261452e818d613e83565b90508181036020830152614542818c613e83565b90508181036040830152614556818b613e83565b9050818103606083015261456a818a613e83565b9050818103608083015261457e8189613e83565b905081810360a08301526145928188613e83565b90506145a160c083018761437e565b6145ae60e083018661437e565b6145bc61010083018561437e565b6145ca610120830184613c86565b9b9a5050505050505050505050565b600060208201905081810360008301526145f281613ebc565b9050919050565b6000602082019050818103600083015261461281613efc565b9050919050565b6000602082019050818103600083015261463281613f3c565b9050919050565b6000602082019050818103600083015261465281613f7c565b9050919050565b6000602082019050818103600083015261467281613fbc565b9050919050565b6000602082019050818103600083015261469281613ffc565b9050919050565b600060208201905081810360008301526146b281614062565b9050919050565b600060208201905081810360008301526146d2816140a2565b9050919050565b600060208201905081810360008301526146f2816140e2565b9050919050565b6000602082019050818103600083015261471281614122565b9050919050565b6000602082019050818103600083015261473281614162565b9050919050565b60006020820190508181036000830152614752816141a2565b9050919050565b60006020820190508181036000830152614772816141e2565b9050919050565b600060208201905061478e600083018461437e565b92915050565b60006040820190506147a9600083018561437e565b6147b66020830184613c86565b9392505050565b60006060820190506147d2600083018661437e565b6147df6020830185613c86565b81810360408301526147f18184613e83565b9050949350505050565b6000606082019050614810600083018661437e565b61481d6020830185613c86565b61482a604083018461437e565b949350505050565b6000606082019050614847600083018661437e565b81810360208301526148598185613e83565b90506148686040830184613c86565b949350505050565b6000604051905081810181811067ffffffffffffffff8211171561489757614896614c9d565b5b8060405250919050565b600067ffffffffffffffff8211156148bc576148bb614c9d565b5b601f19601f8301169050602081019050919050565b6000819050602082019050919050565b6000819050602082019050919050565b6000819050602082019050919050565b6000819050602082019050919050565b600081519050919050565b600081519050919050565b600081519050919050565b600081519050919050565b600081519050919050565b6000602082019050919050565b6000602082019050919050565b6000602082019050919050565b6000602082019050919050565b600082825260208201905092915050565b600082825260208201905092915050565b600082825260208201905092915050565b600082825260208201905092915050565b600082825260208201905092915050565b600082825260208201905092915050565b60006149ed82614b12565b91506149f883614b12565b9250827fffffffffffffffffffffffffffffffffffffffffffffffffffffffffffffffff03821115614a2d57614a2c614c10565b5b828201905092915050565b6000614a4382614b1c565b9150614a4e83614b1c565b92508260ff03821115614a6457614a63614c10565b5b828201905092915050565b6000614a7a82614b12565b9150614a8583614b12565b925082614a9557614a94614c3f565b5b828204905092915050565b6000614aab82614b12565b9150614ab683614b12565b925082821015614ac957614ac8614c10565b5b828203905092915050565b6000614adf82614af2565b9050919050565b60008115159050919050565b600073ffffffffffffffffffffffffffffffffffffffff82169050919050565b6000819050919050565b600060ff82169050919050565b82818337600083830152505050565b60005b83811015614b56578082015181840152602081019050614b3b565b83811115614b65576000848401525b50505050565b6000614b7682614b12565b91506000821415614b8a57614b89614c10565b5b600182039050919050565b60006002820490506001821680614bad57607f821691505b60208210811415614bc157614bc0614c6e565b5b50919050565b6000614bd282614b12565b91507fffffffffffffffffffffffffffffffffffffffffffffffffffffffffffffffff821415614c0557614c04614c10565b5b600182019050919050565b7f4e487b7100000000000000000000000000000000000000000000000000000000600052601160045260246000fd5b7f4e487b7100000000000000000000000000000000000000000000000000000000600052601260045260246000fd5b7f4e487b7100000000000000000000000000000000000000000000000000000000600052602260045260246000fd5b7f4e487b7100000000000000000000000000000000000000000000000000000000600052604160045260246000fd5b6000601f19601f8301169050919050565b614ce681614ad4565b8114614cf157600080fd5b50565b614cfd81614b12565b8114614d0857600080fd5b5056fea2646970667358221220ebfe7f3acfc9247a2049b332a7ef39361de9f24dca188116f93c954bf15ba72c64736f6c63430008000033",
  "immutableReferences": {},
  "source": "// SPDX-License-Identifier: MIT\r\npragma solidity ^0.8.0;\r\n\r\ncontract HerbalPlant {\r\n    struct Plant {\r\n        string name;\r\n        string namaLatin;\r\n        string komposisi;\r\n        string kegunaan;\r\n        string caraPengolahan;\r\n        string ipfsHash;\r\n        uint ratingTotal;\r\n        uint ratingCount;\r\n        uint likeCount;\r\n        address owner;\r\n    }\r\n\r\n    struct User {\r\n        string fullName;\r\n        string hashPass;  // Store hashed password\r\n        bool isRegistered;\r\n        bool isLoggedIn;\r\n    }\r\n\r\n    struct Comment {\r\n        address user;\r\n        string comment;\r\n        uint timestamp;\r\n    }\r\n\r\n    mapping(uint => Plant) public plants;\r\n    mapping(address => User) private usersByPublicKey;\r\n    mapping(uint => Comment[]) public plantComments;  // Mapping for plant comments\r\n    mapping(uint => address[]) public plantRatingUsers;\r\n    mapping(uint => mapping(address => uint)) public plantRatings;\r\n    mapping(uint => mapping(address => bool)) public plantLikes;\r\n\r\n    uint public plantCount;\r\n    address[] private registeredUsers;\r\n\r\n    event PlantAdded(uint plantId, string name, address owner);\r\n    event PlantRated(uint plantId, address user, uint rating);\r\n    event PlantLiked(uint plantId, address user);\r\n    event UserRegistered(address indexed publicKey, string fullName);\r\n    event UserLoggedIn(address indexed publicKey);\r\n    event UserLoggedOut(address indexed publicKey);\r\n    event PlantCommented(uint plantId, address user, string comment);\r\n\r\n    modifier onlyActiveUser() {\r\n        require(usersByPublicKey[msg.sender].isRegistered, \"Anda harus terdaftar\");\r\n        require(usersByPublicKey[msg.sender].isLoggedIn, \"Anda harus login\");\r\n        _;\r\n    }\r\n\r\n    //  Mendaftarkan user dengan menyimpan password hash di Blockchain\r\n    function registerUser(\r\n        string memory fullName,\r\n        string memory hashPass\r\n    ) public {\r\n        require(bytes(fullName).length > 0, \"Nama tidak boleh kosong\");\r\n        require(bytes(hashPass).length > 0, \"Password hash tidak valid\");\r\n        require(!usersByPublicKey[msg.sender].isRegistered, \"Akun sudah terdaftar\");\r\n\r\n        usersByPublicKey[msg.sender] = User({\r\n            fullName: fullName,\r\n            hashPass: hashPass,\r\n            isRegistered: true,\r\n            isLoggedIn: false\r\n        });\r\n\r\n        registeredUsers.push(msg.sender);\r\n\r\n        emit UserRegistered(msg.sender, fullName);\r\n    }\r\n\r\n    //  Login menggunakan password hash\r\n    function login() public {\r\n        require(usersByPublicKey[msg.sender].isRegistered, \"Pengguna tidak terdaftar\");\r\n        require(!usersByPublicKey[msg.sender].isLoggedIn, \"Sudah login\");\r\n\r\n        usersByPublicKey[msg.sender].isLoggedIn = true;\r\n        emit UserLoggedIn(msg.sender);\r\n    }\r\n\r\n    //  Getter untuk mengambil data user berdasarkan address\r\n    function getUserInfo(address userAddress) public view returns (\r\n        string memory fullName,\r\n        string memory hashPass,\r\n        bool isRegistered,\r\n        bool isLoggedIn\r\n    ) {\r\n        User memory user = usersByPublicKey[userAddress];\r\n        return (\r\n            user.fullName,\r\n            user.hashPass,\r\n            user.isRegistered,\r\n            user.isLoggedIn\r\n        );\r\n    }\r\n\r\n    //  Logout user\r\n    function logout() public {\r\n        require(usersByPublicKey[msg.sender].isLoggedIn, \"Belum login\");\r\n        \r\n        usersByPublicKey[msg.sender].isLoggedIn = false;\r\n        emit UserLoggedOut(msg.sender);\r\n    }\r\n\r\n    //  Menambahkan tanaman herbal\r\n    function addPlant(\r\n        string memory name,\r\n        string memory namaLatin,\r\n        string memory komposisi,\r\n        string memory kegunaan,\r\n        string memory caraPengolahan,\r\n        string memory ipfsHash\r\n    ) public onlyActiveUser {\r\n        require(bytes(name).length > 0, \"Nama tanaman diperlukan\");\r\n\r\n        uint currentId = plantCount; // simpan ID sekarang sebelum increment\r\n\r\n        plants[currentId] = Plant({\r\n            name: name,\r\n            namaLatin: namaLatin,\r\n            komposisi: komposisi,\r\n            kegunaan: kegunaan,\r\n            caraPengolahan: caraPengolahan,\r\n            ipfsHash: ipfsHash,\r\n            ratingTotal: 0,\r\n            ratingCount: 0,\r\n            likeCount: 0,\r\n            owner: msg.sender\r\n        });\r\n\r\n        emit PlantAdded(currentId, name, msg.sender); // gunakan ID yang benar\r\n        plantCount++;\r\n    }\r\n\r\n    //  Memberi rating tanaman herbal (1-5)\r\n    function ratePlant(uint plantId, uint rating) public onlyActiveUser {\r\n        require(plants[plantId].owner != address(0), \"Tanaman tidak ditemukan\");\r\n        require(rating >= 1 && rating <= 5, \"Rating harus antara 1 hingga 5\");\r\n        require(plantRatings[plantId][msg.sender] == 0, \"Anda sudah memberi rating\");\r\n\r\n        plantRatings[plantId][msg.sender] = rating;\r\n        plants[plantId].ratingTotal += rating;\r\n        plants[plantId].ratingCount++;\r\n\r\n        // Menyimpan user yang memberi rating\r\n        plantRatingUsers[plantId].push(msg.sender);\r\n\r\n        emit PlantRated(plantId, msg.sender, rating);\r\n    }\r\n\r\n    //  Fungsi untuk mendapatkan rata-rata rating dari sebuah tanaman herbal\r\n    function getAverageRating(uint plantId) public view returns (uint) {\r\n        Plant storage plant = plants[plantId];\r\n        require(plant.ratingCount > 0, \"Tidak ada rating untuk tanaman ini\");\r\n        \r\n        uint averageRating = plant.ratingTotal / plant.ratingCount;\r\n        return averageRating;\r\n    }\r\n\r\n    //  Fungsi untuk mendapatkan semua rating dari tanaman\r\n    function getPlantRatings(uint plantId) public view returns (uint[] memory) {\r\n    uint ratingCount = plants[plantId].ratingCount;\r\n    uint[] memory ratings = new uint[](ratingCount);\r\n\r\n    for (uint i = 0; i < plantRatingUsers[plantId].length; i++) {\r\n        address user = plantRatingUsers[plantId][i];\r\n        ratings[i] = plantRatings[plantId][user];\r\n    }\r\n\r\n    return ratings;\r\n    }\r\n\r\n    //  Menyukai tanaman herbal\r\n    function likePlant(uint plantId) public onlyActiveUser {\r\n    require(plants[plantId].owner != address(0), \"Tanaman tidak ditemukan\");\r\n\r\n    // Jika pengguna sudah memberi like sebelumnya, hapus like tersebut\r\n    if (plantLikes[plantId][msg.sender]) {\r\n        plantLikes[plantId][msg.sender] = false;\r\n        plants[plantId].likeCount--;\r\n        emit PlantLiked(plantId, msg.sender); // Emit event jika perlu\r\n    } else {\r\n        // Jika belum memberi like, beri like\r\n        plantLikes[plantId][msg.sender] = true;\r\n        plants[plantId].likeCount++;\r\n        emit PlantLiked(plantId, msg.sender); // Emit event jika perlu\r\n    }\r\n    }\r\n\r\n    //  Memberikan komentar/testimoni pada tanaman\r\n    function commentPlant(uint plantId, string memory comment) public onlyActiveUser {\r\n        require(plants[plantId].owner != address(0), \"Tanaman tidak ditemukan\");\r\n\r\n        Comment memory newComment = Comment({\r\n            user: msg.sender,\r\n            comment: comment,\r\n            timestamp: block.timestamp\r\n        });\r\n\r\n        plantComments[plantId].push(newComment);\r\n\r\n        emit PlantCommented(plantId, msg.sender, comment);\r\n    }\r\n\r\n    //  Mengambil detail tanaman herbal\r\n    function getPlant(uint plantId)\r\n    public\r\n    view\r\n    returns (\r\n        string memory name,\r\n        string memory namaLatin,\r\n        string memory komposisi,\r\n        string memory kegunaan,\r\n        string memory caraPengolahan,\r\n        string memory ipfsHash,\r\n        uint ratingTotal,\r\n        uint ratingCount,\r\n        uint likeCount,\r\n        address owner\r\n    )\r\n    {\r\n    require(plants[plantId].owner != address(0), \"Tanaman tidak ditemukan\");\r\n\r\n    Plant storage plant = plants[plantId];\r\n\r\n    return (\r\n        plant.name,\r\n        plant.namaLatin,\r\n        plant.komposisi,\r\n        plant.kegunaan,\r\n        plant.caraPengolahan,\r\n        plant.ipfsHash,\r\n        plant.ratingTotal,\r\n        plant.ratingCount,\r\n        plant.likeCount,\r\n        plant.owner\r\n    );\r\n    }\r\n\r\n    //  Fungsi untuk mencari tanaman berdasarkan nama, nama latin, komposisi, atau kegunaan\r\n    function searchPlants(\r\n    string memory name, \r\n    string memory namaLatin, \r\n    string memory komposisi, \r\n    string memory kegunaan\r\n) \r\n    public view\r\n    returns (uint[] memory, Plant[] memory) // Return 2 array: IDs dan data tanaman\r\n{\r\n    uint plantIndex = 0;\r\n    uint[] memory idResults = new uint[](plantCount);\r\n    Plant[] memory plantResults = new Plant[](plantCount);\r\n\r\n    // Loop melalui semua tanaman yang tersimpan\r\n    for (uint i = 0; i < plantCount; i++) {\r\n        Plant storage currentPlant = plants[i];\r\n        bool isMatch = true;\r\n\r\n        // Lakukan pencarian untuk setiap parameter yang diisi\r\n        if (bytes(name).length > 0 && !contains(currentPlant.name, name)) isMatch = false;\r\n        if (bytes(namaLatin).length > 0 && !contains(currentPlant.namaLatin, namaLatin)) isMatch = false;\r\n        if (bytes(komposisi).length > 0 && !contains(currentPlant.komposisi, komposisi)) isMatch = false;\r\n        if (bytes(kegunaan).length > 0 && !contains(currentPlant.kegunaan, kegunaan)) isMatch = false;\r\n\r\n        // Jika memenuhi kriteria, tambahkan ke hasil\r\n        if (isMatch) {\r\n            idResults[plantIndex] = i; // Simpan ID tanaman (index)\r\n            plantResults[plantIndex] = currentPlant; // Simpan data lengkap\r\n            plantIndex++;\r\n        }\r\n    }\r\n\r\n    // Buat array hasil dengan ukuran yang tepat\r\n    uint[] memory finalIds = new uint[](plantIndex);\r\n    Plant[] memory finalPlants = new Plant[](plantIndex);\r\n\r\n    // Salin data dari array sementara ke array final\r\n    for (uint i = 0; i < plantIndex; i++) {\r\n        finalIds[i] = idResults[i];\r\n        finalPlants[i] = plantResults[i];\r\n    }\r\n\r\n    // Kembalikan sebagai tuple (2 array terpisah)\r\n    return (finalIds, finalPlants);\r\n}\r\n\r\n    //  Fungsi untuk mengecek apakah sebuah string mengandung substring tertentu (case-insensitive)\r\n    function contains(string memory haystack, string memory needle) internal pure returns (bool) {\r\n        bytes memory haystackBytes = bytes(haystack);\r\n        bytes memory needleBytes = bytes(needle);\r\n        \r\n        // Handle kasus khusus: needle kosong selalu dianggap ada\r\n        if (needleBytes.length == 0) return true;\r\n        \r\n        // Handle kasus dimana needle lebih panjang dari haystack\r\n        if (needleBytes.length > haystackBytes.length) return false;\r\n\r\n        // Konversi ke lowercase sekali saja di awal\r\n        bytes memory haystackLower = bytes(toLowerCase(haystack));\r\n        bytes memory needleLower = bytes(toLowerCase(needle));\r\n\r\n        // Optimasi: Batasi jumlah iterasi yang diperlukan\r\n        uint maxIterations = haystackLower.length - needleLower.length + 1;\r\n        \r\n        for (uint i = 0; i < maxIterations; i++) {\r\n            bool isMatch = true;\r\n            \r\n            // Periksa karakter per karakter\r\n            for (uint j = 0; j < needleLower.length; j++) {\r\n                if (haystackLower[i + j] != needleLower[j]) {\r\n                    isMatch = false;\r\n                    break; // Berhenti jika ada ketidakcocokan\r\n                }\r\n            }\r\n            \r\n            if (isMatch) return true;\r\n        }\r\n        \r\n        return false;\r\n    }\r\n\r\n    //  Fungsi untuk konversi string ke lowercase\r\n    function toLowerCase(string memory str) internal pure returns (string memory) {\r\n        bytes memory strBytes = bytes(str);\r\n        bytes memory lowerBytes = new bytes(strBytes.length);\r\n        \r\n        for (uint i = 0; i < strBytes.length; i++) {\r\n            // Cek apakah karakter adalah A-Z (0x41-0x5A)\r\n            if (strBytes[i] >= 0x41 && strBytes[i] <= 0x5A) {\r\n                lowerBytes[i] = bytes1(uint8(strBytes[i]) + 32); // Konversi ke lowercase\r\n            } else {\r\n                lowerBytes[i] = strBytes[i]; // Pertahankan karakter lain\r\n            }\r\n        }\r\n        \r\n        return string(lowerBytes);\r\n    }\r\n\r\n    //  Mengambil komentar/testimoni tanaman herbal\r\n    function getPlantComments(uint plantId) public view returns (Comment[] memory) {\r\n        return plantComments[plantId];\r\n    }\r\n\r\n    //  Mengambil semua user yang terdaftar\r\n    function getAllUsers() public view returns (address[] memory) {\r\n        return registeredUsers;\r\n    }\r\n}\r\n",
  "sourcePath": "D:\\Kuliah\\TA\\Integrated Project\\middleware\\contracts\\HerbalPlant.sol",
  "compiler": {
    "name": "solc",
    "version": "0.8.0+commit.c7dfd78e.Emscripten.clang"
  },
  "schemaVersion": "3.4.16",
  "updatedAt": "2025-04-15T13:58:56.965Z",
  "networkType": "ethereum",
  "devdoc": {
    "kind": "dev",
    "methods": {},
    "version": 1
  },
  "userdoc": {
    "kind": "user",
    "methods": {},
    "version": 1
  }
}