{
  "contractName": "HerbalPlant",
  "abi": [
    {
      "anonymous": false,
      "inputs": [
        {
          "indexed": false,
          "internalType": "uint256",
          "name": "plantId",
          "type": "uint256"
        },
        {
          "indexed": false,
          "internalType": "string",
          "name": "name",
          "type": "string"
        },
        {
          "indexed": false,
          "internalType": "address",
          "name": "owner",
          "type": "address"
        }
      ],
      "name": "PlantAdded",
      "type": "event"
    },
    {
      "anonymous": false,
      "inputs": [
        {
          "indexed": false,
          "internalType": "uint256",
          "name": "plantId",
          "type": "uint256"
        },
        {
          "indexed": false,
          "internalType": "address",
          "name": "user",
          "type": "address"
        },
        {
          "indexed": false,
          "internalType": "string",
          "name": "comment",
          "type": "string"
        }
      ],
      "name": "PlantCommented",
      "type": "event"
    },
    {
      "anonymous": false,
      "inputs": [
        {
          "indexed": false,
          "internalType": "uint256",
          "name": "plantId",
          "type": "uint256"
        },
        {
          "indexed": false,
          "internalType": "address",
          "name": "user",
          "type": "address"
        }
      ],
      "name": "PlantLiked",
      "type": "event"
    },
    {
      "anonymous": false,
      "inputs": [
        {
          "indexed": false,
          "internalType": "uint256",
          "name": "plantId",
          "type": "uint256"
        },
        {
          "indexed": false,
          "internalType": "address",
          "name": "user",
          "type": "address"
        },
        {
          "indexed": false,
          "internalType": "uint256",
          "name": "rating",
          "type": "uint256"
        }
      ],
      "name": "PlantRated",
      "type": "event"
    },
    {
      "anonymous": false,
      "inputs": [
        {
          "indexed": true,
          "internalType": "address",
          "name": "publicKey",
          "type": "address"
        }
      ],
      "name": "UserLoggedIn",
      "type": "event"
    },
    {
      "anonymous": false,
      "inputs": [
        {
          "indexed": true,
          "internalType": "address",
          "name": "publicKey",
          "type": "address"
        }
      ],
      "name": "UserLoggedOut",
      "type": "event"
    },
    {
      "anonymous": false,
      "inputs": [
        {
          "indexed": true,
          "internalType": "address",
          "name": "publicKey",
          "type": "address"
        },
        {
          "indexed": false,
          "internalType": "string",
          "name": "fullName",
          "type": "string"
        }
      ],
      "name": "UserRegistered",
      "type": "event"
    },
    {
      "inputs": [
        {
          "internalType": "uint256",
          "name": "",
          "type": "uint256"
        },
        {
          "internalType": "uint256",
          "name": "",
          "type": "uint256"
        }
      ],
      "name": "plantComments",
      "outputs": [
        {
          "internalType": "address",
          "name": "user",
          "type": "address"
        },
        {
          "internalType": "string",
          "name": "comment",
          "type": "string"
        },
        {
          "internalType": "uint256",
          "name": "timestamp",
          "type": "uint256"
        }
      ],
      "stateMutability": "view",
      "type": "function",
      "constant": true
    },
    {
      "inputs": [],
      "name": "plantCount",
      "outputs": [
        {
          "internalType": "uint256",
          "name": "",
          "type": "uint256"
        }
      ],
      "stateMutability": "view",
      "type": "function",
      "constant": true
    },
    {
      "inputs": [
        {
          "internalType": "uint256",
          "name": "",
          "type": "uint256"
        },
        {
          "internalType": "address",
          "name": "",
          "type": "address"
        }
      ],
      "name": "plantLikes",
      "outputs": [
        {
          "internalType": "bool",
          "name": "",
          "type": "bool"
        }
      ],
      "stateMutability": "view",
      "type": "function",
      "constant": true
    },
    {
      "inputs": [
        {
          "internalType": "uint256",
          "name": "",
          "type": "uint256"
        },
        {
          "internalType": "address",
          "name": "",
          "type": "address"
        }
      ],
      "name": "plantRatings",
      "outputs": [
        {
          "internalType": "uint256",
          "name": "",
          "type": "uint256"
        }
      ],
      "stateMutability": "view",
      "type": "function",
      "constant": true
    },
    {
      "inputs": [
        {
          "internalType": "uint256",
          "name": "",
          "type": "uint256"
        }
      ],
      "name": "plants",
      "outputs": [
        {
          "internalType": "string",
          "name": "name",
          "type": "string"
        },
        {
          "internalType": "string",
          "name": "namaLatin",
          "type": "string"
        },
        {
          "internalType": "string",
          "name": "komposisi",
          "type": "string"
        },
        {
          "internalType": "string",
          "name": "kegunaan",
          "type": "string"
        },
        {
          "internalType": "string",
          "name": "caraPengolahan",
          "type": "string"
        },
        {
          "internalType": "string",
          "name": "ipfsHash",
          "type": "string"
        },
        {
          "internalType": "uint256",
          "name": "ratingTotal",
          "type": "uint256"
        },
        {
          "internalType": "uint256",
          "name": "ratingCount",
          "type": "uint256"
        },
        {
          "internalType": "uint256",
          "name": "likeCount",
          "type": "uint256"
        },
        {
          "internalType": "address",
          "name": "owner",
          "type": "address"
        }
      ],
      "stateMutability": "view",
      "type": "function",
      "constant": true
    },
    {
      "inputs": [
        {
          "internalType": "string",
          "name": "fullName",
          "type": "string"
        },
        {
          "internalType": "string",
          "name": "hashPass",
          "type": "string"
        }
      ],
      "name": "registerUser",
      "outputs": [],
      "stateMutability": "nonpayable",
      "type": "function"
    },
    {
      "inputs": [],
      "name": "login",
      "outputs": [],
      "stateMutability": "nonpayable",
      "type": "function"
    },
    {
      "inputs": [
        {
          "internalType": "address",
          "name": "userAddress",
          "type": "address"
        }
      ],
      "name": "getUserInfo",
      "outputs": [
        {
          "internalType": "string",
          "name": "fullName",
          "type": "string"
        },
        {
          "internalType": "string",
          "name": "hashPass",
          "type": "string"
        },
        {
          "internalType": "bool",
          "name": "isRegistered",
          "type": "bool"
        },
        {
          "internalType": "bool",
          "name": "isLoggedIn",
          "type": "bool"
        }
      ],
      "stateMutability": "view",
      "type": "function",
      "constant": true
    },
    {
      "inputs": [],
      "name": "logout",
      "outputs": [],
      "stateMutability": "nonpayable",
      "type": "function"
    },
    {
      "inputs": [
        {
          "internalType": "string",
          "name": "name",
          "type": "string"
        },
        {
          "internalType": "string",
          "name": "namaLatin",
          "type": "string"
        },
        {
          "internalType": "string",
          "name": "komposisi",
          "type": "string"
        },
        {
          "internalType": "string",
          "name": "kegunaan",
          "type": "string"
        },
        {
          "internalType": "string",
          "name": "caraPengolahan",
          "type": "string"
        },
        {
          "internalType": "string",
          "name": "ipfsHash",
          "type": "string"
        }
      ],
      "name": "addPlant",
      "outputs": [],
      "stateMutability": "nonpayable",
      "type": "function"
    },
    {
      "inputs": [
        {
          "internalType": "uint256",
          "name": "plantId",
          "type": "uint256"
        },
        {
          "internalType": "uint256",
          "name": "rating",
          "type": "uint256"
        }
      ],
      "name": "ratePlant",
      "outputs": [],
      "stateMutability": "nonpayable",
      "type": "function"
    },
    {
      "inputs": [
        {
          "internalType": "uint256",
          "name": "plantId",
          "type": "uint256"
        }
      ],
      "name": "likePlant",
      "outputs": [],
      "stateMutability": "nonpayable",
      "type": "function"
    },
    {
      "inputs": [
        {
          "internalType": "uint256",
          "name": "plantId",
          "type": "uint256"
        },
        {
          "internalType": "string",
          "name": "comment",
          "type": "string"
        }
      ],
      "name": "commentPlant",
      "outputs": [],
      "stateMutability": "nonpayable",
      "type": "function"
    },
    {
      "inputs": [
        {
          "internalType": "uint256",
          "name": "plantId",
          "type": "uint256"
        }
      ],
      "name": "getPlant",
      "outputs": [
        {
          "internalType": "string",
          "name": "name",
          "type": "string"
        },
        {
          "internalType": "string",
          "name": "namaLatin",
          "type": "string"
        },
        {
          "internalType": "string",
          "name": "komposisi",
          "type": "string"
        },
        {
          "internalType": "string",
          "name": "kegunaan",
          "type": "string"
        },
        {
          "internalType": "string",
          "name": "caraPengolahan",
          "type": "string"
        },
        {
          "internalType": "string",
          "name": "ipfsHash",
          "type": "string"
        },
        {
          "internalType": "uint256",
          "name": "ratingTotal",
          "type": "uint256"
        },
        {
          "internalType": "uint256",
          "name": "ratingCount",
          "type": "uint256"
        },
        {
          "internalType": "uint256",
          "name": "likeCount",
          "type": "uint256"
        },
        {
          "internalType": "address",
          "name": "owner",
          "type": "address"
        }
      ],
      "stateMutability": "view",
      "type": "function",
      "constant": true
    },
    {
      "inputs": [
        {
          "internalType": "string",
          "name": "name",
          "type": "string"
        },
        {
          "internalType": "string",
          "name": "namaLatin",
          "type": "string"
        },
        {
          "internalType": "string",
          "name": "komposisi",
          "type": "string"
        },
        {
          "internalType": "string",
          "name": "kegunaan",
          "type": "string"
        }
      ],
      "name": "searchPlants",
      "outputs": [
        {
          "internalType": "uint256[]",
          "name": "",
          "type": "uint256[]"
        },
        {
          "components": [
            {
              "internalType": "string",
              "name": "name",
              "type": "string"
            },
            {
              "internalType": "string",
              "name": "namaLatin",
              "type": "string"
            },
            {
              "internalType": "string",
              "name": "komposisi",
              "type": "string"
            },
            {
              "internalType": "string",
              "name": "kegunaan",
              "type": "string"
            },
            {
              "internalType": "string",
              "name": "caraPengolahan",
              "type": "string"
            },
            {
              "internalType": "string",
              "name": "ipfsHash",
              "type": "string"
            },
            {
              "internalType": "uint256",
              "name": "ratingTotal",
              "type": "uint256"
            },
            {
              "internalType": "uint256",
              "name": "ratingCount",
              "type": "uint256"
            },
            {
              "internalType": "uint256",
              "name": "likeCount",
              "type": "uint256"
            },
            {
              "internalType": "address",
              "name": "owner",
              "type": "address"
            }
          ],
          "internalType": "struct HerbalPlant.Plant[]",
          "name": "",
          "type": "tuple[]"
        }
      ],
      "stateMutability": "view",
      "type": "function",
      "constant": true
    },
    {
      "inputs": [
        {
          "internalType": "uint256",
          "name": "plantId",
          "type": "uint256"
        }
      ],
      "name": "getPlantComments",
      "outputs": [
        {
          "components": [
            {
              "internalType": "address",
              "name": "user",
              "type": "address"
            },
            {
              "internalType": "string",
              "name": "comment",
              "type": "string"
            },
            {
              "internalType": "uint256",
              "name": "timestamp",
              "type": "uint256"
            }
          ],
          "internalType": "struct HerbalPlant.Comment[]",
          "name": "",
          "type": "tuple[]"
        }
      ],
      "stateMutability": "view",
      "type": "function",
      "constant": true
    },
    {
      "inputs": [],
      "name": "getAllUsers",
      "outputs": [
        {
          "internalType": "address[]",
          "name": "",
          "type": "address[]"
        }
      ],
      "stateMutability": "view",
      "type": "function",
      "constant": true
    }
  ],
  "bytecode": "0x608060405234801561001057600080fd5b5061484c806100206000396000f3fe608060405234801561001057600080fd5b506004361061010b5760003560e01c80638dd2361c116100a2578063d5469da611610071578063d5469da6146102af578063e2842d79146102e1578063e2ec5fdf146102ff578063ed0b1f5f1461031b578063efbf07d6146103545761010b565b80638dd2361c1461021e5780638e788d0d14610257578063b34e97e814610287578063b85f7d57146102915761010b565b8063412cc71f116100de578063412cc71f1461016e5780636386c1c71461019f5780637dddc392146101d25780637eede255146102025761010b565b80631956e2e2146101105780631d2e4afd1461012c5780631f3c99c3146101485780633ceca1b314610152575b600080fd5b61012a60048036038101906101259190613758565b610384565b005b61014660048036038101906101419190613510565b61074d565b005b6101506109fd565b005b61016c6004803603810190610167919061363f565b610b2c565b005b6101886004803603810190610183919061357c565b610e7a565b604051610196929190613fd7565b60405180910390f35b6101b960048036038101906101b491906134e7565b611925565b6040516101c9949392919061404b565b60405180910390f35b6101ec60048036038101906101e79190613781565b611af7565b6040516101f991906142e4565b60405180910390f35b61021c60048036038101906102179190613811565b611b1c565b005b61023860048036038101906102339190613758565b611eae565b60405161024e9a9998979695949392919061409e565b60405180910390f35b610271600480360381019061026c9190613758565b612252565b60405161027e9190613fb5565b60405180910390f35b61028f6123b6565b005b610299612574565b6040516102a691906142e4565b60405180910390f35b6102c960048036038101906102c49190613811565b61257a565b6040516102d893929190613f55565b60405180910390f35b6102e9612669565b6040516102f69190613f93565b60405180910390f35b610319600480360381019061031491906137bd565b6126f7565b005b61033560048036038101906103309190613758565b6129dc565b60405161034b9a9998979695949392919061409e565b60405180910390f35b61036e60048036038101906103699190613781565b612e5c565b60405161037b919061400e565b60405180910390f35b600160003373ffffffffffffffffffffffffffffffffffffffff1673ffffffffffffffffffffffffffffffffffffffff16815260200190815260200160002060020160009054906101000a900460ff16610413576040517f08c379a000000000000000000000000000000000000000000000000000000000815260040161040a90614264565b60405180910390fd5b600160003373ffffffffffffffffffffffffffffffffffffffff1673ffffffffffffffffffffffffffffffffffffffff16815260200190815260200160002060020160019054906101000a900460ff166104a2576040517f08c379a000000000000000000000000000000000000000000000000000000000815260040161049990614284565b60405180910390fd5b600073ffffffffffffffffffffffffffffffffffffffff1660008083815260200190815260200160002060090160009054906101000a900473ffffffffffffffffffffffffffffffffffffffff1673ffffffffffffffffffffffffffffffffffffffff161415610547576040517f08c379a000000000000000000000000000000000000000000000000000000000815260040161053e90614224565b60405180910390fd5b6004600082815260200190815260200160002060003373ffffffffffffffffffffffffffffffffffffffff1673ffffffffffffffffffffffffffffffffffffffff16815260200190815260200160002060009054906101000a900460ff161561067c5760006004600083815260200190815260200160002060003373ffffffffffffffffffffffffffffffffffffffff1673ffffffffffffffffffffffffffffffffffffffff16815260200190815260200160002060006101000a81548160ff0219169083151502179055506000808281526020019081526020016000206008016000815480929190610639906146a5565b91905055507f16cbc6f742dcf78c5d0f58c5388cd298787bc75f6cad1423a17c3abe3723c5b8813360405161066f9291906142ff565b60405180910390a161074a565b60016004600083815260200190815260200160002060003373ffffffffffffffffffffffffffffffffffffffff1673ffffffffffffffffffffffffffffffffffffffff16815260200190815260200160002060006101000a81548160ff021916908315150217905550600080828152602001908152602001600020600801600081548092919061070b90614701565b91905055507f16cbc6f742dcf78c5d0f58c5388cd298787bc75f6cad1423a17c3abe3723c5b881336040516107419291906142ff565b60405180910390a15b50565b6000825111610791576040517f08c379a000000000000000000000000000000000000000000000000000000000815260040161078890614164565b60405180910390fd5b60008151116107d5576040517f08c379a00000000000000000000000000000000000000000000000000000000081526004016107cc90614184565b60405180910390fd5b600160003373ffffffffffffffffffffffffffffffffffffffff1673ffffffffffffffffffffffffffffffffffffffff16815260200190815260200160002060020160009054906101000a900460ff1615610865576040517f08c379a000000000000000000000000000000000000000000000000000000000815260040161085c906141a4565b60405180910390fd5b604051806080016040528083815260200182815260200160011515815260200160001515815250600160003373ffffffffffffffffffffffffffffffffffffffff1673ffffffffffffffffffffffffffffffffffffffff16815260200190815260200160002060008201518160000190805190602001906108e7929190613349565b506020820151816001019080519060200190610904929190613349565b5060408201518160020160006101000a81548160ff02191690831515021790555060608201518160020160016101000a81548160ff0219169083151502179055509050506006339080600181540180825580915050600190039060005260206000200160009091909190916101000a81548173ffffffffffffffffffffffffffffffffffffffff021916908373ffffffffffffffffffffffffffffffffffffffff1602179055503373ffffffffffffffffffffffffffffffffffffffff167f48cac28ad4dc618e15f4c2dd5e97751182f166de97b25618318b2112aa951a2f836040516109f19190614029565b60405180910390a25050565b600160003373ffffffffffffffffffffffffffffffffffffffff1673ffffffffffffffffffffffffffffffffffffffff16815260200190815260200160002060020160019054906101000a900460ff16610a8c576040517f08c379a0000000000000000000000000000000000000000000000000000000008152600401610a8390614244565b60405180910390fd5b6000600160003373ffffffffffffffffffffffffffffffffffffffff1673ffffffffffffffffffffffffffffffffffffffff16815260200190815260200160002060020160016101000a81548160ff0219169083151502179055503373ffffffffffffffffffffffffffffffffffffffff167fc6ef449222bae3754898fc5fa944d52dfc53c0ee1fdd7d733fbb422ac5e2b8c860405160405180910390a2565b600160003373ffffffffffffffffffffffffffffffffffffffff1673ffffffffffffffffffffffffffffffffffffffff16815260200190815260200160002060020160009054906101000a900460ff16610bbb576040517f08c379a0000000000000000000000000000000000000000000000000000000008152600401610bb290614264565b60405180910390fd5b600160003373ffffffffffffffffffffffffffffffffffffffff1673ffffffffffffffffffffffffffffffffffffffff16815260200190815260200160002060020160019054906101000a900460ff16610c4a576040517f08c379a0000000000000000000000000000000000000000000000000000000008152600401610c4190614284565b60405180910390fd5b6000865111610c8e576040517f08c379a0000000000000000000000000000000000000000000000000000000008152600401610c85906142a4565b60405180910390fd5b600060055490506040518061014001604052808881526020018781526020018681526020018581526020018481526020018381526020016000815260200160008152602001600081526020013373ffffffffffffffffffffffffffffffffffffffff168152506000808381526020019081526020016000206000820151816000019080519060200190610d22929190613349565b506020820151816001019080519060200190610d3f929190613349565b506040820151816002019080519060200190610d5c929190613349565b506060820151816003019080519060200190610d79929190613349565b506080820151816004019080519060200190610d96929190613349565b5060a0820151816005019080519060200190610db3929190613349565b5060c0820151816006015560e0820151816007015561010082015181600801556101208201518160090160006101000a81548173ffffffffffffffffffffffffffffffffffffffff021916908373ffffffffffffffffffffffffffffffffffffffff1602179055509050507f501d7870f277450aef6f6286e3405d1db2d4e338b74742dda780ae4605428ac3818833604051610e519392919061439d565b60405180910390a160056000815480929190610e6c90614701565b919050555050505050505050565b60608060008060055467ffffffffffffffff811115610ec2577f4e487b7100000000000000000000000000000000000000000000000000000000600052604160045260246000fd5b604051908082528060200260200182016040528015610ef05781602001602082028036833780820191505090505b509050600060055467ffffffffffffffff811115610f37577f4e487b7100000000000000000000000000000000000000000000000000000000600052604160045260246000fd5b604051908082528060200260200182016040528015610f7057816020015b610f5d6133cf565b815260200190600190039081610f555790505b50905060005b6005548110156116f5576000806000838152602001908152602001600020905060006001905060008c51118015611040575061103e826000018054610fba906146cf565b80601f0160208091040260200160405190810160405280929190818152602001828054610fe6906146cf565b80156110335780601f1061100857610100808354040283529160200191611033565b820191906000526020600020905b81548152906001019060200180831161101657829003601f168201915b50505050508d612e8b565b155b1561104a57600090505b60008b511180156110ee57506110ec826001018054611068906146cf565b80601f0160208091040260200160405190810160405280929190818152602001828054611094906146cf565b80156110e15780601f106110b6576101008083540402835291602001916110e1565b820191906000526020600020905b8154815290600101906020018083116110c457829003601f168201915b50505050508c612e8b565b155b156110f857600090505b60008a5111801561119c575061119a826002018054611116906146cf565b80601f0160208091040260200160405190810160405280929190818152602001828054611142906146cf565b801561118f5780601f106111645761010080835404028352916020019161118f565b820191906000526020600020905b81548152906001019060200180831161117257829003601f168201915b50505050508b612e8b565b155b156111a657600090505b6000895111801561124a57506112488260030180546111c4906146cf565b80601f01602080910402602001604051908101604052809291908181526020018280546111f0906146cf565b801561123d5780601f106112125761010080835404028352916020019161123d565b820191906000526020600020905b81548152906001019060200180831161122057829003601f168201915b50505050508a612e8b565b155b1561125457600090505b80156116e05782858781518110611294577f4e487b7100000000000000000000000000000000000000000000000000000000600052603260045260246000fd5b60200260200101818152505081604051806101400160405290816000820180546112bd906146cf565b80601f01602080910402602001604051908101604052809291908181526020018280546112e9906146cf565b80156113365780601f1061130b57610100808354040283529160200191611336565b820191906000526020600020905b81548152906001019060200180831161131957829003601f168201915b5050505050815260200160018201805461134f906146cf565b80601f016020809104026020016040519081016040528092919081815260200182805461137b906146cf565b80156113c85780601f1061139d576101008083540402835291602001916113c8565b820191906000526020600020905b8154815290600101906020018083116113ab57829003601f168201915b505050505081526020016002820180546113e1906146cf565b80601f016020809104026020016040519081016040528092919081815260200182805461140d906146cf565b801561145a5780601f1061142f5761010080835404028352916020019161145a565b820191906000526020600020905b81548152906001019060200180831161143d57829003601f168201915b50505050508152602001600382018054611473906146cf565b80601f016020809104026020016040519081016040528092919081815260200182805461149f906146cf565b80156114ec5780601f106114c1576101008083540402835291602001916114ec565b820191906000526020600020905b8154815290600101906020018083116114cf57829003601f168201915b50505050508152602001600482018054611505906146cf565b80601f0160208091040260200160405190810160405280929190818152602001828054611531906146cf565b801561157e5780601f106115535761010080835404028352916020019161157e565b820191906000526020600020905b81548152906001019060200180831161156157829003601f168201915b50505050508152602001600582018054611597906146cf565b80601f01602080910402602001604051908101604052809291908181526020018280546115c3906146cf565b80156116105780601f106115e557610100808354040283529160200191611610565b820191906000526020600020905b8154815290600101906020018083116115f357829003601f168201915b505050505081526020016006820154815260200160078201548152602001600882015481526020016009820160009054906101000a900473ffffffffffffffffffffffffffffffffffffffff1673ffffffffffffffffffffffffffffffffffffffff1673ffffffffffffffffffffffffffffffffffffffff16815250508487815181106116c6577f4e487b7100000000000000000000000000000000000000000000000000000000600052603260045260246000fd5b602002602001018190525085806116dc90614701565b9650505b505080806116ed90614701565b915050610f76565b5060008367ffffffffffffffff811115611738577f4e487b7100000000000000000000000000000000000000000000000000000000600052604160045260246000fd5b6040519080825280602002602001820160405280156117665781602001602082028036833780820191505090505b50905060008467ffffffffffffffff8111156117ab577f4e487b7100000000000000000000000000000000000000000000000000000000600052604160045260246000fd5b6040519080825280602002602001820160405280156117e457816020015b6117d16133cf565b8152602001906001900390816117c95790505b50905060005b858110156119105784818151811061182b577f4e487b7100000000000000000000000000000000000000000000000000000000600052603260045260246000fd5b602002602001015183828151811061186c577f4e487b7100000000000000000000000000000000000000000000000000000000600052603260045260246000fd5b6020026020010181815250508381815181106118b1577f4e487b7100000000000000000000000000000000000000000000000000000000600052603260045260246000fd5b60200260200101518282815181106118f2577f4e487b7100000000000000000000000000000000000000000000000000000000600052603260045260246000fd5b6020026020010181905250808061190890614701565b9150506117ea565b50818196509650505050505094509492505050565b6060806000806000600160008773ffffffffffffffffffffffffffffffffffffffff1673ffffffffffffffffffffffffffffffffffffffff168152602001908152602001600020604051806080016040529081600082018054611987906146cf565b80601f01602080910402602001604051908101604052809291908181526020018280546119b3906146cf565b8015611a005780601f106119d557610100808354040283529160200191611a00565b820191906000526020600020905b8154815290600101906020018083116119e357829003601f168201915b50505050508152602001600182018054611a19906146cf565b80601f0160208091040260200160405190810160405280929190818152602001828054611a45906146cf565b8015611a925780601f10611a6757610100808354040283529160200191611a92565b820191906000526020600020905b815481529060010190602001808311611a7557829003601f168201915b505050505081526020016002820160009054906101000a900460ff161515151581526020016002820160019054906101000a900460ff161515151581525050905080600001518160200151826040015183606001519450945094509450509193509193565b6003602052816000526040600020602052806000526040600020600091509150505481565b600160003373ffffffffffffffffffffffffffffffffffffffff1673ffffffffffffffffffffffffffffffffffffffff16815260200190815260200160002060020160009054906101000a900460ff16611bab576040517f08c379a0000000000000000000000000000000000000000000000000000000008152600401611ba290614264565b60405180910390fd5b600160003373ffffffffffffffffffffffffffffffffffffffff1673ffffffffffffffffffffffffffffffffffffffff16815260200190815260200160002060020160019054906101000a900460ff16611c3a576040517f08c379a0000000000000000000000000000000000000000000000000000000008152600401611c3190614284565b60405180910390fd5b600073ffffffffffffffffffffffffffffffffffffffff1660008084815260200190815260200160002060090160009054906101000a900473ffffffffffffffffffffffffffffffffffffffff1673ffffffffffffffffffffffffffffffffffffffff161415611cdf576040517f08c379a0000000000000000000000000000000000000000000000000000000008152600401611cd690614224565b60405180910390fd5b60018110158015611cf1575060058111155b611d30576040517f08c379a0000000000000000000000000000000000000000000000000000000008152600401611d27906141e4565b60405180910390fd5b60006003600084815260200190815260200160002060003373ffffffffffffffffffffffffffffffffffffffff1673ffffffffffffffffffffffffffffffffffffffff1681526020019081526020016000205414611dc3576040517f08c379a0000000000000000000000000000000000000000000000000000000008152600401611dba90614204565b60405180910390fd5b806003600084815260200190815260200160002060003373ffffffffffffffffffffffffffffffffffffffff1673ffffffffffffffffffffffffffffffffffffffff16815260200190815260200160002081905550806000808481526020019081526020016000206006016000828254611e3d919061454d565b925050819055506000808381526020019081526020016000206007016000815480929190611e6a90614701565b91905055507f5a90108db35c713ec6356a9abbb3f1f006f75e48a06998c0616e9dbe5dea6410823383604051611ea293929190614366565b60405180910390a15050565b6000602052806000526040600020600091509050806000018054611ed1906146cf565b80601f0160208091040260200160405190810160405280929190818152602001828054611efd906146cf565b8015611f4a5780601f10611f1f57610100808354040283529160200191611f4a565b820191906000526020600020905b815481529060010190602001808311611f2d57829003601f168201915b505050505090806001018054611f5f906146cf565b80601f0160208091040260200160405190810160405280929190818152602001828054611f8b906146cf565b8015611fd85780601f10611fad57610100808354040283529160200191611fd8565b820191906000526020600020905b815481529060010190602001808311611fbb57829003601f168201915b505050505090806002018054611fed906146cf565b80601f0160208091040260200160405190810160405280929190818152602001828054612019906146cf565b80156120665780601f1061203b57610100808354040283529160200191612066565b820191906000526020600020905b81548152906001019060200180831161204957829003601f168201915b50505050509080600301805461207b906146cf565b80601f01602080910402602001604051908101604052809291908181526020018280546120a7906146cf565b80156120f45780601f106120c9576101008083540402835291602001916120f4565b820191906000526020600020905b8154815290600101906020018083116120d757829003601f168201915b505050505090806004018054612109906146cf565b80601f0160208091040260200160405190810160405280929190818152602001828054612135906146cf565b80156121825780601f1061215757610100808354040283529160200191612182565b820191906000526020600020905b81548152906001019060200180831161216557829003601f168201915b505050505090806005018054612197906146cf565b80601f01602080910402602001604051908101604052809291908181526020018280546121c3906146cf565b80156122105780601f106121e557610100808354040283529160200191612210565b820191906000526020600020905b8154815290600101906020018083116121f357829003601f168201915b5050505050908060060154908060070154908060080154908060090160009054906101000a900473ffffffffffffffffffffffffffffffffffffffff1690508a565b606060026000838152602001908152602001600020805480602002602001604051908101604052809291908181526020016000905b828210156123ab57838290600052602060002090600302016040518060600160405290816000820160009054906101000a900473ffffffffffffffffffffffffffffffffffffffff1673ffffffffffffffffffffffffffffffffffffffff1673ffffffffffffffffffffffffffffffffffffffff168152602001600182018054612310906146cf565b80601f016020809104026020016040519081016040528092919081815260200182805461233c906146cf565b80156123895780601f1061235e57610100808354040283529160200191612389565b820191906000526020600020905b81548152906001019060200180831161236c57829003601f168201915b5050505050815260200160028201548152505081526020019060010190612287565b505050509050919050565b600160003373ffffffffffffffffffffffffffffffffffffffff1673ffffffffffffffffffffffffffffffffffffffff16815260200190815260200160002060020160009054906101000a900460ff16612445576040517f08c379a000000000000000000000000000000000000000000000000000000000815260040161243c906142c4565b60405180910390fd5b600160003373ffffffffffffffffffffffffffffffffffffffff1673ffffffffffffffffffffffffffffffffffffffff16815260200190815260200160002060020160019054906101000a900460ff16156124d5576040517f08c379a00000000000000000000000000000000000000000000000000000000081526004016124cc906141c4565b60405180910390fd5b60018060003373ffffffffffffffffffffffffffffffffffffffff1673ffffffffffffffffffffffffffffffffffffffff16815260200190815260200160002060020160016101000a81548160ff0219169083151502179055503373ffffffffffffffffffffffffffffffffffffffff167f8d15fde878cff665868ed7579eb5081db6508d4249df61dcdd7699a5301d987460405160405180910390a2565b60055481565b6002602052816000526040600020818154811061259657600080fd5b9060005260206000209060030201600091509150508060000160009054906101000a900473ffffffffffffffffffffffffffffffffffffffff16908060010180546125e0906146cf565b80601f016020809104026020016040519081016040528092919081815260200182805461260c906146cf565b80156126595780601f1061262e57610100808354040283529160200191612659565b820191906000526020600020905b81548152906001019060200180831161263c57829003601f168201915b5050505050908060020154905083565b606060068054806020026020016040519081016040528092919081815260200182805480156126ed57602002820191906000526020600020905b8160009054906101000a900473ffffffffffffffffffffffffffffffffffffffff1673ffffffffffffffffffffffffffffffffffffffff16815260200190600101908083116126a3575b5050505050905090565b600160003373ffffffffffffffffffffffffffffffffffffffff1673ffffffffffffffffffffffffffffffffffffffff16815260200190815260200160002060020160009054906101000a900460ff16612786576040517f08c379a000000000000000000000000000000000000000000000000000000000815260040161277d90614264565b60405180910390fd5b600160003373ffffffffffffffffffffffffffffffffffffffff1673ffffffffffffffffffffffffffffffffffffffff16815260200190815260200160002060020160019054906101000a900460ff16612815576040517f08c379a000000000000000000000000000000000000000000000000000000000815260040161280c90614284565b60405180910390fd5b600073ffffffffffffffffffffffffffffffffffffffff1660008084815260200190815260200160002060090160009054906101000a900473ffffffffffffffffffffffffffffffffffffffff1673ffffffffffffffffffffffffffffffffffffffff1614156128ba576040517f08c379a00000000000000000000000000000000000000000000000000000000081526004016128b190614224565b60405180910390fd5b600060405180606001604052803373ffffffffffffffffffffffffffffffffffffffff1681526020018381526020014281525090506002600084815260200190815260200160002081908060018154018082558091505060019003906000526020600020906003020160009091909190915060008201518160000160006101000a81548173ffffffffffffffffffffffffffffffffffffffff021916908373ffffffffffffffffffffffffffffffffffffffff160217905550602082015181600101908051906020019061298f929190613349565b506040820151816002015550507f279d5614862445216877d543708664e73d87439c98f65d81d5163ed98ad2d6038333846040516129cf93929190614328565b60405180910390a1505050565b606080606080606080600080600080600073ffffffffffffffffffffffffffffffffffffffff166000808d815260200190815260200160002060090160009054906101000a900473ffffffffffffffffffffffffffffffffffffffff1673ffffffffffffffffffffffffffffffffffffffff161415612a90576040517f08c379a0000000000000000000000000000000000000000000000000000000008152600401612a8790614224565b60405180910390fd5b60008060008d815260200190815260200160002090508060000181600101826002018360030184600401856005018660060154876007015488600801548960090160009054906101000a900473ffffffffffffffffffffffffffffffffffffffff16898054612afe906146cf565b80601f0160208091040260200160405190810160405280929190818152602001828054612b2a906146cf565b8015612b775780601f10612b4c57610100808354040283529160200191612b77565b820191906000526020600020905b815481529060010190602001808311612b5a57829003601f168201915b50505050509950888054612b8a906146cf565b80601f0160208091040260200160405190810160405280929190818152602001828054612bb6906146cf565b8015612c035780601f10612bd857610100808354040283529160200191612c03565b820191906000526020600020905b815481529060010190602001808311612be657829003601f168201915b50505050509850878054612c16906146cf565b80601f0160208091040260200160405190810160405280929190818152602001828054612c42906146cf565b8015612c8f5780601f10612c6457610100808354040283529160200191612c8f565b820191906000526020600020905b815481529060010190602001808311612c7257829003601f168201915b50505050509750868054612ca2906146cf565b80601f0160208091040260200160405190810160405280929190818152602001828054612cce906146cf565b8015612d1b5780601f10612cf057610100808354040283529160200191612d1b565b820191906000526020600020905b815481529060010190602001808311612cfe57829003601f168201915b50505050509650858054612d2e906146cf565b80601f0160208091040260200160405190810160405280929190818152602001828054612d5a906146cf565b8015612da75780601f10612d7c57610100808354040283529160200191612da7565b820191906000526020600020905b815481529060010190602001808311612d8a57829003601f168201915b50505050509550848054612dba906146cf565b80601f0160208091040260200160405190810160405280929190818152602001828054612de6906146cf565b8015612e335780601f10612e0857610100808354040283529160200191612e33565b820191906000526020600020905b815481529060010190602001808311612e1657829003601f168201915b505050505094509a509a509a509a509a509a509a509a509a509a50509193959799509193959799565b60046020528160005260406000206020528060005260406000206000915091509054906101000a900460ff1681565b6000808390506000839050600081511415612eab57600192505050613043565b815181511115612ec057600092505050613043565b6000612ecb86613049565b90506000612ed886613049565b90506000600182518451612eec91906145da565b612ef6919061454d565b905060005b818110156130385760006001905060005b845181101561300d57848181518110612f4e577f4e487b7100000000000000000000000000000000000000000000000000000000600052603260045260246000fd5b602001015160f81c60f81b7effffffffffffffffffffffffffffffffffffffffffffffffffffffffffffff1916868285612f88919061454d565b81518110612fbf577f4e487b7100000000000000000000000000000000000000000000000000000000600052603260045260246000fd5b602001015160f81c60f81b7effffffffffffffffffffffffffffffffffffffffffffffffffffffffffffff191614612ffa576000915061300d565b808061300590614701565b915050612f0c565b508015613024576001975050505050505050613043565b50808061303090614701565b915050612efb565b506000955050505050505b92915050565b606060008290506000815167ffffffffffffffff811115613093577f4e487b7100000000000000000000000000000000000000000000000000000000600052604160045260246000fd5b6040519080825280601f01601f1916602001820160405280156130c55781602001600182028036833780820191505090505b50905060005b825181101561333e57604160f81b838281518110613112577f4e487b7100000000000000000000000000000000000000000000000000000000600052603260045260246000fd5b602001015160f81c60f81b7effffffffffffffffffffffffffffffffffffffffffffffffffffffffffffff1916101580156131b65750605a60f81b838281518110613186577f4e487b7100000000000000000000000000000000000000000000000000000000600052603260045260246000fd5b602001015160f81c60f81b7effffffffffffffffffffffffffffffffffffffffffffffffffffffffffffff191611155b1561327e5760208382815181106131f6577f4e487b7100000000000000000000000000000000000000000000000000000000600052603260045260246000fd5b602001015160f81c60f81b60f81c61320e91906145a3565b60f81b82828151811061324a577f4e487b7100000000000000000000000000000000000000000000000000000000600052603260045260246000fd5b60200101907effffffffffffffffffffffffffffffffffffffffffffffffffffffffffffff1916908160001a90535061332b565b8281815181106132b7577f4e487b7100000000000000000000000000000000000000000000000000000000600052603260045260246000fd5b602001015160f81c60f81b8282815181106132fb577f4e487b7100000000000000000000000000000000000000000000000000000000600052603260045260246000fd5b60200101907effffffffffffffffffffffffffffffffffffffffffffffffffffffffffffff1916908160001a9053505b808061333690614701565b9150506130cb565b508092505050919050565b828054613355906146cf565b90600052602060002090601f01602090048101928261337757600085556133be565b82601f1061339057805160ff19168380011785556133be565b828001600101855582156133be579182015b828111156133bd5782518255916020019190600101906133a2565b5b5090506133cb9190613438565b5090565b604051806101400160405280606081526020016060815260200160608152602001606081526020016060815260200160608152602001600081526020016000815260200160008152602001600073ffffffffffffffffffffffffffffffffffffffff1681525090565b5b80821115613451576000816000905550600101613439565b5090565b60006134686134638461440c565b6143db565b90508281526020810184848401111561348057600080fd5b61348b848285614663565b509392505050565b6000813590506134a2816147e8565b92915050565b600082601f8301126134b957600080fd5b81356134c9848260208601613455565b91505092915050565b6000813590506134e1816147ff565b92915050565b6000602082840312156134f957600080fd5b600061350784828501613493565b91505092915050565b6000806040838503121561352357600080fd5b600083013567ffffffffffffffff81111561353d57600080fd5b613549858286016134a8565b925050602083013567ffffffffffffffff81111561356657600080fd5b613572858286016134a8565b9150509250929050565b6000806000806080858703121561359257600080fd5b600085013567ffffffffffffffff8111156135ac57600080fd5b6135b8878288016134a8565b945050602085013567ffffffffffffffff8111156135d557600080fd5b6135e1878288016134a8565b935050604085013567ffffffffffffffff8111156135fe57600080fd5b61360a878288016134a8565b925050606085013567ffffffffffffffff81111561362757600080fd5b613633878288016134a8565b91505092959194509250565b60008060008060008060c0878903121561365857600080fd5b600087013567ffffffffffffffff81111561367257600080fd5b61367e89828a016134a8565b965050602087013567ffffffffffffffff81111561369b57600080fd5b6136a789828a016134a8565b955050604087013567ffffffffffffffff8111156136c457600080fd5b6136d089828a016134a8565b945050606087013567ffffffffffffffff8111156136ed57600080fd5b6136f989828a016134a8565b935050608087013567ffffffffffffffff81111561371657600080fd5b61372289828a016134a8565b92505060a087013567ffffffffffffffff81111561373f57600080fd5b61374b89828a016134a8565b9150509295509295509295565b60006020828403121561376a57600080fd5b6000613778848285016134d2565b91505092915050565b6000806040838503121561379457600080fd5b60006137a2858286016134d2565b92505060206137b385828601613493565b9150509250929050565b600080604083850312156137d057600080fd5b60006137de858286016134d2565b925050602083013567ffffffffffffffff8111156137fb57600080fd5b613807858286016134a8565b9150509250929050565b6000806040838503121561382457600080fd5b6000613832858286016134d2565b9250506020613843858286016134d2565b9150509250929050565b600061385983836138a5565b60208301905092915050565b60006138718383613dea565b905092915050565b60006138858383613e3a565b905092915050565b60006138998383613f37565b60208301905092915050565b6138ae8161460e565b82525050565b6138bd8161460e565b82525050565b60006138ce8261447c565b6138d881856144e7565b93506138e38361443c565b8060005b838110156139145781516138fb888261384d565b9750613906836144b3565b9250506001810190506138e7565b5085935050505092915050565b600061392c82614487565b61393681856144f8565b9350836020820285016139488561444c565b8060005b8581101561398457848403895281516139658582613865565b9450613970836144c0565b925060208a0199505060018101905061394c565b50829750879550505050505092915050565b60006139a182614492565b6139ab8185614509565b9350836020820285016139bd8561445c565b8060005b858110156139f957848403895281516139da8582613879565b94506139e5836144cd565b925060208a019950506001810190506139c1565b50829750879550505050505092915050565b6000613a168261449d565b613a20818561451a565b9350613a2b8361446c565b8060005b83811015613a5c578151613a43888261388d565b9750613a4e836144da565b925050600181019050613a2f565b5085935050505092915050565b613a7281614620565b82525050565b6000613a83826144a8565b613a8d818561452b565b9350613a9d818560208601614672565b613aa6816147d7565b840191505092915050565b6000613abc826144a8565b613ac6818561453c565b9350613ad6818560208601614672565b613adf816147d7565b840191505092915050565b6000613af760178361453c565b91507f4e616d6120746964616b20626f6c6568206b6f736f6e670000000000000000006000830152602082019050919050565b6000613b3760198361453c565b91507f50617373776f7264206861736820746964616b2076616c6964000000000000006000830152602082019050919050565b6000613b7760148361453c565b91507f416b756e207375646168207465726461667461720000000000000000000000006000830152602082019050919050565b6000613bb7600b8361453c565b91507f5375646168206c6f67696e0000000000000000000000000000000000000000006000830152602082019050919050565b6000613bf7601e8361453c565b91507f526174696e6720686172757320616e7461726120312068696e676761203500006000830152602082019050919050565b6000613c3760198361453c565b91507f416e6461207375646168206d656d6265726920726174696e67000000000000006000830152602082019050919050565b6000613c7760178361453c565b91507f54616e616d616e20746964616b20646974656d756b616e0000000000000000006000830152602082019050919050565b6000613cb7600b8361453c565b91507f42656c756d206c6f67696e0000000000000000000000000000000000000000006000830152602082019050919050565b6000613cf760148361453c565b91507f416e6461206861727573207465726461667461720000000000000000000000006000830152602082019050919050565b6000613d3760108361453c565b91507f416e6461206861727573206c6f67696e000000000000000000000000000000006000830152602082019050919050565b6000613d7760178361453c565b91507f4e616d612074616e616d616e2064697065726c756b616e0000000000000000006000830152602082019050919050565b6000613db760188361453c565b91507f50656e6767756e6120746964616b2074657264616674617200000000000000006000830152602082019050919050565b6000606083016000830151613e0260008601826138a5565b5060208301518482036020860152613e1a8282613a78565b9150506040830151613e2f6040860182613f37565b508091505092915050565b6000610140830160008301518482036000860152613e588282613a78565b91505060208301518482036020860152613e728282613a78565b91505060408301518482036040860152613e8c8282613a78565b91505060608301518482036060860152613ea68282613a78565b91505060808301518482036080860152613ec08282613a78565b91505060a083015184820360a0860152613eda8282613a78565b91505060c0830151613eef60c0860182613f37565b5060e0830151613f0260e0860182613f37565b50610100830151613f17610100860182613f37565b50610120830151613f2c6101208601826138a5565b508091505092915050565b613f408161464c565b82525050565b613f4f8161464c565b82525050565b6000606082019050613f6a60008301866138b4565b8181036020830152613f7c8185613ab1565b9050613f8b6040830184613f46565b949350505050565b60006020820190508181036000830152613fad81846138c3565b905092915050565b60006020820190508181036000830152613fcf8184613921565b905092915050565b60006040820190508181036000830152613ff18185613a0b565b905081810360208301526140058184613996565b90509392505050565b60006020820190506140236000830184613a69565b92915050565b600060208201905081810360008301526140438184613ab1565b905092915050565b600060808201905081810360008301526140658187613ab1565b905081810360208301526140798186613ab1565b90506140886040830185613a69565b6140956060830184613a69565b95945050505050565b60006101408201905081810360008301526140b9818d613ab1565b905081810360208301526140cd818c613ab1565b905081810360408301526140e1818b613ab1565b905081810360608301526140f5818a613ab1565b905081810360808301526141098189613ab1565b905081810360a083015261411d8188613ab1565b905061412c60c0830187613f46565b61413960e0830186613f46565b614147610100830185613f46565b6141556101208301846138b4565b9b9a5050505050505050505050565b6000602082019050818103600083015261417d81613aea565b9050919050565b6000602082019050818103600083015261419d81613b2a565b9050919050565b600060208201905081810360008301526141bd81613b6a565b9050919050565b600060208201905081810360008301526141dd81613baa565b9050919050565b600060208201905081810360008301526141fd81613bea565b9050919050565b6000602082019050818103600083015261421d81613c2a565b9050919050565b6000602082019050818103600083015261423d81613c6a565b9050919050565b6000602082019050818103600083015261425d81613caa565b9050919050565b6000602082019050818103600083015261427d81613cea565b9050919050565b6000602082019050818103600083015261429d81613d2a565b9050919050565b600060208201905081810360008301526142bd81613d6a565b9050919050565b600060208201905081810360008301526142dd81613daa565b9050919050565b60006020820190506142f96000830184613f46565b92915050565b60006040820190506143146000830185613f46565b61432160208301846138b4565b9392505050565b600060608201905061433d6000830186613f46565b61434a60208301856138b4565b818103604083015261435c8184613ab1565b9050949350505050565b600060608201905061437b6000830186613f46565b61438860208301856138b4565b6143956040830184613f46565b949350505050565b60006060820190506143b26000830186613f46565b81810360208301526143c48185613ab1565b90506143d360408301846138b4565b949350505050565b6000604051905081810181811067ffffffffffffffff82111715614402576144016147a8565b5b8060405250919050565b600067ffffffffffffffff821115614427576144266147a8565b5b601f19601f8301169050602081019050919050565b6000819050602082019050919050565b6000819050602082019050919050565b6000819050602082019050919050565b6000819050602082019050919050565b600081519050919050565b600081519050919050565b600081519050919050565b600081519050919050565b600081519050919050565b6000602082019050919050565b6000602082019050919050565b6000602082019050919050565b6000602082019050919050565b600082825260208201905092915050565b600082825260208201905092915050565b600082825260208201905092915050565b600082825260208201905092915050565b600082825260208201905092915050565b600082825260208201905092915050565b60006145588261464c565b91506145638361464c565b9250827fffffffffffffffffffffffffffffffffffffffffffffffffffffffffffffffff038211156145985761459761474a565b5b828201905092915050565b60006145ae82614656565b91506145b983614656565b92508260ff038211156145cf576145ce61474a565b5b828201905092915050565b60006145e58261464c565b91506145f08361464c565b9250828210156146035761460261474a565b5b828203905092915050565b60006146198261462c565b9050919050565b60008115159050919050565b600073ffffffffffffffffffffffffffffffffffffffff82169050919050565b6000819050919050565b600060ff82169050919050565b82818337600083830152505050565b60005b83811015614690578082015181840152602081019050614675565b8381111561469f576000848401525b50505050565b60006146b08261464c565b915060008214156146c4576146c361474a565b5b600182039050919050565b600060028204905060018216806146e757607f821691505b602082108114156146fb576146fa614779565b5b50919050565b600061470c8261464c565b91507fffffffffffffffffffffffffffffffffffffffffffffffffffffffffffffffff82141561473f5761473e61474a565b5b600182019050919050565b7f4e487b7100000000000000000000000000000000000000000000000000000000600052601160045260246000fd5b7f4e487b7100000000000000000000000000000000000000000000000000000000600052602260045260246000fd5b7f4e487b7100000000000000000000000000000000000000000000000000000000600052604160045260246000fd5b6000601f19601f8301169050919050565b6147f18161460e565b81146147fc57600080fd5b50565b6148088161464c565b811461481357600080fd5b5056fea2646970667358221220b21569adc0a71110e6d9bb5e5bcd03cf95a465612742835c925a4d1cf8fb21a164736f6c63430008000033",
  "immutableReferences": {},
  "source": "// SPDX-License-Identifier: MIT\r\npragma solidity ^0.8.0;\r\n\r\ncontract HerbalPlant {\r\n    struct Plant {\r\n        string name;\r\n        string namaLatin;\r\n        string komposisi;\r\n        string kegunaan;\r\n        string caraPengolahan;\r\n        string ipfsHash;\r\n        uint ratingTotal;\r\n        uint ratingCount;\r\n        uint likeCount;\r\n        address owner;\r\n    }\r\n\r\n    struct User {\r\n        string fullName;\r\n        string hashPass;  // Store hashed password\r\n        bool isRegistered;\r\n        bool isLoggedIn;\r\n    }\r\n\r\n    struct Comment {\r\n        address user;\r\n        string comment;\r\n        uint timestamp;\r\n    }\r\n\r\n    mapping(uint => Plant) public plants;\r\n    mapping(address => User) private usersByPublicKey;\r\n    mapping(uint => Comment[]) public plantComments;  // Mapping for plant comments\r\n    mapping(uint => mapping(address => uint)) public plantRatings;\r\n    mapping(uint => mapping(address => bool)) public plantLikes;\r\n\r\n    uint public plantCount;\r\n    address[] private registeredUsers;\r\n\r\n    event PlantAdded(uint plantId, string name, address owner);\r\n    event PlantRated(uint plantId, address user, uint rating);\r\n    event PlantLiked(uint plantId, address user);\r\n    event UserRegistered(address indexed publicKey, string fullName);\r\n    event UserLoggedIn(address indexed publicKey);\r\n    event UserLoggedOut(address indexed publicKey);\r\n    event PlantCommented(uint plantId, address user, string comment);\r\n\r\n    modifier onlyActiveUser() {\r\n        require(usersByPublicKey[msg.sender].isRegistered, \"Anda harus terdaftar\");\r\n        require(usersByPublicKey[msg.sender].isLoggedIn, \"Anda harus login\");\r\n        _;\r\n    }\r\n\r\n    //  Mendaftarkan user dengan menyimpan password hash di Blockchain\r\n    function registerUser(\r\n        string memory fullName,\r\n        string memory hashPass\r\n    ) public {\r\n        require(bytes(fullName).length > 0, \"Nama tidak boleh kosong\");\r\n        require(bytes(hashPass).length > 0, \"Password hash tidak valid\");\r\n        require(!usersByPublicKey[msg.sender].isRegistered, \"Akun sudah terdaftar\");\r\n\r\n        usersByPublicKey[msg.sender] = User({\r\n            fullName: fullName,\r\n            hashPass: hashPass,\r\n            isRegistered: true,\r\n            isLoggedIn: false\r\n        });\r\n\r\n        registeredUsers.push(msg.sender);\r\n\r\n        emit UserRegistered(msg.sender, fullName);\r\n    }\r\n\r\n    //  Login menggunakan password hash\r\n    function login() public {\r\n        require(usersByPublicKey[msg.sender].isRegistered, \"Pengguna tidak terdaftar\");\r\n        require(!usersByPublicKey[msg.sender].isLoggedIn, \"Sudah login\");\r\n\r\n        usersByPublicKey[msg.sender].isLoggedIn = true;\r\n        emit UserLoggedIn(msg.sender);\r\n    }\r\n\r\n    //  Getter untuk mengambil data user berdasarkan address\r\n    function getUserInfo(address userAddress) public view returns (\r\n        string memory fullName,\r\n        string memory hashPass,\r\n        bool isRegistered,\r\n        bool isLoggedIn\r\n    ) {\r\n        User memory user = usersByPublicKey[userAddress];\r\n        return (\r\n            user.fullName,\r\n            user.hashPass,\r\n            user.isRegistered,\r\n            user.isLoggedIn\r\n        );\r\n    }\r\n\r\n    //  Logout user\r\n    function logout() public {\r\n        require(usersByPublicKey[msg.sender].isLoggedIn, \"Belum login\");\r\n        \r\n        usersByPublicKey[msg.sender].isLoggedIn = false;\r\n        emit UserLoggedOut(msg.sender);\r\n    }\r\n\r\n    //  Menambahkan tanaman herbal\r\n    function addPlant(\r\n        string memory name,\r\n        string memory namaLatin,\r\n        string memory komposisi,\r\n        string memory kegunaan,\r\n        string memory caraPengolahan,\r\n        string memory ipfsHash\r\n    ) public onlyActiveUser {\r\n        require(bytes(name).length > 0, \"Nama tanaman diperlukan\");\r\n\r\n        uint currentId = plantCount; // simpan ID sekarang sebelum increment\r\n\r\n        plants[currentId] = Plant({\r\n            name: name,\r\n            namaLatin: namaLatin,\r\n            komposisi: komposisi,\r\n            kegunaan: kegunaan,\r\n            caraPengolahan: caraPengolahan,\r\n            ipfsHash: ipfsHash,\r\n            ratingTotal: 0,\r\n            ratingCount: 0,\r\n            likeCount: 0,\r\n            owner: msg.sender\r\n        });\r\n\r\n        emit PlantAdded(currentId, name, msg.sender); // gunakan ID yang benar\r\n        plantCount++;\r\n    }\r\n\r\n    //  Memberi rating tanaman herbal (1-5)\r\n    function ratePlant(uint plantId, uint rating) public onlyActiveUser {\r\n        require(plants[plantId].owner != address(0), \"Tanaman tidak ditemukan\");\r\n        require(rating >= 1 && rating <= 5, \"Rating harus antara 1 hingga 5\");\r\n        require(plantRatings[plantId][msg.sender] == 0, \"Anda sudah memberi rating\");\r\n\r\n        plantRatings[plantId][msg.sender] = rating;\r\n        plants[plantId].ratingTotal += rating;\r\n        plants[plantId].ratingCount++;\r\n\r\n        emit PlantRated(plantId, msg.sender, rating);\r\n    }\r\n\r\n    //  Menyukai tanaman herbal\r\n    function likePlant(uint plantId) public onlyActiveUser {\r\n    require(plants[plantId].owner != address(0), \"Tanaman tidak ditemukan\");\r\n\r\n    // Jika pengguna sudah memberi like sebelumnya, hapus like tersebut\r\n    if (plantLikes[plantId][msg.sender]) {\r\n        plantLikes[plantId][msg.sender] = false;\r\n        plants[plantId].likeCount--;\r\n        emit PlantLiked(plantId, msg.sender); // Emit event jika perlu\r\n    } else {\r\n        // Jika belum memberi like, beri like\r\n        plantLikes[plantId][msg.sender] = true;\r\n        plants[plantId].likeCount++;\r\n        emit PlantLiked(plantId, msg.sender); // Emit event jika perlu\r\n    }\r\n    }\r\n\r\n    //  Memberikan komentar/testimoni pada tanaman\r\n    function commentPlant(uint plantId, string memory comment) public onlyActiveUser {\r\n        require(plants[plantId].owner != address(0), \"Tanaman tidak ditemukan\");\r\n\r\n        Comment memory newComment = Comment({\r\n            user: msg.sender,\r\n            comment: comment,\r\n            timestamp: block.timestamp\r\n        });\r\n\r\n        plantComments[plantId].push(newComment);\r\n\r\n        emit PlantCommented(plantId, msg.sender, comment);\r\n    }\r\n\r\n    //  Mengambil detail tanaman herbal\r\n    function getPlant(uint plantId)\r\n    public\r\n    view\r\n    returns (\r\n        string memory name,\r\n        string memory namaLatin,\r\n        string memory komposisi,\r\n        string memory kegunaan,\r\n        string memory caraPengolahan,\r\n        string memory ipfsHash,\r\n        uint ratingTotal,\r\n        uint ratingCount,\r\n        uint likeCount,\r\n        address owner\r\n    )\r\n    {\r\n    require(plants[plantId].owner != address(0), \"Tanaman tidak ditemukan\");\r\n\r\n    Plant storage plant = plants[plantId];\r\n\r\n    return (\r\n        plant.name,\r\n        plant.namaLatin,\r\n        plant.komposisi,\r\n        plant.kegunaan,\r\n        plant.caraPengolahan,\r\n        plant.ipfsHash,\r\n        plant.ratingTotal,\r\n        plant.ratingCount,\r\n        plant.likeCount,\r\n        plant.owner\r\n    );\r\n    }\r\n\r\n    //  Fungsi untuk mencari tanaman berdasarkan nama, nama latin, komposisi, atau kegunaan\r\n    function searchPlants(\r\n    string memory name, \r\n    string memory namaLatin, \r\n    string memory komposisi, \r\n    string memory kegunaan\r\n) \r\n    public view\r\n    returns (uint[] memory, Plant[] memory) // Return 2 array: IDs dan data tanaman\r\n{\r\n    uint plantIndex = 0;\r\n    uint[] memory idResults = new uint[](plantCount);\r\n    Plant[] memory plantResults = new Plant[](plantCount);\r\n\r\n    // Loop melalui semua tanaman yang tersimpan\r\n    for (uint i = 0; i < plantCount; i++) {\r\n        Plant storage currentPlant = plants[i];\r\n        bool isMatch = true;\r\n\r\n        // Lakukan pencarian untuk setiap parameter yang diisi\r\n        if (bytes(name).length > 0 && !contains(currentPlant.name, name)) isMatch = false;\r\n        if (bytes(namaLatin).length > 0 && !contains(currentPlant.namaLatin, namaLatin)) isMatch = false;\r\n        if (bytes(komposisi).length > 0 && !contains(currentPlant.komposisi, komposisi)) isMatch = false;\r\n        if (bytes(kegunaan).length > 0 && !contains(currentPlant.kegunaan, kegunaan)) isMatch = false;\r\n\r\n        // Jika memenuhi kriteria, tambahkan ke hasil\r\n        if (isMatch) {\r\n            idResults[plantIndex] = i; // Simpan ID tanaman (index)\r\n            plantResults[plantIndex] = currentPlant; // Simpan data lengkap\r\n            plantIndex++;\r\n        }\r\n    }\r\n\r\n    // Buat array hasil dengan ukuran yang tepat\r\n    uint[] memory finalIds = new uint[](plantIndex);\r\n    Plant[] memory finalPlants = new Plant[](plantIndex);\r\n\r\n    // Salin data dari array sementara ke array final\r\n    for (uint i = 0; i < plantIndex; i++) {\r\n        finalIds[i] = idResults[i];\r\n        finalPlants[i] = plantResults[i];\r\n    }\r\n\r\n    // Kembalikan sebagai tuple (2 array terpisah)\r\n    return (finalIds, finalPlants);\r\n}\r\n\r\n    //  Fungsi untuk mengecek apakah sebuah string mengandung substring tertentu (case-insensitive)\r\n    function contains(string memory haystack, string memory needle) internal pure returns (bool) {\r\n        bytes memory haystackBytes = bytes(haystack);\r\n        bytes memory needleBytes = bytes(needle);\r\n        \r\n        // Handle kasus khusus: needle kosong selalu dianggap ada\r\n        if (needleBytes.length == 0) return true;\r\n        \r\n        // Handle kasus dimana needle lebih panjang dari haystack\r\n        if (needleBytes.length > haystackBytes.length) return false;\r\n\r\n        // Konversi ke lowercase sekali saja di awal\r\n        bytes memory haystackLower = bytes(toLowerCase(haystack));\r\n        bytes memory needleLower = bytes(toLowerCase(needle));\r\n\r\n        // Optimasi: Batasi jumlah iterasi yang diperlukan\r\n        uint maxIterations = haystackLower.length - needleLower.length + 1;\r\n        \r\n        for (uint i = 0; i < maxIterations; i++) {\r\n            bool isMatch = true;\r\n            \r\n            // Periksa karakter per karakter\r\n            for (uint j = 0; j < needleLower.length; j++) {\r\n                if (haystackLower[i + j] != needleLower[j]) {\r\n                    isMatch = false;\r\n                    break; // Berhenti jika ada ketidakcocokan\r\n                }\r\n            }\r\n            \r\n            if (isMatch) return true;\r\n        }\r\n        \r\n        return false;\r\n    }\r\n\r\n    //  Fungsi untuk konversi string ke lowercase\r\n    function toLowerCase(string memory str) internal pure returns (string memory) {\r\n        bytes memory strBytes = bytes(str);\r\n        bytes memory lowerBytes = new bytes(strBytes.length);\r\n        \r\n        for (uint i = 0; i < strBytes.length; i++) {\r\n            // Cek apakah karakter adalah A-Z (0x41-0x5A)\r\n            if (strBytes[i] >= 0x41 && strBytes[i] <= 0x5A) {\r\n                lowerBytes[i] = bytes1(uint8(strBytes[i]) + 32); // Konversi ke lowercase\r\n            } else {\r\n                lowerBytes[i] = strBytes[i]; // Pertahankan karakter lain\r\n            }\r\n        }\r\n        \r\n        return string(lowerBytes);\r\n    }\r\n\r\n    //  Mengambil komentar/testimoni tanaman herbal\r\n    function getPlantComments(uint plantId) public view returns (Comment[] memory) {\r\n        return plantComments[plantId];\r\n    }\r\n\r\n    //  Mengambil semua user yang terdaftar\r\n    function getAllUsers() public view returns (address[] memory) {\r\n        return registeredUsers;\r\n    }\r\n}\r\n",
  "sourcePath": "D:\\Kuliah\\TA\\Integrated Project\\middleware\\contracts\\HerbalPlant.sol",
  "compiler": {
    "name": "solc",
    "version": "0.8.0+commit.c7dfd78e.Emscripten.clang"
  },
  "schemaVersion": "3.4.16",
  "updatedAt": "2025-03-28T01:57:11.771Z",
  "networkType": "ethereum",
  "devdoc": {
    "kind": "dev",
    "methods": {},
    "version": 1
  },
  "userdoc": {
    "kind": "user",
    "methods": {},
    "version": 1
  }
}