{
  "contractName": "HerbalPlant",
  "abi": [
    {
      "anonymous": false,
      "inputs": [
        {
          "indexed": false,
          "internalType": "uint256",
          "name": "plantId",
          "type": "uint256"
        },
        {
          "indexed": false,
          "internalType": "string",
          "name": "name",
          "type": "string"
        },
        {
          "indexed": false,
          "internalType": "address",
          "name": "owner",
          "type": "address"
        }
      ],
      "name": "PlantAdded",
      "type": "event"
    },
    {
      "anonymous": false,
      "inputs": [
        {
          "indexed": false,
          "internalType": "uint256",
          "name": "plantId",
          "type": "uint256"
        },
        {
          "indexed": false,
          "internalType": "address",
          "name": "user",
          "type": "address"
        },
        {
          "indexed": false,
          "internalType": "string",
          "name": "comment",
          "type": "string"
        }
      ],
      "name": "PlantCommented",
      "type": "event"
    },
    {
      "anonymous": false,
      "inputs": [
        {
          "indexed": false,
          "internalType": "uint256",
          "name": "plantId",
          "type": "uint256"
        },
        {
          "indexed": false,
          "internalType": "address",
          "name": "user",
          "type": "address"
        }
      ],
      "name": "PlantLiked",
      "type": "event"
    },
    {
      "anonymous": false,
      "inputs": [
        {
          "indexed": false,
          "internalType": "uint256",
          "name": "plantId",
          "type": "uint256"
        },
        {
          "indexed": false,
          "internalType": "address",
          "name": "user",
          "type": "address"
        },
        {
          "indexed": false,
          "internalType": "uint256",
          "name": "rating",
          "type": "uint256"
        }
      ],
      "name": "PlantRated",
      "type": "event"
    },
    {
      "anonymous": false,
      "inputs": [
        {
          "indexed": true,
          "internalType": "uint256",
          "name": "recordId",
          "type": "uint256"
        },
        {
          "indexed": false,
          "internalType": "string",
          "name": "ganacheTxHash",
          "type": "string"
        },
        {
          "indexed": false,
          "internalType": "uint256",
          "name": "plantId",
          "type": "uint256"
        },
        {
          "indexed": false,
          "internalType": "address",
          "name": "userAddress",
          "type": "address"
        },
        {
          "indexed": false,
          "internalType": "uint256",
          "name": "timestamp",
          "type": "uint256"
        }
      ],
      "name": "PlantRecordAdded",
      "type": "event"
    },
    {
      "anonymous": false,
      "inputs": [
        {
          "indexed": true,
          "internalType": "address",
          "name": "publicKey",
          "type": "address"
        }
      ],
      "name": "UserLoggedIn",
      "type": "event"
    },
    {
      "anonymous": false,
      "inputs": [
        {
          "indexed": true,
          "internalType": "address",
          "name": "publicKey",
          "type": "address"
        }
      ],
      "name": "UserLoggedOut",
      "type": "event"
    },
    {
      "anonymous": false,
      "inputs": [
        {
          "indexed": true,
          "internalType": "address",
          "name": "publicKey",
          "type": "address"
        },
        {
          "indexed": false,
          "internalType": "string",
          "name": "fullName",
          "type": "string"
        }
      ],
      "name": "UserRegistered",
      "type": "event"
    },
    {
      "inputs": [
        {
          "internalType": "uint256",
          "name": "",
          "type": "uint256"
        },
        {
          "internalType": "uint256",
          "name": "",
          "type": "uint256"
        }
      ],
      "name": "plantComments",
      "outputs": [
        {
          "internalType": "address",
          "name": "user",
          "type": "address"
        },
        {
          "internalType": "string",
          "name": "comment",
          "type": "string"
        },
        {
          "internalType": "uint256",
          "name": "timestamp",
          "type": "uint256"
        }
      ],
      "stateMutability": "view",
      "type": "function",
      "constant": true
    },
    {
      "inputs": [],
      "name": "plantCount",
      "outputs": [
        {
          "internalType": "uint256",
          "name": "",
          "type": "uint256"
        }
      ],
      "stateMutability": "view",
      "type": "function",
      "constant": true
    },
    {
      "inputs": [
        {
          "internalType": "uint256",
          "name": "",
          "type": "uint256"
        },
        {
          "internalType": "address",
          "name": "",
          "type": "address"
        }
      ],
      "name": "plantLikes",
      "outputs": [
        {
          "internalType": "bool",
          "name": "",
          "type": "bool"
        }
      ],
      "stateMutability": "view",
      "type": "function",
      "constant": true
    },
    {
      "inputs": [
        {
          "internalType": "uint256",
          "name": "",
          "type": "uint256"
        },
        {
          "internalType": "uint256",
          "name": "",
          "type": "uint256"
        }
      ],
      "name": "plantRatingUsers",
      "outputs": [
        {
          "internalType": "address",
          "name": "",
          "type": "address"
        }
      ],
      "stateMutability": "view",
      "type": "function",
      "constant": true
    },
    {
      "inputs": [
        {
          "internalType": "uint256",
          "name": "",
          "type": "uint256"
        },
        {
          "internalType": "address",
          "name": "",
          "type": "address"
        }
      ],
      "name": "plantRatings",
      "outputs": [
        {
          "internalType": "uint256",
          "name": "",
          "type": "uint256"
        }
      ],
      "stateMutability": "view",
      "type": "function",
      "constant": true
    },
    {
      "inputs": [
        {
          "internalType": "uint256",
          "name": "",
          "type": "uint256"
        }
      ],
      "name": "plantRecords",
      "outputs": [
        {
          "internalType": "string",
          "name": "ganacheTxHash",
          "type": "string"
        },
        {
          "internalType": "uint256",
          "name": "plantId",
          "type": "uint256"
        },
        {
          "internalType": "address",
          "name": "userAddress",
          "type": "address"
        },
        {
          "internalType": "uint256",
          "name": "timestamp",
          "type": "uint256"
        }
      ],
      "stateMutability": "view",
      "type": "function",
      "constant": true
    },
    {
      "inputs": [
        {
          "internalType": "uint256",
          "name": "",
          "type": "uint256"
        }
      ],
      "name": "plants",
      "outputs": [
        {
          "internalType": "string",
          "name": "name",
          "type": "string"
        },
        {
          "internalType": "string",
          "name": "namaLatin",
          "type": "string"
        },
        {
          "internalType": "string",
          "name": "komposisi",
          "type": "string"
        },
        {
          "internalType": "string",
          "name": "kegunaan",
          "type": "string"
        },
        {
          "internalType": "string",
          "name": "dosis",
          "type": "string"
        },
        {
          "internalType": "string",
          "name": "caraPengolahan",
          "type": "string"
        },
        {
          "internalType": "string",
          "name": "efekSamping",
          "type": "string"
        },
        {
          "internalType": "string",
          "name": "ipfsHash",
          "type": "string"
        },
        {
          "internalType": "uint256",
          "name": "ratingTotal",
          "type": "uint256"
        },
        {
          "internalType": "uint256",
          "name": "ratingCount",
          "type": "uint256"
        },
        {
          "internalType": "uint256",
          "name": "likeCount",
          "type": "uint256"
        },
        {
          "internalType": "address",
          "name": "owner",
          "type": "address"
        }
      ],
      "stateMutability": "view",
      "type": "function",
      "constant": true
    },
    {
      "inputs": [],
      "name": "recordCount",
      "outputs": [
        {
          "internalType": "uint256",
          "name": "",
          "type": "uint256"
        }
      ],
      "stateMutability": "view",
      "type": "function",
      "constant": true
    },
    {
      "inputs": [
        {
          "internalType": "string",
          "name": "fullName",
          "type": "string"
        },
        {
          "internalType": "string",
          "name": "hashPass",
          "type": "string"
        }
      ],
      "name": "registerUser",
      "outputs": [],
      "stateMutability": "nonpayable",
      "type": "function"
    },
    {
      "inputs": [],
      "name": "login",
      "outputs": [],
      "stateMutability": "nonpayable",
      "type": "function"
    },
    {
      "inputs": [
        {
          "internalType": "address",
          "name": "userAddress",
          "type": "address"
        }
      ],
      "name": "getUserInfo",
      "outputs": [
        {
          "internalType": "string",
          "name": "fullName",
          "type": "string"
        },
        {
          "internalType": "string",
          "name": "hashPass",
          "type": "string"
        },
        {
          "internalType": "bool",
          "name": "isRegistered",
          "type": "bool"
        },
        {
          "internalType": "bool",
          "name": "isLoggedIn",
          "type": "bool"
        }
      ],
      "stateMutability": "view",
      "type": "function",
      "constant": true
    },
    {
      "inputs": [],
      "name": "logout",
      "outputs": [],
      "stateMutability": "nonpayable",
      "type": "function"
    },
    {
      "inputs": [
        {
          "internalType": "string",
          "name": "name",
          "type": "string"
        },
        {
          "internalType": "string",
          "name": "namaLatin",
          "type": "string"
        },
        {
          "internalType": "string",
          "name": "komposisi",
          "type": "string"
        },
        {
          "internalType": "string",
          "name": "kegunaan",
          "type": "string"
        },
        {
          "internalType": "string",
          "name": "dosis",
          "type": "string"
        },
        {
          "internalType": "string",
          "name": "caraPengolahan",
          "type": "string"
        },
        {
          "internalType": "string",
          "name": "efekSamping",
          "type": "string"
        },
        {
          "internalType": "string",
          "name": "ipfsHash",
          "type": "string"
        }
      ],
      "name": "addPlant",
      "outputs": [],
      "stateMutability": "nonpayable",
      "type": "function"
    },
    {
      "inputs": [
        {
          "internalType": "uint256",
          "name": "plantId",
          "type": "uint256"
        },
        {
          "internalType": "string",
          "name": "name",
          "type": "string"
        },
        {
          "internalType": "string",
          "name": "namaLatin",
          "type": "string"
        },
        {
          "internalType": "string",
          "name": "komposisi",
          "type": "string"
        },
        {
          "internalType": "string",
          "name": "kegunaan",
          "type": "string"
        },
        {
          "internalType": "string",
          "name": "dosis",
          "type": "string"
        },
        {
          "internalType": "string",
          "name": "caraPengolahan",
          "type": "string"
        },
        {
          "internalType": "string",
          "name": "efekSamping",
          "type": "string"
        },
        {
          "internalType": "string",
          "name": "ipfsHash",
          "type": "string"
        }
      ],
      "name": "editPlant",
      "outputs": [],
      "stateMutability": "nonpayable",
      "type": "function"
    },
    {
      "inputs": [
        {
          "internalType": "uint256",
          "name": "plantId",
          "type": "uint256"
        },
        {
          "internalType": "uint256",
          "name": "rating",
          "type": "uint256"
        }
      ],
      "name": "ratePlant",
      "outputs": [],
      "stateMutability": "nonpayable",
      "type": "function"
    },
    {
      "inputs": [
        {
          "internalType": "uint256",
          "name": "plantId",
          "type": "uint256"
        }
      ],
      "name": "getAverageRating",
      "outputs": [
        {
          "internalType": "uint256",
          "name": "",
          "type": "uint256"
        }
      ],
      "stateMutability": "view",
      "type": "function",
      "constant": true
    },
    {
      "inputs": [
        {
          "internalType": "uint256",
          "name": "plantId",
          "type": "uint256"
        }
      ],
      "name": "getPlantRatings",
      "outputs": [
        {
          "internalType": "uint256[]",
          "name": "",
          "type": "uint256[]"
        }
      ],
      "stateMutability": "view",
      "type": "function",
      "constant": true
    },
    {
      "inputs": [
        {
          "internalType": "uint256",
          "name": "plantId",
          "type": "uint256"
        }
      ],
      "name": "likePlant",
      "outputs": [],
      "stateMutability": "nonpayable",
      "type": "function"
    },
    {
      "inputs": [
        {
          "internalType": "uint256",
          "name": "plantId",
          "type": "uint256"
        },
        {
          "internalType": "address",
          "name": "user",
          "type": "address"
        }
      ],
      "name": "isPlantLikedByUser",
      "outputs": [
        {
          "internalType": "bool",
          "name": "",
          "type": "bool"
        }
      ],
      "stateMutability": "view",
      "type": "function",
      "constant": true
    },
    {
      "inputs": [
        {
          "internalType": "uint256",
          "name": "plantId",
          "type": "uint256"
        },
        {
          "internalType": "string",
          "name": "comment",
          "type": "string"
        }
      ],
      "name": "commentPlant",
      "outputs": [],
      "stateMutability": "nonpayable",
      "type": "function"
    },
    {
      "inputs": [
        {
          "internalType": "uint256",
          "name": "plantId",
          "type": "uint256"
        }
      ],
      "name": "getPlant",
      "outputs": [
        {
          "internalType": "string",
          "name": "name",
          "type": "string"
        },
        {
          "internalType": "string",
          "name": "namaLatin",
          "type": "string"
        },
        {
          "internalType": "string",
          "name": "komposisi",
          "type": "string"
        },
        {
          "internalType": "string",
          "name": "kegunaan",
          "type": "string"
        },
        {
          "internalType": "string",
          "name": "dosis",
          "type": "string"
        },
        {
          "internalType": "string",
          "name": "caraPengolahan",
          "type": "string"
        },
        {
          "internalType": "string",
          "name": "efekSamping",
          "type": "string"
        },
        {
          "internalType": "string",
          "name": "ipfsHash",
          "type": "string"
        },
        {
          "internalType": "uint256",
          "name": "ratingTotal",
          "type": "uint256"
        },
        {
          "internalType": "uint256",
          "name": "ratingCount",
          "type": "uint256"
        },
        {
          "internalType": "uint256",
          "name": "likeCount",
          "type": "uint256"
        },
        {
          "internalType": "address",
          "name": "owner",
          "type": "address"
        }
      ],
      "stateMutability": "view",
      "type": "function",
      "constant": true
    },
    {
      "inputs": [
        {
          "internalType": "string",
          "name": "name",
          "type": "string"
        },
        {
          "internalType": "string",
          "name": "namaLatin",
          "type": "string"
        },
        {
          "internalType": "string",
          "name": "komposisi",
          "type": "string"
        },
        {
          "internalType": "string",
          "name": "kegunaan",
          "type": "string"
        }
      ],
      "name": "searchPlants",
      "outputs": [
        {
          "internalType": "uint256[]",
          "name": "",
          "type": "uint256[]"
        },
        {
          "components": [
            {
              "internalType": "string",
              "name": "name",
              "type": "string"
            },
            {
              "internalType": "string",
              "name": "namaLatin",
              "type": "string"
            },
            {
              "internalType": "string",
              "name": "komposisi",
              "type": "string"
            },
            {
              "internalType": "string",
              "name": "kegunaan",
              "type": "string"
            },
            {
              "internalType": "string",
              "name": "dosis",
              "type": "string"
            },
            {
              "internalType": "string",
              "name": "caraPengolahan",
              "type": "string"
            },
            {
              "internalType": "string",
              "name": "efekSamping",
              "type": "string"
            },
            {
              "internalType": "string",
              "name": "ipfsHash",
              "type": "string"
            },
            {
              "internalType": "uint256",
              "name": "ratingTotal",
              "type": "uint256"
            },
            {
              "internalType": "uint256",
              "name": "ratingCount",
              "type": "uint256"
            },
            {
              "internalType": "uint256",
              "name": "likeCount",
              "type": "uint256"
            },
            {
              "internalType": "address",
              "name": "owner",
              "type": "address"
            }
          ],
          "internalType": "struct HerbalPlant.Plant[]",
          "name": "",
          "type": "tuple[]"
        }
      ],
      "stateMutability": "view",
      "type": "function",
      "constant": true
    },
    {
      "inputs": [
        {
          "internalType": "uint256",
          "name": "plantId",
          "type": "uint256"
        }
      ],
      "name": "getPlantComments",
      "outputs": [
        {
          "components": [
            {
              "internalType": "address",
              "name": "user",
              "type": "address"
            },
            {
              "internalType": "string",
              "name": "comment",
              "type": "string"
            },
            {
              "internalType": "uint256",
              "name": "timestamp",
              "type": "uint256"
            }
          ],
          "internalType": "struct HerbalPlant.Comment[]",
          "name": "",
          "type": "tuple[]"
        }
      ],
      "stateMutability": "view",
      "type": "function",
      "constant": true
    },
    {
      "inputs": [
        {
          "internalType": "string",
          "name": "ganacheTxHash",
          "type": "string"
        },
        {
          "internalType": "uint256",
          "name": "plantId",
          "type": "uint256"
        },
        {
          "internalType": "address",
          "name": "userAddress",
          "type": "address"
        }
      ],
      "name": "addPlantRecord",
      "outputs": [],
      "stateMutability": "nonpayable",
      "type": "function"
    },
    {
      "inputs": [
        {
          "internalType": "uint256",
          "name": "recordId",
          "type": "uint256"
        }
      ],
      "name": "getPlantRecord",
      "outputs": [
        {
          "internalType": "string",
          "name": "ganacheTxHash",
          "type": "string"
        },
        {
          "internalType": "uint256",
          "name": "plantId",
          "type": "uint256"
        },
        {
          "internalType": "address",
          "name": "userAddress",
          "type": "address"
        },
        {
          "internalType": "uint256",
          "name": "timestamp",
          "type": "uint256"
        }
      ],
      "stateMutability": "view",
      "type": "function",
      "constant": true
    }
  ],
  "bytecode": "0x608060405234801561001057600080fd5b50615b0280620000216000396000f3fe608060405234801561001057600080fd5b50600436106101735760003560e01c80637eede255116100de578063a7d0459911610097578063d5469da611610071578063d5469da614610495578063e2ec5fdf146104c7578063ed0b1f5f146104e3578063efbf07d61461051e57610173565b8063a7d045991461043d578063b34e97e81461046d578063b85f7d571461047757610173565b80637eede255146103605780638c03134f1461037c5780638dd2361c146103985780638e788d0d146103d3578063900407bc1461040357806394b363121461042157610173565b806333b3900e1161013057806333b3900e1461024a578063381c9b191461027d578063412cc71f146102995780636386c1c7146102ca57806379c41d6e146102fd5780637dddc3921461033057610173565b806307f9603e1461017857806311fb6c89146101a857806317b7e03e146101d85780631956e2e2146102085780631d2e4afd146102245780631f3c99c314610240575b600080fd5b610192600480360381019061018d9190614760565b61054e565b60405161019f91906151ac565b60405180910390f35b6101c260048036038101906101bd919061499f565b61072d565b6040516101cf9190615131565b60405180910390f35b6101f260048036038101906101ed9190614760565b61077b565b6040516101ff9190615573565b60405180910390f35b610222600480360381019061021d9190614760565b6107fb565b005b61023e60048036038101906102399190614458565b610bc4565b005b610248610e74565b005b610264600480360381019061025f9190614760565b610fa3565b6040516102749493929190615387565b60405180910390f35b61029760048036038101906102929190614587565b61107b565b005b6102b360048036038101906102ae91906144c4565b611413565b6040516102c19291906151ce565b60405180910390f35b6102e460048036038101906102df919061442f565b611fd9565b6040516102f49493929190615242565b60405180910390f35b61031760048036038101906103129190614760565b6121ab565b6040516103279493929190615387565b60405180910390f35b61034a60048036038101906103459190614789565b6122f3565b6040516103579190615573565b60405180910390f35b61037a6004803603810190610375919061499f565b612318565b005b61039660048036038101906103919190614819565b612748565b005b6103b260048036038101906103ad9190614760565b612a9f565b6040516103ca9c9b9a99989796959493929190615295565b60405180910390f35b6103ed60048036038101906103e89190614760565b612f5f565b6040516103fa919061518a565b60405180910390f35b61040b6130c3565b6040516104189190615573565b60405180910390f35b61043b600480360381019061043691906146f9565b6130c9565b005b61045760048036038101906104529190614789565b6131ed565b6040516104649190615205565b60405180910390f35b610475613255565b005b61047f613413565b60405161048c9190615573565b60405180910390f35b6104af60048036038101906104aa919061499f565b613419565b6040516104be9392919061514c565b60405180910390f35b6104e160048036038101906104dc91906147c5565b613508565b005b6104fd60048036038101906104f89190614760565b6137ed565b6040516105159c9b9a99989796959493929190615295565b60405180910390f35b61053860048036038101906105339190614789565b613d96565b6040516105459190615205565b60405180910390f35b6060600080600084815260200190815260200160002060090154905060008167ffffffffffffffff8111156105ac577f4e487b7100000000000000000000000000000000000000000000000000000000600052604160045260246000fd5b6040519080825280602002602001820160405280156105da5781602001602082028036833780820191505090505b50905060005b600360008681526020019081526020016000208054905081101561072257600060036000878152602001908152602001600020828154811061064b577f4e487b7100000000000000000000000000000000000000000000000000000000600052603260045260246000fd5b9060005260206000200160009054906101000a900473ffffffffffffffffffffffffffffffffffffffff1690506004600087815260200190815260200160002060008273ffffffffffffffffffffffffffffffffffffffff1673ffffffffffffffffffffffffffffffffffffffff16815260200190815260200160002054838381518110610702577f4e487b7100000000000000000000000000000000000000000000000000000000600052603260045260246000fd5b60200260200101818152505050808061071a90615988565b9150506105e0565b508092505050919050565b6003602052816000526040600020818154811061074957600080fd5b906000526020600020016000915091509054906101000a900473ffffffffffffffffffffffffffffffffffffffff1681565b600080600080848152602001908152602001600020905060008160090154116107d9576040517f08c379a00000000000000000000000000000000000000000000000000000000081526004016107d090615473565b60405180910390fd5b6000816009015482600801546107ef9190615830565b90508092505050919050565b600160003373ffffffffffffffffffffffffffffffffffffffff1673ffffffffffffffffffffffffffffffffffffffff16815260200190815260200160002060020160009054906101000a900460ff1661088a576040517f08c379a0000000000000000000000000000000000000000000000000000000008152600401610881906154d3565b60405180910390fd5b600160003373ffffffffffffffffffffffffffffffffffffffff1673ffffffffffffffffffffffffffffffffffffffff16815260200190815260200160002060020160019054906101000a900460ff16610919576040517f08c379a000000000000000000000000000000000000000000000000000000000815260040161091090615513565b60405180910390fd5b600073ffffffffffffffffffffffffffffffffffffffff16600080838152602001908152602001600020600b0160009054906101000a900473ffffffffffffffffffffffffffffffffffffffff1673ffffffffffffffffffffffffffffffffffffffff1614156109be576040517f08c379a00000000000000000000000000000000000000000000000000000000081526004016109b590615493565b60405180910390fd5b6005600082815260200190815260200160002060003373ffffffffffffffffffffffffffffffffffffffff1673ffffffffffffffffffffffffffffffffffffffff16815260200190815260200160002060009054906101000a900460ff1615610af35760006005600083815260200190815260200160002060003373ffffffffffffffffffffffffffffffffffffffff1673ffffffffffffffffffffffffffffffffffffffff16815260200190815260200160002060006101000a81548160ff021916908315150217905550600080828152602001908152602001600020600a016000815480929190610ab09061592c565b91905055507f16cbc6f742dcf78c5d0f58c5388cd298787bc75f6cad1423a17c3abe3723c5b88133604051610ae692919061558e565b60405180910390a1610bc1565b60016005600083815260200190815260200160002060003373ffffffffffffffffffffffffffffffffffffffff1673ffffffffffffffffffffffffffffffffffffffff16815260200190815260200160002060006101000a81548160ff021916908315150217905550600080828152602001908152602001600020600a016000815480929190610b8290615988565b91905055507f16cbc6f742dcf78c5d0f58c5388cd298787bc75f6cad1423a17c3abe3723c5b88133604051610bb892919061558e565b60405180910390a15b50565b6000825111610c08576040517f08c379a0000000000000000000000000000000000000000000000000000000008152600401610bff906153d3565b60405180910390fd5b6000815111610c4c576040517f08c379a0000000000000000000000000000000000000000000000000000000008152600401610c43906153f3565b60405180910390fd5b600160003373ffffffffffffffffffffffffffffffffffffffff1673ffffffffffffffffffffffffffffffffffffffff16815260200190815260200160002060020160009054906101000a900460ff1615610cdc576040517f08c379a0000000000000000000000000000000000000000000000000000000008152600401610cd390615413565b60405180910390fd5b604051806080016040528083815260200182815260200160011515815260200160001515815250600160003373ffffffffffffffffffffffffffffffffffffffff1673ffffffffffffffffffffffffffffffffffffffff1681526020019081526020016000206000820151816000019080519060200190610d5e929190614283565b506020820151816001019080519060200190610d7b929190614283565b5060408201518160020160006101000a81548160ff02191690831515021790555060608201518160020160016101000a81548160ff0219169083151502179055509050506009339080600181540180825580915050600190039060005260206000200160009091909190916101000a81548173ffffffffffffffffffffffffffffffffffffffff021916908373ffffffffffffffffffffffffffffffffffffffff1602179055503373ffffffffffffffffffffffffffffffffffffffff167f48cac28ad4dc618e15f4c2dd5e97751182f166de97b25618318b2112aa951a2f83604051610e689190615220565b60405180910390a25050565b600160003373ffffffffffffffffffffffffffffffffffffffff1673ffffffffffffffffffffffffffffffffffffffff16815260200190815260200160002060020160019054906101000a900460ff16610f03576040517f08c379a0000000000000000000000000000000000000000000000000000000008152600401610efa906154b3565b60405180910390fd5b6000600160003373ffffffffffffffffffffffffffffffffffffffff1673ffffffffffffffffffffffffffffffffffffffff16815260200190815260200160002060020160016101000a81548160ff0219169083151502179055503373ffffffffffffffffffffffffffffffffffffffff167fc6ef449222bae3754898fc5fa944d52dfc53c0ee1fdd7d733fbb422ac5e2b8c860405160405180910390a2565b6006602052806000526040600020600091509050806000018054610fc690615956565b80601f0160208091040260200160405190810160405280929190818152602001828054610ff290615956565b801561103f5780601f106110145761010080835404028352916020019161103f565b820191906000526020600020905b81548152906001019060200180831161102257829003601f168201915b5050505050908060010154908060020160009054906101000a900473ffffffffffffffffffffffffffffffffffffffff16908060030154905084565b600160003373ffffffffffffffffffffffffffffffffffffffff1673ffffffffffffffffffffffffffffffffffffffff16815260200190815260200160002060020160009054906101000a900460ff1661110a576040517f08c379a0000000000000000000000000000000000000000000000000000000008152600401611101906154d3565b60405180910390fd5b600160003373ffffffffffffffffffffffffffffffffffffffff1673ffffffffffffffffffffffffffffffffffffffff16815260200190815260200160002060020160019054906101000a900460ff16611199576040517f08c379a000000000000000000000000000000000000000000000000000000000815260040161119090615513565b60405180910390fd5b60008851116111dd576040517f08c379a00000000000000000000000000000000000000000000000000000000081526004016111d490615533565b60405180910390fd5b600060085490506040518061018001604052808a81526020018981526020018881526020018781526020018681526020018581526020018481526020018381526020016000815260200160008152602001600081526020013373ffffffffffffffffffffffffffffffffffffffff16815250600080838152602001908152602001600020600082015181600001908051906020019061127d929190614283565b50602082015181600101908051906020019061129a929190614283565b5060408201518160020190805190602001906112b7929190614283565b5060608201518160030190805190602001906112d4929190614283565b5060808201518160040190805190602001906112f1929190614283565b5060a082015181600501908051906020019061130e929190614283565b5060c082015181600601908051906020019061132b929190614283565b5060e0820151816007019080519060200190611348929190614283565b506101008201518160080155610120820151816009015561014082015181600a015561016082015181600b0160006101000a81548173ffffffffffffffffffffffffffffffffffffffff021916908373ffffffffffffffffffffffffffffffffffffffff1602179055509050507f501d7870f277450aef6f6286e3405d1db2d4e338b74742dda780ae4605428ac3818a336040516113e89392919061562c565b60405180910390a16008600081548092919061140390615988565b9190505550505050505050505050565b60608060008060085467ffffffffffffffff81111561145b577f4e487b7100000000000000000000000000000000000000000000000000000000600052604160045260246000fd5b6040519080825280602002602001820160405280156114895781602001602082028036833780820191505090505b509050600060085467ffffffffffffffff8111156114d0577f4e487b7100000000000000000000000000000000000000000000000000000000600052604160045260246000fd5b60405190808252806020026020018201604052801561150957816020015b6114f6614309565b8152602001906001900390816114ee5790505b50905060005b600854811015611da957600080600083815260200190815260200160002090506000808c511180156115d357506115d282600001805461154e90615956565b80601f016020809104026020016040519081016040528092919081815260200182805461157a90615956565b80156115c75780601f1061159c576101008083540402835291602001916115c7565b820191906000526020600020905b8154815290600101906020018083116115aa57829003601f168201915b50505050508d613dc5565b5b156115dd57600190505b60008b51118015611680575061167f8260010180546115fb90615956565b80601f016020809104026020016040519081016040528092919081815260200182805461162790615956565b80156116745780601f1061164957610100808354040283529160200191611674565b820191906000526020600020905b81548152906001019060200180831161165757829003601f168201915b50505050508c613dc5565b5b1561168a57600190505b60008a5111801561172d575061172c8260020180546116a890615956565b80601f01602080910402602001604051908101604052809291908181526020018280546116d490615956565b80156117215780601f106116f657610100808354040283529160200191611721565b820191906000526020600020905b81548152906001019060200180831161170457829003601f168201915b50505050508b613dc5565b5b1561173757600190505b600089511180156117da57506117d982600301805461175590615956565b80601f016020809104026020016040519081016040528092919081815260200182805461178190615956565b80156117ce5780601f106117a3576101008083540402835291602001916117ce565b820191906000526020600020905b8154815290600101906020018083116117b157829003601f168201915b50505050508a613dc5565b5b156117e457600190505b8015611d945782858781518110611824577f4e487b7100000000000000000000000000000000000000000000000000000000600052603260045260246000fd5b602002602001018181525050816040518061018001604052908160008201805461184d90615956565b80601f016020809104026020016040519081016040528092919081815260200182805461187990615956565b80156118c65780601f1061189b576101008083540402835291602001916118c6565b820191906000526020600020905b8154815290600101906020018083116118a957829003601f168201915b505050505081526020016001820180546118df90615956565b80601f016020809104026020016040519081016040528092919081815260200182805461190b90615956565b80156119585780601f1061192d57610100808354040283529160200191611958565b820191906000526020600020905b81548152906001019060200180831161193b57829003601f168201915b5050505050815260200160028201805461197190615956565b80601f016020809104026020016040519081016040528092919081815260200182805461199d90615956565b80156119ea5780601f106119bf576101008083540402835291602001916119ea565b820191906000526020600020905b8154815290600101906020018083116119cd57829003601f168201915b50505050508152602001600382018054611a0390615956565b80601f0160208091040260200160405190810160405280929190818152602001828054611a2f90615956565b8015611a7c5780601f10611a5157610100808354040283529160200191611a7c565b820191906000526020600020905b815481529060010190602001808311611a5f57829003601f168201915b50505050508152602001600482018054611a9590615956565b80601f0160208091040260200160405190810160405280929190818152602001828054611ac190615956565b8015611b0e5780601f10611ae357610100808354040283529160200191611b0e565b820191906000526020600020905b815481529060010190602001808311611af157829003601f168201915b50505050508152602001600582018054611b2790615956565b80601f0160208091040260200160405190810160405280929190818152602001828054611b5390615956565b8015611ba05780601f10611b7557610100808354040283529160200191611ba0565b820191906000526020600020905b815481529060010190602001808311611b8357829003601f168201915b50505050508152602001600682018054611bb990615956565b80601f0160208091040260200160405190810160405280929190818152602001828054611be590615956565b8015611c325780601f10611c0757610100808354040283529160200191611c32565b820191906000526020600020905b815481529060010190602001808311611c1557829003601f168201915b50505050508152602001600782018054611c4b90615956565b80601f0160208091040260200160405190810160405280929190818152602001828054611c7790615956565b8015611cc45780601f10611c9957610100808354040283529160200191611cc4565b820191906000526020600020905b815481529060010190602001808311611ca757829003601f168201915b505050505081526020016008820154815260200160098201548152602001600a8201548152602001600b820160009054906101000a900473ffffffffffffffffffffffffffffffffffffffff1673ffffffffffffffffffffffffffffffffffffffff1673ffffffffffffffffffffffffffffffffffffffff1681525050848781518110611d7a577f4e487b7100000000000000000000000000000000000000000000000000000000600052603260045260246000fd5b60200260200101819052508580611d9090615988565b9650505b50508080611da190615988565b91505061150f565b5060008367ffffffffffffffff811115611dec577f4e487b7100000000000000000000000000000000000000000000000000000000600052604160045260246000fd5b604051908082528060200260200182016040528015611e1a5781602001602082028036833780820191505090505b50905060008467ffffffffffffffff811115611e5f577f4e487b7100000000000000000000000000000000000000000000000000000000600052604160045260246000fd5b604051908082528060200260200182016040528015611e9857816020015b611e85614309565b815260200190600190039081611e7d5790505b50905060005b85811015611fc457848181518110611edf577f4e487b7100000000000000000000000000000000000000000000000000000000600052603260045260246000fd5b6020026020010151838281518110611f20577f4e487b7100000000000000000000000000000000000000000000000000000000600052603260045260246000fd5b602002602001018181525050838181518110611f65577f4e487b7100000000000000000000000000000000000000000000000000000000600052603260045260246000fd5b6020026020010151828281518110611fa6577f4e487b7100000000000000000000000000000000000000000000000000000000600052603260045260246000fd5b60200260200101819052508080611fbc90615988565b915050611e9e565b50818196509650505050505094509492505050565b6060806000806000600160008773ffffffffffffffffffffffffffffffffffffffff1673ffffffffffffffffffffffffffffffffffffffff16815260200190815260200160002060405180608001604052908160008201805461203b90615956565b80601f016020809104026020016040519081016040528092919081815260200182805461206790615956565b80156120b45780601f10612089576101008083540402835291602001916120b4565b820191906000526020600020905b81548152906001019060200180831161209757829003601f168201915b505050505081526020016001820180546120cd90615956565b80601f01602080910402602001604051908101604052809291908181526020018280546120f990615956565b80156121465780601f1061211b57610100808354040283529160200191612146565b820191906000526020600020905b81548152906001019060200180831161212957829003601f168201915b505050505081526020016002820160009054906101000a900460ff161515151581526020016002820160019054906101000a900460ff161515151581525050905080600001518160200151826040015183606001519450945094509450509193509193565b6060600080600080600660008781526020019081526020016000206040518060800160405290816000820180546121e190615956565b80601f016020809104026020016040519081016040528092919081815260200182805461220d90615956565b801561225a5780601f1061222f5761010080835404028352916020019161225a565b820191906000526020600020905b81548152906001019060200180831161223d57829003601f168201915b50505050508152602001600182015481526020016002820160009054906101000a900473ffffffffffffffffffffffffffffffffffffffff1673ffffffffffffffffffffffffffffffffffffffff1673ffffffffffffffffffffffffffffffffffffffff168152602001600382015481525050905080600001518160200151826040015183606001519450945094509450509193509193565b6004602052816000526040600020602052806000526040600020600091509150505481565b600160003373ffffffffffffffffffffffffffffffffffffffff1673ffffffffffffffffffffffffffffffffffffffff16815260200190815260200160002060020160009054906101000a900460ff166123a7576040517f08c379a000000000000000000000000000000000000000000000000000000000815260040161239e906154d3565b60405180910390fd5b600160003373ffffffffffffffffffffffffffffffffffffffff1673ffffffffffffffffffffffffffffffffffffffff16815260200190815260200160002060020160019054906101000a900460ff16612436576040517f08c379a000000000000000000000000000000000000000000000000000000000815260040161242d90615513565b60405180910390fd5b600073ffffffffffffffffffffffffffffffffffffffff16600080848152602001908152602001600020600b0160009054906101000a900473ffffffffffffffffffffffffffffffffffffffff1673ffffffffffffffffffffffffffffffffffffffff1614156124db576040517f08c379a00000000000000000000000000000000000000000000000000000000081526004016124d290615493565b60405180910390fd5b600181101580156124ed575060058111155b61252c576040517f08c379a000000000000000000000000000000000000000000000000000000000815260040161252390615453565b60405180910390fd5b60006004600084815260200190815260200160002060003373ffffffffffffffffffffffffffffffffffffffff1673ffffffffffffffffffffffffffffffffffffffff168152602001908152602001600020549050600081141561265a578160008085815260200190815260200160002060080160008282546125af91906157a3565b9250508190555060008084815260200190815260200160002060090160008154809291906125dc90615988565b919050555060036000848152602001908152602001600020339080600181540180825580915050600190039060005260206000200160009091909190916101000a81548173ffffffffffffffffffffffffffffffffffffffff021916908373ffffffffffffffffffffffffffffffffffffffff1602179055506126b3565b80600080858152602001908152602001600020600801600082825461267f9190615861565b925050819055508160008085815260200190815260200160002060080160008282546126ab91906157a3565b925050819055505b816004600085815260200190815260200160002060003373ffffffffffffffffffffffffffffffffffffffff1673ffffffffffffffffffffffffffffffffffffffff168152602001908152602001600020819055507f5a90108db35c713ec6356a9abbb3f1f006f75e48a06998c0616e9dbe5dea641083338460405161273b939291906155f5565b60405180910390a1505050565b600160003373ffffffffffffffffffffffffffffffffffffffff1673ffffffffffffffffffffffffffffffffffffffff16815260200190815260200160002060020160009054906101000a900460ff166127d7576040517f08c379a00000000000000000000000000000000000000000000000000000000081526004016127ce906154d3565b60405180910390fd5b600160003373ffffffffffffffffffffffffffffffffffffffff1673ffffffffffffffffffffffffffffffffffffffff16815260200190815260200160002060020160019054906101000a900460ff16612866576040517f08c379a000000000000000000000000000000000000000000000000000000000815260040161285d90615513565b60405180910390fd5b3373ffffffffffffffffffffffffffffffffffffffff166000808b8152602001908152602001600020600b0160009054906101000a900473ffffffffffffffffffffffffffffffffffffffff1673ffffffffffffffffffffffffffffffffffffffff1614612909576040517f08c379a0000000000000000000000000000000000000000000000000000000008152600401612900906154f3565b60405180910390fd5b876000808b81526020019081526020016000206000019080519060200190612932929190614283565b50866000808b8152602001908152602001600020600101908051906020019061295c929190614283565b50856000808b81526020019081526020016000206002019080519060200190612986929190614283565b50846000808b815260200190815260200160002060030190805190602001906129b0929190614283565b50836000808b815260200190815260200160002060040190805190602001906129da929190614283565b50826000808b81526020019081526020016000206005019080519060200190612a04929190614283565b50816000808b81526020019081526020016000206006019080519060200190612a2e929190614283565b50806000808b81526020019081526020016000206007019080519060200190612a58929190614283565b507f501d7870f277450aef6f6286e3405d1db2d4e338b74742dda780ae4605428ac3898933604051612a8c9392919061562c565b60405180910390a1505050505050505050565b6000602052806000526040600020600091509050806000018054612ac290615956565b80601f0160208091040260200160405190810160405280929190818152602001828054612aee90615956565b8015612b3b5780601f10612b1057610100808354040283529160200191612b3b565b820191906000526020600020905b815481529060010190602001808311612b1e57829003601f168201915b505050505090806001018054612b5090615956565b80601f0160208091040260200160405190810160405280929190818152602001828054612b7c90615956565b8015612bc95780601f10612b9e57610100808354040283529160200191612bc9565b820191906000526020600020905b815481529060010190602001808311612bac57829003601f168201915b505050505090806002018054612bde90615956565b80601f0160208091040260200160405190810160405280929190818152602001828054612c0a90615956565b8015612c575780601f10612c2c57610100808354040283529160200191612c57565b820191906000526020600020905b815481529060010190602001808311612c3a57829003601f168201915b505050505090806003018054612c6c90615956565b80601f0160208091040260200160405190810160405280929190818152602001828054612c9890615956565b8015612ce55780601f10612cba57610100808354040283529160200191612ce5565b820191906000526020600020905b815481529060010190602001808311612cc857829003601f168201915b505050505090806004018054612cfa90615956565b80601f0160208091040260200160405190810160405280929190818152602001828054612d2690615956565b8015612d735780601f10612d4857610100808354040283529160200191612d73565b820191906000526020600020905b815481529060010190602001808311612d5657829003601f168201915b505050505090806005018054612d8890615956565b80601f0160208091040260200160405190810160405280929190818152602001828054612db490615956565b8015612e015780601f10612dd657610100808354040283529160200191612e01565b820191906000526020600020905b815481529060010190602001808311612de457829003601f168201915b505050505090806006018054612e1690615956565b80601f0160208091040260200160405190810160405280929190818152602001828054612e4290615956565b8015612e8f5780601f10612e6457610100808354040283529160200191612e8f565b820191906000526020600020905b815481529060010190602001808311612e7257829003601f168201915b505050505090806007018054612ea490615956565b80601f0160208091040260200160405190810160405280929190818152602001828054612ed090615956565b8015612f1d5780601f10612ef257610100808354040283529160200191612f1d565b820191906000526020600020905b815481529060010190602001808311612f0057829003601f168201915b50505050509080600801549080600901549080600a01549080600b0160009054906101000a900473ffffffffffffffffffffffffffffffffffffffff1690508c565b606060026000838152602001908152602001600020805480602002602001604051908101604052809291908181526020016000905b828210156130b857838290600052602060002090600302016040518060600160405290816000820160009054906101000a900473ffffffffffffffffffffffffffffffffffffffff1673ffffffffffffffffffffffffffffffffffffffff1673ffffffffffffffffffffffffffffffffffffffff16815260200160018201805461301d90615956565b80601f016020809104026020016040519081016040528092919081815260200182805461304990615956565b80156130965780601f1061306b57610100808354040283529160200191613096565b820191906000526020600020905b81548152906001019060200180831161307957829003601f168201915b5050505050815260200160028201548152505081526020019060010190612f94565b505050509050919050565b60075481565b60405180608001604052808481526020018381526020018273ffffffffffffffffffffffffffffffffffffffff168152602001428152506006600060075481526020019081526020016000206000820151816000019080519060200190613131929190614283565b506020820151816001015560408201518160020160006101000a81548173ffffffffffffffffffffffffffffffffffffffff021916908373ffffffffffffffffffffffffffffffffffffffff160217905550606082015181600301559050506007547f2c13e12a40e355f29eaf1f18a56dad1b65e7fa7891ffeb83c39e55704601b7e1848484426040516131c89493929190615387565b60405180910390a2600760008154809291906131e390615988565b9190505550505050565b60006005600084815260200190815260200160002060008373ffffffffffffffffffffffffffffffffffffffff1673ffffffffffffffffffffffffffffffffffffffff16815260200190815260200160002060009054906101000a900460ff16905092915050565b600160003373ffffffffffffffffffffffffffffffffffffffff1673ffffffffffffffffffffffffffffffffffffffff16815260200190815260200160002060020160009054906101000a900460ff166132e4576040517f08c379a00000000000000000000000000000000000000000000000000000000081526004016132db90615553565b60405180910390fd5b600160003373ffffffffffffffffffffffffffffffffffffffff1673ffffffffffffffffffffffffffffffffffffffff16815260200190815260200160002060020160019054906101000a900460ff1615613374576040517f08c379a000000000000000000000000000000000000000000000000000000000815260040161336b90615433565b60405180910390fd5b60018060003373ffffffffffffffffffffffffffffffffffffffff1673ffffffffffffffffffffffffffffffffffffffff16815260200190815260200160002060020160016101000a81548160ff0219169083151502179055503373ffffffffffffffffffffffffffffffffffffffff167f8d15fde878cff665868ed7579eb5081db6508d4249df61dcdd7699a5301d987460405160405180910390a2565b60085481565b6002602052816000526040600020818154811061343557600080fd5b9060005260206000209060030201600091509150508060000160009054906101000a900473ffffffffffffffffffffffffffffffffffffffff169080600101805461347f90615956565b80601f01602080910402602001604051908101604052809291908181526020018280546134ab90615956565b80156134f85780601f106134cd576101008083540402835291602001916134f8565b820191906000526020600020905b8154815290600101906020018083116134db57829003601f168201915b5050505050908060020154905083565b600160003373ffffffffffffffffffffffffffffffffffffffff1673ffffffffffffffffffffffffffffffffffffffff16815260200190815260200160002060020160009054906101000a900460ff16613597576040517f08c379a000000000000000000000000000000000000000000000000000000000815260040161358e906154d3565b60405180910390fd5b600160003373ffffffffffffffffffffffffffffffffffffffff1673ffffffffffffffffffffffffffffffffffffffff16815260200190815260200160002060020160019054906101000a900460ff16613626576040517f08c379a000000000000000000000000000000000000000000000000000000000815260040161361d90615513565b60405180910390fd5b600073ffffffffffffffffffffffffffffffffffffffff16600080848152602001908152602001600020600b0160009054906101000a900473ffffffffffffffffffffffffffffffffffffffff1673ffffffffffffffffffffffffffffffffffffffff1614156136cb576040517f08c379a00000000000000000000000000000000000000000000000000000000081526004016136c290615493565b60405180910390fd5b600060405180606001604052803373ffffffffffffffffffffffffffffffffffffffff1681526020018381526020014281525090506002600084815260200190815260200160002081908060018154018082558091505060019003906000526020600020906003020160009091909190915060008201518160000160006101000a81548173ffffffffffffffffffffffffffffffffffffffff021916908373ffffffffffffffffffffffffffffffffffffffff16021790555060208201518160010190805190602001906137a0929190614283565b506040820151816002015550507f279d5614862445216877d543708664e73d87439c98f65d81d5163ed98ad2d6038333846040516137e0939291906155b7565b60405180910390a1505050565b606080606080606080606080600080600080600073ffffffffffffffffffffffffffffffffffffffff166000808f8152602001908152602001600020600b0160009054906101000a900473ffffffffffffffffffffffffffffffffffffffff1673ffffffffffffffffffffffffffffffffffffffff1614156138a4576040517f08c379a000000000000000000000000000000000000000000000000000000000815260040161389b90615493565b60405180910390fd5b60008060008f815260200190815260200160002090508060000181600101826002018360030184600401856005018660060187600701886008015489600901548a600a01548b600b0160009054906101000a900473ffffffffffffffffffffffffffffffffffffffff168b805461391a90615956565b80601f016020809104026020016040519081016040528092919081815260200182805461394690615956565b80156139935780601f1061396857610100808354040283529160200191613993565b820191906000526020600020905b81548152906001019060200180831161397657829003601f168201915b50505050509b508a80546139a690615956565b80601f01602080910402602001604051908101604052809291908181526020018280546139d290615956565b8015613a1f5780601f106139f457610100808354040283529160200191613a1f565b820191906000526020600020905b815481529060010190602001808311613a0257829003601f168201915b50505050509a50898054613a3290615956565b80601f0160208091040260200160405190810160405280929190818152602001828054613a5e90615956565b8015613aab5780601f10613a8057610100808354040283529160200191613aab565b820191906000526020600020905b815481529060010190602001808311613a8e57829003601f168201915b50505050509950888054613abe90615956565b80601f0160208091040260200160405190810160405280929190818152602001828054613aea90615956565b8015613b375780601f10613b0c57610100808354040283529160200191613b37565b820191906000526020600020905b815481529060010190602001808311613b1a57829003601f168201915b50505050509850878054613b4a90615956565b80601f0160208091040260200160405190810160405280929190818152602001828054613b7690615956565b8015613bc35780601f10613b9857610100808354040283529160200191613bc3565b820191906000526020600020905b815481529060010190602001808311613ba657829003601f168201915b50505050509750868054613bd690615956565b80601f0160208091040260200160405190810160405280929190818152602001828054613c0290615956565b8015613c4f5780601f10613c2457610100808354040283529160200191613c4f565b820191906000526020600020905b815481529060010190602001808311613c3257829003601f168201915b50505050509650858054613c6290615956565b80601f0160208091040260200160405190810160405280929190818152602001828054613c8e90615956565b8015613cdb5780601f10613cb057610100808354040283529160200191613cdb565b820191906000526020600020905b815481529060010190602001808311613cbe57829003601f168201915b50505050509550848054613cee90615956565b80601f0160208091040260200160405190810160405280929190818152602001828054613d1a90615956565b8015613d675780601f10613d3c57610100808354040283529160200191613d67565b820191906000526020600020905b815481529060010190602001808311613d4a57829003601f168201915b505050505094509c509c509c509c509c509c509c509c509c509c509c509c505091939597999b5091939597999b565b60056020528160005260406000206020528060005260406000206000915091509054906101000a900460ff1681565b6000808390506000839050600081511415613de557600192505050613f7d565b815181511115613dfa57600092505050613f7d565b6000613e0586613f83565b90506000613e1286613f83565b90506000600182518451613e269190615861565b613e3091906157a3565b905060005b81811015613f725760006001905060005b8451811015613f4757848181518110613e88577f4e487b7100000000000000000000000000000000000000000000000000000000600052603260045260246000fd5b602001015160f81c60f81b7effffffffffffffffffffffffffffffffffffffffffffffffffffffffffffff1916868285613ec291906157a3565b81518110613ef9577f4e487b7100000000000000000000000000000000000000000000000000000000600052603260045260246000fd5b602001015160f81c60f81b7effffffffffffffffffffffffffffffffffffffffffffffffffffffffffffff191614613f345760009150613f47565b8080613f3f90615988565b915050613e46565b508015613f5e576001975050505050505050613f7d565b508080613f6a90615988565b915050613e35565b506000955050505050505b92915050565b606060008290506000815167ffffffffffffffff811115613fcd577f4e487b7100000000000000000000000000000000000000000000000000000000600052604160045260246000fd5b6040519080825280601f01601f191660200182016040528015613fff5781602001600182028036833780820191505090505b50905060005b825181101561427857604160f81b83828151811061404c577f4e487b7100000000000000000000000000000000000000000000000000000000600052603260045260246000fd5b602001015160f81c60f81b7effffffffffffffffffffffffffffffffffffffffffffffffffffffffffffff1916101580156140f05750605a60f81b8382815181106140c0577f4e487b7100000000000000000000000000000000000000000000000000000000600052603260045260246000fd5b602001015160f81c60f81b7effffffffffffffffffffffffffffffffffffffffffffffffffffffffffffff191611155b156141b8576020838281518110614130577f4e487b7100000000000000000000000000000000000000000000000000000000600052603260045260246000fd5b602001015160f81c60f81b60f81c61414891906157f9565b60f81b828281518110614184577f4e487b7100000000000000000000000000000000000000000000000000000000600052603260045260246000fd5b60200101907effffffffffffffffffffffffffffffffffffffffffffffffffffffffffffff1916908160001a905350614265565b8281815181106141f1577f4e487b7100000000000000000000000000000000000000000000000000000000600052603260045260246000fd5b602001015160f81c60f81b828281518110614235577f4e487b7100000000000000000000000000000000000000000000000000000000600052603260045260246000fd5b60200101907effffffffffffffffffffffffffffffffffffffffffffffffffffffffffffff1916908160001a9053505b808061427090615988565b915050614005565b508092505050919050565b82805461428f90615956565b90600052602060002090601f0160209004810192826142b157600085556142f8565b82601f106142ca57805160ff19168380011785556142f8565b828001600101855582156142f8579182015b828111156142f75782518255916020019190600101906142dc565b5b5090506143059190614380565b5090565b6040518061018001604052806060815260200160608152602001606081526020016060815260200160608152602001606081526020016060815260200160608152602001600081526020016000815260200160008152602001600073ffffffffffffffffffffffffffffffffffffffff1681525090565b5b80821115614399576000816000905550600101614381565b5090565b60006143b06143ab8461569b565b61566a565b9050828152602081018484840111156143c857600080fd5b6143d38482856158ea565b509392505050565b6000813590506143ea81615a9e565b92915050565b600082601f83011261440157600080fd5b813561441184826020860161439d565b91505092915050565b60008135905061442981615ab5565b92915050565b60006020828403121561444157600080fd5b600061444f848285016143db565b91505092915050565b6000806040838503121561446b57600080fd5b600083013567ffffffffffffffff81111561448557600080fd5b614491858286016143f0565b925050602083013567ffffffffffffffff8111156144ae57600080fd5b6144ba858286016143f0565b9150509250929050565b600080600080608085870312156144da57600080fd5b600085013567ffffffffffffffff8111156144f457600080fd5b614500878288016143f0565b945050602085013567ffffffffffffffff81111561451d57600080fd5b614529878288016143f0565b935050604085013567ffffffffffffffff81111561454657600080fd5b614552878288016143f0565b925050606085013567ffffffffffffffff81111561456f57600080fd5b61457b878288016143f0565b91505092959194509250565b600080600080600080600080610100898b0312156145a457600080fd5b600089013567ffffffffffffffff8111156145be57600080fd5b6145ca8b828c016143f0565b985050602089013567ffffffffffffffff8111156145e757600080fd5b6145f38b828c016143f0565b975050604089013567ffffffffffffffff81111561461057600080fd5b61461c8b828c016143f0565b965050606089013567ffffffffffffffff81111561463957600080fd5b6146458b828c016143f0565b955050608089013567ffffffffffffffff81111561466257600080fd5b61466e8b828c016143f0565b94505060a089013567ffffffffffffffff81111561468b57600080fd5b6146978b828c016143f0565b93505060c089013567ffffffffffffffff8111156146b457600080fd5b6146c08b828c016143f0565b92505060e089013567ffffffffffffffff8111156146dd57600080fd5b6146e98b828c016143f0565b9150509295985092959890939650565b60008060006060848603121561470e57600080fd5b600084013567ffffffffffffffff81111561472857600080fd5b614734868287016143f0565b93505060206147458682870161441a565b9250506040614756868287016143db565b9150509250925092565b60006020828403121561477257600080fd5b60006147808482850161441a565b91505092915050565b6000806040838503121561479c57600080fd5b60006147aa8582860161441a565b92505060206147bb858286016143db565b9150509250929050565b600080604083850312156147d857600080fd5b60006147e68582860161441a565b925050602083013567ffffffffffffffff81111561480357600080fd5b61480f858286016143f0565b9150509250929050565b60008060008060008060008060006101208a8c03121561483857600080fd5b60006148468c828d0161441a565b99505060208a013567ffffffffffffffff81111561486357600080fd5b61486f8c828d016143f0565b98505060408a013567ffffffffffffffff81111561488c57600080fd5b6148988c828d016143f0565b97505060608a013567ffffffffffffffff8111156148b557600080fd5b6148c18c828d016143f0565b96505060808a013567ffffffffffffffff8111156148de57600080fd5b6148ea8c828d016143f0565b95505060a08a013567ffffffffffffffff81111561490757600080fd5b6149138c828d016143f0565b94505060c08a013567ffffffffffffffff81111561493057600080fd5b61493c8c828d016143f0565b93505060e08a013567ffffffffffffffff81111561495957600080fd5b6149658c828d016143f0565b9250506101008a013567ffffffffffffffff81111561498357600080fd5b61498f8c828d016143f0565b9150509295985092959850929598565b600080604083850312156149b257600080fd5b60006149c08582860161441a565b92505060206149d18582860161441a565b9150509250929050565b60006149e78383614f8e565b905092915050565b60006149fb8383614fde565b905092915050565b6000614a0f8383615113565b60208301905092915050565b614a2481615895565b82525050565b614a3381615895565b82525050565b6000614a44826156fb565b614a4e818561574e565b935083602082028501614a60856156cb565b8060005b85811015614a9c5784840389528151614a7d85826149db565b9450614a8883615727565b925060208a01995050600181019050614a64565b50829750879550505050505092915050565b6000614ab982615706565b614ac3818561575f565b935083602082028501614ad5856156db565b8060005b85811015614b115784840389528151614af285826149ef565b9450614afd83615734565b925060208a01995050600181019050614ad9565b50829750879550505050505092915050565b6000614b2e82615711565b614b388185615770565b9350614b43836156eb565b8060005b83811015614b74578151614b5b8882614a03565b9750614b6683615741565b925050600181019050614b47565b5085935050505092915050565b614b8a816158a7565b82525050565b6000614b9b8261571c565b614ba58185615781565b9350614bb58185602086016158f9565b614bbe81615a8d565b840191505092915050565b6000614bd48261571c565b614bde8185615792565b9350614bee8185602086016158f9565b614bf781615a8d565b840191505092915050565b6000614c0f601783615792565b91507f4e616d6120746964616b20626f6c6568206b6f736f6e670000000000000000006000830152602082019050919050565b6000614c4f601983615792565b91507f50617373776f7264206861736820746964616b2076616c6964000000000000006000830152602082019050919050565b6000614c8f601483615792565b91507f416b756e207375646168207465726461667461720000000000000000000000006000830152602082019050919050565b6000614ccf600b83615792565b91507f5375646168206c6f67696e0000000000000000000000000000000000000000006000830152602082019050919050565b6000614d0f601e83615792565b91507f526174696e6720686172757320616e7461726120312068696e676761203500006000830152602082019050919050565b6000614d4f602283615792565b91507f546964616b2061646120726174696e6720756e74756b2074616e616d616e206960008301527f6e690000000000000000000000000000000000000000000000000000000000006020830152604082019050919050565b6000614db5601783615792565b91507f54616e616d616e20746964616b20646974656d756b616e0000000000000000006000830152602082019050919050565b6000614df5600b83615792565b91507f42656c756d206c6f67696e0000000000000000000000000000000000000000006000830152602082019050919050565b6000614e35601483615792565b91507f416e6461206861727573207465726461667461720000000000000000000000006000830152602082019050919050565b6000614e75602983615792565b91507f48616e79612070656d696c696b2074616e616d616e2079616e6720646170617460008301527f206d656e676564697400000000000000000000000000000000000000000000006020830152604082019050919050565b6000614edb601083615792565b91507f416e6461206861727573206c6f67696e000000000000000000000000000000006000830152602082019050919050565b6000614f1b601783615792565b91507f4e616d612074616e616d616e2064697065726c756b616e0000000000000000006000830152602082019050919050565b6000614f5b601883615792565b91507f50656e6767756e6120746964616b2074657264616674617200000000000000006000830152602082019050919050565b6000606083016000830151614fa66000860182614a1b565b5060208301518482036020860152614fbe8282614b90565b9150506040830151614fd36040860182615113565b508091505092915050565b6000610180830160008301518482036000860152614ffc8282614b90565b915050602083015184820360208601526150168282614b90565b915050604083015184820360408601526150308282614b90565b9150506060830151848203606086015261504a8282614b90565b915050608083015184820360808601526150648282614b90565b91505060a083015184820360a086015261507e8282614b90565b91505060c083015184820360c08601526150988282614b90565b91505060e083015184820360e08601526150b28282614b90565b9150506101008301516150c9610100860182615113565b506101208301516150de610120860182615113565b506101408301516150f3610140860182615113565b50610160830151615108610160860182614a1b565b508091505092915050565b61511c816158d3565b82525050565b61512b816158d3565b82525050565b60006020820190506151466000830184614a2a565b92915050565b60006060820190506151616000830186614a2a565b81810360208301526151738185614bc9565b90506151826040830184615122565b949350505050565b600060208201905081810360008301526151a48184614a39565b905092915050565b600060208201905081810360008301526151c68184614b23565b905092915050565b600060408201905081810360008301526151e88185614b23565b905081810360208301526151fc8184614aae565b90509392505050565b600060208201905061521a6000830184614b81565b92915050565b6000602082019050818103600083015261523a8184614bc9565b905092915050565b6000608082019050818103600083015261525c8187614bc9565b905081810360208301526152708186614bc9565b905061527f6040830185614b81565b61528c6060830184614b81565b95945050505050565b60006101808201905081810360008301526152b0818f614bc9565b905081810360208301526152c4818e614bc9565b905081810360408301526152d8818d614bc9565b905081810360608301526152ec818c614bc9565b90508181036080830152615300818b614bc9565b905081810360a0830152615314818a614bc9565b905081810360c08301526153288189614bc9565b905081810360e083015261533c8188614bc9565b905061534c610100830187615122565b61535a610120830186615122565b615368610140830185615122565b615376610160830184614a2a565b9d9c50505050505050505050505050565b600060808201905081810360008301526153a18187614bc9565b90506153b06020830186615122565b6153bd6040830185614a2a565b6153ca6060830184615122565b95945050505050565b600060208201905081810360008301526153ec81614c02565b9050919050565b6000602082019050818103600083015261540c81614c42565b9050919050565b6000602082019050818103600083015261542c81614c82565b9050919050565b6000602082019050818103600083015261544c81614cc2565b9050919050565b6000602082019050818103600083015261546c81614d02565b9050919050565b6000602082019050818103600083015261548c81614d42565b9050919050565b600060208201905081810360008301526154ac81614da8565b9050919050565b600060208201905081810360008301526154cc81614de8565b9050919050565b600060208201905081810360008301526154ec81614e28565b9050919050565b6000602082019050818103600083015261550c81614e68565b9050919050565b6000602082019050818103600083015261552c81614ece565b9050919050565b6000602082019050818103600083015261554c81614f0e565b9050919050565b6000602082019050818103600083015261556c81614f4e565b9050919050565b60006020820190506155886000830184615122565b92915050565b60006040820190506155a36000830185615122565b6155b06020830184614a2a565b9392505050565b60006060820190506155cc6000830186615122565b6155d96020830185614a2a565b81810360408301526155eb8184614bc9565b9050949350505050565b600060608201905061560a6000830186615122565b6156176020830185614a2a565b6156246040830184615122565b949350505050565b60006060820190506156416000830186615122565b81810360208301526156538185614bc9565b90506156626040830184614a2a565b949350505050565b6000604051905081810181811067ffffffffffffffff8211171561569157615690615a5e565b5b8060405250919050565b600067ffffffffffffffff8211156156b6576156b5615a5e565b5b601f19601f8301169050602081019050919050565b6000819050602082019050919050565b6000819050602082019050919050565b6000819050602082019050919050565b600081519050919050565b600081519050919050565b600081519050919050565b600081519050919050565b6000602082019050919050565b6000602082019050919050565b6000602082019050919050565b600082825260208201905092915050565b600082825260208201905092915050565b600082825260208201905092915050565b600082825260208201905092915050565b600082825260208201905092915050565b60006157ae826158d3565b91506157b9836158d3565b9250827fffffffffffffffffffffffffffffffffffffffffffffffffffffffffffffffff038211156157ee576157ed6159d1565b5b828201905092915050565b6000615804826158dd565b915061580f836158dd565b92508260ff03821115615825576158246159d1565b5b828201905092915050565b600061583b826158d3565b9150615846836158d3565b92508261585657615855615a00565b5b828204905092915050565b600061586c826158d3565b9150615877836158d3565b92508282101561588a576158896159d1565b5b828203905092915050565b60006158a0826158b3565b9050919050565b60008115159050919050565b600073ffffffffffffffffffffffffffffffffffffffff82169050919050565b6000819050919050565b600060ff82169050919050565b82818337600083830152505050565b60005b838110156159175780820151818401526020810190506158fc565b83811115615926576000848401525b50505050565b6000615937826158d3565b9150600082141561594b5761594a6159d1565b5b600182039050919050565b6000600282049050600182168061596e57607f821691505b6020821081141561598257615981615a2f565b5b50919050565b6000615993826158d3565b91507fffffffffffffffffffffffffffffffffffffffffffffffffffffffffffffffff8214156159c6576159c56159d1565b5b600182019050919050565b7f4e487b7100000000000000000000000000000000000000000000000000000000600052601160045260246000fd5b7f4e487b7100000000000000000000000000000000000000000000000000000000600052601260045260246000fd5b7f4e487b7100000000000000000000000000000000000000000000000000000000600052602260045260246000fd5b7f4e487b7100000000000000000000000000000000000000000000000000000000600052604160045260246000fd5b6000601f19601f8301169050919050565b615aa781615895565b8114615ab257600080fd5b50565b615abe816158d3565b8114615ac957600080fd5b5056fea2646970667358221220ec20279ed2bec11fb609bb39c6fe596d4a3a6aade8b7e636cb8239c466aaa33464736f6c63430008000033",
  "immutableReferences": {},
  "source": "// SPDX-License-Identifier: MIT\r\npragma solidity ^0.8.0;\r\n\r\ncontract HerbalPlant {\r\n    struct Plant {\r\n        string name;\r\n        string namaLatin;\r\n        string komposisi;\r\n        string kegunaan;\r\n        string dosis;\r\n        string caraPengolahan;\r\n        string efekSamping;\r\n        string ipfsHash;\r\n        uint ratingTotal;\r\n        uint ratingCount;\r\n        uint likeCount;\r\n        address owner;\r\n    }\r\n\r\n    struct User {\r\n        string fullName;\r\n        string hashPass;  // Store hashed password\r\n        bool isRegistered;\r\n        bool isLoggedIn;\r\n    }\r\n\r\n    struct Comment {\r\n        address user;\r\n        string comment;\r\n        uint timestamp;\r\n    }\r\n\r\n    struct PlantRecord {\r\n        string ganacheTxHash;    // Transaction hash dari Ganache\r\n        uint256 plantId;         // ID tanaman dari Ganache\r\n        address userAddress;     // Address user yang menambahkan\r\n        uint256 timestamp;       // Waktu penyimpanan\r\n    }\r\n\r\n    mapping(uint => Plant) public plants;\r\n    mapping(address => User) private usersByPublicKey;\r\n    mapping(uint => Comment[]) public plantComments;  // Mapping for plant comments\r\n    mapping(uint => address[]) public plantRatingUsers;\r\n    mapping(uint => mapping(address => uint)) public plantRatings;\r\n    mapping(uint => mapping(address => bool)) public plantLikes;\r\n\r\n    mapping(uint256 => PlantRecord) public plantRecords;\r\n    uint256 public recordCount;\r\n\r\n    uint public plantCount;\r\n    address[] private registeredUsers;\r\n\r\n    event PlantAdded(uint plantId, string name, address owner);\r\n    event PlantRated(uint plantId, address user, uint rating);\r\n    event PlantLiked(uint plantId, address user);\r\n    event UserRegistered(address indexed publicKey, string fullName);\r\n    event UserLoggedIn(address indexed publicKey);\r\n    event UserLoggedOut(address indexed publicKey);\r\n    event PlantCommented(uint plantId, address user, string comment);\r\n\r\n    event PlantRecordAdded(\r\n        uint256 indexed recordId,\r\n        string ganacheTxHash,\r\n        uint256 plantId,\r\n        address userAddress,\r\n        uint256 timestamp\r\n    );\r\n\r\n    modifier onlyActiveUser() {\r\n        require(usersByPublicKey[msg.sender].isRegistered, \"Anda harus terdaftar\");\r\n        require(usersByPublicKey[msg.sender].isLoggedIn, \"Anda harus login\");\r\n        _;\r\n    }\r\n\r\n    //  Mendaftarkan user dengan menyimpan password hash di Blockchain\r\n    function registerUser(\r\n        string memory fullName,\r\n        string memory hashPass\r\n    ) public {\r\n        require(bytes(fullName).length > 0, \"Nama tidak boleh kosong\");\r\n        require(bytes(hashPass).length > 0, \"Password hash tidak valid\");\r\n        require(!usersByPublicKey[msg.sender].isRegistered, \"Akun sudah terdaftar\");\r\n\r\n        usersByPublicKey[msg.sender] = User({\r\n            fullName: fullName,\r\n            hashPass: hashPass,\r\n            isRegistered: true,\r\n            isLoggedIn: false\r\n        });\r\n\r\n        registeredUsers.push(msg.sender);\r\n\r\n        emit UserRegistered(msg.sender, fullName);\r\n    }\r\n\r\n    //  Login menggunakan password hash\r\n    function login() public {\r\n        require(usersByPublicKey[msg.sender].isRegistered, \"Pengguna tidak terdaftar\");\r\n        require(!usersByPublicKey[msg.sender].isLoggedIn, \"Sudah login\");\r\n\r\n        usersByPublicKey[msg.sender].isLoggedIn = true;\r\n        emit UserLoggedIn(msg.sender);\r\n    }\r\n\r\n    //  Getter untuk mengambil data user berdasarkan address\r\n    function getUserInfo(address userAddress) public view returns (\r\n        string memory fullName,\r\n        string memory hashPass,\r\n        bool isRegistered,\r\n        bool isLoggedIn\r\n    ) {\r\n        User memory user = usersByPublicKey[userAddress];\r\n        return (\r\n            user.fullName,\r\n            user.hashPass,\r\n            user.isRegistered,\r\n            user.isLoggedIn\r\n        );\r\n    }\r\n\r\n    //  Logout user\r\n    function logout() public {\r\n        require(usersByPublicKey[msg.sender].isLoggedIn, \"Belum login\");\r\n        \r\n        usersByPublicKey[msg.sender].isLoggedIn = false;\r\n        emit UserLoggedOut(msg.sender);\r\n    }\r\n\r\n    //  Menambahkan tanaman herbal\r\n    function addPlant(\r\n        string memory name,\r\n        string memory namaLatin,\r\n        string memory komposisi,\r\n        string memory kegunaan,\r\n        string memory dosis,\r\n        string memory caraPengolahan,\r\n        string memory efekSamping,\r\n        string memory ipfsHash\r\n    ) public onlyActiveUser {\r\n        require(bytes(name).length > 0, \"Nama tanaman diperlukan\");\r\n\r\n        uint currentId = plantCount; // simpan ID sekarang sebelum increment\r\n\r\n        plants[currentId] = Plant({\r\n            name: name,\r\n            namaLatin: namaLatin,\r\n            komposisi: komposisi,\r\n            kegunaan: kegunaan,\r\n            dosis: dosis,\r\n            caraPengolahan: caraPengolahan,\r\n            efekSamping: efekSamping,\r\n            ipfsHash: ipfsHash,\r\n            ratingTotal: 0,\r\n            ratingCount: 0,\r\n            likeCount: 0,\r\n            owner: msg.sender\r\n        });\r\n\r\n        emit PlantAdded(currentId, name, msg.sender); // gunakan ID yang benar\r\n        plantCount++;\r\n    }\r\n\r\n    //  Mengedit tanaman herbal\r\n    function editPlant(\r\n        uint plantId,\r\n        string memory name,\r\n        string memory namaLatin,\r\n        string memory komposisi,\r\n        string memory kegunaan,\r\n        string memory dosis,\r\n        string memory caraPengolahan,\r\n        string memory efekSamping,\r\n        string memory ipfsHash\r\n    ) public onlyActiveUser {\r\n        // Pastikan yang mengedit adalah pemilik tanaman\r\n        require(plants[plantId].owner == msg.sender, \"Hanya pemilik tanaman yang dapat mengedit\");\r\n\r\n        // Memperbarui data tanaman\r\n        plants[plantId].name = name;\r\n        plants[plantId].namaLatin = namaLatin;\r\n        plants[plantId].komposisi = komposisi;\r\n        plants[plantId].kegunaan = kegunaan;\r\n        plants[plantId].dosis = dosis;\r\n        plants[plantId].caraPengolahan = caraPengolahan;\r\n        plants[plantId].efekSamping = efekSamping;\r\n        plants[plantId].ipfsHash = ipfsHash;\r\n\r\n        emit PlantAdded(plantId, name, msg.sender); // Emit event dengan ID tanaman yang sudah diubah\r\n    }\r\n\r\n    //  Memberi rating tanaman herbal (1-5)\r\n    function ratePlant(uint plantId, uint rating) public onlyActiveUser {\r\n    require(plants[plantId].owner != address(0), \"Tanaman tidak ditemukan\");\r\n    require(rating >= 1 && rating <= 5, \"Rating harus antara 1 hingga 5\");\r\n\r\n    uint previousRating = plantRatings[plantId][msg.sender];\r\n    \r\n    // Cek apakah ini rating pertama kali dari pengguna atau pembaruan rating\r\n    if (previousRating == 0) {\r\n        // --- rating PERTAMA KALI dari pengguna ---\r\n        plants[plantId].ratingTotal += rating;\r\n        plants[plantId].ratingCount++;\r\n        plantRatingUsers[plantId].push(msg.sender);\r\n    } else {\r\n        // --- Pengguna MEMPERBARUI ratingnya yang sudah ada ---\r\n        plants[plantId].ratingTotal -= previousRating;\r\n        plants[plantId].ratingTotal += rating;\r\n    }\r\n\r\n    // Selalu update rating individu pengguna\r\n    plantRatings[plantId][msg.sender] = rating;\r\n\r\n    emit PlantRated(plantId, msg.sender, rating);\r\n    }\r\n\r\n    //  Fungsi untuk mendapatkan rata-rata rating dari sebuah tanaman herbal\r\n    function getAverageRating(uint plantId) public view returns (uint) {\r\n        Plant storage plant = plants[plantId];\r\n        require(plant.ratingCount > 0, \"Tidak ada rating untuk tanaman ini\");\r\n        \r\n        uint averageRating = plant.ratingTotal / plant.ratingCount;\r\n        return averageRating;\r\n    }\r\n\r\n    //  Fungsi untuk mendapatkan semua rating dari tanaman\r\n    function getPlantRatings(uint plantId) public view returns (uint[] memory) {\r\n        uint ratingCount = plants[plantId].ratingCount;\r\n        uint[] memory ratings = new uint[](ratingCount);\r\n\r\n        for (uint i = 0; i < plantRatingUsers[plantId].length; i++) {\r\n            address user = plantRatingUsers[plantId][i];\r\n            ratings[i] = plantRatings[plantId][user];\r\n        }\r\n\r\n        return ratings;\r\n    }\r\n\r\n    //  Menyukai tanaman herbal\r\n    function likePlant(uint plantId) public onlyActiveUser {\r\n        require(plants[plantId].owner != address(0), \"Tanaman tidak ditemukan\");\r\n\r\n        // Jika pengguna sudah memberi like sebelumnya, hapus like tersebut\r\n        if (plantLikes[plantId][msg.sender]) {\r\n            plantLikes[plantId][msg.sender] = false;\r\n            plants[plantId].likeCount--;\r\n            emit PlantLiked(plantId, msg.sender); // Emit event jika perlu\r\n        } else {\r\n            // Jika belum memberi like, beri like\r\n            plantLikes[plantId][msg.sender] = true;\r\n            plants[plantId].likeCount++;\r\n            emit PlantLiked(plantId, msg.sender); // Emit event jika perlu\r\n        }\r\n    }\r\n\r\n    //  Mengecek apakah user sudah like tanaman tertentu\r\n    function isPlantLikedByUser(uint plantId, address user) public view returns (bool) {\r\n        return plantLikes[plantId][user];\r\n    }\r\n\r\n    //  Memberikan komentar/testimoni pada tanaman\r\n    function commentPlant(uint plantId, string memory comment) public onlyActiveUser {\r\n        require(plants[plantId].owner != address(0), \"Tanaman tidak ditemukan\");\r\n\r\n        Comment memory newComment = Comment({\r\n            user: msg.sender,\r\n            comment: comment,\r\n            timestamp: block.timestamp\r\n        });\r\n\r\n        plantComments[plantId].push(newComment);\r\n\r\n        emit PlantCommented(plantId, msg.sender, comment);\r\n    }\r\n\r\n    //  Mengambil detail tanaman herbal (Semua informasi dalam satu fungsi)\r\n    function getPlant(uint plantId) public view returns (\r\n        string memory name,\r\n        string memory namaLatin,\r\n        string memory komposisi,\r\n        string memory kegunaan,\r\n        string memory dosis,\r\n        string memory caraPengolahan,\r\n        string memory efekSamping,\r\n        string memory ipfsHash,\r\n        uint ratingTotal,\r\n        uint ratingCount,\r\n        uint likeCount,\r\n        address owner\r\n    ) {\r\n        require(plants[plantId].owner != address(0), \"Tanaman tidak ditemukan\");\r\n        Plant storage plant = plants[plantId];\r\n\r\n        return (\r\n            plant.name,\r\n            plant.namaLatin,\r\n            plant.komposisi,\r\n            plant.kegunaan,\r\n            plant.dosis,\r\n            plant.caraPengolahan,\r\n            plant.efekSamping,\r\n            plant.ipfsHash,\r\n            plant.ratingTotal,\r\n            plant.ratingCount,\r\n            plant.likeCount,\r\n            plant.owner\r\n        );\r\n    }\r\n\r\n    //  Fungsi untuk mencari tanaman berdasarkan nama, nama latin, komposisi, atau kegunaan\r\n    function searchPlants(\r\n    string memory name, \r\n    string memory namaLatin, \r\n    string memory komposisi, \r\n    string memory kegunaan\r\n    ) \r\n    public view\r\n    returns (uint[] memory, Plant[] memory) // Return 2 array: IDs dan data tanaman\r\n    {\r\n    uint plantIndex = 0;\r\n    uint[] memory idResults = new uint[](plantCount);\r\n    Plant[] memory plantResults = new Plant[](plantCount);\r\n\r\n    // Loop melalui semua tanaman yang tersimpan\r\n    for (uint i = 0; i < plantCount; i++) {\r\n        Plant storage currentPlant = plants[i];\r\n        bool isMatch = false;\r\n\r\n        // Jika ada salah satu yang cocok, maka isMatch = true\r\n        if (bytes(name).length > 0 && contains(currentPlant.name, name)) isMatch = true;\r\n        if (bytes(namaLatin).length > 0 && contains(currentPlant.namaLatin, namaLatin)) isMatch = true;\r\n        if (bytes(komposisi).length > 0 && contains(currentPlant.komposisi, komposisi)) isMatch = true;\r\n        if (bytes(kegunaan).length > 0 && contains(currentPlant.kegunaan, kegunaan)) isMatch = true;\r\n\r\n        // Jika memenuhi kriteria, tambahkan ke hasil\r\n        if (isMatch) {\r\n            idResults[plantIndex] = i; // Simpan ID tanaman (index)\r\n            plantResults[plantIndex] = currentPlant; // Simpan data lengkap\r\n            plantIndex++;\r\n        }\r\n    }\r\n\r\n    // Buat array hasil dengan ukuran yang tepat\r\n    uint[] memory finalIds = new uint[](plantIndex);\r\n    Plant[] memory finalPlants = new Plant[](plantIndex);\r\n\r\n    // Salin data dari array sementara ke array final\r\n    for (uint i = 0; i < plantIndex; i++) {\r\n        finalIds[i] = idResults[i];\r\n        finalPlants[i] = plantResults[i];\r\n    }\r\n\r\n    // Kembalikan sebagai tuple (2 array terpisah)\r\n    return (finalIds, finalPlants);\r\n    }\r\n\r\n    //  Fungsi untuk mengecek apakah sebuah string mengandung substring tertentu (case-insensitive)\r\n    function contains(string memory haystack, string memory needle) internal pure returns (bool) {\r\n        bytes memory haystackBytes = bytes(haystack);\r\n        bytes memory needleBytes = bytes(needle);\r\n        \r\n        // Handle kasus khusus: needle kosong selalu dianggap ada\r\n        if (needleBytes.length == 0) return true;\r\n        \r\n        // Handle kasus dimana needle lebih panjang dari haystack\r\n        if (needleBytes.length > haystackBytes.length) return false;\r\n\r\n        // Konversi ke lowercase sekali saja di awal\r\n        bytes memory haystackLower = bytes(toLowerCase(haystack));\r\n        bytes memory needleLower = bytes(toLowerCase(needle));\r\n\r\n        // Optimasi: Batasi jumlah iterasi yang diperlukan\r\n        uint maxIterations = haystackLower.length - needleLower.length + 1;\r\n        \r\n        for (uint i = 0; i < maxIterations; i++) {\r\n            bool isMatch = true;\r\n            \r\n            // Periksa karakter per karakter\r\n            for (uint j = 0; j < needleLower.length; j++) {\r\n                if (haystackLower[i + j] != needleLower[j]) {\r\n                    isMatch = false;\r\n                    break; // Berhenti jika ada ketidakcocokan\r\n                }\r\n            }\r\n            \r\n            if (isMatch) return true;\r\n        }\r\n        \r\n        return false;\r\n    }\r\n\r\n    //  Fungsi untuk konversi string ke lowercase\r\n    function toLowerCase(string memory str) internal pure returns (string memory) {\r\n        bytes memory strBytes = bytes(str);\r\n        bytes memory lowerBytes = new bytes(strBytes.length);\r\n        \r\n        for (uint i = 0; i < strBytes.length; i++) {\r\n            // Cek apakah karakter adalah A-Z (0x41-0x5A)\r\n            if (strBytes[i] >= 0x41 && strBytes[i] <= 0x5A) {\r\n                lowerBytes[i] = bytes1(uint8(strBytes[i]) + 32); // Konversi ke lowercase\r\n            } else {\r\n                lowerBytes[i] = strBytes[i]; // Pertahankan karakter lain\r\n            }\r\n        }\r\n        \r\n        return string(lowerBytes);\r\n    }\r\n\r\n    //  Mengambil komentar/testimoni tanaman herbal\r\n    function getPlantComments(uint plantId) public view returns (Comment[] memory) {\r\n        return plantComments[plantId];\r\n    }\r\n\r\n    //  Menyimpan transaction hash, plantId, userAddress, dan timestamp\r\n    function addPlantRecord(\r\n        string memory ganacheTxHash,\r\n        uint256 plantId,\r\n        address userAddress\r\n    ) public {\r\n        plantRecords[recordCount] = PlantRecord({\r\n            ganacheTxHash: ganacheTxHash,\r\n            plantId: plantId,\r\n            userAddress: userAddress,\r\n            timestamp: block.timestamp\r\n        });\r\n        \r\n        emit PlantRecordAdded(\r\n            recordCount,\r\n            ganacheTxHash,\r\n            plantId,\r\n            userAddress,\r\n            block.timestamp\r\n        );\r\n        \r\n        recordCount++;\r\n    }\r\n    \r\n    //  mengambil transaction hash, plantId, dan userAddress, dan timestamp\r\n    function getPlantRecord(uint256 recordId) public view returns (\r\n        string memory ganacheTxHash,\r\n        uint256 plantId,\r\n        address userAddress,\r\n        uint256 timestamp\r\n    ) {\r\n        PlantRecord memory record = plantRecords[recordId];\r\n        return (\r\n            record.ganacheTxHash,\r\n            record.plantId,\r\n            record.userAddress,\r\n            record.timestamp\r\n        );\r\n    }\r\n}",
  "sourcePath": "D:\\Kuliah\\TA\\Integrated_TA_Single_Network_Ganache\\Middleware-TA-2024-2025\\contracts\\HerbalPlant.sol",
  "compiler": {
    "name": "solc",
    "version": "0.8.0+commit.c7dfd78e.Emscripten.clang"
  },
  "schemaVersion": "3.4.16",
  "updatedAt": "2025-06-17T02:08:06.367Z",
  "networkType": "ethereum",
  "devdoc": {
    "kind": "dev",
    "methods": {},
    "version": 1
  },
  "userdoc": {
    "kind": "user",
    "methods": {},
    "version": 1
  }
}